{"abi":[{"type":"constructor","inputs":[{"name":"token0_","type":"address","internalType":"address"},{"name":"token1_","type":"address","internalType":"address"}],"stateMutability":"nonpayable"},{"type":"function","name":"claimRewards","inputs":[{"name":"","type":"address","internalType":"address"}],"outputs":[],"stateMutability":"pure"},{"type":"function","name":"collectToVault","inputs":[{"name":"","type":"address","internalType":"address"}],"outputs":[{"name":"amount0","type":"uint256","internalType":"uint256"},{"name":"amount1","type":"uint256","internalType":"uint256"}],"stateMutability":"pure"},{"type":"function","name":"currentTokenId","inputs":[{"name":"vault","type":"address","internalType":"address"}],"outputs":[{"name":"","type":"uint256","internalType":"uint256"}],"stateMutability":"view"},{"type":"function","name":"exitPositionToVault","inputs":[{"name":"vault","type":"address","internalType":"address"}],"outputs":[],"stateMutability":"nonpayable"},{"type":"function","name":"gauge","inputs":[],"outputs":[{"name":"","type":"address","internalType":"address"}],"stateMutability":"view"},{"type":"function","name":"nfpm","inputs":[],"outputs":[{"name":"","type":"address","internalType":"address"}],"stateMutability":"view"},{"type":"function","name":"openInitialPosition","inputs":[{"name":"vault","type":"address","internalType":"address"},{"name":"","type":"int24","internalType":"int24"},{"name":"","type":"int24","internalType":"int24"}],"outputs":[{"name":"tokenId","type":"uint256","internalType":"uint256"},{"name":"liquidity","type":"uint128","internalType":"uint128"}],"stateMutability":"nonpayable"},{"type":"function","name":"pool","inputs":[],"outputs":[{"name":"","type":"address","internalType":"address"}],"stateMutability":"view"},{"type":"function","name":"rebalanceWithCaps","inputs":[{"name":"vault","type":"address","internalType":"address"},{"name":"","type":"int24","internalType":"int24"},{"name":"","type":"int24","internalType":"int24"},{"name":"","type":"uint256","internalType":"uint256"},{"name":"","type":"uint256","internalType":"uint256"}],"outputs":[{"name":"newLiquidity","type":"uint128","internalType":"uint128"}],"stateMutability":"nonpayable"},{"type":"function","name":"slot0","inputs":[],"outputs":[{"name":"sqrtPriceX96","type":"uint160","internalType":"uint160"},{"name":"tick","type":"int24","internalType":"int24"}],"stateMutability":"pure"},{"type":"function","name":"stakePosition","inputs":[{"name":"","type":"address","internalType":"address"}],"outputs":[],"stateMutability":"pure"},{"type":"function","name":"tickSpacing","inputs":[],"outputs":[{"name":"","type":"int24","internalType":"int24"}],"stateMutability":"pure"},{"type":"function","name":"tokens","inputs":[],"outputs":[{"name":"token0","type":"address","internalType":"address"},{"name":"token1","type":"address","internalType":"address"}],"stateMutability":"view"},{"type":"function","name":"unstakePosition","inputs":[{"name":"","type":"address","internalType":"address"}],"outputs":[],"stateMutability":"pure"}],"bytecode":{"object":"0x60e03461012557601f61092638819003918201601f19168301916001600160401b0383118484101761012a57808492604094855283398101031261012557610052602061004b83610140565b9201610140565b6001600255906001600160a01b031680151580610113575b156100ce5760018060a01b0319600054161760005560018060a01b031660018060a01b03196001541617600155306080523060a052600060c0526040516107d1908161015582396080518161055d015260a05181610369015260c051816101dd0152f35b60405162461bcd60e51b815260206004820152601560248201527f4d6f636b416461707465723a20746f6b656e733d3000000000000000000000006044820152606490fd5b506001600160a01b038216151561006a565b600080fd5b634e487b7160e01b600052604160045260246000fd5b51906001600160a01b03821682036101255756fe608080604052600436101561001357600080fd5b60003560e01c908163109162ef146105815750806316f0115b146105125780633850c7bd146104cb5780636783ac171461038d5780637303e9131461031e578063762100e7146102d557806386ff5c4b146102705780639d63848a14610201578063a6f19c8414610192578063b0217240146100fd578063d0c93a7c146100be578063dcfc070b146100b9578063e4010503146100b95763ef5cfb8c146100b957600080fd5b610706565b346100f85760007ffffffffffffffffffffffffffffffffffffffffffffffffffffffffffffffffc3601126100f8576020604051603c8152f35b600080fd5b346100f85760207ffffffffffffffffffffffffffffffffffffffffffffffffffffffffffffffffc3601126100f85773ffffffffffffffffffffffffffffffffffffffff6101496106c3565b1680600052600360205260006040812055600052600460205260406000207fffffffffffffffffffffffffffffffff000000000000000000000000000000008154169055600080f35b346100f85760007ffffffffffffffffffffffffffffffffffffffffffffffffffffffffffffffffc3601126100f857602060405173ffffffffffffffffffffffffffffffffffffffff7f0000000000000000000000000000000000000000000000000000000000000000168152f35b346100f85760007ffffffffffffffffffffffffffffffffffffffffffffffffffffffffffffffffc3601126100f857604073ffffffffffffffffffffffffffffffffffffffff6000541673ffffffffffffffffffffffffffffffffffffffff6001541682519182526020820152f35b346100f85760207ffffffffffffffffffffffffffffffffffffffffffffffffffffffffffffffffc3601126100f85773ffffffffffffffffffffffffffffffffffffffff6102bc6106c3565b1660005260036020526020604060002054604051908152f35b346100f85760207ffffffffffffffffffffffffffffffffffffffffffffffffffffffffffffffffc3601126100f85761030c6106c3565b50604080516000815260006020820152f35b346100f85760007ffffffffffffffffffffffffffffffffffffffffffffffffffffffffffffffffc3601126100f857602060405173ffffffffffffffffffffffffffffffffffffffff7f0000000000000000000000000000000000000000000000000000000000000000168152f35b346100f85760a07ffffffffffffffffffffffffffffffffffffffffffffffffffffffffffffffffc3601126100f85773ffffffffffffffffffffffffffffffffffffffff6103d96106c3565b6103e16106e6565b506103ea6106f6565b50168060005260036020526040600020541561046d5760025461040c8161073f565b60025581600052600360205260406000205560005260046020526040600020671bc16d674ec800007fffffffffffffffffffffffffffffffff000000000000000000000000000000008254161790556020604051671bc16d674ec800008152f35b60646040517f08c379a000000000000000000000000000000000000000000000000000000000815260206004820152601860248201527f4d6f636b416461707465723a206e6f20706f736974696f6e00000000000000006044820152fd5b346100f85760007ffffffffffffffffffffffffffffffffffffffffffffffffffffffffffffffffc3601126100f85760408051670de0b6b3a7640000815260006020820152f35b346100f85760007ffffffffffffffffffffffffffffffffffffffffffffffffffffffffffffffffc3601126100f857602060405173ffffffffffffffffffffffffffffffffffffffff7f0000000000000000000000000000000000000000000000000000000000000000168152f35b346100f85760607ffffffffffffffffffffffffffffffffffffffffffffffffffffffffffffffffc3601126100f85773ffffffffffffffffffffffffffffffffffffffff6105cd6106c3565b6105d56106e6565b506105de6106f6565b50169081600052600360205260406000205461066757604082600254906106048261073f565b600255806000526003602052818360002055600052600460205281600020670de0b6b3a76400007fffffffffffffffffffffffffffffffff000000000000000000000000000000008254161790558151908152670de0b6b3a76400006020820152f35b807f08c379a0000000000000000000000000000000000000000000000000000000006064925260206004820152601b60248201527f4d6f636b416461707465723a20616c7265616479206f70656e656400000000006044820152fd5b6004359073ffffffffffffffffffffffffffffffffffffffff821682036100f857565b602435908160020b82036100f857565b604435908160020b82036100f857565b346100f85760207ffffffffffffffffffffffffffffffffffffffffffffffffffffffffffffffffc3601126100f85761073d6106c3565b005b7fffffffffffffffffffffffffffffffffffffffffffffffffffffffffffffffff811461076c5760010190565b7f4e487b7100000000000000000000000000000000000000000000000000000000600052601160045260246000fdfea2646970667358221220550c39e9505887a909d24bb082dbddd70e457ce6a42c38062fe88296c488738d64736f6c634300081e0033","linkReferences":{}},"methodIdentifiers":{"claimRewards(address)":"ef5cfb8c","collectToVault(address)":"762100e7","currentTokenId(address)":"86ff5c4b","exitPositionToVault(address)":"b0217240","gauge()":"a6f19c84","nfpm()":"7303e913","openInitialPosition(address,int24,int24)":"109162ef","pool()":"16f0115b","rebalanceWithCaps(address,int24,int24,uint256,uint256)":"6783ac17","slot0()":"3850c7bd","stakePosition(address)":"e4010503","tickSpacing()":"d0c93a7c","tokens()":"9d63848a","unstakePosition(address)":"dcfc070b"},"id":103}