{"abi":[{"type":"constructor","inputs":[{"name":"_pool","type":"address","internalType":"address"},{"name":"_nfpm","type":"address","internalType":"address"},{"name":"_masterChefV3","type":"address","internalType":"address"}],"stateMutability":"nonpayable"},{"type":"function","name":"claimRewards","inputs":[{"name":"vault","type":"address","internalType":"address"}],"outputs":[],"stateMutability":"nonpayable"},{"type":"function","name":"collectToVault","inputs":[{"name":"vault","type":"address","internalType":"address"}],"outputs":[{"name":"amount0","type":"uint256","internalType":"uint256"},{"name":"amount1","type":"uint256","internalType":"uint256"}],"stateMutability":"nonpayable"},{"type":"function","name":"currentRange","inputs":[{"name":"vault","type":"address","internalType":"address"}],"outputs":[{"name":"lower","type":"int24","internalType":"int24"},{"name":"upper","type":"int24","internalType":"int24"},{"name":"liquidity","type":"uint128","internalType":"uint128"}],"stateMutability":"view"},{"type":"function","name":"currentTokenId","inputs":[{"name":"vault","type":"address","internalType":"address"}],"outputs":[{"name":"","type":"uint256","internalType":"uint256"}],"stateMutability":"view"},{"type":"function","name":"exitPositionToVault","inputs":[{"name":"vault","type":"address","internalType":"address"}],"outputs":[],"stateMutability":"nonpayable"},{"type":"function","name":"gauge","inputs":[],"outputs":[{"name":"","type":"address","internalType":"address"}],"stateMutability":"view"},{"type":"function","name":"lastRebalance","inputs":[{"name":"","type":"address","internalType":"address"}],"outputs":[{"name":"","type":"uint256","internalType":"uint256"}],"stateMutability":"view"},{"type":"function","name":"maxTwapDeviationTicks","inputs":[],"outputs":[{"name":"","type":"int24","internalType":"int24"}],"stateMutability":"view"},{"type":"function","name":"maxWidth","inputs":[],"outputs":[{"name":"","type":"int24","internalType":"int24"}],"stateMutability":"view"},{"type":"function","name":"minCooldown","inputs":[],"outputs":[{"name":"","type":"uint256","internalType":"uint256"}],"stateMutability":"view"},{"type":"function","name":"minWidth","inputs":[],"outputs":[{"name":"","type":"int24","internalType":"int24"}],"stateMutability":"view"},{"type":"function","name":"nfpm","inputs":[],"outputs":[{"name":"","type":"address","internalType":"address"}],"stateMutability":"view"},{"type":"function","name":"onERC721Received","inputs":[{"name":"","type":"address","internalType":"address"},{"name":"","type":"address","internalType":"address"},{"name":"","type":"uint256","internalType":"uint256"},{"name":"","type":"bytes","internalType":"bytes"}],"outputs":[{"name":"","type":"bytes4","internalType":"bytes4"}],"stateMutability":"pure"},{"type":"function","name":"openInitialPosition","inputs":[{"name":"vault","type":"address","internalType":"address"},{"name":"tickLower","type":"int24","internalType":"int24"},{"name":"tickUpper","type":"int24","internalType":"int24"}],"outputs":[{"name":"tokenId","type":"uint256","internalType":"uint256"},{"name":"liquidity","type":"uint128","internalType":"uint128"}],"stateMutability":"nonpayable"},{"type":"function","name":"pool","inputs":[],"outputs":[{"name":"","type":"address","internalType":"address"}],"stateMutability":"view"},{"type":"function","name":"rebalanceWithCaps","inputs":[{"name":"vault","type":"address","internalType":"address"},{"name":"tickLower","type":"int24","internalType":"int24"},{"name":"tickUpper","type":"int24","internalType":"int24"},{"name":"cap0","type":"uint256","internalType":"uint256"},{"name":"cap1","type":"uint256","internalType":"uint256"}],"outputs":[{"name":"newLiquidity","type":"uint128","internalType":"uint128"}],"stateMutability":"nonpayable"},{"type":"function","name":"slot0","inputs":[],"outputs":[{"name":"sqrtPriceX96","type":"uint160","internalType":"uint160"},{"name":"tick","type":"int24","internalType":"int24"}],"stateMutability":"view"},{"type":"function","name":"stakePosition","inputs":[{"name":"vault","type":"address","internalType":"address"}],"outputs":[],"stateMutability":"nonpayable"},{"type":"function","name":"tickSpacing","inputs":[],"outputs":[{"name":"","type":"int24","internalType":"int24"}],"stateMutability":"view"},{"type":"function","name":"tokens","inputs":[],"outputs":[{"name":"token0","type":"address","internalType":"address"},{"name":"token1","type":"address","internalType":"address"}],"stateMutability":"view"},{"type":"function","name":"twapWindow","inputs":[],"outputs":[{"name":"","type":"uint32","internalType":"uint32"}],"stateMutability":"view"},{"type":"function","name":"unstakePosition","inputs":[{"name":"vault","type":"address","internalType":"address"}],"outputs":[],"stateMutability":"nonpayable"},{"type":"error","name":"SafeERC20FailedOperation","inputs":[{"name":"token","type":"address","internalType":"address"}]}],"bytecode":{"object":"0x60e03461018757601f61385838819003918201601f19168301916001600160401b0383118484101761018c5780849260609460405283398101031261018757610047816101a2565b906100606040610059602084016101a2565b92016101a2565b603c600255600380546001600160681b031916693c0000320dbba000000a179055916001600160a01b038116151580610175575b1561014a5760805260a05260c0526040516136a190816101b782396080518181816102ea01528181610a4c0152818161146201528181611716015281816119b201526124a5015260a0518181816105c0015281816106c1015281816109b8015281816109e30152818161162801528181611941015281816123b80152818161260c01528181612ce4015261346c015260c0518181816103fc015281816126c601528181612b2c01528181612c7a0152612d7e0152f35b606460405162461bcd60e51b81526020600482015260046024820152637a65726f60e01b6044820152fd5b506001600160a01b0382161515610094565b600080fd5b634e487b7160e01b600052604160045260246000fd5b51906001600160a01b03821682036101875756fe608080604052600436101561001357600080fd5b600090813560e01c908163035229cf14611ecc57508063109162ef146117e2578063150b7a021461173a57806316f0115b146116cb578063270d31361461157a5780633850c7bd146113f05780636006ecc8146113ae578063616ea5571461136c5780636783ac17146105e45780637303e91314610575578063762100e7146105275780638107e133146104e257806386ff5c4b146104805780639d63848a14610420578063a6f19c84146103b1578063b021724014610371578063d0c93a7c14610277578063d6e8b9f31461023b578063dcfc070b146101fb578063e4010503146101bb578063ef5cfb8c146101785763fdd0fd2d1461011357600080fd5b346101755760207ffffffffffffffffffffffffffffffffffffffffffffffffffffffffffffffffc36011261017557604060209173ffffffffffffffffffffffffffffffffffffffff610164611f09565b168152600183522054604051908152f35b80fd5b50346101755760207ffffffffffffffffffffffffffffffffffffffffffffffffffffffffffffffffc360112610175576101b86101b3611f09565b612d67565b80f35b50346101755760207ffffffffffffffffffffffffffffffffffffffffffffffffffffffffffffffffc360112610175576101b86101f6611f09565b612c60565b50346101755760207ffffffffffffffffffffffffffffffffffffffffffffffffffffffffffffffffc360112610175576101b8610236611f09565b612b13565b503461017557807ffffffffffffffffffffffffffffffffffffffffffffffffffffffffffffffffc360112610175576020600254604051908152f35b503461017557807ffffffffffffffffffffffffffffffffffffffffffffffffffffffffffffffffc36011261017557604051907fd0c93a7c00000000000000000000000000000000000000000000000000000000825260208260048173ffffffffffffffffffffffffffffffffffffffff7f0000000000000000000000000000000000000000000000000000000000000000165afa908115610365578091610328575b6020826040519060020b8152f35b90506020823d60201161035d575b8161034360209383611ff3565b81010312610175575061035760209161215b565b3861031a565b3d9150610336565b604051903d90823e3d90fd5b50346101755760207ffffffffffffffffffffffffffffffffffffffffffffffffffffffffffffffffc360112610175576101b86103ac611f09565b6125bc565b503461017557807ffffffffffffffffffffffffffffffffffffffffffffffffffffffffffffffffc36011261017557602060405173ffffffffffffffffffffffffffffffffffffffff7f0000000000000000000000000000000000000000000000000000000000000000168152f35b503461017557807ffffffffffffffffffffffffffffffffffffffffffffffffffffffffffffffffc3601126101755761045761248e565b6040805173ffffffffffffffffffffffffffffffffffffffff9384168152919092166020820152f35b50346101755760207ffffffffffffffffffffffffffffffffffffffffffffffffffffffffffffffffc36011261017557604060209173ffffffffffffffffffffffffffffffffffffffff6104d2611f09565b1681528083522054604051908152f35b503461017557807ffffffffffffffffffffffffffffffffffffffffffffffffffffffffffffffffc36011261017557602063ffffffff60035460481c16604051908152f35b50346101755760207ffffffffffffffffffffffffffffffffffffffffffffffffffffffffffffffffc360112610175576040610569610564611f09565b6122ab565b82519182526020820152f35b503461017557807ffffffffffffffffffffffffffffffffffffffffffffffffffffffffffffffffc36011261017557602060405173ffffffffffffffffffffffffffffffffffffffff7f0000000000000000000000000000000000000000000000000000000000000000168152f35b50346101755760a07ffffffffffffffffffffffffffffffffffffffffffffffffffffffffffffffffc3601126101755761061c611f09565b90610625611f4f565b9161062e611f5f565b73ffffffffffffffffffffffffffffffffffffffff8216835260208390526040832054606435946084356106638315156120d5565b61067561066f8461341d565b15612223565b73ffffffffffffffffffffffffffffffffffffffff8516865260016020526106a4604087205460025490612053565b421061130e5773ffffffffffffffffffffffffffffffffffffffff7f000000000000000000000000000000000000000000000000000000000000000016926107a7604080516106f281611fbb565b8381523060208201526fffffffffffffffffffffffffffffffff828201526fffffffffffffffffffffffffffffffff60608201528151809381927ffc6f78650000000000000000000000000000000000000000000000000000000083526004830191909160606fffffffffffffffffffffffffffffffff8160808401958051855273ffffffffffffffffffffffffffffffffffffffff6020820151166020860152826040820151166040860152015116910152565b03818b895af1801561125f576112f0575b506040517f99fbab8800000000000000000000000000000000000000000000000000000000815281600482015261018081602481885afa90811561125f57906fffffffffffffffffffffffffffffffff9189916112b5575b501680611158575b50833b1561115457604051907f42966c680000000000000000000000000000000000000000000000000000000082526004820152868160248183885af1801561114957611135575b5073ffffffffffffffffffffffffffffffffffffffff851686528560205285604081205573ffffffffffffffffffffffffffffffffffffffff6108a161248e565b95909860208a6024604051809681937f70a08231000000000000000000000000000000000000000000000000000000008352306004840152165afa928315610ea9578993611101575b50604051907f70a0823100000000000000000000000000000000000000000000000000000000825230600483015260208260248173ffffffffffffffffffffffffffffffffffffffff8c165afa9182156110f6578a926110c2575b50806110bc57507fffffffffffffffffffffffffffffffffffffffffffffffffffffffffffffffff935b806110b757507fffffffffffffffffffffffffffffffffffffffffffffffffffffffffffffffff5b838b8a8497838111610fbc575b50505050818111610eb4575b50506109dd827f00000000000000000000000000000000000000000000000000000000000000008b6131c1565b610a08837f0000000000000000000000000000000000000000000000000000000000000000886131c1565b604051937fddca3f4300000000000000000000000000000000000000000000000000000000855260208560048173ffffffffffffffffffffffffffffffffffffffff7f0000000000000000000000000000000000000000000000000000000000000000165afa948515610ea9578995610e69575b50610384420194854211610e3c579389989796938b936080979362ffffff610c0b9873ffffffffffffffffffffffffffffffffffffffff60405198610ac08a611f6f565b16885273ffffffffffffffffffffffffffffffffffffffff8c16602089015216604087015260020b606086015260020b8785015260a084015260c08301528760e083015287610100830152306101208301526101408201526040519788809481937f88316456000000000000000000000000000000000000000000000000000000008352600483019190916101408061016083019473ffffffffffffffffffffffffffffffffffffffff815116845273ffffffffffffffffffffffffffffffffffffffff602082015116602085015262ffffff6040820151166040850152606081015160020b6060850152608081015160020b608085015260a081015160a085015260c081015160c085015260e081015160e085015261010081015161010085015273ffffffffffffffffffffffffffffffffffffffff610120820151166101208501520151910152565b03925af1938415610e315783908495610dfb575b5073ffffffffffffffffffffffffffffffffffffffff831684528360205260408420556040517f70a0823100000000000000000000000000000000000000000000000000000000815230600482015260208160248173ffffffffffffffffffffffffffffffffffffffff8a165afa908115610df0578491610dbe575b50604051907f70a0823100000000000000000000000000000000000000000000000000000000825230600483015260208260248173ffffffffffffffffffffffffffffffffffffffff87165afa918215610db3578592610d73575b5090602096828573ffffffffffffffffffffffffffffffffffffffff969594610d60575b91505081610d4d575b505050168152600183526040429120556fffffffffffffffffffffffffffffffff60405191168152f35b84610d58931661339a565b388082610d23565b86610d6b931661339a565b388084610d1a565b939291506020843d602011610dab575b81610d9060209383611ff3565b81010312610da657925191929091906020610cf6565b600080fd5b3d9150610d83565b6040513d87823e3d90fd5b90506020813d602011610de8575b81610dd960209383611ff3565b81010312610da6575138610c9b565b3d9150610dcc565b6040513d86823e3d90fd5b9050610e2091945060803d608011610e2a575b610e188183611ff3565b8101906120ac565b5050939038610c1f565b503d610e0e565b6040513d85823e3d90fd5b60248a7f4e487b710000000000000000000000000000000000000000000000000000000081526011600452fd5b9094506020813d602011610ea1575b81610e8560209383611ff3565b81010312610e9d57610e9690612043565b9338610a7c565b8880fd5b3d9150610e78565b6040513d8b823e3d90fd5b81610ebe9161229e565b604051907f70a0823100000000000000000000000000000000000000000000000000000000825273ffffffffffffffffffffffffffffffffffffffff8a16600483015260208260248173ffffffffffffffffffffffffffffffffffffffff8d165afa918215610fb1578b92610f7d575b5081811115610f755750905b81156109b057610f6d929450610f6882308b73ffffffffffffffffffffffffffffffffffffffff8c166130e4565b612053565b9138806109b0565b905090610f3a565b9091506020813d602011610fa9575b81610f9960209383611ff3565b81010312610da657519038610f2e565b3d9150610f8c565b6040513d8d823e3d90fd5b73ffffffffffffffffffffffffffffffffffffffff6024610fdf8660209461229e565b938260405196879485937f70a08231000000000000000000000000000000000000000000000000000000008552166004840152165afa9182156110ac578d92611078575b50818111156110705750905b8c8261103e575b908b906109a4565b61106793965082610f68918d73ffffffffffffffffffffffffffffffffffffffff3092166130e4565b9238808c611036565b90509061102f565b9091506020813d6020116110a4575b8161109460209383611ff3565b81010312610da657519038611023565b3d9150611087565b6040513d8f823e3d90fd5b610997565b9361096f565b9091506020813d6020116110ee575b816110de60209383611ff3565b81010312610da657519038610945565b3d91506110d1565b6040513d8c823e3d90fd5b9092506020813d60201161112d575b8161111d60209383611ff3565b81010312610da6575191386108ea565b3d9150611110565b8661114291979297611ff3565b9438610860565b6040513d89823e3d90fd5b8680fd5b6103844201804211611288576111fe9160409182519161117783611fd7565b858352602083019081528383018c9052606083018c81526080840192835284517f0c49ccbe0000000000000000000000000000000000000000000000000000000081528451600482015291516fffffffffffffffffffffffffffffffff166024830152604090930151604482015291516064830152516084820152918290819060a4820190565b03818b895af1801561125f5761126a575b50611220604080516106f281611fbb565b03818b895af1801561125f5715610818576112529060403d604011611258575b61124a8183611ff3565b810190612288565b50610818565b503d611240565b6040513d8a823e3d90fd5b6112829060403d6040116112585761124a8183611ff3565b5061120f565b6024897f4e487b710000000000000000000000000000000000000000000000000000000081526011600452fd5b6112d791506101803d81116112e9575b6112cf8183611ff3565b810190612169565b50505050965050505050505038610810565b503d6112c5565b6113089060403d6040116112585761124a8183611ff3565b506107b8565b60646040517f08c379a000000000000000000000000000000000000000000000000000000000815260206004820152600860248201527f636f6f6c646f776e0000000000000000000000000000000000000000000000006044820152fd5b503461017557807ffffffffffffffffffffffffffffffffffffffffffffffffffffffffffffffffc36011261017557602060035460301c60020b604051908152f35b503461017557807ffffffffffffffffffffffffffffffffffffffffffffffffffffffffffffffffc36011261017557602060035460181c60020b604051908152f35b503461017557807ffffffffffffffffffffffffffffffffffffffffffffffffffffffffffffffffc360112610175576040517f3850c7bd00000000000000000000000000000000000000000000000000000000815260e08160048173ffffffffffffffffffffffffffffffffffffffff7f0000000000000000000000000000000000000000000000000000000000000000165afa801561156f57829183916114bc575b6040838373ffffffffffffffffffffffffffffffffffffffff83519216825260020b6020820152f35b91505060e0813d60e011611567575b816114d860e09383611ff3565b8101031261156357805173ffffffffffffffffffffffffffffffffffffffff8116810361155b5761150b6020830161215b565b9161151860408201612214565b5061152560608201612214565b5061153260808201612214565b5060a081015163ffffffff81160361155f5760c001518015150361155b57604092509038611493565b8280fd5b8380fd5b5080fd5b3d91506114cb565b6040513d84823e3d90fd5b50346101755760207ffffffffffffffffffffffffffffffffffffffffffffffffffffffffffffffffc3601126101755773ffffffffffffffffffffffffffffffffffffffff6115c7611f09565b1681528060205260408120546115de8115156120d5565b604051907f99fbab8800000000000000000000000000000000000000000000000000000000825260048201526101808160248173ffffffffffffffffffffffffffffffffffffffff7f0000000000000000000000000000000000000000000000000000000000000000165afa801561156f5791606092818091611689575b6fffffffffffffffffffffffffffffffff9293506040519360020b845260020b6020840152166040820152f35b5050506116b56fffffffffffffffffffffffffffffffff916101803d81116112e9576112cf8183611ff3565b505050509550969550925050509283925061165c565b503461017557807ffffffffffffffffffffffffffffffffffffffffffffffffffffffffffffffffc36011261017557602060405173ffffffffffffffffffffffffffffffffffffffff7f0000000000000000000000000000000000000000000000000000000000000000168152f35b50346101755760807ffffffffffffffffffffffffffffffffffffffffffffffffffffffffffffffffc36011261017557611772611f09565b5061177b611f2c565b5060643567ffffffffffffffff8111611563573660238201121561156357806004013567ffffffffffffffff811161155b57369101602401116101755760206040517f150b7a02000000000000000000000000000000000000000000000000000000008152f35b50346101755760607ffffffffffffffffffffffffffffffffffffffffffffffffffffffffffffffffc3601126101755761181a611f09565b90611823611f4f565b9161182c611f5f565b73ffffffffffffffffffffffffffffffffffffffff821690818452836020526040842054611e6e5761185c61248e565b95909173ffffffffffffffffffffffffffffffffffffffff831691604051977f70a082310000000000000000000000000000000000000000000000000000000089528560048a0152602089602481875afa98891561125f578899611e3a575b5073ffffffffffffffffffffffffffffffffffffffff811694604051917f70a082310000000000000000000000000000000000000000000000000000000083528760048401526020836024818a5afa9283156110f6578a93611e06575b508a1580158091611dfd575b15611d9f578b9261196e928592611d8e575b82611d7d575b6119697f00000000000000000000000000000000000000000000000000000000000000009e8f80946131c1565b6131c1565b604051937fddca3f4300000000000000000000000000000000000000000000000000000000855260208560048173ffffffffffffffffffffffffffffffffffffffff7f0000000000000000000000000000000000000000000000000000000000000000165afa9485156110f6578a95611d3d575b50610384420193844211611d10579260809592611b59959273ffffffffffffffffffffffffffffffffffffffff9c9d9562ffffff60405196611a2388611f6f565b8b88528c602089015216604087015260020b606086015260020b8785015260a084015260c08301528a60e08301528a6101008301523061012083015261014082015289604051998a809581947f88316456000000000000000000000000000000000000000000000000000000008352600483019190916101408061016083019473ffffffffffffffffffffffffffffffffffffffff815116845273ffffffffffffffffffffffffffffffffffffffff602082015116602085015262ffffff6040820151166040850152606081015160020b6060850152608081015160020b608085015260a081015160a085015260c081015160c085015260e081015160e085015261010081015161010085015273ffffffffffffffffffffffffffffffffffffffff610120820151166101208501520151910152565b0393165af1938415611d055786958795611cdc575b5083875286602052856040882055604051917f70a08231000000000000000000000000000000000000000000000000000000008352306004840152602083602481845afa92831561125f578893611ca4575b50604051927f70a08231000000000000000000000000000000000000000000000000000000008452306004850152602084602481885afa938415610ea9578994611c6f575b50916fffffffffffffffffffffffffffffffff96959391838260409b9795611c5e575b50505081611c4d575b5050508152600160205284429120558351928352166020820152f35b611c569261339a565b388080611c31565b611c679261339a565b388082611c28565b9093506020813d602011611c9c575b81611c8b60209383611ff3565b81010312610e9d5751926040611c05565b3d9150611c7e565b9092506020813d602011611cd4575b81611cc060209383611ff3565b81010312611cd057519138611bc0565b8780fd5b3d9150611cb3565b909450611cf991955060803d608011610e2a57610e188183611ff3565b50509490949338611b6e565b6040513d88823e3d90fd5b60248b7f4e487b710000000000000000000000000000000000000000000000000000000081526011600452fd5b9094506020813d602011611d75575b81611d5960209383611ff3565b81010312611d7157611d6a90612043565b93386119e2565b8980fd5b3d9150611d4c565b611d8983308e8d6130e4565b61193c565b611d9a85308e8c6130e4565b611936565b60646040517f08c379a000000000000000000000000000000000000000000000000000000000815260206004820152600860248201527f6e6f2066756e64730000000000000000000000000000000000000000000000006044820152fd5b50831515611924565b9092506020813d602011611e32575b81611e2260209383611ff3565b81010312611d7157519138611918565b3d9150611e15565b9098506020813d602011611e66575b81611e5660209383611ff3565b81010312611cd0575197386118bb565b3d9150611e49565b60646040517f08c379a000000000000000000000000000000000000000000000000000000000815260206004820152600e60248201527f616c7265616479206f70656e65640000000000000000000000000000000000006044820152fd5b90503461156357817ffffffffffffffffffffffffffffffffffffffffffffffffffffffffffffffffc3601126115635760209060035460020b8152f35b6004359073ffffffffffffffffffffffffffffffffffffffff82168203610da657565b6024359073ffffffffffffffffffffffffffffffffffffffff82168203610da657565b602435908160020b8203610da657565b604435908160020b8203610da657565b610160810190811067ffffffffffffffff821117611f8c57604052565b7f4e487b7100000000000000000000000000000000000000000000000000000000600052604160045260246000fd5b6080810190811067ffffffffffffffff821117611f8c57604052565b60a0810190811067ffffffffffffffff821117611f8c57604052565b90601f7fffffffffffffffffffffffffffffffffffffffffffffffffffffffffffffffe0910116810190811067ffffffffffffffff821117611f8c57604052565b90816020910312610da6575190565b519062ffffff82168203610da657565b9190820180921161206057565b7f4e487b7100000000000000000000000000000000000000000000000000000000600052601160045260246000fd5b51906fffffffffffffffffffffffffffffffff82168203610da657565b9190826080910312610da6578151916120c76020820161208f565b916060604083015192015190565b156120dc57565b60646040517f08c379a000000000000000000000000000000000000000000000000000000000815260206004820152600b60248201527f6e6f20706f736974696f6e0000000000000000000000000000000000000000006044820152fd5b519073ffffffffffffffffffffffffffffffffffffffff82168203610da657565b51908160020b8203610da657565b919082610180910312610da65781516bffffffffffffffffffffffff81168103610da6579161219a6020820161213a565b916121a76040830161213a565b916121b46060820161213a565b916121c160808301612043565b916121ce60a0820161215b565b916121db60c0830161215b565b916121e860e0820161208f565b91610100820151916101208101519161221161016061220a610140850161208f565b930161208f565b90565b519061ffff82168203610da657565b1561222a57565b60646040517f08c379a000000000000000000000000000000000000000000000000000000000815260206004820152600f60248201527f706f736974696f6e207374616b656400000000000000000000000000000000006044820152fd5b9190826040910312610da6576020825192015190565b9190820391821161206057565b9073ffffffffffffffffffffffffffffffffffffffff821660005260006020526040600020548015612485576040805161239d93926122e982611fbb565b81523060208201526fffffffffffffffffffffffffffffffff828201526fffffffffffffffffffffffffffffffff60608201528151809481927ffc6f78650000000000000000000000000000000000000000000000000000000083526004830191909160606fffffffffffffffffffffffffffffffff8160808401958051855273ffffffffffffffffffffffffffffffffffffffff6020820151166020860152826040820151166040860152015116910152565b0381600073ffffffffffffffffffffffffffffffffffffffff7f0000000000000000000000000000000000000000000000000000000000000000165af191821561247957600090600093612455575b508281946123f861248e565b93828161242e575b5050508161240d57505050565b73ffffffffffffffffffffffffffffffffffffffff61242c931661339a565b565b73ffffffffffffffffffffffffffffffffffffffff61244d931661339a565b388082612400565b905061247191925060403d6040116112585761124a8183611ff3565b9190386123ec565b6040513d6000823e3d90fd5b50600091508190565b73ffffffffffffffffffffffffffffffffffffffff7f000000000000000000000000000000000000000000000000000000000000000016906040517f0dfe1681000000000000000000000000000000000000000000000000000000008152602081600481865afa9081156124795760009161257d575b50602060049193604051928380927fd21220a70000000000000000000000000000000000000000000000000000000082525afa90811561247957600091612549575090565b90506020813d602011612575575b8161256460209383611ff3565b81010312610da6576122119061213a565b3d9150612557565b90506020813d6020116125b4575b8161259860209383611ff3565b81010312610da65760206125ad60049261213a565b9150612504565b3d915061258b565b90600073ffffffffffffffffffffffffffffffffffffffff8316928382528160205260408220548015612aa7576125f561066f8261341d565b73ffffffffffffffffffffffffffffffffffffffff7f0000000000000000000000000000000000000000000000000000000000000000169061263d604080516106f281611fbb565b038188875af18015610db357612a89575b506040517f99fbab8800000000000000000000000000000000000000000000000000000000815281600482015261018081602481865afa908115610db357906fffffffffffffffffffffffffffffffff918691612a5e575b50168061291c575b5073ffffffffffffffffffffffffffffffffffffffff7f0000000000000000000000000000000000000000000000000000000000000000166128c1575b813b1561155f5783916024839260405194859384927f42966c6800000000000000000000000000000000000000000000000000000000845260048401525af18015610e31576128ac575b5073ffffffffffffffffffffffffffffffffffffffff929382528160205281604081205561276161248e565b9316604051937f70a08231000000000000000000000000000000000000000000000000000000008552306004860152602085602481855afa948515610df0578495612864575b5073ffffffffffffffffffffffffffffffffffffffff16936040517f70a08231000000000000000000000000000000000000000000000000000000008152306004820152602081602481895afa9485156103655794612830575b50828161281f575b5050508161281657505050565b61242c9261339a565b6128289261339a565b388082612809565b9093506020813d60201161285c575b8161284c60209383611ff3565b81010312610da657519238612801565b3d915061283f565b9094506020813d6020116128a4575b8161288060209383611ff3565b81010312610da657519373ffffffffffffffffffffffffffffffffffffffff6127a7565b3d9150612873565b6128b7838092611ff3565b6115635738612735565b303b1561155f576040517fef5cfb8c000000000000000000000000000000000000000000000000000000008152866004820152848160248183305af1612908575b506126eb565b8461291591959295611ff3565b9238612902565b6103844201804211612a31576129c29160409182519161293b83611fd7565b85835260208301908152838301899052606083018981526080840192835284517f0c49ccbe0000000000000000000000000000000000000000000000000000000081528451600482015291516fffffffffffffffffffffffffffffffff166024830152604090930151604482015291516064830152516084820152918290819060a4820190565b038188875af18015610db357612a13575b506129e4604080516106f281611fbb565b038188875af18015610db357156126ae57612a0d9060403d6040116112585761124a8183611ff3565b506126ae565b612a2b9060403d6040116112585761124a8183611ff3565b506129d3565b6024867f4e487b710000000000000000000000000000000000000000000000000000000081526011600452fd5b612a7791506101803d81116112e9576112cf8183611ff3565b505050509650505050505050386126a6565b612aa19060403d6040116112585761124a8183611ff3565b5061264e565b5050509050565b15612ab557565b60646040517f08c379a000000000000000000000000000000000000000000000000000000000815260206004820152600660248201527f6e6f20706f7300000000000000000000000000000000000000000000000000006044820152fd5b600073ffffffffffffffffffffffffffffffffffffffff7f000000000000000000000000000000000000000000000000000000000000000016918215612c5b5773ffffffffffffffffffffffffffffffffffffffff1680825281602052604082205490612b81821515612aae565b303b1561155b57604051907fef5cfb8c0000000000000000000000000000000000000000000000000000000082526004820152828160248183305af1612c42575b506040517ef714ce0000000000000000000000000000000000000000000000000000000081526004810191909152306024820152916020908390818481604481015b03925af19081156103655750612c175750565b612c389060203d602011612c3b575b612c308183611ff3565b810190612034565b50565b503d612c26565b82612c5360209394612c0493611ff3565b929150612bc2565b505050565b60009073ffffffffffffffffffffffffffffffffffffffff7f000000000000000000000000000000000000000000000000000000000000000016908115612c5b5773ffffffffffffffffffffffffffffffffffffffff168252816020526040822054612ccd811515612aae565b73ffffffffffffffffffffffffffffffffffffffff7f00000000000000000000000000000000000000000000000000000000000000001691823b1561155f5790606484928360405195869485937f42842e0e000000000000000000000000000000000000000000000000000000008552306004860152602485015260448401525af1801561156f57612d5d575050565b81612c3891611ff3565b73ffffffffffffffffffffffffffffffffffffffff7f0000000000000000000000000000000000000000000000000000000000000000169081156130e05773ffffffffffffffffffffffffffffffffffffffff811660005260006020526040600020548015612c5b576040517f18fccc760000000000000000000000000000000000000000000000000000000081526004810182905273ffffffffffffffffffffffffffffffffffffffff831660248201526020816044816000885af190816130b1575b50612c5b576000926000916040517f4ca6ef28000000000000000000000000000000000000000000000000000000008152602081600481865afa60009181613075575b50612faf575b506040517f18fccc76000000000000000000000000000000000000000000000000000000008152600481019190915230602482015290602090829081600081604481015b03925af19081612f80575b50612ecd57505050565b73ffffffffffffffffffffffffffffffffffffffff169182612eee57505050565b604051907f70a08231000000000000000000000000000000000000000000000000000000008252306004830152602082602481875afa801561247957600090612f4c575b612f3c925061229e565b908115612c5b5761242c9261339a565b506020823d602011612f78575b81612f6660209383611ff3565b81010312610da657612f3c9151612f32565b3d9150612f59565b6020813d602011612fa7575b81612f9960209383611ff3565b81010312610da65751612ec3565b3d9150612f8c565b9094509150600073ffffffffffffffffffffffffffffffffffffffff831680612fe85750506020612eb8600092835b9692509250612e74565b6020602491604051928380927f70a082310000000000000000000000000000000000000000000000000000000082523060048301525afa91821561036557809261303d575b5050612eb8600092602092612fde565b9091506020823d60201161306d575b8161305960209383611ff3565b81010312610175575051612eb8600061302d565b3d915061304c565b9091506020813d6020116130a9575b8161309160209383611ff3565b81010312610da6576130a29061213a565b9038612e6e565b3d9150613084565b6020813d6020116130d8575b816130ca60209383611ff3565b81010312610da65751612e2b565b3d91506130bd565b5050565b92916020919273ffffffffffffffffffffffffffffffffffffffff60009281604051967f23b872dd000000000000000000000000000000000000000000000000000000008652166004521660245260445260648180865af19060016000511482161561319f575b60405260006060521561315b5750565b73ffffffffffffffffffffffffffffffffffffffff907f5274afe7000000000000000000000000000000000000000000000000000000006000521660045260246000fd5b9060018115166131b757823b15153d1516169061314b565b503d6000823e3d90fd5b8215612c5b576040517fdd62ed3e00000000000000000000000000000000000000000000000000000000815230600482015273ffffffffffffffffffffffffffffffffffffffff8381166024830152919091169290602081604481875afa90811561247957600091613368575b5010613238575050565b61324460008284613500565b1561331b575b6132757fffffffffffffffffffffffffffffffffffffffffffffffffffffffffffffffff8284613500565b1561327e575050565b613288818361357b565b156132ed577fffffffffffffffffffffffffffffffffffffffffffffffffffffffffffffffff6132b89183613606565b156132c05750565b7f5274afe70000000000000000000000000000000000000000000000000000000060005260045260246000fd5b507f5274afe70000000000000000000000000000000000000000000000000000000060005260045260246000fd5b613325818361357b565b156132ed5761333660008284613606565b61324a57507f5274afe70000000000000000000000000000000000000000000000000000000060005260045260246000fd5b90506020813d602011613392575b8161338360209383611ff3565b81010312610da657513861322e565b3d9150613376565b9160209060009073ffffffffffffffffffffffffffffffffffffffff604051947fa9059cbb0000000000000000000000000000000000000000000000000000000084521660045260245260448180865af190600160005114821615613405575b6040521561315b5750565b9060018115166131b757823b15153d151616906133fa565b80156134fa57604051907f6352211e000000000000000000000000000000000000000000000000000000008252600482015260208160248173ffffffffffffffffffffffffffffffffffffffff7f0000000000000000000000000000000000000000000000000000000000000000165afa600091816134be575b506134a25750600090565b73ffffffffffffffffffffffffffffffffffffffff1630141590565b9091506020813d6020116134f2575b816134da60209383611ff3565b81010312610da6576134eb9061213a565b9038613497565b3d91506134cd565b50600090565b92919260009373ffffffffffffffffffffffffffffffffffffffff604051937f095ea7b30000000000000000000000000000000000000000000000000000000087521660045260245260208460448180855af1936001815114851615613568575b5050604052565b939193503b15153d151616913880613561565b919073ffffffffffffffffffffffffffffffffffffffff604051917f095ea7b3000000000000000000000000000000000000000000000000000000006000521660045260006024526020600060448180875af1926001600051148416156135e3575b50604052565b600184929415166135fc573b15153d15161691386135dd565b833d6000823e3d90fd5b929173ffffffffffffffffffffffffffffffffffffffff604051927f095ea7b300000000000000000000000000000000000000000000000000000000600052166004526024526020600060448180875af1926001600051148416156135e3575060405256fea26469706673582212208ffbe1a171c2eb64ef43754847033a46ded8fac88d0020bffa2aadef547d129064736f6c634300081e0033","linkReferences":{}},"methodIdentifiers":{"claimRewards(address)":"ef5cfb8c","collectToVault(address)":"762100e7","currentRange(address)":"270d3136","currentTokenId(address)":"86ff5c4b","exitPositionToVault(address)":"b0217240","gauge()":"a6f19c84","lastRebalance(address)":"fdd0fd2d","maxTwapDeviationTicks()":"616ea557","maxWidth()":"6006ecc8","minCooldown()":"d6e8b9f3","minWidth()":"035229cf","nfpm()":"7303e913","onERC721Received(address,address,uint256,bytes)":"150b7a02","openInitialPosition(address,int24,int24)":"109162ef","pool()":"16f0115b","rebalanceWithCaps(address,int24,int24,uint256,uint256)":"6783ac17","slot0()":"3850c7bd","stakePosition(address)":"e4010503","tickSpacing()":"d0c93a7c","tokens()":"9d63848a","twapWindow()":"8107e133","unstakePosition(address)":"dcfc070b"},"id":53}