{"abi":[{"type":"constructor","inputs":[{"name":"_owner","type":"address","internalType":"address"},{"name":"_executor","type":"address","internalType":"address"},{"name":"_adapter","type":"address","internalType":"address"},{"name":"_dexRouter","type":"address","internalType":"address"},{"name":"_feeCollector","type":"address","internalType":"address"},{"name":"_strategyId","type":"uint256","internalType":"uint256"},{"name":"_cooldownSec","type":"uint32","internalType":"uint32"},{"name":"_maxSlippageBps","type":"uint16","internalType":"uint16"},{"name":"_allowSwap","type":"bool","internalType":"bool"}],"stateMutability":"nonpayable"},{"type":"function","name":"adapter","inputs":[],"outputs":[{"name":"","type":"address","internalType":"contract IConcentratedLiquidityAdapter"}],"stateMutability":"view"},{"type":"function","name":"allowSwap","inputs":[],"outputs":[{"name":"","type":"bool","internalType":"bool"}],"stateMutability":"view"},{"type":"function","name":"autoRebalancePancake","inputs":[{"name":"params","type":"tuple","internalType":"struct ClientVault.AutoRebalanceParams","components":[{"name":"newLower","type":"int24","internalType":"int24"},{"name":"newUpper","type":"int24","internalType":"int24"},{"name":"fee","type":"uint24","internalType":"uint24"},{"name":"tokenIn","type":"address","internalType":"address"},{"name":"tokenOut","type":"address","internalType":"address"},{"name":"swapAmountIn","type":"uint256","internalType":"uint256"},{"name":"swapAmountOutMin","type":"uint256","internalType":"uint256"},{"name":"sqrtPriceLimitX96","type":"uint160","internalType":"uint160"}]}],"outputs":[],"stateMutability":"nonpayable"},{"type":"function","name":"automationEnabled","inputs":[],"outputs":[{"name":"","type":"bool","internalType":"bool"}],"stateMutability":"view"},{"type":"function","name":"claimRewards","inputs":[],"outputs":[],"stateMutability":"nonpayable"},{"type":"function","name":"collectToVault","inputs":[],"outputs":[{"name":"amount0","type":"uint256","internalType":"uint256"},{"name":"amount1","type":"uint256","internalType":"uint256"}],"stateMutability":"nonpayable"},{"type":"function","name":"cooldownSec","inputs":[],"outputs":[{"name":"","type":"uint32","internalType":"uint32"}],"stateMutability":"view"},{"type":"function","name":"dexRouter","inputs":[],"outputs":[{"name":"","type":"address","internalType":"address"}],"stateMutability":"view"},{"type":"function","name":"executor","inputs":[],"outputs":[{"name":"","type":"address","internalType":"address"}],"stateMutability":"view"},{"type":"function","name":"exitPositionAndWithdrawAll","inputs":[{"name":"to","type":"address","internalType":"address"}],"outputs":[],"stateMutability":"nonpayable"},{"type":"function","name":"exitPositionToVault","inputs":[],"outputs":[],"stateMutability":"nonpayable"},{"type":"function","name":"feeCollector","inputs":[],"outputs":[{"name":"","type":"address","internalType":"address"}],"stateMutability":"view"},{"type":"function","name":"getAutomationConfig","inputs":[],"outputs":[{"name":"enabled","type":"bool","internalType":"bool"},{"name":"cooldown","type":"uint32","internalType":"uint32"},{"name":"slippageBps","type":"uint16","internalType":"uint16"},{"name":"swapAllowed","type":"bool","internalType":"bool"}],"stateMutability":"view"},{"type":"function","name":"lastRebalanceTs","inputs":[],"outputs":[{"name":"","type":"uint256","internalType":"uint256"}],"stateMutability":"view"},{"type":"function","name":"maxSlippageBps","inputs":[],"outputs":[{"name":"","type":"uint16","internalType":"uint16"}],"stateMutability":"view"},{"type":"function","name":"openInitialPosition","inputs":[{"name":"lower","type":"int24","internalType":"int24"},{"name":"upper","type":"int24","internalType":"int24"}],"outputs":[],"stateMutability":"nonpayable"},{"type":"function","name":"owner","inputs":[],"outputs":[{"name":"","type":"address","internalType":"address"}],"stateMutability":"view"},{"type":"function","name":"positionTokenId","inputs":[],"outputs":[{"name":"","type":"uint256","internalType":"uint256"}],"stateMutability":"view"},{"type":"function","name":"positionTokenIdView","inputs":[],"outputs":[{"name":"tokenId","type":"uint256","internalType":"uint256"}],"stateMutability":"view"},{"type":"function","name":"rebalanceWithCaps","inputs":[{"name":"lower","type":"int24","internalType":"int24"},{"name":"upper","type":"int24","internalType":"int24"},{"name":"cap0","type":"uint256","internalType":"uint256"},{"name":"cap1","type":"uint256","internalType":"uint256"}],"outputs":[],"stateMutability":"nonpayable"},{"type":"function","name":"setAutomationConfig","inputs":[{"name":"_cooldownSec","type":"uint32","internalType":"uint32"},{"name":"_maxSlippageBps","type":"uint16","internalType":"uint16"},{"name":"_allowSwap","type":"bool","internalType":"bool"}],"outputs":[],"stateMutability":"nonpayable"},{"type":"function","name":"setAutomationEnabled","inputs":[{"name":"enabled","type":"bool","internalType":"bool"}],"outputs":[],"stateMutability":"nonpayable"},{"type":"function","name":"stake","inputs":[],"outputs":[],"stateMutability":"nonpayable"},{"type":"function","name":"strategyId","inputs":[],"outputs":[{"name":"","type":"uint256","internalType":"uint256"}],"stateMutability":"view"},{"type":"function","name":"swapExactInPancake","inputs":[{"name":"tokenIn","type":"address","internalType":"address"},{"name":"tokenOut","type":"address","internalType":"address"},{"name":"fee","type":"uint24","internalType":"uint24"},{"name":"amountIn","type":"uint256","internalType":"uint256"},{"name":"amountOutMinimum","type":"uint256","internalType":"uint256"},{"name":"sqrtPriceLimitX96","type":"uint160","internalType":"uint160"}],"outputs":[{"name":"amountOut","type":"uint256","internalType":"uint256"}],"stateMutability":"nonpayable"},{"type":"function","name":"tokens","inputs":[],"outputs":[{"name":"token0","type":"address","internalType":"address"},{"name":"token1","type":"address","internalType":"address"}],"stateMutability":"view"},{"type":"function","name":"unstake","inputs":[],"outputs":[],"stateMutability":"nonpayable"},{"type":"event","name":"AutoRebalanced","inputs":[{"name":"lower","type":"int24","indexed":false,"internalType":"int24"},{"name":"upper","type":"int24","indexed":false,"internalType":"int24"},{"name":"newLiquidity","type":"uint128","indexed":false,"internalType":"uint128"},{"name":"swapAmountIn","type":"uint256","indexed":false,"internalType":"uint256"},{"name":"swapAmountOut","type":"uint256","indexed":false,"internalType":"uint256"}],"anonymous":false},{"type":"event","name":"AutomationConfigUpdated","inputs":[{"name":"cooldownSec","type":"uint32","indexed":false,"internalType":"uint32"},{"name":"maxSlippageBps","type":"uint16","indexed":false,"internalType":"uint16"},{"name":"allowSwap","type":"bool","indexed":false,"internalType":"bool"}],"anonymous":false},{"type":"event","name":"AutomationToggled","inputs":[{"name":"enabled","type":"bool","indexed":false,"internalType":"bool"}],"anonymous":false},{"type":"event","name":"Collected","inputs":[{"name":"amount0","type":"uint256","indexed":false,"internalType":"uint256"},{"name":"amount1","type":"uint256","indexed":false,"internalType":"uint256"}],"anonymous":false},{"type":"event","name":"ExitedAndWithdrawn","inputs":[{"name":"to","type":"address","indexed":true,"internalType":"address"},{"name":"amount0","type":"uint256","indexed":false,"internalType":"uint256"},{"name":"amount1","type":"uint256","indexed":false,"internalType":"uint256"}],"anonymous":false},{"type":"event","name":"ExitedToVault","inputs":[],"anonymous":false},{"type":"event","name":"ManualRebalanced","inputs":[{"name":"lower","type":"int24","indexed":false,"internalType":"int24"},{"name":"upper","type":"int24","indexed":false,"internalType":"int24"},{"name":"newLiquidity","type":"uint128","indexed":false,"internalType":"uint128"}],"anonymous":false},{"type":"event","name":"PositionOpened","inputs":[{"name":"tokenId","type":"uint256","indexed":false,"internalType":"uint256"},{"name":"lower","type":"int24","indexed":false,"internalType":"int24"},{"name":"upper","type":"int24","indexed":false,"internalType":"int24"},{"name":"liquidity","type":"uint128","indexed":false,"internalType":"uint128"}],"anonymous":false},{"type":"event","name":"Staked","inputs":[],"anonymous":false},{"type":"event","name":"Swapped","inputs":[{"name":"router","type":"address","indexed":true,"internalType":"address"},{"name":"tokenIn","type":"address","indexed":true,"internalType":"address"},{"name":"tokenOut","type":"address","indexed":true,"internalType":"address"},{"name":"amountIn","type":"uint256","indexed":false,"internalType":"uint256"},{"name":"amountOut","type":"uint256","indexed":false,"internalType":"uint256"}],"anonymous":false},{"type":"event","name":"Unstaked","inputs":[],"anonymous":false},{"type":"event","name":"VaultInitialized","inputs":[{"name":"owner","type":"address","indexed":true,"internalType":"address"},{"name":"executor","type":"address","indexed":true,"internalType":"address"},{"name":"adapter","type":"address","indexed":true,"internalType":"address"},{"name":"dexRouter","type":"address","indexed":false,"internalType":"address"},{"name":"feeCollector","type":"address","indexed":false,"internalType":"address"},{"name":"strategyId","type":"uint256","indexed":false,"internalType":"uint256"}],"anonymous":false},{"type":"error","name":"ReentrancyGuardReentrantCall","inputs":[]},{"type":"error","name":"SafeERC20FailedOperation","inputs":[{"name":"token","type":"address","internalType":"address"}]}],"bytecode":{"object":"0x610140346103af57601f6132cc38819003918201601f19168301916001600160401b038311848410176103b457808492610120946040528339810103126103af57610049816103ca565b90610056602082016103ca565b90610063604082016103ca565b91610070606083016103ca565b9061007d608084016103ca565b60a084015160c08501519163ffffffff831683036103af5760e08601519561ffff871687036103af576101000151928315158094036103af5760017f9b779b17422d0df92223018b32b4d1fa46e071723d6817e2486d003becc55f00556001600160a01b03891696871561036a576001600160a01b038616988915610325576001600160a01b0316998a156102e0576001600160a01b03881695861561029b577f59fbf569e13224f023993109b7bc20408873be1498dfe4494b6061367e924c969860609866ffff00000000009360805260a0528c60c05260e0528461010052856101205264ffffffff0067ff000000000000006000549260381b169460081b169060018060401b031916179160281b16171760005560405192835260018060a01b031660208301526040820152a4604051612eed90816103df82396080518181816101e70152818161032b0152818161060501528181610ace01528181610d3c01528181610dba01528181611026015281816111fa015281816113be01528181611568015281816116c20152611fdd015260a05181818161058f01526117f7015260c05181818161066901528181610b1c01528181610c6701528181610e000152818161106c01528181611273015281816115af015281816117090152818161187501528181612024015281816121a10152612719015260e051818181612133015261242601526101005181610520015261012051816114fc0152f35b60405162461bcd60e51b815260206004820152601860248201527f436c69656e745661756c743a20646578526f757465723d3000000000000000006044820152606490fd5b60405162461bcd60e51b815260206004820152601660248201527f436c69656e745661756c743a20616461707465723d30000000000000000000006044820152606490fd5b60405162461bcd60e51b815260206004820152601760248201527f436c69656e745661756c743a206578656375746f723d300000000000000000006044820152606490fd5b60405162461bcd60e51b815260206004820152601460248201527f436c69656e745661756c743a206f776e65723d300000000000000000000000006044820152606490fd5b600080fd5b634e487b7160e01b600052604160045260246000fd5b51906001600160a01b03821682036103af5756fe608080604052600436101561001357600080fd5b600090813560e01c90816303eadcfc14612157575080630758d924146120e85780632def662014611f9457806333fdf8c9146117af578063372500ab146116795780633a4b66f11461151f578063492f4e18146114c65780634d2e259c1461145d57806379886b9d1461141a578063799b2b541461045757806379e66622146113435780637b0f7cc9146111b15780637ba45d5914610fdd578063824518de14610d605780638da5cb5b14610cf15780639d63848a14610bf4578063a04cedd514610a70578063bc0931b9146105b3578063c34c08e514610544578063c415b95c146104d5578063c4aa739514610493578063ceefe5d114610457578063d1a663bb1461041b578063d966a594146103db578063e7cb9f2d14610397578063f1070bd31461027f5763fe86702b1461014a57600080fd5b3461027c5760607ffffffffffffffffffffffffffffffffffffffffffffffffffffffffffffffffc36011261027c5760043563ffffffff811680820361027a576024359061ffff82168083036102765760443590811515809203610272577f289c3c8fc0205d25d66b324359427612e37eecb1d57a186e522c8d5078c7bdd99460609461020e73ffffffffffffffffffffffffffffffffffffffff7f0000000000000000000000000000000000000000000000000000000000000000163314612208565b66ffff000000000088547fffffffffffffffffffffffffffffffffffffffffffffffff00000000000000ff64ffffffff0067ff000000000000008860381b169560081b169116179160281b161717865560405192835260208301526040820152a180f35b8580fd5b8480fd5b825b80fd5b503461027c5760c07ffffffffffffffffffffffffffffffffffffffffffffffffffffffffffffffffc36011261027c576102b76121e5565b6024359073ffffffffffffffffffffffffffffffffffffffff8216820361027a5760443562ffffff811681036103935760a4359373ffffffffffffffffffffffffffffffffffffffff8516850361027c5760206103678686868661035273ffffffffffffffffffffffffffffffffffffffff7f0000000000000000000000000000000000000000000000000000000000000000163314612208565b61035a6123a5565b608435926064359261241e565b60017f9b779b17422d0df92223018b32b4d1fa46e071723d6817e2486d003becc55f0055604051908152f35b8380fd5b503461027c57807ffffffffffffffffffffffffffffffffffffffffffffffffffffffffffffffffc36011261027c5763ffffffff6020915460081c16604051908152f35b503461027c57807ffffffffffffffffffffffffffffffffffffffffffffffffffffffffffffffffc36011261027c5760ff60209154166040519015158152f35b503461027c57807ffffffffffffffffffffffffffffffffffffffffffffffffffffffffffffffffc36011261027c576020600254604051908152f35b503461027c57807ffffffffffffffffffffffffffffffffffffffffffffffffffffffffffffffffc36011261027c576020600154604051908152f35b503461027c57807ffffffffffffffffffffffffffffffffffffffffffffffffffffffffffffffffc36011261027c5761ffff6020915460281c16604051908152f35b503461027c57807ffffffffffffffffffffffffffffffffffffffffffffffffffffffffffffffffc36011261027c57602060405173ffffffffffffffffffffffffffffffffffffffff7f0000000000000000000000000000000000000000000000000000000000000000168152f35b503461027c57807ffffffffffffffffffffffffffffffffffffffffffffffffffffffffffffffffc36011261027c57602060405173ffffffffffffffffffffffffffffffffffffffff7f0000000000000000000000000000000000000000000000000000000000000000168152f35b503461027c5760207ffffffffffffffffffffffffffffffffffffffffffffffffffffffffffffffffc36011261027c576105eb6121e5565b61062c73ffffffffffffffffffffffffffffffffffffffff7f0000000000000000000000000000000000000000000000000000000000000000163314612208565b6106346123a5565b73ffffffffffffffffffffffffffffffffffffffff8116908115610a125773ffffffffffffffffffffffffffffffffffffffff7f00000000000000000000000000000000000000000000000000000000000000001690813b1561039357836040517fb0217240000000000000000000000000000000000000000000000000000000008152306004820152818160248183885af18015610a07576109f2575b50506040517f86ff5c4b000000000000000000000000000000000000000000000000000000008152306004820152602081602481865afa9081156109e75785916109b4575b506004926040916001558151938480927f9d63848a0000000000000000000000000000000000000000000000000000000082525afa9182156109a95784908593610963575b5073ffffffffffffffffffffffffffffffffffffffff1690604051927f70a08231000000000000000000000000000000000000000000000000000000008452306004850152602084602481865afa938415610958578694610910575b5073ffffffffffffffffffffffffffffffffffffffff1690604051927f70a08231000000000000000000000000000000000000000000000000000000008452306004850152602084602481865afa9384156109055787946108a6575b50918382869485604097957f0389747e9da8f2c7b6c44d1297d97afc766ea18c607b154fabdafe72b21dd6a099610895575b50505081610884575b50505082519182526020820152a260017f9b779b17422d0df92223018b32b4d1fa46e071723d6817e2486d003becc55f005580f35b61088d92612a75565b38818161084f565b61089e92612a75565b388582610846565b935093916020843d6020116108fd575b816108c36020938361226d565b810103126108f857925191939192917f0389747e9da8f2c7b6c44d1297d97afc766ea18c607b154fabdafe72b21dd6a0610814565b600080fd5b3d91506108b6565b6040513d89823e3d90fd5b9093506020813d602011610950575b8161092c6020938361226d565b810103126108f857519273ffffffffffffffffffffffffffffffffffffffff6107b8565b3d915061091f565b6040513d88823e3d90fd5b73ffffffffffffffffffffffffffffffffffffffff935061099c915060403d6040116109a2575b610994818361226d565b81019061231e565b9261075c565b503d61098a565b6040513d86823e3d90fd5b90506020813d6020116109df575b816109cf6020938361226d565b810103126108f857516004610717565b3d91506109c2565b6040513d87823e3d90fd5b816109fc9161226d565b6103935783386106d2565b6040513d84823e3d90fd5b60646040517f08c379a000000000000000000000000000000000000000000000000000000000815260206004820152601160248201527f436c69656e745661756c743a20746f3d300000000000000000000000000000006044820152fd5b503461027c5760407ffffffffffffffffffffffffffffffffffffffffffffffffffffffffffffffffc36011261027c57610b02610aab6121c5565b610ab36121d5565b90610af573ffffffffffffffffffffffffffffffffffffffff7f0000000000000000000000000000000000000000000000000000000000000000163314612208565b610afd6123a5565b612700565b50508073ffffffffffffffffffffffffffffffffffffffff7f000000000000000000000000000000000000000000000000000000000000000016803b15610bf1578180916024604051809581937fe40105030000000000000000000000000000000000000000000000000000000083523060048401525af19182610bd8575b5050610baf575b60017f9b779b17422d0df92223018b32b4d1fa46e071723d6817e2486d003becc55f005580f35b7f7c8034b0915ddb06daf1c98814ae561303379b3db725b973ef0d14ea2c923d5c8180a1610b88565b81610be29161226d565b610bed578138610b81565b5080fd5b50fd5b503461027c57807ffffffffffffffffffffffffffffffffffffffffffffffffffffffffffffffffc36011261027c57604051907f9d63848a00000000000000000000000000000000000000000000000000000000825260408260048173ffffffffffffffffffffffffffffffffffffffff7f0000000000000000000000000000000000000000000000000000000000000000165afa918215610ce4578192610cc2575b506040805173ffffffffffffffffffffffffffffffffffffffff928316815292909116602083015290f35b9050610cdd915060403d6040116109a257610994818361226d565b9038610c97565b50604051903d90823e3d90fd5b503461027c57807ffffffffffffffffffffffffffffffffffffffffffffffffffffffffffffffffc36011261027c57602060405173ffffffffffffffffffffffffffffffffffffffff7f0000000000000000000000000000000000000000000000000000000000000000168152f35b503461027c5760807ffffffffffffffffffffffffffffffffffffffffffffffffffffffffffffffffc36011261027c57610d986121c5565b610da06121d5565b610de173ffffffffffffffffffffffffffffffffffffffff7f0000000000000000000000000000000000000000000000000000000000000000163314612208565b610de96123a5565b73ffffffffffffffffffffffffffffffffffffffff7f000000000000000000000000000000000000000000000000000000000000000016604051927f6783ac1700000000000000000000000000000000000000000000000000000000845230600485015260020b9182602485015260020b908160448501526044356064850152606435608485015260208460a48188855af19384156109e7578594610f9c575b506020602491604051928380927f86ff5c4b0000000000000000000000000000000000000000000000000000000082523060048301525afa9081156109e7578591610f44575b507ff11c7bb58b96ebaf21e2b7c98f5156d8cc615078346535b1d12842baceae698193606093926fffffffffffffffffffffffffffffffff926001556040519384526020840152166040820152a160017f9b779b17422d0df92223018b32b4d1fa46e071723d6817e2486d003becc55f005580f35b90506020929192813d602011610f94575b81610f626020938361226d565b810103126108f857519091907ff11c7bb58b96ebaf21e2b7c98f5156d8cc615078346535b1d12842baceae6981610ecf565b3d9150610f55565b9093506020813d602011610fd5575b81610fb86020938361226d565b81010312610276576020610fcd602492612388565b949150610e89565b3d9150610fab565b503461027c57807ffffffffffffffffffffffffffffffffffffffffffffffffffffffffffffffffc36011261027c5761104d73ffffffffffffffffffffffffffffffffffffffff7f0000000000000000000000000000000000000000000000000000000000000000163314612208565b6110556123a5565b73ffffffffffffffffffffffffffffffffffffffff7f000000000000000000000000000000000000000000000000000000000000000016803b15610bed57816040517fb0217240000000000000000000000000000000000000000000000000000000008152306004820152818160248183875af18015610a075761119c575b50506020602491604051928380927f86ff5c4b0000000000000000000000000000000000000000000000000000000082523060048301525afa908115610a0757829161116a575b506001557fcddb7c3bd3716f33d8c8e4e6c4a630b71671c6a8c3abfee8c3b9892e8032d6df8180a160017f9b779b17422d0df92223018b32b4d1fa46e071723d6817e2486d003becc55f005580f35b90506020813d602011611194575b816111856020938361226d565b810103126108f857513861111b565b3d9150611178565b816111a69161226d565b610bed5781386110d4565b503461027c57807ffffffffffffffffffffffffffffffffffffffffffffffffffffffffffffffffc36011261027c5761122173ffffffffffffffffffffffffffffffffffffffff7f0000000000000000000000000000000000000000000000000000000000000000163314612208565b6112296123a5565b6040517f762100e70000000000000000000000000000000000000000000000000000000081523060048201526040816024818573ffffffffffffffffffffffffffffffffffffffff7f0000000000000000000000000000000000000000000000000000000000000000165af18015610a075782918391611306575b604083837f099830bf72bfd4281b6dd74da06794aabc4a2fc97ed1e35c125293c6a2dccd00838051848152836020820152a160017f9b779b17422d0df92223018b32b4d1fa46e071723d6817e2486d003becc55f005582519182526020820152f35b9150506040813d60401161133b575b816113226040938361226d565b81010312610bed576040915060208151910151386112a4565b3d9150611315565b503461027c5760207ffffffffffffffffffffffffffffffffffffffffffffffffffffffffffffffffc36011261027c57600435801515809103610bed5760207f597db723170e2062ff01c7a921f699b0274807a884be8bdce5f2fcf3d645844b916113e573ffffffffffffffffffffffffffffffffffffffff7f0000000000000000000000000000000000000000000000000000000000000000163314612208565b7fffffffffffffffffffffffffffffffffffffffffffffffffffffffffffffff0084541660ff8216178455604051908152a180f35b503461027c57807ffffffffffffffffffffffffffffffffffffffffffffffffffffffffffffffffc36011261027c5760ff6020915460381c166040519015158152f35b503461027c57807ffffffffffffffffffffffffffffffffffffffffffffffffffffffffffffffffc36011261027c576080905460ff604051918181161515835263ffffffff8160081c16602084015261ffff8160281c16604084015260381c1615156060820152f35b503461027c57807ffffffffffffffffffffffffffffffffffffffffffffffffffffffffffffffffc36011261027c5760206040517f00000000000000000000000000000000000000000000000000000000000000008152f35b503461027c57807ffffffffffffffffffffffffffffffffffffffffffffffffffffffffffffffffc36011261027c5761158f73ffffffffffffffffffffffffffffffffffffffff7f0000000000000000000000000000000000000000000000000000000000000000163314612208565b6115976123a5565b8073ffffffffffffffffffffffffffffffffffffffff7f000000000000000000000000000000000000000000000000000000000000000016803b15610bf1578180916024604051809481937fe40105030000000000000000000000000000000000000000000000000000000083523060048401525af18015610a0757611664575b50807f7c8034b0915ddb06daf1c98814ae561303379b3db725b973ef0d14ea2c923d5c91a160017f9b779b17422d0df92223018b32b4d1fa46e071723d6817e2486d003becc55f005580f35b8161166e9161226d565b61027c578038611618565b503461027c57807ffffffffffffffffffffffffffffffffffffffffffffffffffffffffffffffffc36011261027c576116e973ffffffffffffffffffffffffffffffffffffffff7f0000000000000000000000000000000000000000000000000000000000000000163314612208565b6116f16123a5565b8073ffffffffffffffffffffffffffffffffffffffff7f000000000000000000000000000000000000000000000000000000000000000016803b15610bf1578180916024604051809481937fef5cfb8c0000000000000000000000000000000000000000000000000000000083523060048401525af18015610a075761179a575b5060017f9b779b17422d0df92223018b32b4d1fa46e071723d6817e2486d003becc55f005580f35b816117a49161226d565b61027c578038611772565b503461027c576101007ffffffffffffffffffffffffffffffffffffffffffffffffffffffffffffffffc36011261027c5773ffffffffffffffffffffffffffffffffffffffff7f0000000000000000000000000000000000000000000000000000000000000000163303611f36576118256123a5565b805460ff811615611ed85763ffffffff8160081c1680611e34575b506118496122dd565b6118516122ed565b60020b9060020b1215611dd65773ffffffffffffffffffffffffffffffffffffffff7f000000000000000000000000000000000000000000000000000000000000000016906040517f9d63848a000000000000000000000000000000000000000000000000000000008152604081600481865afa9081156109a95784908592611da0575b5073ffffffffffffffffffffffffffffffffffffffff90816118f5612342565b911691829116149182611d75575b8215611d19575b505015611cbb5760381c60ff1615611c55575b803b15610bed576040517fdcfc070b00000000000000000000000000000000000000000000000000000000815230600482015282808260248183875af19182611c40575b5050611c17575b803b15610bed57816040517fb0217240000000000000000000000000000000000000000000000000000000008152306004820152818160248183875af18015610a0757611c02575b50506040517f86ff5c4b000000000000000000000000000000000000000000000000000000008152306004820152602081602481855afa908115611bf7578391611bc5575b506001557fcddb7c3bd3716f33d8c8e4e6c4a630b71671c6a8c3abfee8c3b9892e8032d6df8280a160a435908282611b6b575b83611a42611a346122dd565b611a3c6122ed565b90612700565b938091503b15610bed578180916024604051809581937fe40105030000000000000000000000000000000000000000000000000000000083523060048401525af19182611b50575b5050907f65b5608d4c316ad3a012b3219ea49a3abcac394b0e3f84bd16cbe4bb2a15cf2a9360a09392611b27575b426002556fffffffffffffffffffffffffffffffff611ad56122dd565b93611ade6122ed565b6040519560020b865260020b602086015216604084015260608301526080820152a160017f9b779b17422d0df92223018b32b4d1fa46e071723d6817e2486d003becc55f005580f35b7f7c8034b0915ddb06daf1c98814ae561303379b3db725b973ef0d14ea2c923d5c8680a1611ab8565b81611b5e919594939561226d565b6102765790918438611a8a565b50611b74612342565b611b7c612365565b6044359162ffffff831683036102725760e4359173ffffffffffffffffffffffffffffffffffffffff83168303611bc157611bbc93869160c4359361241e565b611a28565b8680fd5b90506020813d602011611bef575b81611be06020938361226d565b810103126108f85751386119f5565b3d9150611bd3565b6040513d85823e3d90fd5b81611c0c9161226d565b610bed5781386119b0565b7f223cba103b37553fa55d92837815b881061ed40ebf54193471d8edb521b95df58280a1611968565b81611c4a9161226d565b61027a578238611961565b60a4351561191d5760646040517f08c379a000000000000000000000000000000000000000000000000000000000815260206004820152601a60248201527f436c69656e745661756c743a20737761702064697361626c65640000000000006044820152fd5b60646040517f08c379a000000000000000000000000000000000000000000000000000000000815260206004820152601c60248201527f436c69656e745661756c743a20746f6b656e73206d69736d61746368000000006044820152fd5b90915073ffffffffffffffffffffffffffffffffffffffff80611d3a612342565b92169116149081611d4e575b50388061190a565b905073ffffffffffffffffffffffffffffffffffffffff611d6d612365565b161438611d46565b9150611d7f612365565b73ffffffffffffffffffffffffffffffffffffffff80841691161491611903565b73ffffffffffffffffffffffffffffffffffffffff9250611dd0915060403d6040116109a257610994818361226d565b916118d5565b60646040517f08c379a000000000000000000000000000000000000000000000000000000000815260206004820152601a60248201527f436c69656e745661756c743a20696e76616c69642072616e67650000000000006044820152fd5b600254908101809111611eab574210611e4d5738611840565b60646040517f08c379a000000000000000000000000000000000000000000000000000000000815260206004820152601560248201527f436c69656e745661756c743a20636f6f6c646f776e00000000000000000000006044820152fd5b6024837f4e487b710000000000000000000000000000000000000000000000000000000081526011600452fd5b60646040517f08c379a000000000000000000000000000000000000000000000000000000000815260206004820152602060248201527f436c69656e745661756c743a206175746f6d6174696f6e2064697361626c65646044820152fd5b60646040517f08c379a000000000000000000000000000000000000000000000000000000000815260206004820152601960248201527f436c69656e745661756c743a206e6f74206578656375746f72000000000000006044820152fd5b503461027c57807ffffffffffffffffffffffffffffffffffffffffffffffffffffffffffffffffc36011261027c5761200473ffffffffffffffffffffffffffffffffffffffff7f0000000000000000000000000000000000000000000000000000000000000000163314612208565b61200c6123a5565b8073ffffffffffffffffffffffffffffffffffffffff7f000000000000000000000000000000000000000000000000000000000000000016803b15610bf1578180916024604051809581937fdcfc070b0000000000000000000000000000000000000000000000000000000083523060048401525af18015610ce4576120d8575b7f223cba103b37553fa55d92837815b881061ed40ebf54193471d8edb521b95df58180a160017f9b779b17422d0df92223018b32b4d1fa46e071723d6817e2486d003becc55f005580f35b6120e19161226d565b388161208d565b503461027c57807ffffffffffffffffffffffffffffffffffffffffffffffffffffffffffffffffc36011261027c57602060405173ffffffffffffffffffffffffffffffffffffffff7f0000000000000000000000000000000000000000000000000000000000000000168152f35b905034610bed57817ffffffffffffffffffffffffffffffffffffffffffffffffffffffffffffffffc360112610bed5760209073ffffffffffffffffffffffffffffffffffffffff7f0000000000000000000000000000000000000000000000000000000000000000168152f35b600435908160020b82036108f857565b602435908160020b82036108f857565b6004359073ffffffffffffffffffffffffffffffffffffffff821682036108f857565b1561220f57565b60646040517f08c379a000000000000000000000000000000000000000000000000000000000815260206004820152601660248201527f436c69656e745661756c743a206e6f74206f776e6572000000000000000000006044820152fd5b90601f7fffffffffffffffffffffffffffffffffffffffffffffffffffffffffffffffe0910116810190811067ffffffffffffffff8211176122ae57604052565b7f4e487b7100000000000000000000000000000000000000000000000000000000600052604160045260246000fd5b6004358060020b81036108f85790565b6024358060020b81036108f85790565b519073ffffffffffffffffffffffffffffffffffffffff821682036108f857565b91908260409103126108f85761233f6020612338846122fd565b93016122fd565b90565b60643573ffffffffffffffffffffffffffffffffffffffff811681036108f85790565b60843573ffffffffffffffffffffffffffffffffffffffff811681036108f85790565b51906fffffffffffffffffffffffffffffffff821682036108f857565b60027f9b779b17422d0df92223018b32b4d1fa46e071723d6817e2486d003becc55f0054146123f45760027f9b779b17422d0df92223018b32b4d1fa46e071723d6817e2486d003becc55f0055565b7f3ee5aeb50000000000000000000000000000000000000000000000000000000060005260046000fd5b9594919290937f00000000000000000000000000000000000000000000000000000000000000009673ffffffffffffffffffffffffffffffffffffffff88169384156126a257831561264457612475848a84612b46565b610384420192834211612615576040519261010084019484861067ffffffffffffffff8711176122ae5773ffffffffffffffffffffffffffffffffffffffff809562ffffff828a957f414bf389000000000000000000000000000000000000000000000000000000009a604052169b8c83528380602085019f169e8f81528360408601931683528160608601953087526080810198895260a08101998a5260c081019a8b528160e082019c168c526040519d8e52511660048d0152511660248b015251166044890152511660648701525160848601525160a48501525160c4840152511660e4820152602081610104816000875af1908115612609576000916125b7575b507f6782190c91d4a7e8ad2a867deed6ec0a970cab8ff137ae2bd4abd92b3810f4d391816125aa6040939987612ccf565b82519182526020820152a4565b906020823d602011612601575b816125d16020938361226d565b8101031261027c5750517f6782190c91d4a7e8ad2a867deed6ec0a970cab8ff137ae2bd4abd92b3810f4d3612579565b3d91506125c4565b6040513d6000823e3d90fd5b7f4e487b7100000000000000000000000000000000000000000000000000000000600052601160045260246000fd5b60646040517f08c379a000000000000000000000000000000000000000000000000000000000815260206004820152601760248201527f436c69656e745661756c743a20616d6f756e74496e3d300000000000000000006044820152fd5b60646040517f08c379a000000000000000000000000000000000000000000000000000000000815260206004820152601560248201527f436c69656e745661756c743a20726f757465723d3000000000000000000000006044820152fd5b909173ffffffffffffffffffffffffffffffffffffffff7f00000000000000000000000000000000000000000000000000000000000000001691604051907f9d63848a000000000000000000000000000000000000000000000000000000008252604082600481875afa90811561260957600092600092612a51575b50604051927f70a0823100000000000000000000000000000000000000000000000000000000845230600485015260208460248173ffffffffffffffffffffffffffffffffffffffff85165afa93841561260957600094612a1d575b506040517f70a0823100000000000000000000000000000000000000000000000000000000815230600482015260208160248173ffffffffffffffffffffffffffffffffffffffff88165afa908115612609576000916129eb575b5084158015906129e2575b1561298457866040946128576000978361285c96612b46565b612b46565b60648251809481937f109162ef00000000000000000000000000000000000000000000000000000000835230600484015260020b9889602484015260020b978860448401525af190811561260957600090819261290c575b506080906fffffffffffffffffffffffffffffffff837fe1b61fd8135460b22abc435eec8e97ab772042997e8696d312015dd44aedd91e949683988460015560405194855260208501526040840152166060820152a1565b91506040823d60401161297c575b816129276040938361226d565b8101031261027c57506080816fffffffffffffffffffffffffffffffff61297360207fe1b61fd8135460b22abc435eec8e97ab772042997e8696d312015dd44aedd91e95519301612388565b935050906128b4565b3d915061291a565b60646040517f08c379a000000000000000000000000000000000000000000000000000000000815260206004820152601560248201527f436c69656e745661756c743a206e6f2066756e647300000000000000000000006044820152fd5b5080151561283e565b906020823d602011612a15575b81612a056020938361226d565b8101031261027c57505138612833565b3d91506129f8565b90936020823d602011612a49575b81612a386020938361226d565b8101031261027c57505192386127d8565b3d9150612a2b565b909250612a6d915060403d6040116109a257610994818361226d565b90913861277c565b9160209060009073ffffffffffffffffffffffffffffffffffffffff604051947fa9059cbb0000000000000000000000000000000000000000000000000000000084521660045260245260448180865af190600160005114821615612b24575b60405215612ae05750565b73ffffffffffffffffffffffffffffffffffffffff907f5274afe7000000000000000000000000000000000000000000000000000000006000521660045260246000fd5b906001811516612b3c57823b15153d15161690612ad5565b503d6000823e3d90fd5b8215612cca576040517fdd62ed3e00000000000000000000000000000000000000000000000000000000815230600482015273ffffffffffffffffffffffffffffffffffffffff8381166024830152919091169290602081604481875afa90811561260957600091612c98575b5010612bbd575050565b612bc78183612ccf565b612bf27fffffffffffffffffffffffffffffffffffffffffffffffffffffffffffffffff8284612d4c565b15612bfb575050565b612c058183612dc7565b15612c6a577fffffffffffffffffffffffffffffffffffffffffffffffffffffffffffffffff612c359183612e52565b15612c3d5750565b7f5274afe70000000000000000000000000000000000000000000000000000000060005260045260246000fd5b507f5274afe70000000000000000000000000000000000000000000000000000000060005260045260246000fd5b90506020813d602011612cc2575b81612cb36020938361226d565b810103126108f8575138612bb3565b3d9150612ca6565b505050565b90612cdc60008284612d4c565b15612ce5575050565b612cef8183612dc7565b15612d08576000612d009183612e52565b15612ae05750565b73ffffffffffffffffffffffffffffffffffffffff827f5274afe7000000000000000000000000000000000000000000000000000000006000521660045260246000fd5b92919260009373ffffffffffffffffffffffffffffffffffffffff604051937f095ea7b30000000000000000000000000000000000000000000000000000000087521660045260245260208460448180855af1936001815114851615612db4575b5050604052565b939193503b15153d151616913880612dad565b919073ffffffffffffffffffffffffffffffffffffffff604051917f095ea7b3000000000000000000000000000000000000000000000000000000006000521660045260006024526020600060448180875af192600160005114841615612e2f575b50604052565b60018492941516612e48573b15153d1516169138612e29565b833d6000823e3d90fd5b929173ffffffffffffffffffffffffffffffffffffffff604051927f095ea7b300000000000000000000000000000000000000000000000000000000600052166004526024526020600060448180875af192600160005114841615612e2f575060405256fea2646970667358221220ce4259f6ee34e2bf7a461bd8fbd4ca6580dc07f7686b381a67d9d096f49e29b864736f6c634300081e0033","linkReferences":{}},"methodIdentifiers":{"adapter()":"03eadcfc","allowSwap()":"79886b9d","autoRebalancePancake((int24,int24,uint24,address,address,uint256,uint256,uint160))":"33fdf8c9","automationEnabled()":"d966a594","claimRewards()":"372500ab","collectToVault()":"7b0f7cc9","cooldownSec()":"e7cb9f2d","dexRouter()":"0758d924","executor()":"c34c08e5","exitPositionAndWithdrawAll(address)":"bc0931b9","exitPositionToVault()":"7ba45d59","feeCollector()":"c415b95c","getAutomationConfig()":"4d2e259c","lastRebalanceTs()":"d1a663bb","maxSlippageBps()":"c4aa7395","openInitialPosition(int24,int24)":"a04cedd5","owner()":"8da5cb5b","positionTokenId()":"ceefe5d1","positionTokenIdView()":"799b2b54","rebalanceWithCaps(int24,int24,uint256,uint256)":"824518de","setAutomationConfig(uint32,uint16,bool)":"fe86702b","setAutomationEnabled(bool)":"79e66622","stake()":"3a4b66f1","strategyId()":"492f4e18","swapExactInPancake(address,address,uint24,uint256,uint256,uint160)":"f1070bd3","tokens()":"9d63848a","unstake()":"2def6620"},"id":80}