{"abi":[{"type":"constructor","inputs":[{"name":"initialOwner","type":"address","internalType":"address"},{"name":"initialTreasury","type":"address","internalType":"address"},{"name":"initialProtocolFeeBps","type":"uint16","internalType":"uint16"}],"stateMutability":"nonpayable"},{"type":"function","name":"authorizedReporter","inputs":[{"name":"","type":"address","internalType":"address"}],"outputs":[{"name":"","type":"bool","internalType":"bool"}],"stateMutability":"view"},{"type":"function","name":"owner","inputs":[],"outputs":[{"name":"","type":"address","internalType":"address"}],"stateMutability":"view"},{"type":"function","name":"protocolFeeBps","inputs":[],"outputs":[{"name":"","type":"uint16","internalType":"uint16"}],"stateMutability":"view"},{"type":"function","name":"renounceOwnership","inputs":[],"outputs":[],"stateMutability":"nonpayable"},{"type":"function","name":"reportFees","inputs":[{"name":"strategyId","type":"uint256","internalType":"uint256"},{"name":"token","type":"address","internalType":"address"},{"name":"amount","type":"uint256","internalType":"uint256"}],"outputs":[],"stateMutability":"nonpayable"},{"type":"function","name":"setProtocolFeeBps","inputs":[{"name":"newBps","type":"uint16","internalType":"uint16"}],"outputs":[],"stateMutability":"nonpayable"},{"type":"function","name":"setReporter","inputs":[{"name":"reporter","type":"address","internalType":"address"},{"name":"authorized","type":"bool","internalType":"bool"}],"outputs":[],"stateMutability":"nonpayable"},{"type":"function","name":"setTreasury","inputs":[{"name":"newTreasury","type":"address","internalType":"address"}],"outputs":[],"stateMutability":"nonpayable"},{"type":"function","name":"strategyByToken","inputs":[{"name":"","type":"uint256","internalType":"uint256"},{"name":"","type":"address","internalType":"address"}],"outputs":[{"name":"","type":"uint256","internalType":"uint256"}],"stateMutability":"view"},{"type":"function","name":"totalByToken","inputs":[{"name":"","type":"address","internalType":"address"}],"outputs":[{"name":"","type":"uint256","internalType":"uint256"}],"stateMutability":"view"},{"type":"function","name":"transferOwnership","inputs":[{"name":"newOwner","type":"address","internalType":"address"}],"outputs":[],"stateMutability":"nonpayable"},{"type":"function","name":"treasury","inputs":[],"outputs":[{"name":"","type":"address","internalType":"address"}],"stateMutability":"view"},{"type":"function","name":"withdrawFees","inputs":[{"name":"token","type":"address","internalType":"address"},{"name":"amount","type":"uint256","internalType":"uint256"},{"name":"to","type":"address","internalType":"address"}],"outputs":[],"stateMutability":"nonpayable"},{"type":"event","name":"FeesReported","inputs":[{"name":"reporter","type":"address","indexed":true,"internalType":"address"},{"name":"strategyId","type":"uint256","indexed":true,"internalType":"uint256"},{"name":"token","type":"address","indexed":true,"internalType":"address"},{"name":"amount","type":"uint256","indexed":false,"internalType":"uint256"}],"anonymous":false},{"type":"event","name":"FeesWithdrawn","inputs":[{"name":"token","type":"address","indexed":true,"internalType":"address"},{"name":"to","type":"address","indexed":true,"internalType":"address"},{"name":"amount","type":"uint256","indexed":false,"internalType":"uint256"}],"anonymous":false},{"type":"event","name":"OwnershipTransferred","inputs":[{"name":"previousOwner","type":"address","indexed":true,"internalType":"address"},{"name":"newOwner","type":"address","indexed":true,"internalType":"address"}],"anonymous":false},{"type":"event","name":"ProtocolFeeBpsUpdated","inputs":[{"name":"oldBps","type":"uint16","indexed":false,"internalType":"uint16"},{"name":"newBps","type":"uint16","indexed":false,"internalType":"uint16"}],"anonymous":false},{"type":"event","name":"ReporterAuthorizationUpdated","inputs":[{"name":"reporter","type":"address","indexed":true,"internalType":"address"},{"name":"authorized","type":"bool","indexed":false,"internalType":"bool"}],"anonymous":false},{"type":"event","name":"TreasuryUpdated","inputs":[{"name":"oldTreasury","type":"address","indexed":true,"internalType":"address"},{"name":"newTreasury","type":"address","indexed":true,"internalType":"address"}],"anonymous":false},{"type":"error","name":"OwnableInvalidOwner","inputs":[{"name":"owner","type":"address","internalType":"address"}]},{"type":"error","name":"OwnableUnauthorizedAccount","inputs":[{"name":"account","type":"address","internalType":"address"}]},{"type":"error","name":"ReentrancyGuardReentrantCall","inputs":[]},{"type":"error","name":"SafeERC20FailedOperation","inputs":[{"name":"token","type":"address","internalType":"address"}]}],"bytecode":{"object":"0x6080346101d157601f6110ab38819003918201601f19168301916001600160401b038311848410176101d6578084926060946040528339810103126101d157610047816101ec565b906040610056602083016101ec565b9101519161ffff8316908184036101d1576001600160a01b03169182156101bb57600080546001600160a01b031981168517825560405194916001600160a01b03909116907f8be0079c531659141344cd1fd0a4f28419497f9722a3daafe3b4186f6b6457e09080a360017f9b779b17422d0df92223018b32b4d1fa46e071723d6817e2486d003becc55f00556001600160a01b0316918215610179575061138810610129576001549161ffff60a01b9060a01b169160018060b01b0319161717600155604051610eaa90816102018239f35b60405162461bcd60e51b815260206004820152602260248201527f50726f746f636f6c466565436f6c6c6563746f723a2066656520746f6f2068696044820152610ced60f31b6064820152608490fd5b62461bcd60e51b815260206004820181905260248201527f50726f746f636f6c466565436f6c6c6563746f723a2074726561737572793d306044820152606490fd5b631e4fbdf760e01b600052600060045260246000fd5b600080fd5b634e487b7160e01b600052604160045260246000fd5b51906001600160a01b03821682036101d15756fe608080604052600436101561001357600080fd5b60003560e01c90816335659fb814610c855750806361d027b314610c33578063715018a614610b9757806373e29a8814610b2d5780638da5cb5b14610adb5780639ba372c2146108c4578063be37b12c14610772578063d4318adf1461070d578063e1bb5133146105df578063f0f44260146104be578063f2fde38b146103cc578063f7319640146103585763fc8e3896146100ae57600080fd5b346103535760607ffffffffffffffffffffffffffffffffffffffffffffffffffffffffffffffffc360112610353576004356100e8610ce8565b90604435916100f5610dfb565b33600052600260205260ff60406000205416156102d05773ffffffffffffffffffffffffffffffffffffffff169161012e831515610d0b565b80156102725760006020604051917f23b872dd00000000000000000000000000000000000000000000000000000000815233600452306024528360445260648180885af190600160005114821615610250575b6040526000606052156102225782600052600360205260406000206101a7828254610d70565b905581600052600460205260406000208360005260205260406000206101ce828254610d70565b90556040519081527fba4c6cd5cec3d85701362b3e5222938ad616e5ee2ebd30b0a7a42884816d3cc860203392a460017f9b779b17422d0df92223018b32b4d1fa46e071723d6817e2486d003becc55f0055005b827f5274afe70000000000000000000000000000000000000000000000000000000060005260045260246000fd5b90600181151661026857843b15153d15161690610181565b503d6000823e3d90fd5b60646040517f08c379a000000000000000000000000000000000000000000000000000000000815260206004820152601e60248201527f50726f746f636f6c466565436f6c6c6563746f723a20616d6f756e743d3000006044820152fd5b60846040517f08c379a0000000000000000000000000000000000000000000000000000000008152602060048201526024808201527f50726f746f636f6c466565436f6c6c6563746f723a206e6f7420617574686f7260448201527f697a6564000000000000000000000000000000000000000000000000000000006064820152fd5b600080fd5b346103535760407ffffffffffffffffffffffffffffffffffffffffffffffffffffffffffffffffc3601126103535761038f610ce8565b600435600052600460205273ffffffffffffffffffffffffffffffffffffffff604060002091166000526020526020604060002054604051908152f35b346103535760207ffffffffffffffffffffffffffffffffffffffffffffffffffffffffffffffffc3601126103535773ffffffffffffffffffffffffffffffffffffffff610418610cc5565b610420610dac565b16801561048f5773ffffffffffffffffffffffffffffffffffffffff600054827fffffffffffffffffffffffff0000000000000000000000000000000000000000821617600055167f8be0079c531659141344cd1fd0a4f28419497f9722a3daafe3b4186f6b6457e0600080a3005b7f1e4fbdf700000000000000000000000000000000000000000000000000000000600052600060045260246000fd5b346103535760207ffffffffffffffffffffffffffffffffffffffffffffffffffffffffffffffffc3601126103535773ffffffffffffffffffffffffffffffffffffffff61050a610cc5565b610512610dac565b1680156105815773ffffffffffffffffffffffffffffffffffffffff600154827fffffffffffffffffffffffff0000000000000000000000000000000000000000821617600155167f4ab5be82436d353e61ca18726e984e561f5c1cc7c6d38b29d2553c790434705a600080a3005b60646040517f08c379a000000000000000000000000000000000000000000000000000000000815260206004820152602060248201527f50726f746f636f6c466565436f6c6c6563746f723a2074726561737572793d306044820152fd5b346103535760407ffffffffffffffffffffffffffffffffffffffffffffffffffffffffffffffffc36011261035357610616610cc5565b602435908115158092036103535773ffffffffffffffffffffffffffffffffffffffff90610642610dac565b169081156106af5760207fe5f91a550f392839def17eb9a01fb77e02e7b5089413c63158f526349d5015e091836000526002825260406000207fffffffffffffffffffffffffffffffffffffffffffffffffffffffffffffff0081541660ff8316179055604051908152a2005b60646040517f08c379a000000000000000000000000000000000000000000000000000000000815260206004820152602060248201527f50726f746f636f6c466565436f6c6c6563746f723a207265706f727465723d306044820152fd5b346103535760207ffffffffffffffffffffffffffffffffffffffffffffffffffffffffffffffffc3601126103535773ffffffffffffffffffffffffffffffffffffffff610759610cc5565b1660005260036020526020604060002054604051908152f35b346103535760207ffffffffffffffffffffffffffffffffffffffffffffffffffffffffffffffffc3601126103535760043561ffff8116808203610353576107b8610dac565b6113888111610840577f740c4f8812f57c051142b386664c613b7140458e4fd9420eda309b6d0ad319099160409175ffff00000000000000000000000000000000000000006001549260a01b167fffffffffffffffffffff0000ffffffffffffffffffffffffffffffffffffffff83161760015561ffff83519260a01c1682526020820152a1005b60846040517f08c379a000000000000000000000000000000000000000000000000000000000815260206004820152602260248201527f50726f746f636f6c466565436f6c6c6563746f723a2066656520746f6f20686960448201527f67680000000000000000000000000000000000000000000000000000000000006064820152fd5b346103535760607ffffffffffffffffffffffffffffffffffffffffffffffffffffffffffffffffc360112610353576108fb610cc5565b6024359060443573ffffffffffffffffffffffffffffffffffffffff8116918282036103535773ffffffffffffffffffffffffffffffffffffffff9061093f610dac565b610947610dfb565b1691610954831515610d0b565b610ac0575073ffffffffffffffffffffffffffffffffffffffff80600154165b16918215610a3c576000906020604051927fa9059cbb000000000000000000000000000000000000000000000000000000008152856004528260245260448180875af1600160005114811615610a1c575b826040521561022257816020917f5e110f8bc8a20b65dcc87f224bdf1cc039346e267118bae2739847f07321ffa89352a360017f9b779b17422d0df92223018b32b4d1fa46e071723d6817e2486d003becc55f0055005b6001811516610a3257833b15153d1516166109c5565b823d6000823e3d90fd5b60846040517f08c379a000000000000000000000000000000000000000000000000000000000815260206004820152602160248201527f50726f746f636f6c466565436f6c6c6563746f723a20726563697069656e743d60448201527f30000000000000000000000000000000000000000000000000000000000000006064820152fd5b73ffffffffffffffffffffffffffffffffffffffff90610974565b346103535760007ffffffffffffffffffffffffffffffffffffffffffffffffffffffffffffffffc36011261035357602073ffffffffffffffffffffffffffffffffffffffff60005416604051908152f35b346103535760207ffffffffffffffffffffffffffffffffffffffffffffffffffffffffffffffffc3601126103535773ffffffffffffffffffffffffffffffffffffffff610b79610cc5565b166000526002602052602060ff604060002054166040519015158152f35b346103535760007ffffffffffffffffffffffffffffffffffffffffffffffffffffffffffffffffc36011261035357610bce610dac565b600073ffffffffffffffffffffffffffffffffffffffff81547fffffffffffffffffffffffff000000000000000000000000000000000000000081168355167f8be0079c531659141344cd1fd0a4f28419497f9722a3daafe3b4186f6b6457e08280a3005b346103535760007ffffffffffffffffffffffffffffffffffffffffffffffffffffffffffffffffc36011261035357602073ffffffffffffffffffffffffffffffffffffffff60015416604051908152f35b346103535760007ffffffffffffffffffffffffffffffffffffffffffffffffffffffffffffffffc3601126103535760209061ffff60015460a01c168152f35b6004359073ffffffffffffffffffffffffffffffffffffffff8216820361035357565b6024359073ffffffffffffffffffffffffffffffffffffffff8216820361035357565b15610d1257565b60646040517f08c379a000000000000000000000000000000000000000000000000000000000815260206004820152601d60248201527f50726f746f636f6c466565436f6c6c6563746f723a20746f6b656e3d300000006044820152fd5b91908201809211610d7d57565b7f4e487b7100000000000000000000000000000000000000000000000000000000600052601160045260246000fd5b73ffffffffffffffffffffffffffffffffffffffff600054163303610dcd57565b7f118cdaa7000000000000000000000000000000000000000000000000000000006000523360045260246000fd5b60027f9b779b17422d0df92223018b32b4d1fa46e071723d6817e2486d003becc55f005414610e4a5760027f9b779b17422d0df92223018b32b4d1fa46e071723d6817e2486d003becc55f0055565b7f3ee5aeb50000000000000000000000000000000000000000000000000000000060005260046000fdfea2646970667358221220dc7aeb3a8c1c8d913950a984c9210dfa691c35f56a4c3bbfba6d75b0b652ba6664736f6c634300081e0033","linkReferences":{}},"methodIdentifiers":{"authorizedReporter(address)":"73e29a88","owner()":"8da5cb5b","protocolFeeBps()":"35659fb8","renounceOwnership()":"715018a6","reportFees(uint256,address,uint256)":"fc8e3896","setProtocolFeeBps(uint16)":"be37b12c","setReporter(address,bool)":"e1bb5133","setTreasury(address)":"f0f44260","strategyByToken(uint256,address)":"f7319640","totalByToken(address)":"d4318adf","transferOwnership(address)":"f2fde38b","treasury()":"61d027b3","withdrawFees(address,uint256,address)":"9ba372c2"},"id":81}