{"abi":[{"type":"constructor","inputs":[{"name":"factory_","type":"address","internalType":"address"}],"stateMutability":"nonpayable"},{"type":"function","name":"factory","inputs":[],"outputs":[{"name":"","type":"address","internalType":"address"}],"stateMutability":"view"}],"bytecode":{"object":"0x608034606f57601f61013938819003918201601f19168301916001600160401b03831184841017607457808492602094604052833981010312606f57516001600160a01b03811690819003606f57600080546001600160a01b03191691909117905560405160ae908161008b8239f35b600080fd5b634e487b7160e01b600052604160045260246000fdfe6080806040526004361015601257600080fd5b60003560e01c63c45a015514602657600080fd5b3460735760007ffffffffffffffffffffffffffffffffffffffffffffffffffffffffffffffffc36011260735760209073ffffffffffffffffffffffffffffffffffffffff600054168152f35b600080fdfea2646970667358221220d2d1b0964ce13d663417a08f880078d9f213deca4037ca5bbd097be1c22bbc4564736f6c634300081e0033","linkReferences":{}},"methodIdentifiers":{"factory()":"c45a0155"},"id":80}