{"abi":[{"type":"constructor","inputs":[{"name":"_pool","type":"address","internalType":"address"},{"name":"_nfpm","type":"address","internalType":"address"},{"name":"_gauge","type":"address","internalType":"address"}],"stateMutability":"nonpayable"},{"type":"function","name":"claimRewards","inputs":[{"name":"vault","type":"address","internalType":"address"}],"outputs":[],"stateMutability":"nonpayable"},{"type":"function","name":"collectToVault","inputs":[{"name":"vault","type":"address","internalType":"address"}],"outputs":[{"name":"amount0","type":"uint256","internalType":"uint256"},{"name":"amount1","type":"uint256","internalType":"uint256"}],"stateMutability":"nonpayable"},{"type":"function","name":"currentRange","inputs":[{"name":"vault","type":"address","internalType":"address"}],"outputs":[{"name":"lower","type":"int24","internalType":"int24"},{"name":"upper","type":"int24","internalType":"int24"},{"name":"liquidity","type":"uint128","internalType":"uint128"}],"stateMutability":"view"},{"type":"function","name":"currentTokenId","inputs":[{"name":"vault","type":"address","internalType":"address"}],"outputs":[{"name":"","type":"uint256","internalType":"uint256"}],"stateMutability":"view"},{"type":"function","name":"exitPositionToVault","inputs":[{"name":"vault","type":"address","internalType":"address"}],"outputs":[],"stateMutability":"nonpayable"},{"type":"function","name":"gauge","inputs":[],"outputs":[{"name":"","type":"address","internalType":"address"}],"stateMutability":"view"},{"type":"function","name":"lastRebalance","inputs":[{"name":"","type":"address","internalType":"address"}],"outputs":[{"name":"","type":"uint256","internalType":"uint256"}],"stateMutability":"view"},{"type":"function","name":"maxTwapDeviationTicks","inputs":[],"outputs":[{"name":"","type":"int24","internalType":"int24"}],"stateMutability":"view"},{"type":"function","name":"maxWidth","inputs":[],"outputs":[{"name":"","type":"int24","internalType":"int24"}],"stateMutability":"view"},{"type":"function","name":"minCooldown","inputs":[],"outputs":[{"name":"","type":"uint256","internalType":"uint256"}],"stateMutability":"view"},{"type":"function","name":"minWidth","inputs":[],"outputs":[{"name":"","type":"int24","internalType":"int24"}],"stateMutability":"view"},{"type":"function","name":"nfpm","inputs":[],"outputs":[{"name":"","type":"address","internalType":"address"}],"stateMutability":"view"},{"type":"function","name":"onERC721Received","inputs":[{"name":"","type":"address","internalType":"address"},{"name":"","type":"address","internalType":"address"},{"name":"","type":"uint256","internalType":"uint256"},{"name":"","type":"bytes","internalType":"bytes"}],"outputs":[{"name":"","type":"bytes4","internalType":"bytes4"}],"stateMutability":"pure"},{"type":"function","name":"openInitialPosition","inputs":[{"name":"vault","type":"address","internalType":"address"},{"name":"tickLower","type":"int24","internalType":"int24"},{"name":"tickUpper","type":"int24","internalType":"int24"}],"outputs":[{"name":"tokenId","type":"uint256","internalType":"uint256"},{"name":"liquidity","type":"uint128","internalType":"uint128"}],"stateMutability":"nonpayable"},{"type":"function","name":"pool","inputs":[],"outputs":[{"name":"","type":"address","internalType":"address"}],"stateMutability":"view"},{"type":"function","name":"rebalanceWithCaps","inputs":[{"name":"vault","type":"address","internalType":"address"},{"name":"tickLower","type":"int24","internalType":"int24"},{"name":"tickUpper","type":"int24","internalType":"int24"},{"name":"cap0","type":"uint256","internalType":"uint256"},{"name":"cap1","type":"uint256","internalType":"uint256"}],"outputs":[{"name":"newLiquidity","type":"uint128","internalType":"uint128"}],"stateMutability":"nonpayable"},{"type":"function","name":"slot0","inputs":[],"outputs":[{"name":"sqrtPriceX96","type":"uint160","internalType":"uint160"},{"name":"tick","type":"int24","internalType":"int24"}],"stateMutability":"view"},{"type":"function","name":"stakePosition","inputs":[{"name":"vault","type":"address","internalType":"address"}],"outputs":[],"stateMutability":"nonpayable"},{"type":"function","name":"tickSpacing","inputs":[],"outputs":[{"name":"","type":"int24","internalType":"int24"}],"stateMutability":"view"},{"type":"function","name":"tokens","inputs":[],"outputs":[{"name":"token0","type":"address","internalType":"address"},{"name":"token1","type":"address","internalType":"address"}],"stateMutability":"view"},{"type":"function","name":"twapWindow","inputs":[],"outputs":[{"name":"","type":"uint32","internalType":"uint32"}],"stateMutability":"view"},{"type":"function","name":"unstakePosition","inputs":[{"name":"vault","type":"address","internalType":"address"}],"outputs":[],"stateMutability":"nonpayable"},{"type":"error","name":"SafeERC20FailedOperation","inputs":[{"name":"token","type":"address","internalType":"address"}]}],"bytecode":{"object":"0x60e03461018757601f6135bb38819003918201601f19168301916001600160401b0383118484101761018c5780849260609460405283398101031261018757610047816101a2565b906100606040610059602084016101a2565b92016101a2565b603c600255600380546001600160681b031916693c0000320dbba0000005179055916001600160a01b038116151580610175575b1561014a5760805260a05260c05260405161340490816101b782396080518181816102ea01528181610a0f015281816113aa01528181611648015281816118e20152612330015260a0518181816105c0015281816106880152818161097c015281816109a70152818161155a0152818161187101528181612243015281816124980152612b1c015260c0518181816103fc01528181612552015281816129e101528181612ab201528181612c0201526131a40152f35b606460405162461bcd60e51b81526020600482015260046024820152637a65726f60e01b6044820152fd5b506001600160a01b0382161515610094565b600080fd5b634e487b7160e01b600052604160045260246000fd5b51906001600160a01b03821682036101875756fe608080604052600436101561001357600080fd5b600090813560e01c908163035229cf14611dce57508063109162ef14611714578063150b7a021461166c57806316f0115b146115fd578063270d3136146114ac5780633850c7bd146113385780636006ecc8146112f6578063616ea557146112b45780636783ac17146105e45780637303e91314610575578063762100e7146105275780638107e133146104e257806386ff5c4b146104805780639d63848a14610420578063a6f19c84146103b1578063b021724014610371578063d0c93a7c14610277578063d6e8b9f31461023b578063dcfc070b146101fb578063e4010503146101bb578063ef5cfb8c146101785763fdd0fd2d1461011357600080fd5b346101755760207ffffffffffffffffffffffffffffffffffffffffffffffffffffffffffffffffc36011261017557604060209173ffffffffffffffffffffffffffffffffffffffff610164611e0b565b168152600183522054604051908152f35b80fd5b50346101755760207ffffffffffffffffffffffffffffffffffffffffffffffffffffffffffffffffc360112610175576101b86101b3611e0b565b612c00565b80f35b50346101755760207ffffffffffffffffffffffffffffffffffffffffffffffffffffffffffffffffc360112610175576101b86101f6611e0b565b612a98565b50346101755760207ffffffffffffffffffffffffffffffffffffffffffffffffffffffffffffffffc360112610175576101b8610236611e0b565b6129c7565b503461017557807ffffffffffffffffffffffffffffffffffffffffffffffffffffffffffffffffc360112610175576020600254604051908152f35b503461017557807ffffffffffffffffffffffffffffffffffffffffffffffffffffffffffffffffc36011261017557604051907fd0c93a7c00000000000000000000000000000000000000000000000000000000825260208260048173ffffffffffffffffffffffffffffffffffffffff7f0000000000000000000000000000000000000000000000000000000000000000165afa908115610365578091610328575b6020826040519060020b8152f35b90506020823d60201161035d575b8161034360209383611ef5565b810103126101755750610357602091611f36565b3861031a565b3d9150610336565b604051903d90823e3d90fd5b50346101755760207ffffffffffffffffffffffffffffffffffffffffffffffffffffffffffffffffc360112610175576101b86103ac611e0b565b612447565b503461017557807ffffffffffffffffffffffffffffffffffffffffffffffffffffffffffffffffc36011261017557602060405173ffffffffffffffffffffffffffffffffffffffff7f0000000000000000000000000000000000000000000000000000000000000000168152f35b503461017557807ffffffffffffffffffffffffffffffffffffffffffffffffffffffffffffffffc36011261017557610457612319565b6040805173ffffffffffffffffffffffffffffffffffffffff9384168152919092166020820152f35b50346101755760207ffffffffffffffffffffffffffffffffffffffffffffffffffffffffffffffffc36011261017557604060209173ffffffffffffffffffffffffffffffffffffffff6104d2611e0b565b1681528083522054604051908152f35b503461017557807ffffffffffffffffffffffffffffffffffffffffffffffffffffffffffffffffc36011261017557602063ffffffff60035460481c16604051908152f35b50346101755760207ffffffffffffffffffffffffffffffffffffffffffffffffffffffffffffffffc360112610175576040610569610564611e0b565b612136565b82519182526020820152f35b503461017557807ffffffffffffffffffffffffffffffffffffffffffffffffffffffffffffffffc36011261017557602060405173ffffffffffffffffffffffffffffffffffffffff7f0000000000000000000000000000000000000000000000000000000000000000168152f35b50346101755760a07ffffffffffffffffffffffffffffffffffffffffffffffffffffffffffffffffc3601126101755761061c611e0b565b90610625611e51565b9061062e611e61565b926064359360843573ffffffffffffffffffffffffffffffffffffffff8316845283602052604084205495610664871515611f8a565b61066d8761318d565b6112565773ffffffffffffffffffffffffffffffffffffffff7f0000000000000000000000000000000000000000000000000000000000000000169661076e604080516106b981611ebd565b8381523060208201526fffffffffffffffffffffffffffffffff828201526fffffffffffffffffffffffffffffffff60608201528151809381927ffc6f78650000000000000000000000000000000000000000000000000000000083526004830191909160606fffffffffffffffffffffffffffffffff8160808401958051855273ffffffffffffffffffffffffffffffffffffffff6020820151166020860152826040820151166040860152015116910152565b03818a8d5af180156111d457611238575b506040517f99fbab88000000000000000000000000000000000000000000000000000000008152816004820152610180816024818c5afa9081156111d457906fffffffffffffffffffffffffffffffff9188916111fd575b5016806110da575b50873b156110d657604051907f42966c6800000000000000000000000000000000000000000000000000000000825260048201528581602481838c5af180156110cb576110b7575b5073ffffffffffffffffffffffffffffffffffffffff8416855284602052846040812055610853612319565b939096604051927f70a0823100000000000000000000000000000000000000000000000000000000845230600485015260208460248173ffffffffffffffffffffffffffffffffffffffff8d165afa938415610e2e578894611083575b50604051907f70a0823100000000000000000000000000000000000000000000000000000000825230600483015260208260248173ffffffffffffffffffffffffffffffffffffffff8b165afa918215611078578992611044575b508061103e57507fffffffffffffffffffffffffffffffffffffffffffffffffffffffffffffffff945b8061103957507fffffffffffffffffffffffffffffffffffffffffffffffffffffffffffffffff5b848a8397828111610f41575b505050818111610e39575b50506109a1837f00000000000000000000000000000000000000000000000000000000000000008a612f31565b6109cc847f000000000000000000000000000000000000000000000000000000000000000087612f31565b6040517fd0c93a7c00000000000000000000000000000000000000000000000000000000815260208160048173ffffffffffffffffffffffffffffffffffffffff7f0000000000000000000000000000000000000000000000000000000000000000165afa908115610e2e578891610dda575b5093610ba993899a93899a9360809773ffffffffffffffffffffffffffffffffffffffff60405196610a7088611e71565b16865273ffffffffffffffffffffffffffffffffffffffff8a16602087015260020b604086015260020b606085015260020b8684015260a083015260c08201528660e0820152866101008201523061012082015242610140820152866101608201526040519788809481937fb5007d1f0000000000000000000000000000000000000000000000000000000083526004830191909161016073ffffffffffffffffffffffffffffffffffffffff81610180840195828151168552826020820151166020860152604081015160020b6040860152606081015160020b6060860152608081015160020b608086015260a081015160a086015260c081015160c086015260e081015160e08601526101008101516101008601528261012082015116610120860152610140810151610140860152015116910152565b03925af1938415610dcf5783908495610d99575b5073ffffffffffffffffffffffffffffffffffffffff831684528360205260408420556040517f70a0823100000000000000000000000000000000000000000000000000000000815230600482015260208160248173ffffffffffffffffffffffffffffffffffffffff8a165afa908115610d8e578491610d5c575b50604051907f70a0823100000000000000000000000000000000000000000000000000000000825230600483015260208260248173ffffffffffffffffffffffffffffffffffffffff87165afa918215610d51578592610d11575b5090602096828573ffffffffffffffffffffffffffffffffffffffff969594610cfe575b91505081610ceb575b505050168152600183526040429120556fffffffffffffffffffffffffffffffff60405191168152f35b84610cf6931661310a565b388082610cc1565b86610d09931661310a565b388084610cb8565b939291506020843d602011610d49575b81610d2e60209383611ef5565b81010312610d4457925191929091906020610c94565b600080fd5b3d9150610d21565b6040513d87823e3d90fd5b90506020813d602011610d86575b81610d7760209383611ef5565b81010312610d44575138610c39565b3d9150610d6a565b6040513d86823e3d90fd5b9050610dbe91945060803d608011610dc8575b610db68183611ef5565b810190611f61565b5050939038610bbd565b503d610dac565b6040513d85823e3d90fd5b90506020813d602011610e26575b81610df560209383611ef5565b81010312610e225793610ba993899a93899a93610e13608098611f36565b9397509350939a995093610a3f565b8780fd5b3d9150610de8565b6040513d8a823e3d90fd5b81610e43916120ed565b604051907f70a0823100000000000000000000000000000000000000000000000000000000825273ffffffffffffffffffffffffffffffffffffffff8916600483015260208260248173ffffffffffffffffffffffffffffffffffffffff8c165afa918215610f36578a92610f02575b5081811115610efa5750905b811561097457610ef2929550610eed82308a73ffffffffffffffffffffffffffffffffffffffff8b16612e54565b612129565b923880610974565b905090610ebf565b9091506020813d602011610f2e575b81610f1e60209383611ef5565b81010312610d4457519038610eb3565b3d9150610f11565b6040513d8c823e3d90fd5b82610f4b916120ed565b602073ffffffffffffffffffffffffffffffffffffffff60248d8260405196879485937f70a08231000000000000000000000000000000000000000000000000000000008552166004840152165afa91821561102e578c92610ffa575b5081811115610ff25750905b81610fc1575b8b90610969565b610fea929650610eed828d8c73ffffffffffffffffffffffffffffffffffffffff309216612e54565b933880610fba565b905090610fb4565b9091506020813d602011611026575b8161101660209383611ef5565b81010312610d4457519038610fa8565b3d9150611009565b6040513d8e823e3d90fd5b61095d565b94610935565b9091506020813d602011611070575b8161106060209383611ef5565b81010312610d445751903861090b565b3d9150611053565b6040513d8b823e3d90fd5b9093506020813d6020116110af575b8161109f60209383611ef5565b81010312610d44575192386108b0565b3d9150611092565b856110c491969296611ef5565b9338610827565b6040513d88823e3d90fd5b8580fd5b60408051611173926110eb82611ed9565b848252602082019081528282018a9052606082018a8152426080840190815284517f0c49ccbe0000000000000000000000000000000000000000000000000000000081528451600482015292516fffffffffffffffffffffffffffffffff166024840152604090930151604483015251606482015290516084820152918290819060a4820190565b03818a8d5af180156111d4576111df575b50611195604080516106b981611ebd565b03818a8d5af180156111d457156107df576111c79060403d6040116111cd575b6111bf8183611ef5565b8101906120d7565b506107df565b503d6111b5565b6040513d89823e3d90fd5b6111f79060403d6040116111cd576111bf8183611ef5565b50611184565b61121f91506101803d8111611231575b6112178183611ef5565b810190612010565b505050509650505050505050386107d7565b503d61120d565b6112509060403d6040116111cd576111bf8183611ef5565b5061077f565b60646040517f08c379a000000000000000000000000000000000000000000000000000000000815260206004820152600660248201527f7374616b656400000000000000000000000000000000000000000000000000006044820152fd5b503461017557807ffffffffffffffffffffffffffffffffffffffffffffffffffffffffffffffffc36011261017557602060035460301c60020b604051908152f35b503461017557807ffffffffffffffffffffffffffffffffffffffffffffffffffffffffffffffffc36011261017557602060035460181c60020b604051908152f35b503461017557807ffffffffffffffffffffffffffffffffffffffffffffffffffffffffffffffffc360112610175576040517f3850c7bd00000000000000000000000000000000000000000000000000000000815260c08160048173ffffffffffffffffffffffffffffffffffffffff7f0000000000000000000000000000000000000000000000000000000000000000165afa80156114a15782918391611404575b6040838373ffffffffffffffffffffffffffffffffffffffff83519216825260020b6020820152f35b91505060c0813d60c011611499575b8161142060c09383611ef5565b8101031261149557805173ffffffffffffffffffffffffffffffffffffffff81168103611491576040925061148960a061145c60208501611f36565b936114688682016120bb565b50611475606082016120bb565b50611482608082016120bb565b50016120ca565b5090386113db565b8280fd5b5080fd5b3d9150611413565b6040513d84823e3d90fd5b50346101755760207ffffffffffffffffffffffffffffffffffffffffffffffffffffffffffffffffc3601126101755773ffffffffffffffffffffffffffffffffffffffff6114f9611e0b565b168152806020526040812054611510811515611f8a565b604051907f99fbab8800000000000000000000000000000000000000000000000000000000825260048201526101808160248173ffffffffffffffffffffffffffffffffffffffff7f0000000000000000000000000000000000000000000000000000000000000000165afa80156114a157916060928180916115bb575b6fffffffffffffffffffffffffffffffff9293506040519360020b845260020b6020840152166040820152f35b5050506115e76fffffffffffffffffffffffffffffffff916101803d8111611231576112178183611ef5565b505050509550969550925050509283925061158e565b503461017557807ffffffffffffffffffffffffffffffffffffffffffffffffffffffffffffffffc36011261017557602060405173ffffffffffffffffffffffffffffffffffffffff7f0000000000000000000000000000000000000000000000000000000000000000168152f35b50346101755760807ffffffffffffffffffffffffffffffffffffffffffffffffffffffffffffffffc360112610175576116a4611e0b565b506116ad611e2e565b5060643567ffffffffffffffff8111611495573660238201121561149557806004013567ffffffffffffffff811161149157369101602401116101755760206040517f150b7a02000000000000000000000000000000000000000000000000000000008152f35b50346101755760607ffffffffffffffffffffffffffffffffffffffffffffffffffffffffffffffffc3601126101755761174c611e0b565b611754611e51565b9061175d611e61565b73ffffffffffffffffffffffffffffffffffffffff821690818552846020526040852054611d705761178d612319565b949073ffffffffffffffffffffffffffffffffffffffff811691604051967f70a08231000000000000000000000000000000000000000000000000000000008852856004890152602088602481875afa978815611078578998611d3c575b5073ffffffffffffffffffffffffffffffffffffffff811694604051917f70a082310000000000000000000000000000000000000000000000000000000083528760048401526020836024818a5afa928315611c74578b93611d08575b50891580158091611cff575b15611ca1578a9561189e928592611c90575b82611c7f575b6118997f000000000000000000000000000000000000000000000000000000000000000098898094612f31565b612f31565b604051927fd0c93a7c00000000000000000000000000000000000000000000000000000000845260208460048173ffffffffffffffffffffffffffffffffffffffff7f0000000000000000000000000000000000000000000000000000000000000000165afa938415611c74578b94611c10575b509173ffffffffffffffffffffffffffffffffffffffff99611a649492608096946040519461194086611e71565b8986528a602087015260020b604086015260020b606085015260020b8684015260a083015260c08201528960e08201528961010082015230610120820152426101408201528961016082015289604051998a809581947fb5007d1f0000000000000000000000000000000000000000000000000000000083526004830191909161016073ffffffffffffffffffffffffffffffffffffffff81610180840195828151168552826020820151166020860152604081015160020b6040860152606081015160020b6060860152608081015160020b608086015260a081015160a086015260c081015160c086015260e081015160e08601526101008101516101008601528261012082015116610120860152610140810151610140860152015116910152565b0393165af19384156110cb5786958795611be7575b5083875286602052856040882055604051917f70a08231000000000000000000000000000000000000000000000000000000008352306004840152602083602481845afa928315610e2e578893611bb3575b50604051927f70a08231000000000000000000000000000000000000000000000000000000008452306004850152602084602481885afa938415611078578994611b7a575b50916fffffffffffffffffffffffffffffffff96959391838260409b9795611b69575b50505081611b58575b5050508152600160205284429120558351928352166020820152f35b611b619261310a565b388080611b3c565b611b729261310a565b388082611b33565b9093506020813d602011611bab575b81611b9660209383611ef5565b81010312611ba75751926040611b10565b8880fd5b3d9150611b89565b9092506020813d602011611bdf575b81611bcf60209383611ef5565b81010312610e2257519138611acb565b3d9150611bc2565b909450611c0491955060803d608011610dc857610db68183611ef5565b50509490949338611a79565b93509093916020843d602011611c6c575b81611c2e60209383611ef5565b81010312611c685773ffffffffffffffffffffffffffffffffffffffff99608095611c5b611a6496611f36565b9550929193955099611912565b8a80fd5b3d9150611c21565b6040513d8d823e3d90fd5b611c8b83308e8d612e54565b61186c565b611c9c88308e8c612e54565b611866565b60646040517f08c379a000000000000000000000000000000000000000000000000000000000815260206004820152600860248201527f6e6f2066756e64730000000000000000000000000000000000000000000000006044820152fd5b50831515611854565b9092506020813d602011611d34575b81611d2460209383611ef5565b81010312611c6857519138611848565b3d9150611d17565b9097506020813d602011611d68575b81611d5860209383611ef5565b81010312611ba7575196386117eb565b3d9150611d4b565b60646040517f08c379a000000000000000000000000000000000000000000000000000000000815260206004820152600e60248201527f616c7265616479206f70656e65640000000000000000000000000000000000006044820152fd5b90503461149557817ffffffffffffffffffffffffffffffffffffffffffffffffffffffffffffffffc3601126114955760209060035460020b8152f35b6004359073ffffffffffffffffffffffffffffffffffffffff82168203610d4457565b6024359073ffffffffffffffffffffffffffffffffffffffff82168203610d4457565b602435908160020b8203610d4457565b604435908160020b8203610d4457565b610180810190811067ffffffffffffffff821117611e8e57604052565b7f4e487b7100000000000000000000000000000000000000000000000000000000600052604160045260246000fd5b6080810190811067ffffffffffffffff821117611e8e57604052565b60a0810190811067ffffffffffffffff821117611e8e57604052565b90601f7fffffffffffffffffffffffffffffffffffffffffffffffffffffffffffffffe0910116810190811067ffffffffffffffff821117611e8e57604052565b51908160020b8203610d4457565b51906fffffffffffffffffffffffffffffffff82168203610d4457565b9190826080910312610d4457815191611f7c60208201611f44565b916060604083015192015190565b15611f9157565b60646040517f08c379a000000000000000000000000000000000000000000000000000000000815260206004820152600b60248201527f6e6f20706f736974696f6e0000000000000000000000000000000000000000006044820152fd5b519073ffffffffffffffffffffffffffffffffffffffff82168203610d4457565b919082610180910312610d445781516bffffffffffffffffffffffff81168103610d44579161204160208201611fef565b9161204e60408301611fef565b9161205b60608201611fef565b9161206860808301611f36565b9161207560a08201611f36565b9161208260c08301611f36565b9161208f60e08201611f44565b9161010082015191610120810151916120b86101606120b16101408501611f44565b9301611f44565b90565b519061ffff82168203610d4457565b51908115158203610d4457565b9190826040910312610d44576020825192015190565b919082039182116120fa57565b7f4e487b7100000000000000000000000000000000000000000000000000000000600052601160045260246000fd5b919082018092116120fa57565b9073ffffffffffffffffffffffffffffffffffffffff8216600052600060205260406000205480156123105760408051612228939261217482611ebd565b81523060208201526fffffffffffffffffffffffffffffffff828201526fffffffffffffffffffffffffffffffff60608201528151809481927ffc6f78650000000000000000000000000000000000000000000000000000000083526004830191909160606fffffffffffffffffffffffffffffffff8160808401958051855273ffffffffffffffffffffffffffffffffffffffff6020820151166020860152826040820151166040860152015116910152565b0381600073ffffffffffffffffffffffffffffffffffffffff7f0000000000000000000000000000000000000000000000000000000000000000165af1918215612304576000906000936122e0575b50828194612283612319565b9382816122b9575b5050508161229857505050565b73ffffffffffffffffffffffffffffffffffffffff6122b7931661310a565b565b73ffffffffffffffffffffffffffffffffffffffff6122d8931661310a565b38808261228b565b90506122fc91925060403d6040116111cd576111bf8183611ef5565b919038612277565b6040513d6000823e3d90fd5b50600091508190565b73ffffffffffffffffffffffffffffffffffffffff7f000000000000000000000000000000000000000000000000000000000000000016906040517f0dfe1681000000000000000000000000000000000000000000000000000000008152602081600481865afa90811561230457600091612408575b50602060049193604051928380927fd21220a70000000000000000000000000000000000000000000000000000000082525afa908115612304576000916123d4575090565b90506020813d602011612400575b816123ef60209383611ef5565b81010312610d44576120b890611fef565b3d91506123e2565b90506020813d60201161243f575b8161242360209383611ef5565b81010312610d44576020612438600492611fef565b915061238f565b3d9150612416565b90600073ffffffffffffffffffffffffffffffffffffffff831692838252816020526040822054801561295b5761247d8161318d565b6128fd5773ffffffffffffffffffffffffffffffffffffffff7f000000000000000000000000000000000000000000000000000000000000000016906124c9604080516106b981611ebd565b038188875af18015610d51576128df575b506040517f99fbab8800000000000000000000000000000000000000000000000000000000815281600482015261018081602481865afa908115610d5157906fffffffffffffffffffffffffffffffff9186916128b4575b5016806127ac575b5073ffffffffffffffffffffffffffffffffffffffff7f000000000000000000000000000000000000000000000000000000000000000016612751575b813b1561274d5783916024839260405194859384927f42966c6800000000000000000000000000000000000000000000000000000000845260048401525af18015610dcf57612738575b5073ffffffffffffffffffffffffffffffffffffffff92938252816020528160408120556125ed612319565b9316604051937f70a08231000000000000000000000000000000000000000000000000000000008552306004860152602085602481855afa948515610d8e5784956126f0575b5073ffffffffffffffffffffffffffffffffffffffff16936040517f70a08231000000000000000000000000000000000000000000000000000000008152306004820152602081602481895afa94851561036557946126bc575b5082816126ab575b505050816126a257505050565b6122b79261310a565b6126b49261310a565b388082612695565b9093506020813d6020116126e8575b816126d860209383611ef5565b81010312610d445751923861268d565b3d91506126cb565b9094506020813d602011612730575b8161270c60209383611ef5565b81010312610d4457519373ffffffffffffffffffffffffffffffffffffffff612633565b3d91506126ff565b612743838092611ef5565b61149557386125c1565b8380fd5b303b1561274d576040517fef5cfb8c000000000000000000000000000000000000000000000000000000008152866004820152848160248183305af1612798575b50612577565b846127a591959295611ef5565b9238612792565b60408051612845926127bd82611ed9565b8482526020820190815282820188905260608201888152426080840190815284517f0c49ccbe0000000000000000000000000000000000000000000000000000000081528451600482015292516fffffffffffffffffffffffffffffffff166024840152604090930151604483015251606482015290516084820152918290819060a4820190565b038188875af18015610d5157612896575b50612867604080516106b981611ebd565b038188875af18015610d51571561253a576128909060403d6040116111cd576111bf8183611ef5565b5061253a565b6128ae9060403d6040116111cd576111bf8183611ef5565b50612856565b6128cd91506101803d8111611231576112178183611ef5565b50505050965050505050505038612532565b6128f79060403d6040116111cd576111bf8183611ef5565b506124da565b60646040517f08c379a000000000000000000000000000000000000000000000000000000000815260206004820152600f60248201527f706f736974696f6e207374616b656400000000000000000000000000000000006044820152fd5b5050509050565b1561296957565b60646040517f08c379a000000000000000000000000000000000000000000000000000000000815260206004820152600660248201527f6e6f20706f7300000000000000000000000000000000000000000000000000006044820152fd5b60009073ffffffffffffffffffffffffffffffffffffffff7f000000000000000000000000000000000000000000000000000000000000000016908115612a935773ffffffffffffffffffffffffffffffffffffffff8116835282602052612a396040842054916101b3831515612962565b813b156114915782916024839260405194859384927f2e1a7d4d00000000000000000000000000000000000000000000000000000000845260048401525af180156114a157612a86575050565b81612a9091611ef5565b50565b505050565b60009073ffffffffffffffffffffffffffffffffffffffff7f000000000000000000000000000000000000000000000000000000000000000016908115612a935773ffffffffffffffffffffffffffffffffffffffff168252816020526040822054612b05811515612962565b73ffffffffffffffffffffffffffffffffffffffff7f000000000000000000000000000000000000000000000000000000000000000016803b1561274d578380916044604051809481937fa22cb465000000000000000000000000000000000000000000000000000000008352886004840152600160248401525af18015610d8e57612bec575b50813b156114915782916024839260405194859384927fb6b55f2500000000000000000000000000000000000000000000000000000000845260048401525af180156114a157612bda575050565b612be5828092611ef5565b6101755750565b83612bf991949294611ef5565b9138612b8c565b7f000000000000000000000000000000000000000000000000000000000000000073ffffffffffffffffffffffffffffffffffffffff1660008115612a935773ffffffffffffffffffffffffffffffffffffffff831681528060205260408120548015612e4e57823b1561149557604051907f1c4b774b0000000000000000000000000000000000000000000000000000000082526004820152818160248183875af1612e3e575b5090803b1561149557816040517fc00007b0000000000000000000000000000000000000000000000000000000008152306004820152818160248183875af1612e29575b5060049160209150604051928380927ff7c618c10000000000000000000000000000000000000000000000000000000082525afa829181612ded575b50612dd2575073ffffffffffffffffffffffffffffffffffffffff815b169182612d5157505050565b6040517f70a08231000000000000000000000000000000000000000000000000000000008152306004820152602081602481875afa9283156103655792612d9e575b50816126a257505050565b9091506020813d602011612dca575b81612dba60209383611ef5565b81010312610d4457519038612d93565b3d9150612dad565b73ffffffffffffffffffffffffffffffffffffffff90612d45565b9091506020813d602011612e21575b81612e0960209383611ef5565b8101031261149157612e1a90611fef565b9038612d28565b3d9150612dfc565b81612e3391611ef5565b611495578138612cec565b81612e4891611ef5565b38612ca8565b50505050565b92916020919273ffffffffffffffffffffffffffffffffffffffff60009281604051967f23b872dd000000000000000000000000000000000000000000000000000000008652166004521660245260445260648180865af190600160005114821615612f0f575b604052600060605215612ecb5750565b73ffffffffffffffffffffffffffffffffffffffff907f5274afe7000000000000000000000000000000000000000000000000000000006000521660045260246000fd5b906001811516612f2757823b15153d15161690612ebb565b503d6000823e3d90fd5b8215612a93576040517fdd62ed3e00000000000000000000000000000000000000000000000000000000815230600482015273ffffffffffffffffffffffffffffffffffffffff8381166024830152919091169290602081604481875afa908115612304576000916130d8575b5010612fa8575050565b612fb460008284613263565b1561308b575b612fe57fffffffffffffffffffffffffffffffffffffffffffffffffffffffffffffffff8284613263565b15612fee575050565b612ff881836132de565b1561305d577fffffffffffffffffffffffffffffffffffffffffffffffffffffffffffffffff6130289183613369565b156130305750565b7f5274afe70000000000000000000000000000000000000000000000000000000060005260045260246000fd5b507f5274afe70000000000000000000000000000000000000000000000000000000060005260045260246000fd5b61309581836132de565b1561305d576130a660008284613369565b612fba57507f5274afe70000000000000000000000000000000000000000000000000000000060005260045260246000fd5b90506020813d602011613102575b816130f360209383611ef5565b81010312610d44575138612f9e565b3d91506130e6565b9160209060009073ffffffffffffffffffffffffffffffffffffffff604051947fa9059cbb0000000000000000000000000000000000000000000000000000000084521660045260245260448180865af190600160005114821615613175575b60405215612ecb5750565b906001811516612f2757823b15153d1516169061316a565b73ffffffffffffffffffffffffffffffffffffffff7f000000000000000000000000000000000000000000000000000000000000000016908115801561325b575b613254576020906044604051809481937fc69deec500000000000000000000000000000000000000000000000000000000835230600484015260248301525afa90811561230457600091613220575090565b90506020813d60201161324c575b8161323b60209383611ef5565b81010312610d44576120b8906120ca565b3d915061322e565b5050600090565b5080156131ce565b92919260009373ffffffffffffffffffffffffffffffffffffffff604051937f095ea7b30000000000000000000000000000000000000000000000000000000087521660045260245260208460448180855af19360018151148516156132cb575b5050604052565b939193503b15153d1516169138806132c4565b919073ffffffffffffffffffffffffffffffffffffffff604051917f095ea7b3000000000000000000000000000000000000000000000000000000006000521660045260006024526020600060448180875af192600160005114841615613346575b50604052565b6001849294151661335f573b15153d1516169138613340565b833d6000823e3d90fd5b929173ffffffffffffffffffffffffffffffffffffffff604051927f095ea7b300000000000000000000000000000000000000000000000000000000600052166004526024526020600060448180875af192600160005114841615613346575060405256fea26469706673582212200a5d724896042acd3e93961cc56226f3c63815853d6497ff02313788f7942d9c64736f6c634300081e0033","linkReferences":{}},"methodIdentifiers":{"claimRewards(address)":"ef5cfb8c","collectToVault(address)":"762100e7","currentRange(address)":"270d3136","currentTokenId(address)":"86ff5c4b","exitPositionToVault(address)":"b0217240","gauge()":"a6f19c84","lastRebalance(address)":"fdd0fd2d","maxTwapDeviationTicks()":"616ea557","maxWidth()":"6006ecc8","minCooldown()":"d6e8b9f3","minWidth()":"035229cf","nfpm()":"7303e913","onERC721Received(address,address,uint256,bytes)":"150b7a02","openInitialPosition(address,int24,int24)":"109162ef","pool()":"16f0115b","rebalanceWithCaps(address,int24,int24,uint256,uint256)":"6783ac17","slot0()":"3850c7bd","stakePosition(address)":"e4010503","tickSpacing()":"d0c93a7c","tokens()":"9d63848a","twapWindow()":"8107e133","unstakePosition(address)":"dcfc070b"},"id":49}