{"abi":[{"type":"constructor","inputs":[{"name":"_owner","type":"address","internalType":"address"},{"name":"_executor","type":"address","internalType":"address"},{"name":"_adapter","type":"address","internalType":"address"},{"name":"_dexRouter","type":"address","internalType":"address"},{"name":"_feeCollector","type":"address","internalType":"address"},{"name":"_strategyId","type":"uint256","internalType":"uint256"},{"name":"_cooldownSec","type":"uint32","internalType":"uint32"},{"name":"_maxSlippageBps","type":"uint16","internalType":"uint16"},{"name":"_allowSwap","type":"bool","internalType":"bool"}],"stateMutability":"nonpayable"},{"type":"function","name":"adapter","inputs":[],"outputs":[{"name":"","type":"address","internalType":"contract IConcentratedLiquidityAdapter"}],"stateMutability":"view"},{"type":"function","name":"allowSwap","inputs":[],"outputs":[{"name":"","type":"bool","internalType":"bool"}],"stateMutability":"view"},{"type":"function","name":"autoHarvestAndCompoundPancake","inputs":[{"name":"p","type":"tuple","internalType":"struct ClientVault.AutoHarvestDailyParams","components":[{"name":"harvestPoolFees","type":"bool","internalType":"bool"},{"name":"harvestRewards","type":"bool","internalType":"bool"},{"name":"swapRewards","type":"bool","internalType":"bool"},{"name":"rewardAmountIn","type":"uint256","internalType":"uint256"},{"name":"rewardAmountOutMin","type":"uint256","internalType":"uint256"},{"name":"rewardSqrtPriceLimitX96","type":"uint160","internalType":"uint160"},{"name":"compound","type":"bool","internalType":"bool"},{"name":"compound0Desired","type":"uint256","internalType":"uint256"},{"name":"compound1Desired","type":"uint256","internalType":"uint256"},{"name":"compound0Min","type":"uint256","internalType":"uint256"},{"name":"compound1Min","type":"uint256","internalType":"uint256"}]}],"outputs":[],"stateMutability":"nonpayable"},{"type":"function","name":"autoRebalancePancake","inputs":[{"name":"params","type":"tuple","internalType":"struct ClientVault.AutoRebalanceParams","components":[{"name":"newLower","type":"int24","internalType":"int24"},{"name":"newUpper","type":"int24","internalType":"int24"},{"name":"fee","type":"uint24","internalType":"uint24"},{"name":"tokenIn","type":"address","internalType":"address"},{"name":"tokenOut","type":"address","internalType":"address"},{"name":"swapAmountIn","type":"uint256","internalType":"uint256"},{"name":"swapAmountOutMin","type":"uint256","internalType":"uint256"},{"name":"sqrtPriceLimitX96","type":"uint160","internalType":"uint160"}]}],"outputs":[],"stateMutability":"nonpayable"},{"type":"function","name":"automationEnabled","inputs":[],"outputs":[{"name":"","type":"bool","internalType":"bool"}],"stateMutability":"view"},{"type":"function","name":"claimRewards","inputs":[],"outputs":[],"stateMutability":"nonpayable"},{"type":"function","name":"collectToVault","inputs":[],"outputs":[{"name":"amount0","type":"uint256","internalType":"uint256"},{"name":"amount1","type":"uint256","internalType":"uint256"}],"stateMutability":"nonpayable"},{"type":"function","name":"compoundCooldownSec","inputs":[],"outputs":[{"name":"","type":"uint32","internalType":"uint32"}],"stateMutability":"view"},{"type":"function","name":"compoundEnabled","inputs":[],"outputs":[{"name":"","type":"bool","internalType":"bool"}],"stateMutability":"view"},{"type":"function","name":"cooldownSec","inputs":[],"outputs":[{"name":"","type":"uint32","internalType":"uint32"}],"stateMutability":"view"},{"type":"function","name":"dailyHarvestCooldownSec","inputs":[],"outputs":[{"name":"","type":"uint32","internalType":"uint32"}],"stateMutability":"view"},{"type":"function","name":"dailyHarvestEnabled","inputs":[],"outputs":[{"name":"","type":"bool","internalType":"bool"}],"stateMutability":"view"},{"type":"function","name":"dexRouter","inputs":[],"outputs":[{"name":"","type":"address","internalType":"address"}],"stateMutability":"view"},{"type":"function","name":"executor","inputs":[],"outputs":[{"name":"","type":"address","internalType":"address"}],"stateMutability":"view"},{"type":"function","name":"exitPositionAndWithdrawAll","inputs":[{"name":"to","type":"address","internalType":"address"}],"outputs":[],"stateMutability":"nonpayable"},{"type":"function","name":"exitPositionToVault","inputs":[],"outputs":[],"stateMutability":"nonpayable"},{"type":"function","name":"feeCollector","inputs":[],"outputs":[{"name":"","type":"address","internalType":"address"}],"stateMutability":"view"},{"type":"function","name":"getAutomationConfig","inputs":[],"outputs":[{"name":"enabled","type":"bool","internalType":"bool"},{"name":"cooldown","type":"uint32","internalType":"uint32"},{"name":"slippageBps","type":"uint16","internalType":"uint16"},{"name":"swapAllowed","type":"bool","internalType":"bool"}],"stateMutability":"view"},{"type":"function","name":"lastCompoundTs","inputs":[],"outputs":[{"name":"","type":"uint256","internalType":"uint256"}],"stateMutability":"view"},{"type":"function","name":"lastDailyHarvestTs","inputs":[],"outputs":[{"name":"","type":"uint256","internalType":"uint256"}],"stateMutability":"view"},{"type":"function","name":"lastRebalanceTs","inputs":[],"outputs":[{"name":"","type":"uint256","internalType":"uint256"}],"stateMutability":"view"},{"type":"function","name":"maxSlippageBps","inputs":[],"outputs":[{"name":"","type":"uint16","internalType":"uint16"}],"stateMutability":"view"},{"type":"function","name":"openInitialPosition","inputs":[{"name":"lower","type":"int24","internalType":"int24"},{"name":"upper","type":"int24","internalType":"int24"}],"outputs":[],"stateMutability":"nonpayable"},{"type":"function","name":"owner","inputs":[],"outputs":[{"name":"","type":"address","internalType":"address"}],"stateMutability":"view"},{"type":"function","name":"positionTokenId","inputs":[],"outputs":[{"name":"","type":"uint256","internalType":"uint256"}],"stateMutability":"view"},{"type":"function","name":"positionTokenIdView","inputs":[],"outputs":[{"name":"tokenId","type":"uint256","internalType":"uint256"}],"stateMutability":"view"},{"type":"function","name":"rebalanceWithCaps","inputs":[{"name":"lower","type":"int24","internalType":"int24"},{"name":"upper","type":"int24","internalType":"int24"},{"name":"cap0","type":"uint256","internalType":"uint256"},{"name":"cap1","type":"uint256","internalType":"uint256"}],"outputs":[],"stateMutability":"nonpayable"},{"type":"function","name":"rewardSwap","inputs":[],"outputs":[{"name":"enabled","type":"bool","internalType":"bool"},{"name":"tokenIn","type":"address","internalType":"address"},{"name":"tokenOut","type":"address","internalType":"address"},{"name":"fee","type":"uint24","internalType":"uint24"},{"name":"sqrtPriceLimitX96","type":"uint160","internalType":"uint160"}],"stateMutability":"view"},{"type":"function","name":"setAutomationConfig","inputs":[{"name":"_cooldownSec","type":"uint32","internalType":"uint32"},{"name":"_maxSlippageBps","type":"uint16","internalType":"uint16"},{"name":"_allowSwap","type":"bool","internalType":"bool"}],"outputs":[],"stateMutability":"nonpayable"},{"type":"function","name":"setAutomationEnabled","inputs":[{"name":"enabled","type":"bool","internalType":"bool"}],"outputs":[],"stateMutability":"nonpayable"},{"type":"function","name":"setCompoundConfig","inputs":[{"name":"enabled","type":"bool","internalType":"bool"},{"name":"_cooldownSec","type":"uint32","internalType":"uint32"}],"outputs":[],"stateMutability":"nonpayable"},{"type":"function","name":"setDailyHarvestConfig","inputs":[{"name":"enabled","type":"bool","internalType":"bool"},{"name":"harvestCooldownSec","type":"uint32","internalType":"uint32"}],"outputs":[],"stateMutability":"nonpayable"},{"type":"function","name":"setRewardSwapConfig","inputs":[{"name":"enabled","type":"bool","internalType":"bool"},{"name":"tokenIn","type":"address","internalType":"address"},{"name":"tokenOut","type":"address","internalType":"address"},{"name":"fee","type":"uint24","internalType":"uint24"},{"name":"sqrtPriceLimitX96","type":"uint160","internalType":"uint160"}],"outputs":[],"stateMutability":"nonpayable"},{"type":"function","name":"stake","inputs":[],"outputs":[],"stateMutability":"nonpayable"},{"type":"function","name":"strategyId","inputs":[],"outputs":[{"name":"","type":"uint256","internalType":"uint256"}],"stateMutability":"view"},{"type":"function","name":"swapExactInPancake","inputs":[{"name":"tokenIn","type":"address","internalType":"address"},{"name":"tokenOut","type":"address","internalType":"address"},{"name":"fee","type":"uint24","internalType":"uint24"},{"name":"amountIn","type":"uint256","internalType":"uint256"},{"name":"amountOutMinimum","type":"uint256","internalType":"uint256"},{"name":"sqrtPriceLimitX96","type":"uint160","internalType":"uint160"}],"outputs":[{"name":"amountOut","type":"uint256","internalType":"uint256"}],"stateMutability":"nonpayable"},{"type":"function","name":"tokens","inputs":[],"outputs":[{"name":"token0","type":"address","internalType":"address"},{"name":"token1","type":"address","internalType":"address"}],"stateMutability":"view"},{"type":"function","name":"unstake","inputs":[],"outputs":[],"stateMutability":"nonpayable"},{"type":"event","name":"AutoRebalanced","inputs":[{"name":"lower","type":"int24","indexed":false,"internalType":"int24"},{"name":"upper","type":"int24","indexed":false,"internalType":"int24"},{"name":"newLiquidity","type":"uint128","indexed":false,"internalType":"uint128"},{"name":"swapAmountIn","type":"uint256","indexed":false,"internalType":"uint256"},{"name":"swapAmountOut","type":"uint256","indexed":false,"internalType":"uint256"}],"anonymous":false},{"type":"event","name":"AutomationConfigUpdated","inputs":[{"name":"cooldownSec","type":"uint32","indexed":false,"internalType":"uint32"},{"name":"maxSlippageBps","type":"uint16","indexed":false,"internalType":"uint16"},{"name":"allowSwap","type":"bool","indexed":false,"internalType":"bool"}],"anonymous":false},{"type":"event","name":"AutomationToggled","inputs":[{"name":"enabled","type":"bool","indexed":false,"internalType":"bool"}],"anonymous":false},{"type":"event","name":"Collected","inputs":[{"name":"amount0","type":"uint256","indexed":false,"internalType":"uint256"},{"name":"amount1","type":"uint256","indexed":false,"internalType":"uint256"}],"anonymous":false},{"type":"event","name":"CompoundConfigUpdated","inputs":[{"name":"oldEnabled","type":"bool","indexed":false,"internalType":"bool"},{"name":"newEnabled","type":"bool","indexed":false,"internalType":"bool"},{"name":"oldCooldownSec","type":"uint32","indexed":false,"internalType":"uint32"},{"name":"newCooldownSec","type":"uint32","indexed":false,"internalType":"uint32"}],"anonymous":false},{"type":"event","name":"CompoundExecuted","inputs":[{"name":"atTs","type":"uint256","indexed":true,"internalType":"uint256"}],"anonymous":false},{"type":"event","name":"DailyHarvestConfigUpdated","inputs":[{"name":"oldEnabled","type":"bool","indexed":false,"internalType":"bool"},{"name":"newEnabled","type":"bool","indexed":false,"internalType":"bool"},{"name":"oldCooldownSec","type":"uint32","indexed":false,"internalType":"uint32"},{"name":"newCooldownSec","type":"uint32","indexed":false,"internalType":"uint32"}],"anonymous":false},{"type":"event","name":"DailyHarvestExecuted","inputs":[{"name":"atTs","type":"uint256","indexed":true,"internalType":"uint256"}],"anonymous":false},{"type":"event","name":"ExitedAndWithdrawn","inputs":[{"name":"to","type":"address","indexed":true,"internalType":"address"},{"name":"amount0","type":"uint256","indexed":false,"internalType":"uint256"},{"name":"amount1","type":"uint256","indexed":false,"internalType":"uint256"}],"anonymous":false},{"type":"event","name":"ExitedToVault","inputs":[],"anonymous":false},{"type":"event","name":"ManualRebalanced","inputs":[{"name":"lower","type":"int24","indexed":false,"internalType":"int24"},{"name":"upper","type":"int24","indexed":false,"internalType":"int24"},{"name":"newLiquidity","type":"uint128","indexed":false,"internalType":"uint128"}],"anonymous":false},{"type":"event","name":"PositionOpened","inputs":[{"name":"tokenId","type":"uint256","indexed":false,"internalType":"uint256"},{"name":"lower","type":"int24","indexed":false,"internalType":"int24"},{"name":"upper","type":"int24","indexed":false,"internalType":"int24"},{"name":"liquidity","type":"uint128","indexed":false,"internalType":"uint128"}],"anonymous":false},{"type":"event","name":"RewardSwapConfigUpdated","inputs":[{"name":"enabled","type":"bool","indexed":false,"internalType":"bool"},{"name":"tokenIn","type":"address","indexed":false,"internalType":"address"},{"name":"tokenOut","type":"address","indexed":false,"internalType":"address"},{"name":"fee","type":"uint24","indexed":false,"internalType":"uint24"},{"name":"sqrtPriceLimitX96","type":"uint160","indexed":false,"internalType":"uint160"}],"anonymous":false},{"type":"event","name":"Staked","inputs":[],"anonymous":false},{"type":"event","name":"Swapped","inputs":[{"name":"router","type":"address","indexed":true,"internalType":"address"},{"name":"tokenIn","type":"address","indexed":true,"internalType":"address"},{"name":"tokenOut","type":"address","indexed":true,"internalType":"address"},{"name":"amountIn","type":"uint256","indexed":false,"internalType":"uint256"},{"name":"amountOut","type":"uint256","indexed":false,"internalType":"uint256"}],"anonymous":false},{"type":"event","name":"Unstaked","inputs":[],"anonymous":false},{"type":"event","name":"VaultInitialized","inputs":[{"name":"owner","type":"address","indexed":true,"internalType":"address"},{"name":"executor","type":"address","indexed":true,"internalType":"address"},{"name":"adapter","type":"address","indexed":true,"internalType":"address"},{"name":"dexRouter","type":"address","indexed":false,"internalType":"address"},{"name":"feeCollector","type":"address","indexed":false,"internalType":"address"},{"name":"strategyId","type":"uint256","indexed":false,"internalType":"uint256"}],"anonymous":false},{"type":"error","name":"ReentrancyGuardReentrantCall","inputs":[]},{"type":"error","name":"SafeERC20FailedOperation","inputs":[{"name":"token","type":"address","internalType":"address"}]}],"bytecode":{"object":"0x610140346103d257601f614c3a38819003918201601f19168301916001600160401b038311848410176103d757808492610120946040528339810103126103d257610049816103ed565b90610056602082016103ed565b90610063604082016103ed565b91610070606083016103ed565b9061007d608084016103ed565b60a084015160c08501519163ffffffff831683036103d25760e08601519561ffff871687036103d2576101000151928315158094036103d25760017f9b779b17422d0df92223018b32b4d1fa46e071723d6817e2486d003becc55f00556001600160a01b03891696871561038d576001600160a01b038616988915610348576001600160a01b0316998a15610303576001600160a01b0388169586156102be577f59fbf569e13224f023993109b7bc20408873be1498dfe4494b6061367e924c969860609866ffff00000000009360805260a0528c60c05260e0528461010052856101205264ffffffff0067ff000000000000006000549260381b169460081b169060018060401b031916179160281b16171760005560405192835260018060a01b031660208301526040820152a460405161483890816104028239608051818181610260015281816103d00152818161072b01528181610bf401528181610ea301528181610f210152818161118d015281816113ca01528181611723015281816118d201528181611b3a01528181611c8001528181611dda0152818161258f0152612758015260a0518181816106b501528181611f120152612849015260c05181818161078f01528181610c4201528181610dce01528181610f67015281816111d30152818161179d01528181611cc701528181611e2101528181611f91015281816125d6015281816128d90152818161395b01526141ed015260e0518181816138ed0152613da00152610100518161064601526101205181611a9b0152f35b60405162461bcd60e51b815260206004820152601860248201527f436c69656e745661756c743a20646578526f757465723d3000000000000000006044820152606490fd5b60405162461bcd60e51b815260206004820152601660248201527f436c69656e745661756c743a20616461707465723d30000000000000000000006044820152606490fd5b60405162461bcd60e51b815260206004820152601760248201527f436c69656e745661756c743a206578656375746f723d300000000000000000006044820152606490fd5b60405162461bcd60e51b815260206004820152601460248201527f436c69656e745661756c743a206f776e65723d300000000000000000000000006044820152606490fd5b600080fd5b634e487b7160e01b600052604160045260246000fd5b51906001600160a01b03821682036103d25756fe608080604052600436101561001357600080fd5b600090813560e01c90816303eadcfc14613911575080630758d924146138a25780630d0cd752146127fe578063119d084a146126dc5780632d13977b146126a05780632def66201461254657806333fdf8c914611ec7578063372500ab14611d915780633a4b66f114611c3757806344b1527b14611bf457806346445e6914611abe578063492f4e1814611a655780634d2e259c146119fc57806366e6e60d1461197357806379886b9d14611930578063799b2b541461057d57806379e666221461185d5780637b0f7cc9146116da5780637ba34f28146113185780637ba45d5914611144578063824518de14610ec75780638da5cb5b14610e585780639d63848a14610d5b5780639ebc1a8e14610d1a578063a04cedd514610b96578063bc0931b9146106d9578063c34c08e51461066a578063c415b95c146105fb578063c4aa7395146105b9578063ceefe5d11461057d578063d1a663bb14610541578063d966a59414610501578063d9c531d5146104bc578063e7cb9f2d14610478578063ec4c667a1461043c578063f1070bd31461033c578063f6f47619146102f85763fe86702b146101c357600080fd5b346102f55760607ffffffffffffffffffffffffffffffffffffffffffffffffffffffffffffffffc3601126102f55760043563ffffffff81168082036102f3576024359061ffff82168083036102ef57604435908115158092036102eb577f289c3c8fc0205d25d66b324359427612e37eecb1d57a186e522c8d5078c7bdd99460609461028773ffffffffffffffffffffffffffffffffffffffff7f0000000000000000000000000000000000000000000000000000000000000000163314613c37565b66ffff000000000088547fffffffffffffffffffffffffffffffffffffffffffffffff00000000000000ff64ffffffff0067ff000000000000008860381b169560081b169116179160281b161717865560405192835260208301526040820152a180f35b8580fd5b8480fd5b825b80fd5b50346102f557807ffffffffffffffffffffffffffffffffffffffffffffffffffffffffffffffffc3601126102f55763ffffffff6020915460481c16604051908152f35b50346102f55760c07ffffffffffffffffffffffffffffffffffffffffffffffffffffffffffffffffc3601126102f5576103746139c4565b61037c6139a1565b9060443562ffffff811681036104385760a4359373ffffffffffffffffffffffffffffffffffffffff851685036102f557602061040c868686866103f773ffffffffffffffffffffffffffffffffffffffff7f0000000000000000000000000000000000000000000000000000000000000000163314613c37565b6103ff613d1f565b6084359260643592613d98565b60017f9b779b17422d0df92223018b32b4d1fa46e071723d6817e2486d003becc55f0055604051908152f35b8380fd5b50346102f557807ffffffffffffffffffffffffffffffffffffffffffffffffffffffffffffffffc3601126102f5576020600154604051908152f35b50346102f557807ffffffffffffffffffffffffffffffffffffffffffffffffffffffffffffffffc3601126102f55763ffffffff6020915460081c16604051908152f35b50346102f557807ffffffffffffffffffffffffffffffffffffffffffffffffffffffffffffffffc3601126102f557602063ffffffff60025460081c16604051908152f35b50346102f557807ffffffffffffffffffffffffffffffffffffffffffffffffffffffffffffffffc3601126102f55760ff60209154166040519015158152f35b50346102f557807ffffffffffffffffffffffffffffffffffffffffffffffffffffffffffffffffc3601126102f5576020600854604051908152f35b50346102f557807ffffffffffffffffffffffffffffffffffffffffffffffffffffffffffffffffc3601126102f5576020600754604051908152f35b50346102f557807ffffffffffffffffffffffffffffffffffffffffffffffffffffffffffffffffc3601126102f55761ffff6020915460281c16604051908152f35b50346102f557807ffffffffffffffffffffffffffffffffffffffffffffffffffffffffffffffffc3601126102f557602060405173ffffffffffffffffffffffffffffffffffffffff7f0000000000000000000000000000000000000000000000000000000000000000168152f35b50346102f557807ffffffffffffffffffffffffffffffffffffffffffffffffffffffffffffffffc3601126102f557602060405173ffffffffffffffffffffffffffffffffffffffff7f0000000000000000000000000000000000000000000000000000000000000000168152f35b50346102f55760207ffffffffffffffffffffffffffffffffffffffffffffffffffffffffffffffffc3601126102f5576107116139c4565b61075273ffffffffffffffffffffffffffffffffffffffff7f0000000000000000000000000000000000000000000000000000000000000000163314613c37565b61075a613d1f565b73ffffffffffffffffffffffffffffffffffffffff8116908115610b385773ffffffffffffffffffffffffffffffffffffffff7f00000000000000000000000000000000000000000000000000000000000000001690813b1561043857836040517fb0217240000000000000000000000000000000000000000000000000000000008152306004820152818160248183885af18015610b2d57610b18575b50506040517f86ff5c4b000000000000000000000000000000000000000000000000000000008152306004820152602081602481865afa908115610b0d578591610ada575b506004926040916007558151938480927f9d63848a0000000000000000000000000000000000000000000000000000000082525afa918215610acf5784908593610a89575b5073ffffffffffffffffffffffffffffffffffffffff1690604051927f70a08231000000000000000000000000000000000000000000000000000000008452306004850152602084602481865afa938415610a7e578694610a36575b5073ffffffffffffffffffffffffffffffffffffffff1690604051927f70a08231000000000000000000000000000000000000000000000000000000008452306004850152602084602481865afa938415610a2b5787946109cc575b50918382869485604097957f0389747e9da8f2c7b6c44d1297d97afc766ea18c607b154fabdafe72b21dd6a0996109bb575b505050816109aa575b50505082519182526020820152a260017f9b779b17422d0df92223018b32b4d1fa46e071723d6817e2486d003becc55f005580f35b6109b392614549565b388181610975565b6109c492614549565b38858261096c565b935093916020843d602011610a23575b816109e960209383613ae4565b81010312610a1e57925191939192917f0389747e9da8f2c7b6c44d1297d97afc766ea18c607b154fabdafe72b21dd6a061093a565b600080fd5b3d91506109dc565b6040513d89823e3d90fd5b9093506020813d602011610a76575b81610a5260209383613ae4565b81010312610a1e57519273ffffffffffffffffffffffffffffffffffffffff6108de565b3d9150610a45565b6040513d88823e3d90fd5b73ffffffffffffffffffffffffffffffffffffffff9350610ac2915060403d604011610ac8575b610aba8183613ae4565b810190613b75565b92610882565b503d610ab0565b6040513d86823e3d90fd5b90506020813d602011610b05575b81610af560209383613ae4565b81010312610a1e5751600461083d565b3d9150610ae8565b6040513d87823e3d90fd5b81610b2291613ae4565b6104385783386107f8565b6040513d84823e3d90fd5b60646040517f08c379a000000000000000000000000000000000000000000000000000000000815260206004820152601160248201527f436c69656e745661756c743a20746f3d300000000000000000000000000000006044820152fd5b50346102f55760407ffffffffffffffffffffffffffffffffffffffffffffffffffffffffffffffffc3601126102f557610c28610bd16139e7565b610bd96139f7565b90610c1b73ffffffffffffffffffffffffffffffffffffffff7f0000000000000000000000000000000000000000000000000000000000000000163314613c37565b610c23613d1f565b6141d4565b50508073ffffffffffffffffffffffffffffffffffffffff7f000000000000000000000000000000000000000000000000000000000000000016803b15610d17578180916024604051809581937fe40105030000000000000000000000000000000000000000000000000000000083523060048401525af19182610cfe575b5050610cd5575b60017f9b779b17422d0df92223018b32b4d1fa46e071723d6817e2486d003becc55f005580f35b7f7c8034b0915ddb06daf1c98814ae561303379b3db725b973ef0d14ea2c923d5c8180a1610cae565b81610d0891613ae4565b610d13578138610ca7565b5080fd5b50fd5b50346102f557807ffffffffffffffffffffffffffffffffffffffffffffffffffffffffffffffffc3601126102f557602060ff600254166040519015158152f35b50346102f557807ffffffffffffffffffffffffffffffffffffffffffffffffffffffffffffffffc3601126102f557604051907f9d63848a00000000000000000000000000000000000000000000000000000000825260408260048173ffffffffffffffffffffffffffffffffffffffff7f0000000000000000000000000000000000000000000000000000000000000000165afa918215610e4b578192610e29575b506040805173ffffffffffffffffffffffffffffffffffffffff928316815292909116602083015290f35b9050610e44915060403d604011610ac857610aba8183613ae4565b9038610dfe565b50604051903d90823e3d90fd5b50346102f557807ffffffffffffffffffffffffffffffffffffffffffffffffffffffffffffffffc3601126102f557602060405173ffffffffffffffffffffffffffffffffffffffff7f0000000000000000000000000000000000000000000000000000000000000000168152f35b50346102f55760807ffffffffffffffffffffffffffffffffffffffffffffffffffffffffffffffffc3601126102f557610eff6139e7565b610f076139f7565b610f4873ffffffffffffffffffffffffffffffffffffffff7f0000000000000000000000000000000000000000000000000000000000000000163314613c37565b610f50613d1f565b73ffffffffffffffffffffffffffffffffffffffff7f000000000000000000000000000000000000000000000000000000000000000016604051927f6783ac1700000000000000000000000000000000000000000000000000000000845230600485015260020b9182602485015260020b908160448501526044356064850152606435608485015260208460a48188855af1938415610b0d578594611103575b506020602491604051928380927f86ff5c4b0000000000000000000000000000000000000000000000000000000082523060048301525afa908115610b0d5785916110ab575b507ff11c7bb58b96ebaf21e2b7c98f5156d8cc615078346535b1d12842baceae698193606093926fffffffffffffffffffffffffffffffff926007556040519384526020840152166040820152a160017f9b779b17422d0df92223018b32b4d1fa46e071723d6817e2486d003becc55f005580f35b90506020929192813d6020116110fb575b816110c960209383613ae4565b81010312610a1e57519091907ff11c7bb58b96ebaf21e2b7c98f5156d8cc615078346535b1d12842baceae6981611036565b3d91506110bc565b9093506020813d60201161113c575b8161111f60209383613ae4565b810103126102ef576020611134602492613d02565b949150610ff0565b3d9150611112565b50346102f557807ffffffffffffffffffffffffffffffffffffffffffffffffffffffffffffffffc3601126102f5576111b473ffffffffffffffffffffffffffffffffffffffff7f0000000000000000000000000000000000000000000000000000000000000000163314613c37565b6111bc613d1f565b73ffffffffffffffffffffffffffffffffffffffff7f000000000000000000000000000000000000000000000000000000000000000016803b15610d1357816040517fb0217240000000000000000000000000000000000000000000000000000000008152306004820152818160248183875af18015610b2d57611303575b50506020602491604051928380927f86ff5c4b0000000000000000000000000000000000000000000000000000000082523060048301525afa908115610b2d5782916112d1575b506007557fcddb7c3bd3716f33d8c8e4e6c4a630b71671c6a8c3abfee8c3b9892e8032d6df8180a160017f9b779b17422d0df92223018b32b4d1fa46e071723d6817e2486d003becc55f005580f35b90506020813d6020116112fb575b816112ec60209383613ae4565b81010312610a1e575138611282565b3d91506112df565b8161130d91613ae4565b610d1357813861123b565b50346102f55760a07ffffffffffffffffffffffffffffffffffffffffffffffffffffffffffffffffc3601126102f55761135061397f565b906113596139a1565b6044359273ffffffffffffffffffffffffffffffffffffffff841693848103610438576064359062ffffff82168083036102eb576084359673ffffffffffffffffffffffffffffffffffffffff8816918289036116d6576113f173ffffffffffffffffffffffffffffffffffffffff7f0000000000000000000000000000000000000000000000000000000000000000163314613c37565b73ffffffffffffffffffffffffffffffffffffffff871690811515806116cd575b1561166f57828214611611576040519060a0820182811067ffffffffffffffff8211176115e4579460807f45d6530781e89b42056f6e2039254a9e227ddbeaeebf594d82f7d8b27afc08c79b9c9795938295936115de9a986040528b15159485835260208301528560408301526060820152015260ff7fffffffffffffffffffffffffffffffffffffffffffffffffffffffffffffff00600454169116176004556004547fffffffffffffffffffffff0000000000000000000000000000000000000000ff74ffffffffffffffffffffffffffffffffffffffff008a60081b169116176004557fffffffffffffffffffffffff000000000000000000000000000000000000000060055416176005556005547fffffffffffffffffff000000ffffffffffffffffffffffffffffffffffffffff76ffffff00000000000000000000000000000000000000008560a01b169116176005557fffffffffffffffffffffffff00000000000000000000000000000000000000006006541617600655604051958695869362ffffff9073ffffffffffffffffffffffffffffffffffffffff6080958180969a99959a60a08a019b15158a5216602089015216604087015216606085015216910152565b0390a180f35b60248b7f4e487b710000000000000000000000000000000000000000000000000000000081526041600452fd5b60646040517f08c379a000000000000000000000000000000000000000000000000000000000815260206004820152601d60248201527f436c69656e745661756c743a20746f6b656e496e3d746f6b656e4f75740000006044820152fd5b60646040517f08c379a000000000000000000000000000000000000000000000000000000000815260206004820152601460248201527f436c69656e745661756c743a20746f6b656e3d300000000000000000000000006044820152fd5b50821515611412565b8780fd5b50346102f557807ffffffffffffffffffffffffffffffffffffffffffffffffffffffffffffffffc3601126102f55761174a73ffffffffffffffffffffffffffffffffffffffff7f0000000000000000000000000000000000000000000000000000000000000000163314613c37565b611752613d1f565b604051907f762100e70000000000000000000000000000000000000000000000000000000082523060048301526040826024818473ffffffffffffffffffffffffffffffffffffffff7f0000000000000000000000000000000000000000000000000000000000000000165af18015610e4b57604092829161182e575b507f099830bf72bfd4281b6dd74da06794aabc4a2fc97ed1e35c125293c6a2dccd00838051848152836020820152a160017f9b779b17422d0df92223018b32b4d1fa46e071723d6817e2486d003becc55f005582519182526020820152f35b90506118509150823d8411611856575b6118488183613ae4565b810190613b99565b386117cf565b503d61183e565b50346102f55760207ffffffffffffffffffffffffffffffffffffffffffffffffffffffffffffffffc3601126102f5577f597db723170e2062ff01c7a921f699b0274807a884be8bdce5f2fcf3d645844b60206118b861397f565b6118f973ffffffffffffffffffffffffffffffffffffffff7f0000000000000000000000000000000000000000000000000000000000000000163314613c37565b15157fffffffffffffffffffffffffffffffffffffffffffffffffffffffffffffff0084541660ff8216178455604051908152a180f35b50346102f557807ffffffffffffffffffffffffffffffffffffffffffffffffffffffffffffffffc3601126102f55760ff6020915460381c166040519015158152f35b50346102f557807ffffffffffffffffffffffffffffffffffffffffffffffffffffffffffffffffc3601126102f5576004546005546006546040805160ff85161515815273ffffffffffffffffffffffffffffffffffffffff60089590951c851660208201528484169181019190915262ffffff60a093841c1660608201529216608083015290f35b50346102f557807ffffffffffffffffffffffffffffffffffffffffffffffffffffffffffffffffc3601126102f5576080905460ff604051918181161515835263ffffffff8160081c16602084015261ffff8160281c16604084015260381c1615156060820152f35b50346102f557807ffffffffffffffffffffffffffffffffffffffffffffffffffffffffffffffffc3601126102f55760206040517f00000000000000000000000000000000000000000000000000000000000000008152f35b50346102f55760407ffffffffffffffffffffffffffffffffffffffffffffffffffffffffffffffffc3601126102f5577fdb4349850272f6a7988875162ae9ec0afca77fc3792552b5f0732c06ab8ad761611b1761397f565b611b1f61398e565b90611b6173ffffffffffffffffffffffffffffffffffffffff7f0000000000000000000000000000000000000000000000000000000000000000163314613c37565b6115de8454926cffffffff0000000000000000008160481b1668ff000000000000000084151560401b167fffffffffffffffffffffffffffffffffffffff0000000000ffffffffffffffff86161717865560405193849360ff63ffffffff8360481c169260401c1685929363ffffffff809296956060946080870198151587521515602087015216604085015216910152565b50346102f557807ffffffffffffffffffffffffffffffffffffffffffffffffffffffffffffffffc3601126102f55760ff6020915460401c166040519015158152f35b50346102f557807ffffffffffffffffffffffffffffffffffffffffffffffffffffffffffffffffc3601126102f557611ca773ffffffffffffffffffffffffffffffffffffffff7f0000000000000000000000000000000000000000000000000000000000000000163314613c37565b611caf613d1f565b8073ffffffffffffffffffffffffffffffffffffffff7f000000000000000000000000000000000000000000000000000000000000000016803b15610d17578180916024604051809481937fe40105030000000000000000000000000000000000000000000000000000000083523060048401525af18015610b2d57611d7c575b50807f7c8034b0915ddb06daf1c98814ae561303379b3db725b973ef0d14ea2c923d5c91a160017f9b779b17422d0df92223018b32b4d1fa46e071723d6817e2486d003becc55f005580f35b81611d8691613ae4565b6102f5578038611d30565b50346102f557807ffffffffffffffffffffffffffffffffffffffffffffffffffffffffffffffffc3601126102f557611e0173ffffffffffffffffffffffffffffffffffffffff7f0000000000000000000000000000000000000000000000000000000000000000163314613c37565b611e09613d1f565b8073ffffffffffffffffffffffffffffffffffffffff7f000000000000000000000000000000000000000000000000000000000000000016803b15610d17578180916024604051809481937fef5cfb8c0000000000000000000000000000000000000000000000000000000083523060048401525af18015610b2d57611eb2575b5060017f9b779b17422d0df92223018b32b4d1fa46e071723d6817e2486d003becc55f005580f35b81611ebc91613ae4565b6102f5578038611e8a565b50346102f5576101007ffffffffffffffffffffffffffffffffffffffffffffffffffffffffffffffffc3601126102f557611f3973ffffffffffffffffffffffffffffffffffffffff7f0000000000000000000000000000000000000000000000000000000000000000163314613a07565b611f41613d1f565b805460ff8116156124e85763ffffffff8160081c1680612472575b50611f65613c9c565b611f6d613cac565b60020b9060020b12156124145773ffffffffffffffffffffffffffffffffffffffff7f000000000000000000000000000000000000000000000000000000000000000016906040517f9d63848a000000000000000000000000000000000000000000000000000000008152604081600481865afa908115610acf57849085926123de575b5073ffffffffffffffffffffffffffffffffffffffff9081612011613cbc565b9116918291161491826123b3575b8215612357575b5050156122f95760381c60ff16156122e8575b803b15610d1357816040517f47f1aac2000000000000000000000000000000000000000000000000000000008152306004820152818160248183875af18015610b2d576122d3575b50506040517f86ff5c4b000000000000000000000000000000000000000000000000000000008152306004820152602081602481855afa9081156122c8578391612296575b506007557fcddb7c3bd3716f33d8c8e4e6c4a630b71671c6a8c3abfee8c3b9892e8032d6df8280a160a43590828261223c575b83612113612105613c9c565b61210d613cac565b906141d4565b938091503b15610d13578180916024604051809581937fe40105030000000000000000000000000000000000000000000000000000000083523060048401525af19182612221575b5050907f65b5608d4c316ad3a012b3219ea49a3abcac394b0e3f84bd16cbe4bb2a15cf2a9360a093926121f8575b426008556fffffffffffffffffffffffffffffffff6121a6613c9c565b936121af613cac565b6040519560020b865260020b602086015216604084015260608301526080820152a160017f9b779b17422d0df92223018b32b4d1fa46e071723d6817e2486d003becc55f005580f35b7f7c8034b0915ddb06daf1c98814ae561303379b3db725b973ef0d14ea2c923d5c8680a1612189565b8161222f9195949395613ae4565b6102ef579091843861215b565b50612245613cbc565b61224d613cdf565b6044359162ffffff831683036102eb5760e4359173ffffffffffffffffffffffffffffffffffffffff831683036122925761228d93869160c43593613d98565b6120f9565b8680fd5b90506020813d6020116122c0575b816122b160209383613ae4565b81010312610a1e5751386120c6565b3d91506122a4565b6040513d85823e3d90fd5b816122dd91613ae4565b610d13578138612081565b6122f460a43515613baf565b612039565b60646040517f08c379a000000000000000000000000000000000000000000000000000000000815260206004820152601c60248201527f436c69656e745661756c743a20746f6b656e73206d69736d61746368000000006044820152fd5b90915073ffffffffffffffffffffffffffffffffffffffff80612378613cbc565b9216911614908161238c575b503880612026565b905073ffffffffffffffffffffffffffffffffffffffff6123ab613cdf565b161438612384565b91506123bd613cdf565b73ffffffffffffffffffffffffffffffffffffffff8084169116149161201f565b73ffffffffffffffffffffffffffffffffffffffff925061240e915060403d604011610ac857610aba8183613ae4565b91611ff1565b60646040517f08c379a000000000000000000000000000000000000000000000000000000000815260206004820152601a60248201527f436c69656e745661756c743a20696e76616c69642072616e67650000000000006044820152fd5b61247e90600854613aa8565b421061248a5738611f5c565b60646040517f08c379a000000000000000000000000000000000000000000000000000000000815260206004820152601560248201527f436c69656e745661756c743a20636f6f6c646f776e00000000000000000000006044820152fd5b60646040517f08c379a000000000000000000000000000000000000000000000000000000000815260206004820152602060248201527f436c69656e745661756c743a206175746f6d6174696f6e2064697361626c65646044820152fd5b50346102f557807ffffffffffffffffffffffffffffffffffffffffffffffffffffffffffffffffc3601126102f5576125b673ffffffffffffffffffffffffffffffffffffffff7f0000000000000000000000000000000000000000000000000000000000000000163314613c37565b6125be613d1f565b8073ffffffffffffffffffffffffffffffffffffffff7f000000000000000000000000000000000000000000000000000000000000000016803b15610d17578180916024604051809481937fdcfc070b0000000000000000000000000000000000000000000000000000000083523060048401525af18015610b2d5761268b575b50807f223cba103b37553fa55d92837815b881061ed40ebf54193471d8edb521b95df591a160017f9b779b17422d0df92223018b32b4d1fa46e071723d6817e2486d003becc55f005580f35b8161269591613ae4565b6102f557803861263f565b50346102f557807ffffffffffffffffffffffffffffffffffffffffffffffffffffffffffffffffc3601126102f5576020600354604051908152f35b50346102f55760407ffffffffffffffffffffffffffffffffffffffffffffffffffffffffffffffffc3601126102f5577f9d83d7c2aacb17c086a28252fe1bc83a253ef3f53b81ea265e68496567d17b5061273561397f565b61273d61398e565b9061277f73ffffffffffffffffffffffffffffffffffffffff7f0000000000000000000000000000000000000000000000000000000000000000163314613c37565b6115de6002549264ffffffff008160081b1660ff841515167fffffffffffffffffffffffffffffffffffffffffffffffffffffff00000000008616171760025560405193849360ff63ffffffff8360081c16921685929363ffffffff809296956060946080870198151587521515602087015216604085015216910152565b50346102f5576101607ffffffffffffffffffffffffffffffffffffffffffffffffffffffffffffffffc3601126102f55761287073ffffffffffffffffffffffffffffffffffffffff7f0000000000000000000000000000000000000000000000000000000000000000163314613a07565b612878613d1f565b612880613a6c565b908115613892575b8115613882575b612897613a99565b82831561387b575b1561381d578083613721575b61362c575b6040517fa00622dc000000000000000000000000000000000000000000000000000000008152927f000000000000000000000000000000000000000000000000000000000000000073ffffffffffffffffffffffffffffffffffffffff16602085600481845afa948515610acf5784956135f0575b5073ffffffffffffffffffffffffffffffffffffffff8516908115613592576040517f9d63848a000000000000000000000000000000000000000000000000000000008152604081600481855afa8015610a7e5786918791613571575b5061298b613a6c565b61350c575b612998613a7b565b613481575b6129a5613a8a565b613005575b8697506129b996949596613a99565b612a4f575b5050505050612a21575b6129f35760017f9b779b17422d0df92223018b32b4d1fa46e071723d6817e2486d003becc55f005580f35b42600355427f9c105c5516038a31b52025c35bd815a6323fbe2d5860e917939e758aa6b55d7b8280a2610cae565b42600155427fb72f7afff6ca112afbbcfe6484a1e3b9a7903ea9268b4feb5b8c5575f4560c9a8380a26129c8565b6040517ff7888aec00000000000000000000000000000000000000000000000000000000815230600482015273ffffffffffffffffffffffffffffffffffffffff83166024820152602081604481885afa908115610a7e578691612fd0575b506040517ff7888aec00000000000000000000000000000000000000000000000000000000815230600482015273ffffffffffffffffffffffffffffffffffffffff83166024820152602081604481895afa908115610a2b578791612f9b575b5060e43590610104359282158015612f92575b612f8a575b5082158015612f81575b612f79575b5080612ef0575b5080612e67575b506004859360208791604051938480927fa6f19c840000000000000000000000000000000000000000000000000000000082525afa808891612e18575b73ffffffffffffffffffffffffffffffffffffffff9350612e10575b501680612d8d575b5073ffffffffffffffffffffffffffffffffffffffff83161580612d81575b612d5e575b73ffffffffffffffffffffffffffffffffffffffff80841692168214908115612d3e575b50159081612d34575b50612c02575b80806129be565b6040517ff7888aec00000000000000000000000000000000000000000000000000000000815230600482015273ffffffffffffffffffffffffffffffffffffffff8216602482015290602082604481865afa918215610acf578492612cfd575b5081612c6f575b50612bfb565b823b15610438576040517fc4e2c1e600000000000000000000000000000000000000000000000000000000815273ffffffffffffffffffffffffffffffffffffffff91909116600482015260248101919091523060448201529082908290606490829084905af18015610b2d57612ce8575b8080612c69565b81612cf291613ae4565b6102f3578238612ce1565b935090506020833d602011612d2c575b81612d1a60209383613ae4565b81010312610a1e578592519038612c62565b3d9150612d0d565b9050151538612bf5565b73ffffffffffffffffffffffffffffffffffffffff915016811438612bec565b60045460081c73ffffffffffffffffffffffffffffffffffffffff169250612bc8565b5060ff60045416612bc3565b6020600491604051928380927f4ca6ef280000000000000000000000000000000000000000000000000000000082525afa869181612dd4575b5015612ba457925038612ba4565b9091506020813d602011612e08575b81612df060209383613ae4565b8101031261229257612e0190613b54565b9038612dc6565b3d9150612de3565b905038612b9c565b90506020833d602011612e5f575b81612e3360209383613ae4565b810103126116d657612e5973ffffffffffffffffffffffffffffffffffffffff93613b54565b90612b80565b3d9150612e26565b843b156102eb576040517fc4e2c1e600000000000000000000000000000000000000000000000000000000815273ffffffffffffffffffffffffffffffffffffffff831660048201526024810191909152306044820152858160648183895af1908115610a7e578691612edb575b50612b43565b81612ee591613ae4565b6102ef578438612ed5565b853b15612292576040517fc4e2c1e600000000000000000000000000000000000000000000000000000000815273ffffffffffffffffffffffffffffffffffffffff8516600482015260248101919091523060448201528681606481838a5af1908115610a2b578791612f64575b50612b3c565b81612f6e91613ae4565b6102eb578538612f5e565b915038612b35565b50808311612b30565b915038612b26565b50808311612b21565b9650506020863d602011612fc8575b81612fb760209383613ae4565b81010312610a1e5788955138612b0e565b3d9150612faa565b9550506020853d602011612ffd575b81612fec60209383613ae4565b81010312610a1e5787945138612aae565b3d9150612fdf565b61301560ff885460381c16613baf565b60045460ff8116156133fd5760081c73ffffffffffffffffffffffffffffffffffffffff1697881515806133dc575b1561337e5773ffffffffffffffffffffffffffffffffffffffff600554169073ffffffffffffffffffffffffffffffffffffffff84168214801561335f575b156132db576040517ff7888aec00000000000000000000000000000000000000000000000000000000815230600482015273ffffffffffffffffffffffffffffffffffffffff8b1660248201529960208b6044818a5afa9a8b156132d0578a9b61329c575b506064359a8b158015613293575b61328b575b508a61310a575b5050506129aa565b863b15613287576040517fc4e2c1e600000000000000000000000000000000000000000000000000000000815273ffffffffffffffffffffffffffffffffffffffff82166004820152602481018c90523060448201528a81606481838c5af1801561327c5761325e575b506131d48a9b6131dc9273ffffffffffffffffffffffffffffffffffffffff61319f9d9b9c9d613c14565b166132505773ffffffffffffffffffffffffffffffffffffffff60065416915b62ffffff60055460a01c168760843593613d98565b80928461404b565b853b1561229257604051917fb3db428b00000000000000000000000000000000000000000000000000000000835230600484015260248301526044820152858160648183895af1908115610a7e57869161323b575b8098979698613102565b8161324591613ae4565b6102ef578438613231565b613258613c14565b916131bf565b8a6132726131dc939a9b9c6131d493613ae4565b9a99989150613174565b6040513d8d823e3d90fd5b8980fd5b9a50386130fb565b50808c116130f6565b909a506020813d6020116132c8575b816132b860209383613ae4565b81010312613287575199386130e8565b3d91506132ab565b6040513d8c823e3d90fd5b60846040517f08c379a000000000000000000000000000000000000000000000000000000000815260206004820152602b60248201527f436c69656e745661756c743a2072657761726420746f6b656e4f7574206e6f7460448201527f20706f6f6c20746f6b656e0000000000000000000000000000000000000000006064820152fd5b5073ffffffffffffffffffffffffffffffffffffffff83168214613083565b60646040517f08c379a000000000000000000000000000000000000000000000000000000000815260206004820152601b60248201527f436c69656e745661756c743a2072657761726420746f6b656e3d3000000000006044820152fd5b5073ffffffffffffffffffffffffffffffffffffffff600554161515613044565b60846040517f08c379a000000000000000000000000000000000000000000000000000000000815260206004820152602160248201527f436c69656e745661756c743a2072657761726420737761702064697361626c6560448201527f64000000000000000000000000000000000000000000000000000000000000006064820152fd5b6040517f172688440000000000000000000000000000000000000000000000000000000081523060048201526040816024818b885af18015613501576134c8575b5061299d565b6040813d6040116134f9575b816134e160409383613ae4565b810103126116d6576134f290613b54565b50386134c2565b3d91506134d4565b6040513d8a823e3d90fd5b6040517fb89b1f470000000000000000000000000000000000000000000000000000000081523060048201526040816024818b885af1801561350157613553575b50612990565b61356b9060403d604011611856576118488183613ae4565b5061354d565b905061358c915060403d604011610ac857610aba8183613ae4565b38612982565b60646040517f08c379a000000000000000000000000000000000000000000000000000000000815260206004820152601560248201527f436c69656e745661756c743a206275666665723d3000000000000000000000006044820152fd5b9094506020813d602011613624575b8161360c60209383613ae4565b810103126104385761361d90613b54565b9338612925565b3d91506135ff565b60025460ff8116156136c35760081c63ffffffff168061364d575b506128b0565b61365990600354613aa8565b42106136655738613647565b60646040517f08c379a000000000000000000000000000000000000000000000000000000000815260206004820152601e60248201527f436c69656e745661756c743a20636f6d706f756e6420636f6f6c646f776e00006044820152fd5b60646040517f08c379a000000000000000000000000000000000000000000000000000000000815260206004820152601e60248201527f436c69656e745661756c743a20636f6d706f756e642064697361626c656400006044820152fd5b50815460ff8160401c16156137bf5763ffffffff829160481c1680613747575b506128ab565b6137549150600154613aa8565b4210613761578038613741565b60646040517f08c379a000000000000000000000000000000000000000000000000000000000815260206004820152601d60248201527f436c69656e745661756c743a206861727665737420636f6f6c646f776e0000006044820152fd5b60646040517f08c379a000000000000000000000000000000000000000000000000000000000815260206004820152601d60248201527f436c69656e745661756c743a20686172766573742064697361626c65640000006044820152fd5b60646040517f08c379a000000000000000000000000000000000000000000000000000000000815260206004820152601260248201527f436c69656e745661756c743a206e6f2d6f7000000000000000000000000000006044820152fd5b508061289f565b905061388c613a8a565b9061288f565b905061389c613a7b565b90612888565b50346102f557807ffffffffffffffffffffffffffffffffffffffffffffffffffffffffffffffffc3601126102f557602060405173ffffffffffffffffffffffffffffffffffffffff7f0000000000000000000000000000000000000000000000000000000000000000168152f35b905034610d1357817ffffffffffffffffffffffffffffffffffffffffffffffffffffffffffffffffc360112610d135760209073ffffffffffffffffffffffffffffffffffffffff7f0000000000000000000000000000000000000000000000000000000000000000168152f35b600435908115158203610a1e57565b6024359063ffffffff82168203610a1e57565b6024359073ffffffffffffffffffffffffffffffffffffffff82168203610a1e57565b6004359073ffffffffffffffffffffffffffffffffffffffff82168203610a1e57565b600435908160020b8203610a1e57565b602435908160020b8203610a1e57565b15613a0e57565b60646040517f08c379a000000000000000000000000000000000000000000000000000000000815260206004820152601960248201527f436c69656e745661756c743a206e6f74206578656375746f72000000000000006044820152fd5b6004358015158103610a1e5790565b6024358015158103610a1e5790565b6044358015158103610a1e5790565b60c4358015158103610a1e5790565b91908201809211613ab557565b7f4e487b7100000000000000000000000000000000000000000000000000000000600052601160045260246000fd5b90601f7fffffffffffffffffffffffffffffffffffffffffffffffffffffffffffffffe0910116810190811067ffffffffffffffff821117613b2557604052565b7f4e487b7100000000000000000000000000000000000000000000000000000000600052604160045260246000fd5b519073ffffffffffffffffffffffffffffffffffffffff82168203610a1e57565b9190826040910312610a1e57613b966020613b8f84613b54565b9301613b54565b90565b9190826040910312610a1e576020825192015190565b15613bb657565b60646040517f08c379a000000000000000000000000000000000000000000000000000000000815260206004820152601a60248201527f436c69656e745661756c743a20737761702064697361626c65640000000000006044820152fd5b60a43573ffffffffffffffffffffffffffffffffffffffff81168103610a1e5790565b15613c3e57565b60646040517f08c379a000000000000000000000000000000000000000000000000000000000815260206004820152601660248201527f436c69656e745661756c743a206e6f74206f776e6572000000000000000000006044820152fd5b6004358060020b8103610a1e5790565b6024358060020b8103610a1e5790565b60643573ffffffffffffffffffffffffffffffffffffffff81168103610a1e5790565b60843573ffffffffffffffffffffffffffffffffffffffff81168103610a1e5790565b51906fffffffffffffffffffffffffffffffff82168203610a1e57565b60027f9b779b17422d0df92223018b32b4d1fa46e071723d6817e2486d003becc55f005414613d6e5760027f9b779b17422d0df92223018b32b4d1fa46e071723d6817e2486d003becc55f0055565b7f3ee5aeb50000000000000000000000000000000000000000000000000000000060005260046000fd5b9594919290937f00000000000000000000000000000000000000000000000000000000000000009673ffffffffffffffffffffffffffffffffffffffff8816938415613fed578315613f8f57613def848a8461404b565b610384420192834211613ab5576040519261010084019484861067ffffffffffffffff871117613b255773ffffffffffffffffffffffffffffffffffffffff809562ffffff828a957f414bf389000000000000000000000000000000000000000000000000000000009a604052169b8c83528380602085019f169e8f81528360408601931683528160608601953087526080810198895260a08101998a5260c081019a8b528160e082019c168c526040519d8e52511660048d0152511660248b015251166044890152511660648701525160848601525160a48501525160c4840152511660e4820152602081610104816000875af1908115613f8357600091613f31575b507f6782190c91d4a7e8ad2a867deed6ec0a970cab8ff137ae2bd4abd92b3810f4d39181613f24604093998761461a565b82519182526020820152a4565b906020823d602011613f7b575b81613f4b60209383613ae4565b810103126102f55750517f6782190c91d4a7e8ad2a867deed6ec0a970cab8ff137ae2bd4abd92b3810f4d3613ef3565b3d9150613f3e565b6040513d6000823e3d90fd5b60646040517f08c379a000000000000000000000000000000000000000000000000000000000815260206004820152601760248201527f436c69656e745661756c743a20616d6f756e74496e3d300000000000000000006044820152fd5b60646040517f08c379a000000000000000000000000000000000000000000000000000000000815260206004820152601560248201527f436c69656e745661756c743a20726f757465723d3000000000000000000000006044820152fd5b82156141cf576040517fdd62ed3e00000000000000000000000000000000000000000000000000000000815230600482015273ffffffffffffffffffffffffffffffffffffffff8381166024830152919091169290602081604481875afa908115613f835760009161419d575b50106140c2575050565b6140cc818361461a565b6140f77fffffffffffffffffffffffffffffffffffffffffffffffffffffffffffffffff8284614697565b15614100575050565b61410a8183614712565b1561416f577fffffffffffffffffffffffffffffffffffffffffffffffffffffffffffffffff61413a918361479d565b156141425750565b7f5274afe70000000000000000000000000000000000000000000000000000000060005260045260246000fd5b507f5274afe70000000000000000000000000000000000000000000000000000000060005260045260246000fd5b90506020813d6020116141c7575b816141b860209383613ae4565b81010312610a1e5751386140b8565b3d91506141ab565b505050565b909173ffffffffffffffffffffffffffffffffffffffff7f00000000000000000000000000000000000000000000000000000000000000001691604051907f9d63848a000000000000000000000000000000000000000000000000000000008252604082600481875afa908115613f8357600092600092614525575b50604051927f70a0823100000000000000000000000000000000000000000000000000000000845230600485015260208460248173ffffffffffffffffffffffffffffffffffffffff85165afa938415613f83576000946144f1575b506040517f70a0823100000000000000000000000000000000000000000000000000000000815230600482015260208160248173ffffffffffffffffffffffffffffffffffffffff88165afa908115613f83576000916144bf575b5084158015906144b6575b15614458578660409461432b600097836143309661404b565b61404b565b60648251809481937f109162ef00000000000000000000000000000000000000000000000000000000835230600484015260020b9889602484015260020b978860448401525af1908115613f835760009081926143e0575b506080906fffffffffffffffffffffffffffffffff837fe1b61fd8135460b22abc435eec8e97ab772042997e8696d312015dd44aedd91e949683988460075560405194855260208501526040840152166060820152a1565b91506040823d604011614450575b816143fb60409383613ae4565b810103126102f557506080816fffffffffffffffffffffffffffffffff61444760207fe1b61fd8135460b22abc435eec8e97ab772042997e8696d312015dd44aedd91e95519301613d02565b93505090614388565b3d91506143ee565b60646040517f08c379a000000000000000000000000000000000000000000000000000000000815260206004820152601560248201527f436c69656e745661756c743a206e6f2066756e647300000000000000000000006044820152fd5b50801515614312565b906020823d6020116144e9575b816144d960209383613ae4565b810103126102f557505138614307565b3d91506144cc565b90936020823d60201161451d575b8161450c60209383613ae4565b810103126102f557505192386142ac565b3d91506144ff565b909250614541915060403d604011610ac857610aba8183613ae4565b909138614250565b9160209060009073ffffffffffffffffffffffffffffffffffffffff604051947fa9059cbb0000000000000000000000000000000000000000000000000000000084521660045260245260448180865af1906001600051148216156145f8575b604052156145b45750565b73ffffffffffffffffffffffffffffffffffffffff907f5274afe7000000000000000000000000000000000000000000000000000000006000521660045260246000fd5b90600181151661461057823b15153d151616906145a9565b503d6000823e3d90fd5b9061462760008284614697565b15614630575050565b61463a8183614712565b1561465357600061464b918361479d565b156145b45750565b73ffffffffffffffffffffffffffffffffffffffff827f5274afe7000000000000000000000000000000000000000000000000000000006000521660045260246000fd5b92919260009373ffffffffffffffffffffffffffffffffffffffff604051937f095ea7b30000000000000000000000000000000000000000000000000000000087521660045260245260208460448180855af19360018151148516156146ff575b5050604052565b939193503b15153d1516169138806146f8565b919073ffffffffffffffffffffffffffffffffffffffff604051917f095ea7b3000000000000000000000000000000000000000000000000000000006000521660045260006024526020600060448180875af19260016000511484161561477a575b50604052565b60018492941516614793573b15153d1516169138614774565b833d6000823e3d90fd5b929173ffffffffffffffffffffffffffffffffffffffff604051927f095ea7b300000000000000000000000000000000000000000000000000000000600052166004526024526020600060448180875af19260016000511484161561477a575060405256fea26469706673582212202fcd07876379759075c1053929fce07995dda81a6366690fa6bff5e57199c91464736f6c634300081e0033","linkReferences":{}},"methodIdentifiers":{"adapter()":"03eadcfc","allowSwap()":"79886b9d","autoHarvestAndCompoundPancake((bool,bool,bool,uint256,uint256,uint160,bool,uint256,uint256,uint256,uint256))":"0d0cd752","autoRebalancePancake((int24,int24,uint24,address,address,uint256,uint256,uint160))":"33fdf8c9","automationEnabled()":"d966a594","claimRewards()":"372500ab","collectToVault()":"7b0f7cc9","compoundCooldownSec()":"d9c531d5","compoundEnabled()":"9ebc1a8e","cooldownSec()":"e7cb9f2d","dailyHarvestCooldownSec()":"f6f47619","dailyHarvestEnabled()":"44b1527b","dexRouter()":"0758d924","executor()":"c34c08e5","exitPositionAndWithdrawAll(address)":"bc0931b9","exitPositionToVault()":"7ba45d59","feeCollector()":"c415b95c","getAutomationConfig()":"4d2e259c","lastCompoundTs()":"2d13977b","lastDailyHarvestTs()":"ec4c667a","lastRebalanceTs()":"d1a663bb","maxSlippageBps()":"c4aa7395","openInitialPosition(int24,int24)":"a04cedd5","owner()":"8da5cb5b","positionTokenId()":"ceefe5d1","positionTokenIdView()":"799b2b54","rebalanceWithCaps(int24,int24,uint256,uint256)":"824518de","rewardSwap()":"66e6e60d","setAutomationConfig(uint32,uint16,bool)":"fe86702b","setAutomationEnabled(bool)":"79e66622","setCompoundConfig(bool,uint32)":"119d084a","setDailyHarvestConfig(bool,uint32)":"46445e69","setRewardSwapConfig(bool,address,address,uint24,uint160)":"7ba34f28","stake()":"3a4b66f1","strategyId()":"492f4e18","swapExactInPancake(address,address,uint24,uint256,uint256,uint160)":"f1070bd3","tokens()":"9d63848a","unstake()":"2def6620"},"id":70}