{"abi":[{"type":"constructor","inputs":[{"name":"_pool","type":"address","internalType":"address"},{"name":"_nfpm","type":"address","internalType":"address"},{"name":"_masterChefV3","type":"address","internalType":"address"},{"name":"_feeBuffer","type":"address","internalType":"address"}],"stateMutability":"nonpayable"},{"type":"function","name":"claimRewards","inputs":[{"name":"vault","type":"address","internalType":"address"}],"outputs":[],"stateMutability":"nonpayable"},{"type":"function","name":"collectToVault","inputs":[{"name":"vault","type":"address","internalType":"address"}],"outputs":[{"name":"amount0","type":"uint256","internalType":"uint256"},{"name":"amount1","type":"uint256","internalType":"uint256"}],"stateMutability":"nonpayable"},{"type":"function","name":"currentRange","inputs":[{"name":"vault","type":"address","internalType":"address"}],"outputs":[{"name":"lower","type":"int24","internalType":"int24"},{"name":"upper","type":"int24","internalType":"int24"},{"name":"liquidity","type":"uint128","internalType":"uint128"}],"stateMutability":"view"},{"type":"function","name":"currentTokenId","inputs":[{"name":"vault","type":"address","internalType":"address"}],"outputs":[{"name":"","type":"uint256","internalType":"uint256"}],"stateMutability":"view"},{"type":"function","name":"exitPositionToVault","inputs":[{"name":"vault","type":"address","internalType":"address"}],"outputs":[],"stateMutability":"nonpayable"},{"type":"function","name":"exitPositionToVaultAndHarvestFeesToBuffer","inputs":[{"name":"vault","type":"address","internalType":"address"}],"outputs":[],"stateMutability":"nonpayable"},{"type":"function","name":"feeBuffer","inputs":[],"outputs":[{"name":"","type":"address","internalType":"address"}],"stateMutability":"view"},{"type":"function","name":"gauge","inputs":[],"outputs":[{"name":"","type":"address","internalType":"address"}],"stateMutability":"view"},{"type":"function","name":"gaugeRewardToken","inputs":[],"outputs":[{"name":"","type":"address","internalType":"address"}],"stateMutability":"view"},{"type":"function","name":"harvestGaugeRewardsToBuffer","inputs":[{"name":"vault","type":"address","internalType":"address"}],"outputs":[{"name":"rewardToken","type":"address","internalType":"address"},{"name":"grossReward","type":"uint256","internalType":"uint256"}],"stateMutability":"nonpayable"},{"type":"function","name":"harvestPoolFeesToBuffer","inputs":[{"name":"vault","type":"address","internalType":"address"}],"outputs":[{"name":"gross0","type":"uint256","internalType":"uint256"},{"name":"gross1","type":"uint256","internalType":"uint256"}],"stateMutability":"nonpayable"},{"type":"function","name":"increaseLiquidityFromVault","inputs":[{"name":"vault","type":"address","internalType":"address"},{"name":"amount0Desired","type":"uint256","internalType":"uint256"},{"name":"amount1Desired","type":"uint256","internalType":"uint256"},{"name":"amount0Min","type":"uint256","internalType":"uint256"},{"name":"amount1Min","type":"uint256","internalType":"uint256"}],"outputs":[{"name":"liquidityAdded","type":"uint128","internalType":"uint128"},{"name":"used0","type":"uint256","internalType":"uint256"},{"name":"used1","type":"uint256","internalType":"uint256"}],"stateMutability":"nonpayable"},{"type":"function","name":"increaseLiquidityWithCaps","inputs":[{"name":"vault","type":"address","internalType":"address"},{"name":"cap0","type":"uint256","internalType":"uint256"},{"name":"cap1","type":"uint256","internalType":"uint256"}],"outputs":[{"name":"addedLiquidity","type":"uint128","internalType":"uint128"},{"name":"used0","type":"uint256","internalType":"uint256"},{"name":"used1","type":"uint256","internalType":"uint256"}],"stateMutability":"nonpayable"},{"type":"function","name":"lastCompound","inputs":[{"name":"","type":"address","internalType":"address"}],"outputs":[{"name":"","type":"uint256","internalType":"uint256"}],"stateMutability":"view"},{"type":"function","name":"lastHarvest","inputs":[{"name":"","type":"address","internalType":"address"}],"outputs":[{"name":"","type":"uint256","internalType":"uint256"}],"stateMutability":"view"},{"type":"function","name":"lastRebalance","inputs":[{"name":"","type":"address","internalType":"address"}],"outputs":[{"name":"","type":"uint256","internalType":"uint256"}],"stateMutability":"view"},{"type":"function","name":"nfpm","inputs":[],"outputs":[{"name":"","type":"address","internalType":"address"}],"stateMutability":"view"},{"type":"function","name":"onERC721Received","inputs":[{"name":"","type":"address","internalType":"address"},{"name":"","type":"address","internalType":"address"},{"name":"","type":"uint256","internalType":"uint256"},{"name":"","type":"bytes","internalType":"bytes"}],"outputs":[{"name":"","type":"bytes4","internalType":"bytes4"}],"stateMutability":"pure"},{"type":"function","name":"openInitialPosition","inputs":[{"name":"vault","type":"address","internalType":"address"},{"name":"tickLower","type":"int24","internalType":"int24"},{"name":"tickUpper","type":"int24","internalType":"int24"}],"outputs":[{"name":"tokenId","type":"uint256","internalType":"uint256"},{"name":"liquidity","type":"uint128","internalType":"uint128"}],"stateMutability":"nonpayable"},{"type":"function","name":"pool","inputs":[],"outputs":[{"name":"","type":"address","internalType":"address"}],"stateMutability":"view"},{"type":"function","name":"rebalanceWithCaps","inputs":[{"name":"vault","type":"address","internalType":"address"},{"name":"tickLower","type":"int24","internalType":"int24"},{"name":"tickUpper","type":"int24","internalType":"int24"},{"name":"cap0","type":"uint256","internalType":"uint256"},{"name":"cap1","type":"uint256","internalType":"uint256"}],"outputs":[{"name":"newLiquidity","type":"uint128","internalType":"uint128"}],"stateMutability":"nonpayable"},{"type":"function","name":"slot0","inputs":[],"outputs":[{"name":"sqrtPriceX96","type":"uint160","internalType":"uint160"},{"name":"tick","type":"int24","internalType":"int24"}],"stateMutability":"view"},{"type":"function","name":"stakePosition","inputs":[{"name":"vault","type":"address","internalType":"address"}],"outputs":[],"stateMutability":"nonpayable"},{"type":"function","name":"sweepAdapterTokenToBuffer","inputs":[{"name":"vault","type":"address","internalType":"address"},{"name":"token","type":"address","internalType":"address"},{"name":"amount","type":"uint256","internalType":"uint256"}],"outputs":[],"stateMutability":"nonpayable"},{"type":"function","name":"tickSpacing","inputs":[],"outputs":[{"name":"","type":"int24","internalType":"int24"}],"stateMutability":"view"},{"type":"function","name":"tokens","inputs":[],"outputs":[{"name":"token0","type":"address","internalType":"address"},{"name":"token1","type":"address","internalType":"address"}],"stateMutability":"view"},{"type":"function","name":"unstakePosition","inputs":[{"name":"vault","type":"address","internalType":"address"}],"outputs":[],"stateMutability":"nonpayable"},{"type":"event","name":"CompoundedFromBuffer","inputs":[{"name":"vault","type":"address","indexed":true,"internalType":"address"},{"name":"tokenId","type":"uint256","indexed":true,"internalType":"uint256"},{"name":"amount0Desired","type":"uint256","indexed":false,"internalType":"uint256"},{"name":"amount1Desired","type":"uint256","indexed":false,"internalType":"uint256"},{"name":"amount0Used","type":"uint256","indexed":false,"internalType":"uint256"},{"name":"amount1Used","type":"uint256","indexed":false,"internalType":"uint256"},{"name":"liquidityAdded","type":"uint128","indexed":false,"internalType":"uint128"}],"anonymous":false},{"type":"event","name":"GaugeRewardsHarvestedToBuffer","inputs":[{"name":"vault","type":"address","indexed":true,"internalType":"address"},{"name":"tokenId","type":"uint256","indexed":true,"internalType":"uint256"},{"name":"rewardToken","type":"address","indexed":true,"internalType":"address"},{"name":"gross","type":"uint256","indexed":false,"internalType":"uint256"},{"name":"protocolFee","type":"uint256","indexed":false,"internalType":"uint256"},{"name":"net","type":"uint256","indexed":false,"internalType":"uint256"}],"anonymous":false},{"type":"event","name":"PoolFeesHarvestedToBuffer","inputs":[{"name":"vault","type":"address","indexed":true,"internalType":"address"},{"name":"tokenId","type":"uint256","indexed":true,"internalType":"uint256"},{"name":"gross0","type":"uint256","indexed":false,"internalType":"uint256"},{"name":"gross1","type":"uint256","indexed":false,"internalType":"uint256"},{"name":"protocol0","type":"uint256","indexed":false,"internalType":"uint256"},{"name":"protocol1","type":"uint256","indexed":false,"internalType":"uint256"},{"name":"net0","type":"uint256","indexed":false,"internalType":"uint256"},{"name":"net1","type":"uint256","indexed":false,"internalType":"uint256"}],"anonymous":false},{"type":"event","name":"SweptToBuffer","inputs":[{"name":"vault","type":"address","indexed":true,"internalType":"address"},{"name":"token","type":"address","indexed":true,"internalType":"address"},{"name":"amount","type":"uint256","indexed":false,"internalType":"uint256"}],"anonymous":false},{"type":"error","name":"SafeERC20FailedOperation","inputs":[{"name":"token","type":"address","internalType":"address"}]}],"bytecode":{"object":"0x61012080604052346102f857608081614842803803809161002082856102fd565b8339810103126102f85761003381610336565b61003f60208301610336565b610057606061005060408601610336565b9401610336565b916001600160a01b0381161515806102e6575b156102a1576001600160a01b0383161561025c5760805260a05260c082905260e0526000906001600160a01b0316806101e3575b50610100526040516144f7908161034b823960805181818161026901528181610e190152818161151901528181611750015281816119770152612c44015260a0518181816103c301528181610b3c01528181610be401528181610db301528181610dde0152818161166701528181611934015281816125c801528181612b7f01528181612d81015281816130480152818161365d015281816139d1015261406e015260c0518181816105db01528181610875015281816109e80152818161217c0152818161292c0152818161317901528181613227015281816133960152818161397f0152613a55015260e05181818161063d015281816106db01528181610a6601528181611da001526141ab0152610100518181816108ac01528181611807015281816121cc015281816129630152818161325d015281816133ed0152613f710152f35b90602060049260405193848092630994dde560e31b82525afa9091828261021a575b5050610215575060005b3861009e565b61020f565b909192506020823d602011610254575b81610237602093836102fd565b81010312610251575061024990610336565b903880610205565b80fd5b3d915061022a565b60405162461bcd60e51b815260206004820152601d60248201527f50616e63616b655633416461707465723a206665654275666665723d300000006044820152606490fd5b60405162461bcd60e51b815260206004820152601e60248201527f50616e63616b655633416461707465723a207a65726f206164647265737300006044820152606490fd5b506001600160a01b038216151561006a565b600080fd5b601f909101601f19168101906001600160401b0382119082101761032057604052565b634e487b7160e01b600052604160045260246000fd5b51906001600160a01b03821682036102f85756fe6080604052600436101561001257600080fd5b6000803560e01c80630c7d47fe14611d18578063109162ef1461183657806310bb73ed146117f1578063150b7a021461177f57806316f0115b1461173a5780631726884414611700578063270d3136146116105780633850c7bd146114f357806347f1aac2146114d1578063486b9f88146114985780636783ac1714610b6b5780637303e91314610b26578063762100e714610b0257806386ff5c4b14610aca5780639d63848a14610a95578063a00622dc14610a50578063a26d6dd514610a17578063a6f19c84146109d2578063af52b2f91461034a578063b021724014610328578063b89b1f47146102f8578063d0c93a7c14610242578063dcfc070b14610220578063de959d16146101c8578063e4010503146101a6578063ef5cfb8c146101815763fdd0fd2d1461014657600080fd5b3461017e57602036600319011261017e576020906040906001600160a01b0361016d611f51565b168152600183522054604051908152f35b80fd5b503461017e57602036600319011261017e576101a361019e611f51565b613a4a565b80f35b503461017e57602036600319011261017e576101a36101c3611f51565b613971565b503461017e57606036600319011261017e5761021c6101f56101e8611f51565b6044359060243590613512565b604080516001600160801b0390941684526020840192909252908201529081906060820190565b0390f35b503461017e57602036600319011261017e576101a361023d611f51565b61338b565b503461017e578060031936011261017e576040516334324e9f60e21b8152906020826004817f00000000000000000000000000000000000000000000000000000000000000006001600160a01b03165afa9081156102ec5780916102af575b6020826040519060020b8152f35b90506020823d6020116102e4575b816102ca60209383612024565b8101031261017e57506102de6020916123df565b386102a1565b3d91506102bd565b604051903d90823e3d90fd5b503461017e57602036600319011261017e57604061031c610317611f51565b613002565b82519182526020820152f35b503461017e57602036600319011261017e576101a3610345611f51565b612d47565b503461017e5760a036600319011261017e57610364611f51565b906024356044359261037581613cf3565b6001600160a01b038116808452602084905260408420549061039882151561237f565b8493856103a48461404b565b610873575b506103b2612c35565b97909582610859575b8161083f575b7f00000000000000000000000000000000000000000000000000000000000000006103ed84828a613d49565b6103f883828c613d49565b6001600160a01b03169042610384810190811061082b5798809a606061049b9b6040519061042582612008565b8a825288602083015287604083015260643583830152608435608083015260a0820152604051809d819263219f5d1760e01b83526004830191909160a08060c083019480518452602081015160208501526040810151604085015260608101516060850152608081015160808501520151910152565b038185885af19889156106ca57829a839c849b6107f0575b506040516370a0823160e01b81523060048201526020816024816001600160a01b0386165afa9081156107655785916107bb575b506040516370a0823160e01b8152306004820152916020836024816001600160a01b0389165afa9283156107b0578693610774575b50816106d9575b50508061063b575b505050506105bb575b507ff03a5d00d8dfa5218d1f2e308480a84e1ef34e8e836f5351726b694e74dcc7309160a091898561021c999a9b52600360205260404291205560405191825260208201528860408201528560608201526001600160801b0388166080820152a3604051938493846040919493926001600160801b03606083019616825260208201520152565b803b1561063757886040518092632142170760e11b82528183816106048b7f00000000000000000000000000000000000000000000000000000000000000003060048501612046565b03925af1801561062c57156105345761061e898092612024565b6106285738610534565b8780fd5b6040513d8b823e3d90fd5b8880fd5b7f0000000000000000000000000000000000000000000000000000000000000000610667828286613d49565b6001600160a01b0316803b156106d55761069b938580946040519687958694859363b3db428b60e01b855260048501612046565b03925af180156106ca576106b1575b808061052b565b816106bb91612024565b6106c65789386106aa565b8980fd5b6040513d84823e3d90fd5b8480fd5b7f0000000000000000000000000000000000000000000000000000000000000000610705838284613d49565b6001600160a01b031691823b156107705761073a9287928360405180968195829463b3db428b60e01b84528b60048501612046565b03925af190811561076557859115610523578161075691612024565b610761578338610523565b8380fd5b6040513d87823e3d90fd5b8680fd5b955091506020853d6020116107a8575b8161079160209383612024565b810103126107a3578e9451913861051c565b600080fd5b3d9150610784565b6040513d88823e3d90fd5b9450506020843d6020116107e8575b816107d760209383612024565b810103126107a3578d9351386104e7565b3d91506107ca565b919b509950610818919b5060603d606011610824575b6108108183612024565b810190612d25565b9b919a909b99386104b3565b503d610806565b634e487b7160e01b8a52601160045260248afd5b6108548230886001600160a01b038d16613e76565b6103c1565b61086e8330886001600160a01b038b16613e76565b6103bb565b7f00000000000000000000000000000000000000000000000000000000000000006001600160a01b031695506108aa8615156124a7565b7f00000000000000000000000000000000000000000000000000000000000000006001600160a01b0316801515969087610968575b50604051627b8a6760e11b81526004810186905230602482015290602090829060449082908c905af1801561095d5761092e575b50600195156103a9576109269085613f6f565b5050506103a9565b6020813d602011610955575b8161094760209383612024565b810103126107a35751610913565b3d915061093a565b6040513d8a823e3d90fd5b6040516370a0823160e01b8152306004820152919250602090829060249082905afa90811561095d5788916109a0575b5090386108df565b90506020813d6020116109ca575b816109bb60209383612024565b810103126107a3575138610998565b3d91506109ae565b503461017e578060031936011261017e576040517f00000000000000000000000000000000000000000000000000000000000000006001600160a01b03168152602090f35b503461017e57602036600319011261017e576020906040906001600160a01b03610a3f611f51565b168152600383522054604051908152f35b503461017e578060031936011261017e576040517f00000000000000000000000000000000000000000000000000000000000000006001600160a01b03168152602090f35b503461017e578060031936011261017e57610aae612c35565b604080516001600160a01b039384168152919092166020820152f35b503461017e57602036600319011261017e576020906040906001600160a01b03610af2611f51565b1681528083522054604051908152f35b503461017e57602036600319011261017e57604061031c610b21611f51565b612b04565b503461017e578060031936011261017e576040517f00000000000000000000000000000000000000000000000000000000000000006001600160a01b03168152602090f35b503461017e5760a036600319011261017e57610c53610b88611f51565b91610b91611f7d565b92610b9a611f8d565b60643594608435610baa84613cf3565b6001600160a01b03841685526020859052604085205496610bcc88151561237f565b610bde610bd88961404b565b15612aa1565b604080517f00000000000000000000000000000000000000000000000000000000000000006001600160a01b0316959190610c1881611fd0565b8a81523060208201526001600160801b03828201526001600160801b0360608201528151809a819263fc6f786560e01b835260048301612509565b03818a895af198891561148d578798889a61145e575b50610c8f610c869798999a610c7c612c35565b99909c8d8c6140fd565b5050888a6140fd565b505060405163133f757160e31b815260048101829052610180816024818a5afa9081156112b157906001600160801b03918b91611423575b501680611305575b50853b156106375760405190630852cd8d60e31b825260048201528881602481838a5af1801561062c579089916112f0575b50506001600160a01b03878116895260208981526040808b208b9055516370a0823160e01b81523060048201529391849060249082908e165afa92831561062c5789936112bc575b506040516370a0823160e01b8152306004820152906020826024816001600160a01b038c165afa9182156112b1578a9261127d575b50806112775750600019935b8061127257506000195b838b83968281116111a6575b5050508181116110de575b5050610dd8827f00000000000000000000000000000000000000000000000000000000000000008b613d49565b610e03837f000000000000000000000000000000000000000000000000000000000000000088613d49565b60405163ddca3f4360e01b8152936020856004817f00000000000000000000000000000000000000000000000000000000000000006001600160a01b03165afa94851561062c5789956110a2575b5061038442019485421161082b579389989796938b936080979362ffffff610eed9860405197610e8089611f9d565b60018060a01b0316885260018060a01b038c16602089015216604087015260020b606086015260020b8785015260a084015260c08301528760e08301528761010083015230610120830152610140820152604051978880948193634418b22b60e11b8352600483016120d8565b03925af19384156110975783908495611061575b506001600160a01b038381168552602085815260408087209390935591516370a0823160e01b81523060048201529190829060249082908a165afa908115611056578491611024575b506040516370a0823160e01b8152306004820152956020876024816001600160a01b0387165afa918215610765578592610fef575b602097508481610fd5575b91505081610fbb575b50505060018060a01b03168152600183526040429120556001600160801b0360405191168152f35b610fcd926001600160a01b0316613f0d565b388082610f93565b610fe7926001600160a01b0316613f0d565b388084610f8a565b91506020873d60201161101c575b8161100a60209383612024565b810103126107a3576020965191610f7f565b3d9150610ffd565b90506020813d60201161104e575b8161103f60209383612024565b810103126107a3575138610f4a565b3d9150611032565b6040513d86823e3d90fd5b905061108691945060803d608011611090575b61107e8183612024565b8101906120af565b5050939038610f01565b503d611074565b6040513d85823e3d90fd5b9094506020813d6020116110d6575b816110be60209383612024565b81010312610637576110cf90612068565b9338610e51565b3d91506110b1565b816110e891612af7565b6040516370a0823160e01b81526001600160a01b038a81166004830152909190602090839060249082908d165afa91821561119b578b92611167575b508181111561115f5750905b8115610dab579193506111579161115282308b6001600160a01b038c16613e76565b612078565b913880610dab565b905090611130565b9091506020813d602011611193575b8161118360209383612024565b810103126107a357519038611124565b3d9150611176565b6040513d8d823e3d90fd5b826111b091612af7565b6040516370a0823160e01b81526001600160a01b03808e166004830152909260209184916024918391165afa918215611267578d92611233575b508181111561122b5750905b8c82611203575b90610da0565b9295506112229261115290839030908e906001600160a01b0316613e76565b9238808c6111fd565b9050906111f6565b9091506020813d60201161125f575b8161124f60209383612024565b810103126107a3575190386111ea565b3d9150611242565b6040513d8f823e3d90fd5b610d94565b93610d8a565b9091506020813d6020116112a9575b8161129960209383612024565b810103126107a357519038610d7e565b3d915061128c565b6040513d8c823e3d90fd5b9092506020813d6020116112e8575b816112d860209383612024565b810103126107a357519138610d49565b3d91506112cb565b816112fa91612024565b610628578738610d01565b610384420180421161140f576113559160409182519161132483611fec565b85835260208301528c838301528c60608301526080820152815180938192630624e65f60e11b835260048301612546565b03818d8b5af180156112b1576113f1575b506113b26040805161137781611fd0565b8381523060208201526001600160801b03828201526001600160801b03606082015281518093819263fc6f786560e01b835260048301612509565b03818d8b5af180156112b15715610ccf576113e49060403d6040116113ea575b6113dc8183612024565b8101906124f3565b50610ccf565b503d6113d2565b6114099060403d6040116113ea576113dc8183612024565b50611366565b634e487b7160e01b8b52601160045260248bfd5b61144591506101803d8111611457575b61143d8183612024565b8101906123ed565b50505050965050505050505038610cc7565b503d611433565b610c8f9a50610c86979899506114829060403d6040116113ea576113dc8183612024565b9a9099989750610c69565b6040513d89823e3d90fd5b503461017e57602036600319011261017e576020906040906001600160a01b036114c0611f51565b168152600283522054604051908152f35b503461017e57602036600319011261017e576101a36114ee611f51565b612583565b503461017e578060031936011261017e57604051633850c7bd60e01b815260e0816004817f00000000000000000000000000000000000000000000000000000000000000006001600160a01b03165afa80156106ca578291839161156e575b604080516001600160a01b0385168152600284900b6020820152f35b91505060e0813d60e011611608575b8161158a60e09383612024565b810103126116045780516001600160a01b0381168103611600576115b0602083016123df565b916115bd60408201612498565b506115ca60608201612498565b506115d760808201612498565b5060a081015163ffffffff8116036107615760c001518015150361160057604092509038611552565b8280fd5b5080fd5b3d915061157d565b503461017e57602036600319011261017e576001600160a01b03611632611f51565b16815280602052604081205461164981151561237f565b60405163133f757160e31b81526004810191909152610180816024817f00000000000000000000000000000000000000000000000000000000000000006001600160a01b03165afa80156106ca57916060928180916116c7575b6001600160801b039293506040519360020b845260020b6020840152166040820152f35b5050506116ea6001600160801b03916101803d81116114575761143d8183612024565b50505050955096955092505050928392506116a3565b503461017e57602036600319011261017e57604061172461171f611f51565b612171565b82516001600160a01b0390921682526020820152f35b503461017e578060031936011261017e576040517f00000000000000000000000000000000000000000000000000000000000000006001600160a01b03168152602090f35b503461017e57608036600319011261017e57611799611f51565b506117a2611f67565b5060643567ffffffffffffffff8111611604573660238201121561160457806004013567ffffffffffffffff8111611600573691016024011161017e57604051630a85bd0160e11b8152602090f35b503461017e578060031936011261017e576040517f00000000000000000000000000000000000000000000000000000000000000006001600160a01b03168152602090f35b503461017e57606036600319011261017e57611850611f51565b90611859611f7d565b91611862611f8d565b61186b82613cf3565b6001600160a01b03821680845260208490526040842054909190611cd457611891612c35565b6040516370a0823160e01b8152600481018590526001600160a01b0383169790929091906020846024818c5afa93841561095d578894611ca0575b506040516370a0823160e01b8152600481018790526001600160a01b0383169590926020846024818a5afa9384156112b1578a94611c6c575b50851580158091611c63575b15611c1e578693611961928b868f8995611c0b575b50505082611bfa575b61195c7f0000000000000000000000000000000000000000000000000000000000000000998a8094613d49565b613d49565b60405163ddca3f4360e01b8152936020856004817f00000000000000000000000000000000000000000000000000000000000000006001600160a01b03165afa9485156112b1578a95611bbe575b5061038442019485421161140f57938a989796938c936080979362ffffff611a3b98604051976119de89611f9d565b88528b602089015216604087015260020b606086015260020b8785015260a084015260c08301528760e08301528761010083015230610120830152610140820152604051988980948193634418b22b60e11b8352600483016120d8565b03926001600160a01b03165af19384156110975783958495611b95575b5082845283602052856040852055604051906370a0823160e01b82523060048301526020826024818b5afa918215610765578592611b61575b506040516370a0823160e01b815230600482015291602083602481875afa9283156107b0578693611b1e575b509060409882826001600160801b03999897969594611b0d575b50505081611afc575b5050508152600160205284429120558351928352166020820152f35b611b0592613f0d565b388080611ae0565b611b1692613f0d565b388082611ad7565b969594939250906020873d602011611b59575b81611b3e60209383612024565b810103126107a3579551949593949293919291906040611abd565b3d9150611b31565b9091506020813d602011611b8d575b81611b7d60209383612024565b810103126107a357519038611a91565b3d9150611b70565b909450611bb291955060803d6080116110905761107e8183612024565b50509490949338611a58565b9094506020813d602011611bf2575b81611bda60209383612024565b810103126106c657611beb90612068565b93386119af565b3d9150611bcd565b611c0683308e8d613e76565b61192f565b611c16923091613e76565b8b868f611926565b60405162461bcd60e51b815260206004820152601a60248201527f50616e63616b655633416461707465723a206e6f2066756e64730000000000006044820152606490fd5b50841515611911565b9093506020813d602011611c98575b81611c8860209383612024565b810103126107a357519238611905565b3d9150611c7b565b9093506020813d602011611ccc575b81611cbc60209383612024565b810103126107a3575192386118cc565b3d9150611caf565b606460405162461bcd60e51b815260206004820152602060248201527f50616e63616b655633416461707465723a20616c7265616479206f70656e65646044820152fd5b503461017e57606036600319011261017e57611d32611f51565b611d3a611f67565b9060443590611d4881613cf3565b6001600160a01b038316928315611f0c576040516370a0823160e01b8152306004820152602081602481885afa9081156107b0578691611ed6575b50831581858215611ecc575b5050611ec4575b508215611e7f57847f0000000000000000000000000000000000000000000000000000000000000000611dca858285613d49565b6001600160a01b031691823b1561160457611dff9285918360405180968195829463b3db428b60e01b84528a60048501612046565b03925af1801561076557611e48575b506040519182526001600160a01b0316907f933ff3ac7bdff879fb9421b4d137a4fc8fc1ac8a448d04b4d0cb97b0d2e4700c90602090a380f35b84611e777f933ff3ac7bdff879fb9421b4d137a4fc8fc1ac8a448d04b4d0cb97b0d2e4700c9396602093612024565b949150611e0e565b60405162461bcd60e51b815260206004820152601760248201527f50616e63616b655633416461707465723a20656d7074790000000000000000006044820152606490fd5b925038611d96565b1190508138611d8f565b90506020813d602011611f04575b81611ef160209383612024565b81010312611f00575138611d83565b8580fd5b3d9150611ee4565b60405162461bcd60e51b815260206004820152601960248201527f50616e63616b655633416461707465723a20746f6b656e3d30000000000000006044820152606490fd5b600435906001600160a01b03821682036107a357565b602435906001600160a01b03821682036107a357565b602435908160020b82036107a357565b604435908160020b82036107a357565b610160810190811067ffffffffffffffff821117611fba57604052565b634e487b7160e01b600052604160045260246000fd5b6080810190811067ffffffffffffffff821117611fba57604052565b60a0810190811067ffffffffffffffff821117611fba57604052565b60c0810190811067ffffffffffffffff821117611fba57604052565b90601f8019910116810190811067ffffffffffffffff821117611fba57604052565b6001600160a01b03918216815291166020820152604081019190915260600190565b519062ffffff821682036107a357565b9190820180921161208557565b634e487b7160e01b600052601160045260246000fd5b51906001600160801b03821682036107a357565b91908260809103126107a3578151916120ca6020820161209b565b916060604083015192015190565b9190916101408061016083019460018060a01b03815116845260018060a01b03602082015116602085015262ffffff6040820151166040850152606081015160020b6060850152608081015160020b608085015260a081015160a085015260c081015160c085015260e081015160e085015261010081015161010085015260018060a01b03610120820151166101208501520151910152565b61217a81613cf3565b7f00000000000000000000000000000000000000000000000000000000000000006001600160a01b03168015612375576001600160a01b038216600081815260208190526040902054918215612369577f0000000000000000000000000000000000000000000000000000000000000000936001600160a01b0385161561235c576040516370a0823160e01b8152306004820152916020836024816001600160a01b038a165afa9283156123505760009361231c575b50604051630c7e663b60e11b81526004810186905230602482015290602090829060449082906000905af190816122ed575b50612271575050505090600090565b9061227f9195939495613f6f565b90829492969385612293575b505050505050565b7f21bfd968014a2c5c47d330b3842b3c4c3642cd171e7da51a1cca7c101c635eda92606092856000526002602052426040600020556040519788526020880152604087015260018060a01b031694a438808080808061228b565b6020813d602011612314575b8161230660209383612024565b810103126107a35751612262565b3d91506122f9565b9092506020813d602011612348575b8161233860209383612024565b810103126107a357519138612230565b3d915061232b565b6040513d6000823e3d90fd5b5050505050600090600090565b50505050600090600090565b5050600090600090565b1561238657565b60405162461bcd60e51b815260206004820152601d60248201527f50616e63616b655633416461707465723a206e6f20706f736974696f6e0000006044820152606490fd5b51906001600160a01b03821682036107a357565b51908160020b82036107a357565b9190826101809103126107a35781516bffffffffffffffffffffffff811681036107a3579161241e602082016123cb565b9161242b604083016123cb565b91612438606082016123cb565b9161244560808301612068565b9161245260a082016123df565b9161245f60c083016123df565b9161246c60e0820161209b565b91610100820151916101208101519161249561016061248e610140850161209b565b930161209b565b90565b519061ffff821682036107a357565b156124ae57565b60405162461bcd60e51b815260206004820152601a60248201527f50616e63616b655633416461707465723a206e6f2067617567650000000000006044820152606490fd5b91908260409103126107a3576020825192015190565b91909160606001600160801b038160808401958051855260018060a01b036020820151166020860152826040820151166040860152015116910152565b91909160808060a0830194805184526001600160801b03602082015116602085015260408101516040850152606081015160608501520151910152565b9061258d82613cf3565b6001600160a01b0382166000818152602081905260408120549390918415612a9a576125b88561404b565b61292a575b6040805161263592917f00000000000000000000000000000000000000000000000000000000000000006001600160a01b0316916125fa81611fd0565b8881523060208201526001600160801b03828201526001600160801b03606082015281518095819263fc6f786560e01b835260048301612509565b038188855af196871561076557612667969786948791612905575b506126709061265d612c35565b99909687896140fd565b505088876140fd565b505060405163133f757160e31b81526004810182905261018081602481865afa90811561148d57906001600160801b039188916128da575b501680612807575b50813b15611f00578591602483926040519485938492630852cd8d60e31b845260048401525af18015610765576127f3575b5083528260205282604081205560018060a01b0316604051936370a0823160e01b8552306004860152602085602481855afa9485156110565784956127bf575b506040516370a0823160e01b81523060048201526001600160a01b03919091169490602081602481895afa9485156102ec579461278b575b50828161277a575b5050508161276f57505050565b61277892613f0d565b565b61278392613f0d565b388082612762565b9093506020813d6020116127b7575b816127a760209383612024565b810103126107a35751923861275a565b3d915061279a565b9094506020813d6020116127eb575b816127db60209383612024565b810103126107a357519338612722565b3d91506127ce565b8461280091959295612024565b92386126e2565b61038442018042116128c6576128579160409182519161282683611fec565b858352602083015289838301528960608301526080820152815180938192630624e65f60e11b835260048301612546565b03818a875af1801561148d576128a8575b506128796040805161137781611fd0565b03818a875af1801561148d57156126b0576128a29060403d6040116113ea576113dc8183612024565b506126b0565b6128c09060403d6040116113ea576113dc8183612024565b50612868565b634e487b7160e01b88526011600452602488fd5b6128f391506101803d81116114575761143d8183612024565b505050509650505050505050386126a8565b6126709550612923915060403d6040116113ea576113dc8183612024565b9094612650565b7f00000000000000000000000000000000000000000000000000000000000000006001600160a01b031661295f8115156124a7565b83907f00000000000000000000000000000000000000000000000000000000000000006001600160a01b031680151591839183612a26575b50604051627b8a6760e11b8152600481018a9052306024820152916020918391829081604481015b03925af180156107b0576129f4575b509061263592916129e2575b5090506125bd565b6129ec9084613f6f565b5050506129da565b6020813d602011612a1e575b81612a0d60209383612024565b81010312611f0057506126356129ce565b3d9150612a00565b602091945060249250604051928380926370a0823160e01b82523060048301525afa9081156107b0579086918291612a63575b50926129bf612997565b9150506020813d602011612a92575b81612a7f60209383612024565b81010312611f00575185906129bf612a59565b3d9150612a72565b5050509050565b15612aa857565b60405162461bcd60e51b815260206004820152602160248201527f50616e63616b655633416461707465723a20706f736974696f6e207374616b656044820152601960fa1b6064820152608490fd5b9190820391821161208557565b90612b0e82613cf3565b6001600160a01b0382166000908152602081905260409020548015612c2c5760408051612b799392612b3f82611fd0565b81523060208201526001600160801b03828201526001600160801b03606082015281518094819263fc6f786560e01b835260048301612509565b038160007f00000000000000000000000000000000000000000000000000000000000000006001600160a01b03165af191821561235057600090600093612c08575b50828194612bc7612c35565b938281612bee575b50505081612bdc57505050565b612778926001600160a01b0316613f0d565b612c00926001600160a01b0316613f0d565b388082612bcf565b9050612c2491925060403d6040116113ea576113dc8183612024565b919038612bbb565b50600091508190565b604051630dfe168160e01b81527f00000000000000000000000000000000000000000000000000000000000000006001600160a01b03169190602081600481865afa90811561235057600091612ce6575b506020600491936040519283809263d21220a760e01b82525afa90811561235057600091612cb2575090565b90506020813d602011612cde575b81612ccd60209383612024565b810103126107a357612495906123cb565b3d9150612cc0565b90506020813d602011612d1d575b81612d0160209383612024565b810103126107a3576020612d166004926123cb565b9150612c86565b3d9150612cf4565b908160609103126107a357612d398161209b565b916040602083015192015190565b612d5081613cf3565b6001600160a01b0381166000818152602081905260408120548015612ffc57612d7b610bd88261404b565b604080517f00000000000000000000000000000000000000000000000000000000000000006001600160a01b03169291612db89161137781611fd0565b038187875af1801561105657612fde575b5060405163133f757160e31b81526004810182905261018081602481865afa90811561105657906001600160801b03918591612fb3575b501680612ee0575b50813b15611600578291602483926040519485938492630852cd8d60e31b845260048401525af180156106ca57612ed0575b5090815280602052806040812055612e50612c35565b6040516370a0823160e01b815230600482015293916001600160a01b031690602085602481855afa9485156110565784956127bf57506040516370a0823160e01b81523060048201526001600160a01b03919091169490602081602481895afa9485156102ec579461278b5750828161277a575050508161276f57505050565b81612eda91612024565b38612e3a565b6103844201804211612f9f57612f3091604091825191612eff83611fec565b858352602083015286838301528660608301526080820152815180938192630624e65f60e11b835260048301612546565b038187875af1801561105657612f81575b50612f526040805161137781611fd0565b038187875af180156110565715612e0857612f7b9060403d6040116113ea576113dc8183612024565b50612e08565b612f999060403d6040116113ea576113dc8183612024565b50612f41565b634e487b7160e01b85526011600452602485fd5b612fcc91506101803d81116114575761143d8183612024565b50505050965050505050505038612e00565b612ff69060403d6040116113ea576113dc8183612024565b50612dc9565b50505050565b61300b81613cf3565b6001600160a01b03811660008181526020819052604081205490939181156133845784806130388461404b565b613224575b604080516130b793507f00000000000000000000000000000000000000000000000000000000000000006001600160a01b031692919061307c81611fd0565b8681523060208201526001600160801b03828201526001600160801b03606082015281518095819263fc6f786560e01b835260048301612509565b03818b865af196871561095d57889389986131fd575b5090839188839a6130f3826130eb6130e3612c35565b9890876140fd565b9790956140fd565b969094613156575b509160c095939183897f1755c989066b7ed4b9f645c6b694b777e6c92fcea8ec1046243d8673f0403391999795526002602052604042912055604051958652602086015260408501526060840152608083015260a0820152a3565b803b1561160457816131a281928c604051948580948193632142170760e11b83527f00000000000000000000000000000000000000000000000000000000000000003060048501612046565b03925af180156106ca579160c097959391817f1755c989066b7ed4b9f645c6b694b777e6c92fcea8ec1046243d8673f04033919a9896946131ed575b505091939597509193956130fb565b6131f691612024565b38816131de565b90975061321a91935060403d6040116113ea576113dc8183612024565b96909290836130cd565b507f00000000000000000000000000000000000000000000000000000000000000006001600160a01b03169061325b8215156124a7565b7f00000000000000000000000000000000000000000000000000000000000000006001600160a01b031680151591908261331c575b50604051627b8a6760e11b81526004810186905230602482015292602090849060449082908c905af1801561095d576132e9575b6130b792506001916132d7575b5061303d565b6132e19087613f6f565b5050506132d1565b6020833d602011613314575b8161330260209383612024565b81010312610628576130b792506132c4565b3d91506132f5565b6040516370a0823160e01b81523060048201529150602090829060249082905afa90811561095d578891613352575b5038613290565b90506020813d60201161337c575b8161336d60209383612024565b8101031261062857513861334b565b3d9150613360565b5083925050565b61339481613cf3565b7f00000000000000000000000000000000000000000000000000000000000000006001600160a01b0316801561350e576001600160a01b0382166000908152602081905260409020546133e881151561237f565b6000917f00000000000000000000000000000000000000000000000000000000000000006001600160a01b031680151592908361349a575b50604051627b8a6760e11b8152600481019190915230602482015290602090829081600081604481015b03925af180156123505761346b575b50613462575050565b612ffc91613f6f565b6020813d602011613492575b8161348460209383612024565b810103126107a35751613459565b3d9150613477565b6020602491604096939651928380926370a0823160e01b82523060048301525afa9182156102ec5780926134d6575b509093905061344a613420565b9091506020823d602011613506575b816134f260209383612024565b8101031261017e57505161344a60006134c9565b3d91506134e5565b5050565b9291909161351f84613cf3565b60018060a01b038416928360005260006020526040600020549261354484151561237f565b613550610bd88561404b565b613558612c35565b6040516370a0823160e01b8152600481018890526001600160a01b03831697919391906020816024818c5afa9081156123505760009161393f575b506040516370a0823160e01b815260048101929092526001600160a01b038516956020836024818a5afa9283156123505760009361390b575b50806138f45750915b806138dd5750905b806138cb575b50806138b9575b506040516370a0823160e01b8152306004820152906020826024818a5afa91821561235057600092613885575b506040516370a0823160e01b815230600482015292602084602481885afa93841561235057600094613851575b50821580613849575b613838578383926136859261195c7f000000000000000000000000000000000000000000000000000000000000000095868094613d49565b6103844201958642116120855760009660609461371594604051936136a985612008565b84526020840190815260408085019283528785018b9052608085018b815260a08601948552905163219f5d1760e01b815285516004820152915160248301529151604482015260609093015160648401525160848301525160a4820152958692839190829060c4820190565b03926001600160a01b03165af19384156123505760009460009460009161380f575b50939495604051916370a0823160e01b8352306004840152602083602481845afa928315612350576000936137db575b506040516370a0823160e01b815230600482015292602084602481885afa938415612350576000946137a75750828161277a575050508161276f57505050565b90936020823d6020116137d3575b816137c260209383612024565b8101031261017e575051923861275a565b3d91506137b5565b90926020823d602011613807575b816137f660209383612024565b8101031261017e5750519138613767565b3d91506137e9565b9195505061382d91935060603d606011610824576108108183612024565b939194909338613737565b506000975087965086955050505050565b50831561364d565b90936020823d60201161387d575b8161386c60209383612024565b8101031261017e5750519238613644565b3d915061385f565b90916020823d6020116138b1575b816138a060209383612024565b8101031261017e5750519038613617565b3d9150613893565b6138c590308986613e76565b386135ea565b6138d790308a8a613e76565b386135e3565b808210156138ed57505b906135dd565b90506138e7565b8082101561390457505b916135d5565b90506138fe565b90926020823d602011613937575b8161392660209383612024565b8101031261017e57505191386135cc565b3d9150613919565b906020823d602011613969575b8161395960209383612024565b8101031261017e57505138613593565b3d915061394c565b61397a81613cf3565b6000907f0000000000000000000000000000000000000000000000000000000000000000906001600160a01b03821615613a45576001600160a01b0316825260208290526040822054906139cf82151561237f565b7f00000000000000000000000000000000000000000000000000000000000000006001600160a01b031690813b1561076157918391613a269383604051809681958294632142170760e11b84523060048501612046565b03925af180156106ca57613a38575050565b81613a4291612024565b50565b505050565b613a5381613cf3565b7f00000000000000000000000000000000000000000000000000000000000000006001600160a01b031690811561350e576001600160a01b0381166000908152602081905260409020548015613a4557604051630c7e663b60e11b8152600481018290526001600160a01b03831660248201526020816044816000885af19081613cc4575b50613a4557600092600091604051630994dde560e31b8152602081600481865afa60009181613c88575b50613c04575b50604051630c7e663b60e11b8152600481019190915230602482015290602090829081600081604481015b03925af19081613bd5575b50613b4857505050565b6001600160a01b03169182613b5c57505050565b6040516370a0823160e01b815230600482015290602082602481875afa801561235057600090613ba1575b613b919250612af7565b908115613a455761277892613f0d565b506020823d602011613bcd575b81613bbb60209383612024565b810103126107a357613b919151613b87565b3d9150613bae565b6020813d602011613bfc575b81613bee60209383612024565b810103126107a35751613b3e565b3d9150613be1565b92506001600160a01b0383168015613b0857602492919550602090604051938480926370a0823160e01b82523060048301525afa91821561235057600092613c52575b509093613b33613b08565b91506020823d602011613c80575b81613c6d60209383612024565b810103126107a357905190613b33613c47565b3d9150613c60565b9091506020813d602011613cbc575b81613ca460209383612024565b810103126107a357613cb5906123cb565b9038613b02565b3d9150613c97565b6020813d602011613ceb575b81613cdd60209383612024565b810103126107a35751613ad8565b3d9150613cd0565b6001600160a01b03163303613d0457565b60405162461bcd60e51b815260206004820152601c60248201527f50616e63616b655633416461707465723a206f6e6c79207661756c74000000006044820152606490fd5b8215613a4557604051636eb1769f60e11b81523060048201526001600160a01b038381166024830152919091169290602081604481875afa90811561235057600091613e44575b5010613d9a575050565b613da6600082846143ea565b15613e10575b613db960001982846143ea565b15613dc2575050565b613dcc8183614444565b15613dfb57613ddf9060001990836144ac565b15613de75750565b635274afe760e01b60005260045260246000fd5b50635274afe760e01b60005260045260246000fd5b613e1a8183614444565b15613dfb57613e2b600082846144ac565b613dac5750635274afe760e01b60005260045260246000fd5b90506020813d602011613e6e575b81613e5f60209383612024565b810103126107a3575138613d90565b3d9150613e52565b6040516323b872dd60e01b60009081526001600160a01b039384166004529290931660245260449390935260209060648180865af190600160005114821615613eeb575b604052600060605215613eca5750565b635274afe760e01b60009081526001600160a01b0391909116600452602490fd5b906001811516613f0357823b15153d15161690613eba565b503d6000823e3d90fd5b60405163a9059cbb60e01b60009081526001600160a01b03909316600452602493909352919060209060448180865af190600160005114821615613f57575b60405215613eca5750565b906001811516613f0357823b15153d15161690613f4c565b7f0000000000000000000000000000000000000000000000000000000000000000916001600160a01b0383161561403a576040516370a0823160e01b81523060048201526020816024816001600160a01b0388165afa90811561235057600091614008575b5081811115613ff95791613fed613ff592859694612af7565b9384916140fd565b9091565b50505090600090600090600090565b906020823d602011614032575b8161402260209383612024565b8101031261017e57505138613fd4565b3d9150614015565b505050600090600090600090600090565b80156140f7576040516331a9108f60e11b815260048101919091526020816024817f00000000000000000000000000000000000000000000000000000000000000006001600160a01b03165afa600091816140bb575b506140ac5750600090565b6001600160a01b031630141590565b9091506020813d6020116140ef575b816140d760209383612024565b810103126107a3576140e8906123cb565b90386140a1565b3d91506140ca565b50600090565b92909260009083156143e2576040516331056e5760e21b81526001600160a01b0382169590946020866004818a5afa9586156110565784966143a1575b5060206004969760405197888092630925e9c360e31b82525afa95861561105657849661436d575b506001600160a01b038716801515969085886142f7575b61ffff16806142cc575085915b8699849984151590816142c4575b50614230575b5050505050846141a957505050565b7f00000000000000000000000000000000000000000000000000000000000000006141d5868284613d49565b6001600160a01b031691823b156107615761420c9284928388936040519687958694859363b3db428b60e01b855260048501612046565b03925af180156106ca5761421e575050565b614229828092612024565b61017e5750565b61424492949a508584969a50939193613d49565b813b156106d557604051637e471c4b60e11b815260048101919091526001600160a01b0387166024820152604481018390529084908290606490829084905af190816142b0575b5061429f57508194935b388080808061419a565b806142aa9196612af7565b93614295565b846142bd91959295612024565b923861428b565b905038614194565b80840290848204036142e357612710900491614186565b634e487b7160e01b87526011600452602487fd5b506040516306acb3f760e31b8152602081600481855afa879181614331575b50614328575061ffff865b9050614179565b61ffff90614321565b9091506020813d602011614365575b8161434d60209383612024565b810103126106285761435e90612498565b9038614316565b3d9150614340565b9095506020813d602011614399575b8161438960209383612024565b8101031261076157519438614162565b3d915061437c565b9695506020873d6020116143da575b816143bd60209383612024565b810103126107615760206143d3600497986123cb565b965061413a565b3d91506143b0565b509250829150565b60405163095ea7b360e01b60009081526001600160a01b039093166004526024939093529092919060208460448180855af1936001815114851615614431575b5050604052565b939193503b15153d15161691388061442a565b60405163095ea7b360e01b60009081526001600160a01b03909316600452602483905290929160209060448180875af192600160005114841615614489575b50604052565b600184929415166144a2573b15153d1516169138614483565b833d6000823e3d90fd5b92916040519163095ea7b360e01b60005260018060a01b03166004526024526020600060448180875af192600160005114841615614489575060405256fea164736f6c634300081e000a","linkReferences":{}},"methodIdentifiers":{"claimRewards(address)":"ef5cfb8c","collectToVault(address)":"762100e7","currentRange(address)":"270d3136","currentTokenId(address)":"86ff5c4b","exitPositionToVault(address)":"b0217240","exitPositionToVaultAndHarvestFeesToBuffer(address)":"47f1aac2","feeBuffer()":"a00622dc","gauge()":"a6f19c84","gaugeRewardToken()":"10bb73ed","harvestGaugeRewardsToBuffer(address)":"17268844","harvestPoolFeesToBuffer(address)":"b89b1f47","increaseLiquidityFromVault(address,uint256,uint256,uint256,uint256)":"af52b2f9","increaseLiquidityWithCaps(address,uint256,uint256)":"de959d16","lastCompound(address)":"a26d6dd5","lastHarvest(address)":"486b9f88","lastRebalance(address)":"fdd0fd2d","nfpm()":"7303e913","onERC721Received(address,address,uint256,bytes)":"150b7a02","openInitialPosition(address,int24,int24)":"109162ef","pool()":"16f0115b","rebalanceWithCaps(address,int24,int24,uint256,uint256)":"6783ac17","slot0()":"3850c7bd","stakePosition(address)":"e4010503","sweepAdapterTokenToBuffer(address,address,uint256)":"0c7d47fe","tickSpacing()":"d0c93a7c","tokens()":"9d63848a","unstakePosition(address)":"dcfc070b"},"id":60}