{"abi":[{"type":"constructor","inputs":[{"name":"_pool","type":"address","internalType":"address"},{"name":"_nfpm","type":"address","internalType":"address"},{"name":"_masterChefV3","type":"address","internalType":"address"},{"name":"_feeBuffer","type":"address","internalType":"address"}],"stateMutability":"nonpayable"},{"type":"function","name":"claimRewards","inputs":[{"name":"vault","type":"address","internalType":"address"}],"outputs":[],"stateMutability":"nonpayable"},{"type":"function","name":"collectToVault","inputs":[{"name":"vault","type":"address","internalType":"address"}],"outputs":[{"name":"amount0","type":"uint256","internalType":"uint256"},{"name":"amount1","type":"uint256","internalType":"uint256"}],"stateMutability":"nonpayable"},{"type":"function","name":"currentRange","inputs":[{"name":"vault","type":"address","internalType":"address"}],"outputs":[{"name":"lower","type":"int24","internalType":"int24"},{"name":"upper","type":"int24","internalType":"int24"},{"name":"liquidity","type":"uint128","internalType":"uint128"}],"stateMutability":"view"},{"type":"function","name":"currentTokenId","inputs":[{"name":"vault","type":"address","internalType":"address"}],"outputs":[{"name":"","type":"uint256","internalType":"uint256"}],"stateMutability":"view"},{"type":"function","name":"exitPositionToVault","inputs":[{"name":"vault","type":"address","internalType":"address"}],"outputs":[],"stateMutability":"nonpayable"},{"type":"function","name":"exitPositionToVaultAndHarvestFeesToBuffer","inputs":[{"name":"vault","type":"address","internalType":"address"}],"outputs":[],"stateMutability":"nonpayable"},{"type":"function","name":"feeBuffer","inputs":[],"outputs":[{"name":"","type":"address","internalType":"address"}],"stateMutability":"view"},{"type":"function","name":"gauge","inputs":[],"outputs":[{"name":"","type":"address","internalType":"address"}],"stateMutability":"view"},{"type":"function","name":"harvestGaugeRewardsToBuffer","inputs":[{"name":"vault","type":"address","internalType":"address"}],"outputs":[{"name":"rewardToken","type":"address","internalType":"address"},{"name":"grossReward","type":"uint256","internalType":"uint256"}],"stateMutability":"nonpayable"},{"type":"function","name":"harvestPoolFeesToBuffer","inputs":[{"name":"vault","type":"address","internalType":"address"}],"outputs":[{"name":"gross0","type":"uint256","internalType":"uint256"},{"name":"gross1","type":"uint256","internalType":"uint256"}],"stateMutability":"nonpayable"},{"type":"function","name":"increaseLiquidityFromVault","inputs":[{"name":"vault","type":"address","internalType":"address"},{"name":"amount0Desired","type":"uint256","internalType":"uint256"},{"name":"amount1Desired","type":"uint256","internalType":"uint256"},{"name":"amount0Min","type":"uint256","internalType":"uint256"},{"name":"amount1Min","type":"uint256","internalType":"uint256"}],"outputs":[{"name":"liquidityAdded","type":"uint128","internalType":"uint128"},{"name":"used0","type":"uint256","internalType":"uint256"},{"name":"used1","type":"uint256","internalType":"uint256"}],"stateMutability":"nonpayable"},{"type":"function","name":"increaseLiquidityWithCaps","inputs":[{"name":"vault","type":"address","internalType":"address"},{"name":"cap0","type":"uint256","internalType":"uint256"},{"name":"cap1","type":"uint256","internalType":"uint256"}],"outputs":[{"name":"addedLiquidity","type":"uint128","internalType":"uint128"},{"name":"used0","type":"uint256","internalType":"uint256"},{"name":"used1","type":"uint256","internalType":"uint256"}],"stateMutability":"nonpayable"},{"type":"function","name":"lastCompound","inputs":[{"name":"","type":"address","internalType":"address"}],"outputs":[{"name":"","type":"uint256","internalType":"uint256"}],"stateMutability":"view"},{"type":"function","name":"lastHarvest","inputs":[{"name":"","type":"address","internalType":"address"}],"outputs":[{"name":"","type":"uint256","internalType":"uint256"}],"stateMutability":"view"},{"type":"function","name":"lastRebalance","inputs":[{"name":"","type":"address","internalType":"address"}],"outputs":[{"name":"","type":"uint256","internalType":"uint256"}],"stateMutability":"view"},{"type":"function","name":"nfpm","inputs":[],"outputs":[{"name":"","type":"address","internalType":"address"}],"stateMutability":"view"},{"type":"function","name":"onERC721Received","inputs":[{"name":"","type":"address","internalType":"address"},{"name":"","type":"address","internalType":"address"},{"name":"","type":"uint256","internalType":"uint256"},{"name":"","type":"bytes","internalType":"bytes"}],"outputs":[{"name":"","type":"bytes4","internalType":"bytes4"}],"stateMutability":"pure"},{"type":"function","name":"openInitialPosition","inputs":[{"name":"vault","type":"address","internalType":"address"},{"name":"tickLower","type":"int24","internalType":"int24"},{"name":"tickUpper","type":"int24","internalType":"int24"}],"outputs":[{"name":"tokenId","type":"uint256","internalType":"uint256"},{"name":"liquidity","type":"uint128","internalType":"uint128"}],"stateMutability":"nonpayable"},{"type":"function","name":"pool","inputs":[],"outputs":[{"name":"","type":"address","internalType":"address"}],"stateMutability":"view"},{"type":"function","name":"rebalanceWithCaps","inputs":[{"name":"vault","type":"address","internalType":"address"},{"name":"tickLower","type":"int24","internalType":"int24"},{"name":"tickUpper","type":"int24","internalType":"int24"},{"name":"cap0","type":"uint256","internalType":"uint256"},{"name":"cap1","type":"uint256","internalType":"uint256"}],"outputs":[{"name":"newLiquidity","type":"uint128","internalType":"uint128"}],"stateMutability":"nonpayable"},{"type":"function","name":"slot0","inputs":[],"outputs":[{"name":"sqrtPriceX96","type":"uint160","internalType":"uint160"},{"name":"tick","type":"int24","internalType":"int24"}],"stateMutability":"view"},{"type":"function","name":"stakePosition","inputs":[{"name":"vault","type":"address","internalType":"address"}],"outputs":[],"stateMutability":"nonpayable"},{"type":"function","name":"tickSpacing","inputs":[],"outputs":[{"name":"","type":"int24","internalType":"int24"}],"stateMutability":"view"},{"type":"function","name":"tokens","inputs":[],"outputs":[{"name":"token0","type":"address","internalType":"address"},{"name":"token1","type":"address","internalType":"address"}],"stateMutability":"view"},{"type":"function","name":"unstakePosition","inputs":[{"name":"vault","type":"address","internalType":"address"}],"outputs":[],"stateMutability":"nonpayable"},{"type":"event","name":"CompoundedFromBuffer","inputs":[{"name":"vault","type":"address","indexed":true,"internalType":"address"},{"name":"tokenId","type":"uint256","indexed":true,"internalType":"uint256"},{"name":"amount0Desired","type":"uint256","indexed":false,"internalType":"uint256"},{"name":"amount1Desired","type":"uint256","indexed":false,"internalType":"uint256"},{"name":"amount0Used","type":"uint256","indexed":false,"internalType":"uint256"},{"name":"amount1Used","type":"uint256","indexed":false,"internalType":"uint256"},{"name":"liquidityAdded","type":"uint128","indexed":false,"internalType":"uint128"}],"anonymous":false},{"type":"event","name":"GaugeRewardsHarvestedToBuffer","inputs":[{"name":"vault","type":"address","indexed":true,"internalType":"address"},{"name":"tokenId","type":"uint256","indexed":true,"internalType":"uint256"},{"name":"rewardToken","type":"address","indexed":true,"internalType":"address"},{"name":"gross","type":"uint256","indexed":false,"internalType":"uint256"},{"name":"protocolFee","type":"uint256","indexed":false,"internalType":"uint256"},{"name":"net","type":"uint256","indexed":false,"internalType":"uint256"}],"anonymous":false},{"type":"event","name":"PoolFeesHarvestedToBuffer","inputs":[{"name":"vault","type":"address","indexed":true,"internalType":"address"},{"name":"tokenId","type":"uint256","indexed":true,"internalType":"uint256"},{"name":"gross0","type":"uint256","indexed":false,"internalType":"uint256"},{"name":"gross1","type":"uint256","indexed":false,"internalType":"uint256"},{"name":"protocol0","type":"uint256","indexed":false,"internalType":"uint256"},{"name":"protocol1","type":"uint256","indexed":false,"internalType":"uint256"},{"name":"net0","type":"uint256","indexed":false,"internalType":"uint256"},{"name":"net1","type":"uint256","indexed":false,"internalType":"uint256"}],"anonymous":false},{"type":"error","name":"SafeERC20FailedOperation","inputs":[{"name":"token","type":"address","internalType":"address"}]}],"bytecode":{"object":"0x6101003461024157601f61585b38819003918201601f19168301916001600160401b0383118484101761024657808492608094604052833981010312610241576100488161025c565b906100556020820161025c565b61006d60606100666040850161025c565b930161025c565b926001600160a01b03811615158061022f575b156101ea576001600160a01b038416156101a55760805260a05260c05260e0526040516155ea9081610271823960805181818161034a015281816112ec01528181611d440152818161204d015281816122f201526137cd015260a05181818161051501528181610e7c01528181610f55015281816112580152818161128301528181611efb0152818161228101528181612f82015281816136ee0152818161396101528181613df9015281816144070152818161480701526153b5015260c0518181816107b001528181610b3d01528181610c3701528181612a0d0152818161349201528181613fb0015281816140950152818161416a0152818161478501526148cb015260e0518181816108490152818161092a01528181610d0901526150d40152f35b60405162461bcd60e51b815260206004820152601d60248201527f50616e63616b655633416461707465723a206665654275666665723d300000006044820152606490fd5b60405162461bcd60e51b815260206004820152601e60248201527f50616e63616b655633416461707465723a207a65726f206164647265737300006044820152606490fd5b506001600160a01b0382161515610080565b600080fd5b634e487b7160e01b600052604160045260246000fd5b51906001600160a01b03821682036102415756fe6080604052600436101561001257600080fd5b6000803560e01c8063109162ef14612119578063150b7a021461207157806316f0115b146120025780631726884414611f9e578063270d313614611e4d5780633850c7bd14611cd257806347f1aac214611c92578063486b9f8814611c2f5780636783ac1714610ea05780637303e91314610e31578063762100e714610def57806386ff5c4b14610d8d5780639d63848a14610d2d578063a00622dc14610cbe578063a26d6dd514610c5b578063a6f19c8414610bec578063af52b2f91461045f578063b02172401461041f578063b89b1f47146103d1578063d0c93a7c146102d7578063dcfc070b14610297578063de959d1614610218578063e4010503146101d8578063ef5cfb8c146101955763fdd0fd2d1461013057600080fd5b346101925760207ffffffffffffffffffffffffffffffffffffffffffffffffffffffffffffffffc36011261019257604060209173ffffffffffffffffffffffffffffffffffffffff6101816127d7565b168152600183522054604051908152f35b80fd5b50346101925760207ffffffffffffffffffffffffffffffffffffffffffffffffffffffffffffffffc360112610192576101d56101d06127d7565b6148ab565b80f35b50346101925760207ffffffffffffffffffffffffffffffffffffffffffffffffffffffffffffffffc360112610192576101d56102136127d7565b61477a565b50346101925760607ffffffffffffffffffffffffffffffffffffffffffffffffffffffffffffffffc360112610192576102936102636102566127d7565b6044359060243590614236565b604080516fffffffffffffffffffffffffffffffff90941684526020840192909252908201529081906060820190565b0390f35b50346101925760207ffffffffffffffffffffffffffffffffffffffffffffffffffffffffffffffffc360112610192576101d56102d26127d7565b61414a565b503461019257807ffffffffffffffffffffffffffffffffffffffffffffffffffffffffffffffffc36011261019257604051907fd0c93a7c00000000000000000000000000000000000000000000000000000000825260208260048173ffffffffffffffffffffffffffffffffffffffff7f0000000000000000000000000000000000000000000000000000000000000000165afa9081156103c5578091610388575b6020826040519060020b8152f35b90506020823d6020116103bd575b816103a3602093836128dd565b8101031261019257506103b7602091612ddf565b3861037a565b3d9150610396565b604051903d90823e3d90fd5b50346101925760207ffffffffffffffffffffffffffffffffffffffffffffffffffffffffffffffffc36011261019257604061041361040e6127d7565b613d99565b82519182526020820152f35b50346101925760207ffffffffffffffffffffffffffffffffffffffffffffffffffffffffffffffffc360112610192576101d561045a6127d7565b613906565b50346101925760a07ffffffffffffffffffffffffffffffffffffffffffffffffffffffffffffffffc360112610192576104976127d7565b90602435604435926104a881614c11565b73ffffffffffffffffffffffffffffffffffffffff8116808452836020526040842054906104d7821515612d7a565b84936104e283615366565b610b24575b6104ef6137b6565b97909582610afd575b81610ad6575b73ffffffffffffffffffffffffffffffffffffffff7f000000000000000000000000000000000000000000000000000000000000000061053f85828b614d6a565b61054a84828d614d6a565b16906103844201804211610aa95798809a60606105fd9b6040519061056e826128c1565b8a825288602083015287604083015260643583830152608435608083015260a0820152604051809d81927f219f5d170000000000000000000000000000000000000000000000000000000083526004830191909160a08060c083019480518452602081015160208501526040810151604085015260608101516060850152608081015160808501520151910152565b038185885af198891561090457829a839c849b610a6e575b506040517f70a0823100000000000000000000000000000000000000000000000000000000815230600482015260208160248173ffffffffffffffffffffffffffffffffffffffff86165afa9081156109e3578591610a39575b50604051917f70a0823100000000000000000000000000000000000000000000000000000000835230600484015260208360248173ffffffffffffffffffffffffffffffffffffffff89165afa928315610a2e5786936109f2575b5081610913575b505080610832575b5050505061077b575b507ff03a5d00d8dfa5218d1f2e308480a84e1ef34e8e836f5351726b694e74dcc7309160a0918985610293999a9b52600360205260404291205560405191825260208201528860408201528560608201526fffffffffffffffffffffffffffffffff88166080820152a3604051938493846040919493926fffffffffffffffffffffffffffffffff606083019616825260208201520152565b803b1561082e576040517f42842e0e0000000000000000000000000000000000000000000000000000000081523060048201527f000000000000000000000000000000000000000000000000000000000000000073ffffffffffffffffffffffffffffffffffffffff166024820152604481018690529089908290606490829084905af1801561082357156106e2576108158980926128dd565b61081f57386106e2565b8780fd5b6040513d8b823e3d90fd5b8880fd5b73ffffffffffffffffffffffffffffffffffffffff7f0000000000000000000000000000000000000000000000000000000000000000610873838287614d6a565b16803b1561090f576040517fb3db428b00000000000000000000000000000000000000000000000000000000815273ffffffffffffffffffffffffffffffffffffffff9384166004820152939092166024840152604483015282908290606490829084905af18015610904576108eb575b80806106d9565b816108f5916128dd565b6109005789386108e4565b8980fd5b6040513d84823e3d90fd5b8480fd5b73ffffffffffffffffffffffffffffffffffffffff7f0000000000000000000000000000000000000000000000000000000000000000610954848285614d6a565b1691823b156109ee576040517fb3db428b00000000000000000000000000000000000000000000000000000000815273ffffffffffffffffffffffffffffffffffffffff868116600483015292909216602483015260448201529085908290606490829084905af19081156109e3578591156106d157816109d4916128dd565b6109df5783386106d1565b8380fd5b6040513d87823e3d90fd5b8680fd5b955091506020853d602011610a26575b81610a0f602093836128dd565b81010312610a21578e945191386106ca565b600080fd5b3d9150610a02565b6040513d88823e3d90fd5b9450506020843d602011610a66575b81610a55602093836128dd565b81010312610a21578d93513861066f565b3d9150610a48565b919b509950610a96919b5060603d606011610aa2575b610a8e81836128dd565b8101906138e4565b9b919a909b9938610615565b503d610a84565b60248a7f4e487b710000000000000000000000000000000000000000000000000000000081526011600452fd5b610af882308873ffffffffffffffffffffffffffffffffffffffff8d16614c8d565b6104fe565b610b1f83308873ffffffffffffffffffffffffffffffffffffffff8b16614c8d565b6104f8565b935073ffffffffffffffffffffffffffffffffffffffff7f000000000000000000000000000000000000000000000000000000000000000016610b68811515612ea7565b6040517ef714ce0000000000000000000000000000000000000000000000000000000081526004810184905230602482015290602090829060449082908a905af18015610a2e57610bbd575b506001936104e7565b6020813d602011610be4575b81610bd6602093836128dd565b81010312610a215751610bb4565b3d9150610bc9565b503461019257807ffffffffffffffffffffffffffffffffffffffffffffffffffffffffffffffffc36011261019257602060405173ffffffffffffffffffffffffffffffffffffffff7f0000000000000000000000000000000000000000000000000000000000000000168152f35b50346101925760207ffffffffffffffffffffffffffffffffffffffffffffffffffffffffffffffffc36011261019257604060209173ffffffffffffffffffffffffffffffffffffffff610cad6127d7565b168152600383522054604051908152f35b503461019257807ffffffffffffffffffffffffffffffffffffffffffffffffffffffffffffffffc36011261019257602060405173ffffffffffffffffffffffffffffffffffffffff7f0000000000000000000000000000000000000000000000000000000000000000168152f35b503461019257807ffffffffffffffffffffffffffffffffffffffffffffffffffffffffffffffffc36011261019257610d646137b6565b6040805173ffffffffffffffffffffffffffffffffffffffff9384168152919092166020820152f35b50346101925760207ffffffffffffffffffffffffffffffffffffffffffffffffffffffffffffffffc36011261019257604060209173ffffffffffffffffffffffffffffffffffffffff610ddf6127d7565b1681528083522054604051908152f35b50346101925760207ffffffffffffffffffffffffffffffffffffffffffffffffffffffffffffffffc360112610192576040610413610e2c6127d7565b6135d8565b503461019257807ffffffffffffffffffffffffffffffffffffffffffffffffffffffffffffffffc36011261019257602060405173ffffffffffffffffffffffffffffffffffffffff7f0000000000000000000000000000000000000000000000000000000000000000168152f35b50346101925760a07ffffffffffffffffffffffffffffffffffffffffffffffffffffffffffffffffc36011261019257611038610edb6127d7565b91610ee461281d565b92610eed61282d565b9360643590608435610efe84614c11565b73ffffffffffffffffffffffffffffffffffffffff8416855284602052604085205496610f2c881515612d7a565b610f3e610f3889615366565b1561354d565b73ffffffffffffffffffffffffffffffffffffffff7f0000000000000000000000000000000000000000000000000000000000000000169360408051610f8381612889565b8a81523060208201526fffffffffffffffffffffffffffffffff828201526fffffffffffffffffffffffffffffffff60608201528151809a81927ffc6f78650000000000000000000000000000000000000000000000000000000083526004830191909160606fffffffffffffffffffffffffffffffff8160808401958051855273ffffffffffffffffffffffffffffffffffffffff6020820151166020860152826040820151166040860152015116910152565b03818a895af1988915611c24578798889a611bf5575b5061107461106b9798999a6110616137b6565b99909c8d8c614fc6565b5050888a614fc6565b50506040517f99fbab88000000000000000000000000000000000000000000000000000000008152816004820152610180816024818a5afa90811561194a57906fffffffffffffffffffffffffffffffff918b91611bba575b5016806119b3575b50853b1561082e57604051907f42966c6800000000000000000000000000000000000000000000000000000000825260048201528881602481838a5af1801561082357611989575b509073ffffffffffffffffffffffffffffffffffffffff9182881689528860205288604081205560208a6024604051809681937f70a08231000000000000000000000000000000000000000000000000000000008352306004840152165afa928315610823578993611955575b50604051907f70a0823100000000000000000000000000000000000000000000000000000000825230600483015260208260248173ffffffffffffffffffffffffffffffffffffffff8c165afa91821561194a578a92611916575b508061191057507fffffffffffffffffffffffffffffffffffffffffffffffffffffffffffffffff935b8061190b57507fffffffffffffffffffffffffffffffffffffffffffffffffffffffffffffffff5b838b8a8497838111611810575b50505050818111611708575b505061127d827f00000000000000000000000000000000000000000000000000000000000000008b614d6a565b6112a8837f000000000000000000000000000000000000000000000000000000000000000088614d6a565b604051937fddca3f4300000000000000000000000000000000000000000000000000000000855260208560048173ffffffffffffffffffffffffffffffffffffffff7f0000000000000000000000000000000000000000000000000000000000000000165afa9485156108235789956116cc575b50610384420194854211610aa9579389989796938b936080979362ffffff6114ab9873ffffffffffffffffffffffffffffffffffffffff604051986113608a61283d565b16885273ffffffffffffffffffffffffffffffffffffffff8c16602089015216604087015260020b606086015260020b8785015260a084015260c08301528760e083015287610100830152306101208301526101408201526040519788809481937f88316456000000000000000000000000000000000000000000000000000000008352600483019190916101408061016083019473ffffffffffffffffffffffffffffffffffffffff815116845273ffffffffffffffffffffffffffffffffffffffff602082015116602085015262ffffff6040820151166040850152606081015160020b6060850152608081015160020b608085015260a081015160a085015260c081015160c085015260e081015160e085015261010081015161010085015273ffffffffffffffffffffffffffffffffffffffff610120820151166101208501520151910152565b03925af19384156116c1578390849561168b575b5073ffffffffffffffffffffffffffffffffffffffff831684528360205260408420556040517f70a0823100000000000000000000000000000000000000000000000000000000815230600482015260208160248173ffffffffffffffffffffffffffffffffffffffff8a165afa90811561168057849161164e575b50604051907f70a0823100000000000000000000000000000000000000000000000000000000825230600483015260208260248173ffffffffffffffffffffffffffffffffffffffff87165afa9182156109e3578592611613575b5090602096828573ffffffffffffffffffffffffffffffffffffffff969594611600575b915050816115ed575b505050168152600183526040429120556fffffffffffffffffffffffffffffffff60405191168152f35b846115f89316614f43565b3880826115c3565b8661160b9316614f43565b3880846115ba565b939291506020843d602011611646575b81611630602093836128dd565b81010312610a2157925191929091906020611596565b3d9150611623565b90506020813d602011611678575b81611669602093836128dd565b81010312610a2157513861153b565b3d915061165c565b6040513d86823e3d90fd5b90506116b091945060803d6080116116ba575b6116a881836128dd565b810190612996565b50509390386114bf565b503d61169e565b6040513d85823e3d90fd5b9094506020813d602011611700575b816116e8602093836128dd565b8101031261082e576116f99061292d565b933861131c565b3d91506116db565b81611712916129e0565b604051907f70a0823100000000000000000000000000000000000000000000000000000000825273ffffffffffffffffffffffffffffffffffffffff8a16600483015260208260248173ffffffffffffffffffffffffffffffffffffffff8d165afa918215611805578b926117d1575b50818111156117c95750905b8115611250576117c19294506117bc82308b73ffffffffffffffffffffffffffffffffffffffff8c16614c8d565b61293d565b913880611250565b90509061178e565b9091506020813d6020116117fd575b816117ed602093836128dd565b81010312610a2157519038611782565b3d91506117e0565b6040513d8d823e3d90fd5b73ffffffffffffffffffffffffffffffffffffffff6024611833866020946129e0565b938260405196879485937f70a08231000000000000000000000000000000000000000000000000000000008552166004840152165afa918215611900578d926118cc575b50818111156118c45750905b8c82611892575b908b90611244565b6118bb939650826117bc918d73ffffffffffffffffffffffffffffffffffffffff309216614c8d565b9238808c61188a565b905090611883565b9091506020813d6020116118f8575b816118e8602093836128dd565b81010312610a2157519038611877565b3d91506118db565b6040513d8f823e3d90fd5b611237565b9361120f565b9091506020813d602011611942575b81611932602093836128dd565b81010312610a21575190386111e5565b3d9150611925565b6040513d8c823e3d90fd5b9092506020813d602011611981575b81611971602093836128dd565b81010312610a215751913861118a565b3d9150611964565b976119ab8173ffffffffffffffffffffffffffffffffffffffff94939a6128dd565b97909161111d565b6103844201804211611b8d57611a59916040918251916119d2836128a5565b858352602083019081528383018e9052606083018e81526080840192835284517f0c49ccbe0000000000000000000000000000000000000000000000000000000081528451600482015291516fffffffffffffffffffffffffffffffff166024830152604090930151604482015291516064830152516084820152918290819060a4820190565b03818d8b5af1801561194a57611b6f575b50611b3060408051611a7b81612889565b8381523060208201526fffffffffffffffffffffffffffffffff828201526fffffffffffffffffffffffffffffffff60608201528151809381927ffc6f78650000000000000000000000000000000000000000000000000000000083526004830191909160606fffffffffffffffffffffffffffffffff8160808401958051855273ffffffffffffffffffffffffffffffffffffffff6020820151166020860152826040820151166040860152015116910152565b03818d8b5af1801561194a57156110d557611b629060403d604011611b68575b611b5a81836128dd565b810190612f0c565b506110d5565b503d611b50565b611b879060403d604011611b6857611b5a81836128dd565b50611a6a565b60248b7f4e487b710000000000000000000000000000000000000000000000000000000081526011600452fd5b611bdc91506101803d8111611bee575b611bd481836128dd565b810190612ded565b505050509650505050505050386110cd565b503d611bca565b6110749a5061106b97989950611c199060403d604011611b6857611b5a81836128dd565b9a909998975061104e565b6040513d89823e3d90fd5b50346101925760207ffffffffffffffffffffffffffffffffffffffffffffffffffffffffffffffffc36011261019257604060209173ffffffffffffffffffffffffffffffffffffffff611c816127d7565b168152600283522054604051908152f35b50346101925760207ffffffffffffffffffffffffffffffffffffffffffffffffffffffffffffffffc360112610192576101d5611ccd6127d7565b612f22565b503461019257807ffffffffffffffffffffffffffffffffffffffffffffffffffffffffffffffffc360112610192576040517f3850c7bd00000000000000000000000000000000000000000000000000000000815260e08160048173ffffffffffffffffffffffffffffffffffffffff7f0000000000000000000000000000000000000000000000000000000000000000165afa80156109045782918391611d9e575b6040838373ffffffffffffffffffffffffffffffffffffffff83519216825260020b6020820152f35b91505060e0813d60e011611e45575b81611dba60e093836128dd565b81010312611e4157805173ffffffffffffffffffffffffffffffffffffffff81168103611e3d57611ded60208301612ddf565b91611dfa60408201612e98565b50611e0760608201612e98565b50611e1460808201612e98565b5060a081015163ffffffff8116036109df5760c0015180151503611e3d57604092509038611d75565b8280fd5b5080fd5b3d9150611dad565b50346101925760207ffffffffffffffffffffffffffffffffffffffffffffffffffffffffffffffffc3601126101925773ffffffffffffffffffffffffffffffffffffffff611e9a6127d7565b168152806020526040812054611eb1811515612d7a565b604051907f99fbab8800000000000000000000000000000000000000000000000000000000825260048201526101808160248173ffffffffffffffffffffffffffffffffffffffff7f0000000000000000000000000000000000000000000000000000000000000000165afa80156109045791606092818091611f5c575b6fffffffffffffffffffffffffffffffff9293506040519360020b845260020b6020840152166040820152f35b505050611f886fffffffffffffffffffffffffffffffff916101803d8111611bee57611bd481836128dd565b5050505095509695509250505092839250611f2f565b50346101925760207ffffffffffffffffffffffffffffffffffffffffffffffffffffffffffffffffc360112610192576040611fe0611fdb6127d7565b6129ed565b73ffffffffffffffffffffffffffffffffffffffff8351921682526020820152f35b503461019257807ffffffffffffffffffffffffffffffffffffffffffffffffffffffffffffffffc36011261019257602060405173ffffffffffffffffffffffffffffffffffffffff7f0000000000000000000000000000000000000000000000000000000000000000168152f35b50346101925760807ffffffffffffffffffffffffffffffffffffffffffffffffffffffffffffffffc360112610192576120a96127d7565b506120b26127fa565b5060643567ffffffffffffffff8111611e415736602382011215611e4157806004013567ffffffffffffffff8111611e3d57369101602401116101925760206040517f150b7a02000000000000000000000000000000000000000000000000000000008152f35b50346101925760607ffffffffffffffffffffffffffffffffffffffffffffffffffffffffffffffffc360112610192576121516127d7565b9061215a61281d565b9161216361282d565b61216c82614c11565b73ffffffffffffffffffffffffffffffffffffffff8216908184528360205260408420546127795761219c6137b6565b95909173ffffffffffffffffffffffffffffffffffffffff831691604051977f70a082310000000000000000000000000000000000000000000000000000000089528560048a0152602089602481875afa988915612618578899612745575b5073ffffffffffffffffffffffffffffffffffffffff811694604051917f70a082310000000000000000000000000000000000000000000000000000000083528760048401526020836024818a5afa92831561194a578a93612711575b508a1580158091612708575b156126aa578b926122ae928592612699575b82612688575b6122a97f00000000000000000000000000000000000000000000000000000000000000009e8f8094614d6a565b614d6a565b604051937fddca3f4300000000000000000000000000000000000000000000000000000000855260208560048173ffffffffffffffffffffffffffffffffffffffff7f0000000000000000000000000000000000000000000000000000000000000000165afa94851561194a578a9561264c575b50610384420193844211611b8d579260809592612499959273ffffffffffffffffffffffffffffffffffffffff9c9d9562ffffff604051966123638861283d565b8b88528c602089015216604087015260020b606086015260020b8785015260a084015260c08301528a60e08301528a6101008301523061012083015261014082015289604051998a809581947f88316456000000000000000000000000000000000000000000000000000000008352600483019190916101408061016083019473ffffffffffffffffffffffffffffffffffffffff815116845273ffffffffffffffffffffffffffffffffffffffff602082015116602085015262ffffff6040820151166040850152606081015160020b6060850152608081015160020b608085015260a081015160a085015260c081015160c085015260e081015160e085015261010081015161010085015273ffffffffffffffffffffffffffffffffffffffff610120820151166101208501520151910152565b0393165af1938415610a2e5786958795612623575b5083875286602052856040882055604051917f70a08231000000000000000000000000000000000000000000000000000000008352306004840152602083602481845afa9283156126185788936125e4575b50604051927f70a08231000000000000000000000000000000000000000000000000000000008452306004850152602084602481885afa9384156108235789946125af575b50916fffffffffffffffffffffffffffffffff96959391838260409b979561259e575b5050508161258d575b5050508152600160205284429120558351928352166020820152f35b61259692614f43565b388080612571565b6125a792614f43565b388082612568565b9093506020813d6020116125dc575b816125cb602093836128dd565b8101031261082e5751926040612545565b3d91506125be565b9092506020813d602011612610575b81612600602093836128dd565b8101031261081f57519138612500565b3d91506125f3565b6040513d8a823e3d90fd5b90945061264091955060803d6080116116ba576116a881836128dd565b505094909493386124ae565b9094506020813d602011612680575b81612668602093836128dd565b81010312610900576126799061292d565b9338612322565b3d915061265b565b61269483308e8d614c8d565b61227c565b6126a585308e8c614c8d565b612276565b60646040517f08c379a000000000000000000000000000000000000000000000000000000000815260206004820152601a60248201527f50616e63616b655633416461707465723a206e6f2066756e64730000000000006044820152fd5b50831515612264565b9092506020813d60201161273d575b8161272d602093836128dd565b8101031261090057519138612258565b3d9150612720565b9098506020813d602011612771575b81612761602093836128dd565b8101031261081f575197386121fb565b3d9150612754565b60646040517f08c379a000000000000000000000000000000000000000000000000000000000815260206004820152602060248201527f50616e63616b655633416461707465723a20616c7265616479206f70656e65646044820152fd5b6004359073ffffffffffffffffffffffffffffffffffffffff82168203610a2157565b6024359073ffffffffffffffffffffffffffffffffffffffff82168203610a2157565b602435908160020b8203610a2157565b604435908160020b8203610a2157565b610160810190811067ffffffffffffffff82111761285a57604052565b7f4e487b7100000000000000000000000000000000000000000000000000000000600052604160045260246000fd5b6080810190811067ffffffffffffffff82111761285a57604052565b60a0810190811067ffffffffffffffff82111761285a57604052565b60c0810190811067ffffffffffffffff82111761285a57604052565b90601f7fffffffffffffffffffffffffffffffffffffffffffffffffffffffffffffffe0910116810190811067ffffffffffffffff82111761285a57604052565b90816020910312610a21575190565b519062ffffff82168203610a2157565b9190820180921161294a57565b7f4e487b7100000000000000000000000000000000000000000000000000000000600052601160045260246000fd5b51906fffffffffffffffffffffffffffffffff82168203610a2157565b9190826080910312610a21578151916129b160208201612979565b916060604083015192015190565b519073ffffffffffffffffffffffffffffffffffffffff82168203610a2157565b9190820391821161294a57565b6129f681614c11565b73ffffffffffffffffffffffffffffffffffffffff7f000000000000000000000000000000000000000000000000000000000000000016908115612d705773ffffffffffffffffffffffffffffffffffffffff81168060005260006020526040600020548015612d64576040517f4ca6ef28000000000000000000000000000000000000000000000000000000008152602081600481885afa60009181612d28575b50612aaa575050505050600090600090565b9373ffffffffffffffffffffffffffffffffffffffff851615612d1b57604051907f70a0823100000000000000000000000000000000000000000000000000000000825230600483015260208260248173ffffffffffffffffffffffffffffffffffffffff8a165afa918215612cac57600092612ce7575b506040517f18fccc760000000000000000000000000000000000000000000000000000000081526004810184905230602482015290602090829060449082906000905af19081612cb8575b50612b7f575050505050600090600090565b94929394604051907f70a0823100000000000000000000000000000000000000000000000000000000825230600483015260208260248173ffffffffffffffffffffffffffffffffffffffff8b165afa918215612cac57600092612c78575b5080821115612c6e57612bf0916129e0565b935b8415612c65578486612c0392614fc6565b8360009492945260026020524260406000205560405193868552602085015260408401527f21bfd968014a2c5c47d330b3842b3c4c3642cd171e7da51a1cca7c101c635eda606073ffffffffffffffffffffffffffffffffffffffff881694a4565b50600093505050565b5050600093612bf2565b90916020823d602011612ca4575b81612c93602093836128dd565b810103126101925750519038612bde565b3d9150612c86565b6040513d6000823e3d90fd5b6020813d602011612cdf575b81612cd1602093836128dd565b81010312610a215751612b6d565b3d9150612cc4565b90916020823d602011612d13575b81612d02602093836128dd565b810103126101925750519038612b22565b3d9150612cf5565b5050505050600090600090565b9091506020813d602011612d5c575b81612d44602093836128dd565b81010312610a2157612d55906129bf565b9038612a98565b3d9150612d37565b50505050600090600090565b5050600090600090565b15612d8157565b60646040517f08c379a000000000000000000000000000000000000000000000000000000000815260206004820152601d60248201527f50616e63616b655633416461707465723a206e6f20706f736974696f6e0000006044820152fd5b51908160020b8203610a2157565b919082610180910312610a215781516bffffffffffffffffffffffff81168103610a215791612e1e602082016129bf565b91612e2b604083016129bf565b91612e38606082016129bf565b91612e456080830161292d565b91612e5260a08201612ddf565b91612e5f60c08301612ddf565b91612e6c60e08201612979565b916101008201519161012081015191612e95610160612e8e6101408501612979565b9301612979565b90565b519061ffff82168203610a2157565b15612eae57565b60646040517f08c379a000000000000000000000000000000000000000000000000000000000815260206004820152601a60248201527f50616e63616b655633416461707465723a206e6f2067617567650000000000006044820152fd5b9190826040910312610a21576020825192015190565b90612f2c82614c11565b600073ffffffffffffffffffffffffffffffffffffffff83169283825281602052604082205493841561354657612f6285615366565b61347b575b6130649073ffffffffffffffffffffffffffffffffffffffff7f00000000000000000000000000000000000000000000000000000000000000001660408051612faf81612889565b8881523060208201526fffffffffffffffffffffffffffffffff828201526fffffffffffffffffffffffffffffffff60608201528151809581927ffc6f78650000000000000000000000000000000000000000000000000000000083526004830191909160606fffffffffffffffffffffffffffffffff8160808401958051855273ffffffffffffffffffffffffffffffffffffffff6020820151166020860152826040820151166040860152015116910152565b038188855af19687156109e357613096969786948791613456575b5061309f9061308c6137b6565b9990968789614fc6565b50508887614fc6565b50506040517f99fbab8800000000000000000000000000000000000000000000000000000000815281600482015261018081602481865afa908115611c2457906fffffffffffffffffffffffffffffffff91889161342b575b5016806132e9575b50813b156132e55785916024839260405194859384927f42966c6800000000000000000000000000000000000000000000000000000000845260048401525af180156109e3576132bb575b509073ffffffffffffffffffffffffffffffffffffffff9184528360205283604081205516604051937f70a08231000000000000000000000000000000000000000000000000000000008552306004860152602085602481855afa948515611680578495613273575b5073ffffffffffffffffffffffffffffffffffffffff16936040517f70a08231000000000000000000000000000000000000000000000000000000008152306004820152602081602481895afa9485156103c5579461323f575b50828161322e575b5050508161322357505050565b61322c92614f43565b565b61323792614f43565b388082613216565b9093506020813d60201161326b575b8161325b602093836128dd565b81010312610a215751923861320e565b3d915061324e565b9094506020813d6020116132b3575b8161328f602093836128dd565b81010312610a2157519373ffffffffffffffffffffffffffffffffffffffff6131b4565b3d9150613282565b936132dd8173ffffffffffffffffffffffffffffffffffffffff9493966128dd565b93909161314b565b8580fd5b61038442018042116133fe5761338f91604091825191613308836128a5565b858352602083019081528383018b9052606083018b81526080840192835284517f0c49ccbe0000000000000000000000000000000000000000000000000000000081528451600482015291516fffffffffffffffffffffffffffffffff166024830152604090930151604482015291516064830152516084820152918290819060a4820190565b03818a875af18015611c24576133e0575b506133b160408051611a7b81612889565b03818a875af18015611c245715613100576133da9060403d604011611b6857611b5a81836128dd565b50613100565b6133f89060403d604011611b6857611b5a81836128dd565b506133a0565b6024887f4e487b710000000000000000000000000000000000000000000000000000000081526011600452fd5b61344491506101803d8111611bee57611bd481836128dd565b505050509650505050505050386130f8565b61309f9550613474915060403d604011611b6857611b5a81836128dd565b909461307f565b73ffffffffffffffffffffffffffffffffffffffff7f0000000000000000000000000000000000000000000000000000000000000000166134bd811515612ea7565b6040517ef714ce00000000000000000000000000000000000000000000000000000000815260048101879052306024820152906020908290604490829088905af1801561168057906130649291613517575b509050612f67565b6135389060203d60201161353f575b61353081836128dd565b81019061291e565b503861350f565b503d613526565b5050509050565b1561355457565b60846040517f08c379a000000000000000000000000000000000000000000000000000000000815260206004820152602160248201527f50616e63616b655633416461707465723a20706f736974696f6e207374616b6560448201527f64000000000000000000000000000000000000000000000000000000000000006064820152fd5b906135e282614c11565b73ffffffffffffffffffffffffffffffffffffffff8216600052600060205260406000205480156137ad57604080516136d3939261361f82612889565b81523060208201526fffffffffffffffffffffffffffffffff828201526fffffffffffffffffffffffffffffffff60608201528151809481927ffc6f78650000000000000000000000000000000000000000000000000000000083526004830191909160606fffffffffffffffffffffffffffffffff8160808401958051855273ffffffffffffffffffffffffffffffffffffffff6020820151166020860152826040820151166040860152015116910152565b0381600073ffffffffffffffffffffffffffffffffffffffff7f0000000000000000000000000000000000000000000000000000000000000000165af1918215612cac57600090600093613789575b5082819461372e6137b6565b938281613762575b5050508161374357505050565b73ffffffffffffffffffffffffffffffffffffffff61322c9316614f43565b73ffffffffffffffffffffffffffffffffffffffff6137819316614f43565b388082613736565b90506137a591925060403d604011611b6857611b5a81836128dd565b919038613722565b50600091508190565b73ffffffffffffffffffffffffffffffffffffffff7f000000000000000000000000000000000000000000000000000000000000000016906040517f0dfe1681000000000000000000000000000000000000000000000000000000008152602081600481865afa908115612cac576000916138a5575b50602060049193604051928380927fd21220a70000000000000000000000000000000000000000000000000000000082525afa908115612cac57600091613871575090565b90506020813d60201161389d575b8161388c602093836128dd565b81010312610a2157612e95906129bf565b3d915061387f565b90506020813d6020116138dc575b816138c0602093836128dd565b81010312610a215760206138d56004926129bf565b915061382c565b3d91506138b3565b90816060910312610a21576138f881612979565b916040602083015192015190565b9061391082614c11565b60009073ffffffffffffffffffffffffffffffffffffffff831692838352826020526040832054938415613d925761394a610f3886615366565b73ffffffffffffffffffffffffffffffffffffffff7f0000000000000000000000000000000000000000000000000000000000000000169461399260408051611a7b81612889565b0381898b5af18015610a2e57613d74575b506040517f99fbab88000000000000000000000000000000000000000000000000000000008152816004820152610180816024818a5afa908115610a2e57906fffffffffffffffffffffffffffffffff918791613d49575b50169586613b45575b859650809594953b1561090f576024859260405198899384927f42966c6800000000000000000000000000000000000000000000000000000000845260048401525af19485156116c15773ffffffffffffffffffffffffffffffffffffffff9495613b31575b50825281602052816040812055613a7f6137b6565b9316604051937f70a08231000000000000000000000000000000000000000000000000000000008552306004860152602085602481855afa948515611680578495613273575073ffffffffffffffffffffffffffffffffffffffff16936040517f70a08231000000000000000000000000000000000000000000000000000000008152306004820152602081602481895afa9485156103c5579461323f5750828161322e575050508161322357505050565b83613b3e919492946128dd565b9138613a6a565b6103844201804211613d1c5760408798613bef92829998995191613b68836128a5565b868352602083019081528383018a9052606083018a81526080840192835284517f0c49ccbe0000000000000000000000000000000000000000000000000000000081528451600482015291516fffffffffffffffffffffffffffffffff166024830152604090930151604482015291516064830152516084820152918290819060a4820190565b038189865af18015610a2e57613cfe575b50613cc660408051613c1181612889565b8481523060208201526fffffffffffffffffffffffffffffffff828201526fffffffffffffffffffffffffffffffff60608201528151809381927ffc6f78650000000000000000000000000000000000000000000000000000000083526004830191909160606fffffffffffffffffffffffffffffffff8160808401958051855273ffffffffffffffffffffffffffffffffffffffff6020820151166020860152826040820151166040860152015116910152565b038189865af18015610a2e57613ce0575b50949394613a04565b613cf89060403d604011611b6857611b5a81836128dd565b50613cd7565b613d169060403d604011611b6857611b5a81836128dd565b50613c00565b6024877f4e487b710000000000000000000000000000000000000000000000000000000081526011600452fd5b613d6291506101803d8111611bee57611bd481836128dd565b505050509650505050505050386139fb565b613d8c9060403d604011611b6857611b5a81836128dd565b506139a3565b5050915050565b613da281614c11565b60009173ffffffffffffffffffffffffffffffffffffffff82168084528360205260408420549081156141435784613dd983615366565b61407d575b613edc9073ffffffffffffffffffffffffffffffffffffffff7f0000000000000000000000000000000000000000000000000000000000000000169060408051613e2781612889565b8681523060208201526fffffffffffffffffffffffffffffffff828201526fffffffffffffffffffffffffffffffff60608201528151809581927ffc6f78650000000000000000000000000000000000000000000000000000000083526004830191909160606fffffffffffffffffffffffffffffffff8160808401958051855273ffffffffffffffffffffffffffffffffffffffff6020820151166020860152826040820151166040860152015116910152565b03818b865af19687156126185788938998614056575b5090839188839a613f1882613f10613f086137b6565b989087614fc6565b979095614fc6565b969094613f7b575b509160c095939183897f1755c989066b7ed4b9f645c6b694b777e6c92fcea8ec1046243d8673f0403391999795526002602052604042912055604051958652602086015260408501526060840152608083015260a0820152a3565b803b15611e41576040517f42842e0e0000000000000000000000000000000000000000000000000000000081523060048201527f000000000000000000000000000000000000000000000000000000000000000073ffffffffffffffffffffffffffffffffffffffff166024820152604481018b90529082908290606490829084905af18015610904579160c097959391817f1755c989066b7ed4b9f645c6b694b777e6c92fcea8ec1046243d8673f04033919a989694614046575b50509193959750919395613f20565b61404f916128dd565b3881614037565b90975061407391935060403d604011611b6857611b5a81836128dd565b9690929083613ef2565b5073ffffffffffffffffffffffffffffffffffffffff7f0000000000000000000000000000000000000000000000000000000000000000166140c0811515612ea7565b6040517ef714ce0000000000000000000000000000000000000000000000000000000081526004810184905230602482015290602090829060449082908a905af18015610a2e57614114575b506001613dde565b6020813d60201161413b575b8161412d602093836128dd565b810103126132e5575161410c565b3d9150614120565b5083925050565b61415381614c11565b73ffffffffffffffffffffffffffffffffffffffff7f00000000000000000000000000000000000000000000000000000000000000001680156142325761420660209173ffffffffffffffffffffffffffffffffffffffff60009416845283835260408420546141c4811515612d7a565b6040517ef714ce000000000000000000000000000000000000000000000000000000008152600481019190915230602482015293849283919082906044820190565b03925af18015612cac576142175750565b61422f9060203d60201161353f5761353081836128dd565b50565b5050565b9291909161424384614c11565b73ffffffffffffffffffffffffffffffffffffffff84169283600052600060205260406000205492614276841515612d7a565b614282610f3885615366565b61428a6137b6565b9173ffffffffffffffffffffffffffffffffffffffff8216966040517f70a082310000000000000000000000000000000000000000000000000000000081528160048201526020816024818c5afa908115612cac57600091614748575b5073ffffffffffffffffffffffffffffffffffffffff851695604051927f70a0823100000000000000000000000000000000000000000000000000000000845260048401526020836024818a5afa928315612cac57600093614714575b50806146fd5750915b806146e65750905b806146d4575b50806146c2575b50604051907f70a082310000000000000000000000000000000000000000000000000000000082523060048301526020826024818a5afa918215612cac5760009261468e575b50604051927f70a08231000000000000000000000000000000000000000000000000000000008452306004850152602084602481885afa938415612cac5760009461465a575b50821580614652575b6146415783839261442f926122a97f000000000000000000000000000000000000000000000000000000000000000095868094614d6a565b61038442019586421161294a5773ffffffffffffffffffffffffffffffffffffffff966060946144f49460405193614466856128c1565b8452602084015260408301526000858301526000608083015260a082015260006040519788809581947f219f5d170000000000000000000000000000000000000000000000000000000083526004830191909160a08060c083019480518452602081015160208501526040810151604085015260608101516060850152608081015160808501520151910152565b0393165af1938415612cac57600094600094600091614618575b50939495604051917f70a08231000000000000000000000000000000000000000000000000000000008352306004840152602083602481845afa928315612cac576000936145e4575b50604051927f70a08231000000000000000000000000000000000000000000000000000000008452306004850152602084602481885afa938415612cac576000946145b05750828161322e575050508161322357505050565b90936020823d6020116145dc575b816145cb602093836128dd565b81010312610192575051923861320e565b3d91506145be565b90926020823d602011614610575b816145ff602093836128dd565b810103126101925750519138614557565b3d91506145f2565b9195505061463691935060603d606011610aa257610a8e81836128dd565b93919490933861450e565b506000975087965086955050505050565b5083156143f7565b90936020823d602011614686575b81614675602093836128dd565b8101031261019257505192386143ee565b3d9150614668565b90916020823d6020116146ba575b816146a9602093836128dd565b8101031261019257505190386143a8565b3d915061469c565b6146ce90308986614c8d565b38614362565b6146e090308a8a614c8d565b3861435b565b808210156146f657505b90614355565b90506146f0565b8082101561470d57505b9161434d565b9050614707565b90926020823d602011614740575b8161472f602093836128dd565b810103126101925750519138614344565b3d9150614722565b906020823d602011614772575b81614762602093836128dd565b81010312610192575051386142e7565b3d9150614755565b61478381614c11565b7f000000000000000000000000000000000000000000000000000000000000000060009173ffffffffffffffffffffffffffffffffffffffff8216156148a65773ffffffffffffffffffffffffffffffffffffffff168252816020526040822054906147f0821515612d7a565b73ffffffffffffffffffffffffffffffffffffffff7f00000000000000000000000000000000000000000000000000000000000000001690813b156109df576040517f42842e0e00000000000000000000000000000000000000000000000000000000815230600482015273ffffffffffffffffffffffffffffffffffffffff919091166024820152604481019290925282908290606490829084905af180156109045761489c575050565b8161422f916128dd565b505050565b6148b481614c11565b73ffffffffffffffffffffffffffffffffffffffff7f0000000000000000000000000000000000000000000000000000000000000000169081156142325773ffffffffffffffffffffffffffffffffffffffff8116600052600060205260406000205480156148a6576040517f18fccc760000000000000000000000000000000000000000000000000000000081526004810182905273ffffffffffffffffffffffffffffffffffffffff831660248201526020816044816000885af19081614be2575b506148a6576000926000916040517f4ca6ef28000000000000000000000000000000000000000000000000000000008152602081600481865afa60009181614ba6575b50614afc575b506040517f18fccc76000000000000000000000000000000000000000000000000000000008152600481019190915230602482015290602090829081600081604481015b03925af19081614acd575b50614a1a57505050565b73ffffffffffffffffffffffffffffffffffffffff169182614a3b57505050565b604051907f70a08231000000000000000000000000000000000000000000000000000000008252306004830152602082602481875afa8015612cac57600090614a99575b614a8992506129e0565b9081156148a65761322c92614f43565b506020823d602011614ac5575b81614ab3602093836128dd565b81010312610a2157614a899151614a7f565b3d9150614aa6565b6020813d602011614af4575b81614ae6602093836128dd565b81010312610a215751614a10565b3d9150614ad9565b925073ffffffffffffffffffffffffffffffffffffffff831680156149c157602492919550602090604051938480927f70a082310000000000000000000000000000000000000000000000000000000082523060048301525afa918215612cac57600092614b70575b509093614a056149c1565b91506020823d602011614b9e575b81614b8b602093836128dd565b81010312610a2157905190614a05614b65565b3d9150614b7e565b9091506020813d602011614bda575b81614bc2602093836128dd565b81010312610a2157614bd3906129bf565b90386149bb565b3d9150614bb5565b6020813d602011614c09575b81614bfb602093836128dd565b81010312610a215751614978565b3d9150614bee565b73ffffffffffffffffffffffffffffffffffffffff163303614c2f57565b60646040517f08c379a000000000000000000000000000000000000000000000000000000000815260206004820152601c60248201527f50616e63616b655633416461707465723a206f6e6c79207661756c74000000006044820152fd5b92916020919273ffffffffffffffffffffffffffffffffffffffff60009281604051967f23b872dd000000000000000000000000000000000000000000000000000000008652166004521660245260445260648180865af190600160005114821615614d48575b604052600060605215614d045750565b73ffffffffffffffffffffffffffffffffffffffff907f5274afe7000000000000000000000000000000000000000000000000000000006000521660045260246000fd5b906001811516614d6057823b15153d15161690614cf4565b503d6000823e3d90fd5b82156148a6576040517fdd62ed3e00000000000000000000000000000000000000000000000000000000815230600482015273ffffffffffffffffffffffffffffffffffffffff8381166024830152919091169290602081604481875afa908115612cac57600091614f11575b5010614de1575050565b614ded60008284615449565b15614ec4575b614e1e7fffffffffffffffffffffffffffffffffffffffffffffffffffffffffffffffff8284615449565b15614e27575050565b614e3181836154c4565b15614e96577fffffffffffffffffffffffffffffffffffffffffffffffffffffffffffffffff614e61918361554f565b15614e695750565b7f5274afe70000000000000000000000000000000000000000000000000000000060005260045260246000fd5b507f5274afe70000000000000000000000000000000000000000000000000000000060005260045260246000fd5b614ece81836154c4565b15614e9657614edf6000828461554f565b614df357507f5274afe70000000000000000000000000000000000000000000000000000000060005260045260246000fd5b90506020813d602011614f3b575b81614f2c602093836128dd565b81010312610a21575138614dd7565b3d9150614f1f565b9160209060009073ffffffffffffffffffffffffffffffffffffffff604051947fa9059cbb0000000000000000000000000000000000000000000000000000000084521660045260245260448180865af190600160005114821615614fae575b60405215614d045750565b906001811516614d6057823b15153d15161690614fa3565b929092600090831561535e5773ffffffffffffffffffffffffffffffffffffffff811694604051947fc415b95c0000000000000000000000000000000000000000000000000000000086526020866004818a5afa95861561168057849661531d575b50602060049697604051978880927f492f4e180000000000000000000000000000000000000000000000000000000082525afa9586156116805784966152e9575b50839573ffffffffffffffffffffffffffffffffffffffff8816801515978861525a575b61ffff1680615243575085915b86998499841515908161523b575b50615186575b5050505050846150bd57505050565b73ffffffffffffffffffffffffffffffffffffffff7f00000000000000000000000000000000000000000000000000000000000000006150fe878285614d6a565b1691823b156109df576040517fb3db428b00000000000000000000000000000000000000000000000000000000815273ffffffffffffffffffffffffffffffffffffffff918216600482015291166024820152604481018590529082908290606490829084905af1801561090457615174575050565b61517f8280926128dd565b6101925750565b61519a92949a508584969a50939193614d6a565b813b1561090f5784916064839260405194859384927ffc8e3896000000000000000000000000000000000000000000000000000000008452600484015273ffffffffffffffffffffffffffffffffffffffff8c1660248401528760448401525af19081615227575b5061521657508194935b38808080806150ae565b8061522191966129e0565b9361520c565b84615234919592956128dd565b9238615202565b9050386150a8565b8084029084820403613d1c5761271090049161509a565b506040517f35659fb8000000000000000000000000000000000000000000000000000000008152602081600481855afa8791816152ad575b506152a4575061ffff865b905061508d565b61ffff9061529d565b9091506020813d6020116152e1575b816152c9602093836128dd565b8101031261081f576152da90612e98565b9038615292565b3d91506152bc565b9095506020813d602011615315575b81615305602093836128dd565b810103126109df57519438615069565b3d91506152f8565b9695506020873d602011615356575b81615339602093836128dd565b810103126109df57602061534f600497986129bf565b9650615028565b3d915061532c565b509250829150565b801561544357604051907f6352211e000000000000000000000000000000000000000000000000000000008252600482015260208160248173ffffffffffffffffffffffffffffffffffffffff7f0000000000000000000000000000000000000000000000000000000000000000165afa60009181615407575b506153eb5750600090565b73ffffffffffffffffffffffffffffffffffffffff1630141590565b9091506020813d60201161543b575b81615423602093836128dd565b81010312610a2157615434906129bf565b90386153e0565b3d9150615416565b50600090565b92919260009373ffffffffffffffffffffffffffffffffffffffff604051937f095ea7b30000000000000000000000000000000000000000000000000000000087521660045260245260208460448180855af19360018151148516156154b1575b5050604052565b939193503b15153d1516169138806154aa565b919073ffffffffffffffffffffffffffffffffffffffff604051917f095ea7b3000000000000000000000000000000000000000000000000000000006000521660045260006024526020600060448180875af19260016000511484161561552c575b50604052565b60018492941516615545573b15153d1516169138615526565b833d6000823e3d90fd5b929173ffffffffffffffffffffffffffffffffffffffff604051927f095ea7b300000000000000000000000000000000000000000000000000000000600052166004526024526020600060448180875af19260016000511484161561552c575060405256fea264697066735822122049c1fad1c39caf2266ef3552df008cf5fc46ce1882f0cca456730b03b32cd73464736f6c634300081e0033","linkReferences":{}},"methodIdentifiers":{"claimRewards(address)":"ef5cfb8c","collectToVault(address)":"762100e7","currentRange(address)":"270d3136","currentTokenId(address)":"86ff5c4b","exitPositionToVault(address)":"b0217240","exitPositionToVaultAndHarvestFeesToBuffer(address)":"47f1aac2","feeBuffer()":"a00622dc","gauge()":"a6f19c84","harvestGaugeRewardsToBuffer(address)":"17268844","harvestPoolFeesToBuffer(address)":"b89b1f47","increaseLiquidityFromVault(address,uint256,uint256,uint256,uint256)":"af52b2f9","increaseLiquidityWithCaps(address,uint256,uint256)":"de959d16","lastCompound(address)":"a26d6dd5","lastHarvest(address)":"486b9f88","lastRebalance(address)":"fdd0fd2d","nfpm()":"7303e913","onERC721Received(address,address,uint256,bytes)":"150b7a02","openInitialPosition(address,int24,int24)":"109162ef","pool()":"16f0115b","rebalanceWithCaps(address,int24,int24,uint256,uint256)":"6783ac17","slot0()":"3850c7bd","stakePosition(address)":"e4010503","tickSpacing()":"d0c93a7c","tokens()":"9d63848a","unstakePosition(address)":"dcfc070b"},"id":60}