{"abi":[{"type":"constructor","inputs":[{"name":"_pool","type":"address","internalType":"address"},{"name":"_nfpm","type":"address","internalType":"address"},{"name":"_masterChefV3","type":"address","internalType":"address"},{"name":"_feeBuffer","type":"address","internalType":"address"}],"stateMutability":"nonpayable"},{"type":"function","name":"claimRewards","inputs":[{"name":"vault","type":"address","internalType":"address"}],"outputs":[],"stateMutability":"nonpayable"},{"type":"function","name":"collectToVault","inputs":[{"name":"vault","type":"address","internalType":"address"}],"outputs":[{"name":"amount0","type":"uint256","internalType":"uint256"},{"name":"amount1","type":"uint256","internalType":"uint256"}],"stateMutability":"nonpayable"},{"type":"function","name":"currentRange","inputs":[{"name":"vault","type":"address","internalType":"address"}],"outputs":[{"name":"lower","type":"int24","internalType":"int24"},{"name":"upper","type":"int24","internalType":"int24"},{"name":"liquidity","type":"uint128","internalType":"uint128"}],"stateMutability":"view"},{"type":"function","name":"currentTokenId","inputs":[{"name":"vault","type":"address","internalType":"address"}],"outputs":[{"name":"","type":"uint256","internalType":"uint256"}],"stateMutability":"view"},{"type":"function","name":"exitPositionToVault","inputs":[{"name":"vault","type":"address","internalType":"address"}],"outputs":[],"stateMutability":"nonpayable"},{"type":"function","name":"exitPositionToVaultAndHarvestFeesToBuffer","inputs":[{"name":"vault","type":"address","internalType":"address"}],"outputs":[],"stateMutability":"nonpayable"},{"type":"function","name":"feeBuffer","inputs":[],"outputs":[{"name":"","type":"address","internalType":"address"}],"stateMutability":"view"},{"type":"function","name":"gauge","inputs":[],"outputs":[{"name":"","type":"address","internalType":"address"}],"stateMutability":"view"},{"type":"function","name":"harvestGaugeRewardsToBuffer","inputs":[{"name":"vault","type":"address","internalType":"address"}],"outputs":[{"name":"rewardToken","type":"address","internalType":"address"},{"name":"grossReward","type":"uint256","internalType":"uint256"}],"stateMutability":"nonpayable"},{"type":"function","name":"harvestPoolFeesToBuffer","inputs":[{"name":"vault","type":"address","internalType":"address"}],"outputs":[{"name":"gross0","type":"uint256","internalType":"uint256"},{"name":"gross1","type":"uint256","internalType":"uint256"}],"stateMutability":"nonpayable"},{"type":"function","name":"increaseLiquidityFromVault","inputs":[{"name":"vault","type":"address","internalType":"address"},{"name":"amount0Desired","type":"uint256","internalType":"uint256"},{"name":"amount1Desired","type":"uint256","internalType":"uint256"},{"name":"amount0Min","type":"uint256","internalType":"uint256"},{"name":"amount1Min","type":"uint256","internalType":"uint256"}],"outputs":[{"name":"liquidityAdded","type":"uint128","internalType":"uint128"},{"name":"used0","type":"uint256","internalType":"uint256"},{"name":"used1","type":"uint256","internalType":"uint256"}],"stateMutability":"nonpayable"},{"type":"function","name":"increaseLiquidityWithCaps","inputs":[{"name":"vault","type":"address","internalType":"address"},{"name":"cap0","type":"uint256","internalType":"uint256"},{"name":"cap1","type":"uint256","internalType":"uint256"}],"outputs":[{"name":"addedLiquidity","type":"uint128","internalType":"uint128"},{"name":"used0","type":"uint256","internalType":"uint256"},{"name":"used1","type":"uint256","internalType":"uint256"}],"stateMutability":"nonpayable"},{"type":"function","name":"lastCompound","inputs":[{"name":"","type":"address","internalType":"address"}],"outputs":[{"name":"","type":"uint256","internalType":"uint256"}],"stateMutability":"view"},{"type":"function","name":"lastHarvest","inputs":[{"name":"","type":"address","internalType":"address"}],"outputs":[{"name":"","type":"uint256","internalType":"uint256"}],"stateMutability":"view"},{"type":"function","name":"lastRebalance","inputs":[{"name":"","type":"address","internalType":"address"}],"outputs":[{"name":"","type":"uint256","internalType":"uint256"}],"stateMutability":"view"},{"type":"function","name":"nfpm","inputs":[],"outputs":[{"name":"","type":"address","internalType":"address"}],"stateMutability":"view"},{"type":"function","name":"onERC721Received","inputs":[{"name":"","type":"address","internalType":"address"},{"name":"","type":"address","internalType":"address"},{"name":"","type":"uint256","internalType":"uint256"},{"name":"","type":"bytes","internalType":"bytes"}],"outputs":[{"name":"","type":"bytes4","internalType":"bytes4"}],"stateMutability":"pure"},{"type":"function","name":"openInitialPosition","inputs":[{"name":"vault","type":"address","internalType":"address"},{"name":"tickLower","type":"int24","internalType":"int24"},{"name":"tickUpper","type":"int24","internalType":"int24"}],"outputs":[{"name":"tokenId","type":"uint256","internalType":"uint256"},{"name":"liquidity","type":"uint128","internalType":"uint128"}],"stateMutability":"nonpayable"},{"type":"function","name":"pool","inputs":[],"outputs":[{"name":"","type":"address","internalType":"address"}],"stateMutability":"view"},{"type":"function","name":"rebalanceWithCaps","inputs":[{"name":"vault","type":"address","internalType":"address"},{"name":"tickLower","type":"int24","internalType":"int24"},{"name":"tickUpper","type":"int24","internalType":"int24"},{"name":"cap0","type":"uint256","internalType":"uint256"},{"name":"cap1","type":"uint256","internalType":"uint256"}],"outputs":[{"name":"newLiquidity","type":"uint128","internalType":"uint128"}],"stateMutability":"nonpayable"},{"type":"function","name":"slot0","inputs":[],"outputs":[{"name":"sqrtPriceX96","type":"uint160","internalType":"uint160"},{"name":"tick","type":"int24","internalType":"int24"}],"stateMutability":"view"},{"type":"function","name":"stakePosition","inputs":[{"name":"vault","type":"address","internalType":"address"}],"outputs":[],"stateMutability":"nonpayable"},{"type":"function","name":"sweepAdapterTokenToBuffer","inputs":[{"name":"vault","type":"address","internalType":"address"},{"name":"token","type":"address","internalType":"address"},{"name":"amount","type":"uint256","internalType":"uint256"}],"outputs":[],"stateMutability":"nonpayable"},{"type":"function","name":"tickSpacing","inputs":[],"outputs":[{"name":"","type":"int24","internalType":"int24"}],"stateMutability":"view"},{"type":"function","name":"tokens","inputs":[],"outputs":[{"name":"token0","type":"address","internalType":"address"},{"name":"token1","type":"address","internalType":"address"}],"stateMutability":"view"},{"type":"function","name":"unstakePosition","inputs":[{"name":"vault","type":"address","internalType":"address"}],"outputs":[],"stateMutability":"nonpayable"},{"type":"event","name":"CompoundedFromBuffer","inputs":[{"name":"vault","type":"address","indexed":true,"internalType":"address"},{"name":"tokenId","type":"uint256","indexed":true,"internalType":"uint256"},{"name":"amount0Desired","type":"uint256","indexed":false,"internalType":"uint256"},{"name":"amount1Desired","type":"uint256","indexed":false,"internalType":"uint256"},{"name":"amount0Used","type":"uint256","indexed":false,"internalType":"uint256"},{"name":"amount1Used","type":"uint256","indexed":false,"internalType":"uint256"},{"name":"liquidityAdded","type":"uint128","indexed":false,"internalType":"uint128"}],"anonymous":false},{"type":"event","name":"GaugeRewardsHarvestedToBuffer","inputs":[{"name":"vault","type":"address","indexed":true,"internalType":"address"},{"name":"tokenId","type":"uint256","indexed":true,"internalType":"uint256"},{"name":"rewardToken","type":"address","indexed":true,"internalType":"address"},{"name":"gross","type":"uint256","indexed":false,"internalType":"uint256"},{"name":"protocolFee","type":"uint256","indexed":false,"internalType":"uint256"},{"name":"net","type":"uint256","indexed":false,"internalType":"uint256"}],"anonymous":false},{"type":"event","name":"PoolFeesHarvestedToBuffer","inputs":[{"name":"vault","type":"address","indexed":true,"internalType":"address"},{"name":"tokenId","type":"uint256","indexed":true,"internalType":"uint256"},{"name":"gross0","type":"uint256","indexed":false,"internalType":"uint256"},{"name":"gross1","type":"uint256","indexed":false,"internalType":"uint256"},{"name":"protocol0","type":"uint256","indexed":false,"internalType":"uint256"},{"name":"protocol1","type":"uint256","indexed":false,"internalType":"uint256"},{"name":"net0","type":"uint256","indexed":false,"internalType":"uint256"},{"name":"net1","type":"uint256","indexed":false,"internalType":"uint256"}],"anonymous":false},{"type":"event","name":"SweptToBuffer","inputs":[{"name":"vault","type":"address","indexed":true,"internalType":"address"},{"name":"token","type":"address","indexed":true,"internalType":"address"},{"name":"amount","type":"uint256","indexed":false,"internalType":"uint256"}],"anonymous":false},{"type":"error","name":"SafeERC20FailedOperation","inputs":[{"name":"token","type":"address","internalType":"address"}]}],"bytecode":{"object":"0x6101003461024857601f615c5938819003918201601f19168301916001600160401b0383118484101761024d578084926080946040528339810103126102485761004881610263565b9061005560208201610263565b61006d606061006660408501610263565b9301610263565b926001600160a01b038116151580610236575b156101f1576001600160a01b038416156101ac5760805260a05260c05260e0526040516159e190816102788239608051818181610355015281816112fb01528181611d3e01528181612047015281816122f20152613bc4015260a05181818161052001528181610e8701528181610f60015281816112670152818161129201528181611ef5015281816122810152818161337d01528181613ae501528181613d58015281816141f0015281816147fe01528181614bfe01526157ac015260c0518181816107bb01528181610b4801528181610c4201528181612d5f01528181613889015281816143a70152818161448c0152818161456101528181614b7c0152614cc2015260e0518181816108540152818161093501528181610d14015281816128f501526154cb0152f35b60405162461bcd60e51b815260206004820152601d60248201527f50616e63616b655633416461707465723a206665654275666665723d300000006044820152606490fd5b60405162461bcd60e51b815260206004820152601e60248201527f50616e63616b655633416461707465723a207a65726f206164647265737300006044820152606490fd5b506001600160a01b0382161515610080565b600080fd5b634e487b7160e01b600052604160045260246000fd5b51906001600160a01b03821682036102485756fe6080604052600436101561001257600080fd5b6000803560e01c80630c7d47fe14612814578063109162ef14612113578063150b7a021461206b57806316f0115b14611ffc5780631726884414611f98578063270d313614611e475780633850c7bd14611ccc57806347f1aac214611c8c578063486b9f8814611c295780636783ac1714610eab5780637303e91314610e3c578063762100e714610dfa57806386ff5c4b14610d985780639d63848a14610d38578063a00622dc14610cc9578063a26d6dd514610c66578063a6f19c8414610bf7578063af52b2f91461046a578063b02172401461042a578063b89b1f47146103dc578063d0c93a7c146102e2578063dcfc070b146102a2578063de959d1614610223578063e4010503146101e3578063ef5cfb8c146101a05763fdd0fd2d1461013b57600080fd5b3461019d5760207ffffffffffffffffffffffffffffffffffffffffffffffffffffffffffffffffc36011261019d57604060209173ffffffffffffffffffffffffffffffffffffffff61018c612b29565b168152600183522054604051908152f35b80fd5b503461019d5760207ffffffffffffffffffffffffffffffffffffffffffffffffffffffffffffffffc36011261019d576101e06101db612b29565b614ca2565b80f35b503461019d5760207ffffffffffffffffffffffffffffffffffffffffffffffffffffffffffffffffc36011261019d576101e061021e612b29565b614b71565b503461019d5760607ffffffffffffffffffffffffffffffffffffffffffffffffffffffffffffffffc36011261019d5761029e61026e610261612b29565b604435906024359061462d565b604080516fffffffffffffffffffffffffffffffff90941684526020840192909252908201529081906060820190565b0390f35b503461019d5760207ffffffffffffffffffffffffffffffffffffffffffffffffffffffffffffffffc36011261019d576101e06102dd612b29565b614541565b503461019d57807ffffffffffffffffffffffffffffffffffffffffffffffffffffffffffffffffc36011261019d57604051907fd0c93a7c00000000000000000000000000000000000000000000000000000000825260208260048173ffffffffffffffffffffffffffffffffffffffff7f0000000000000000000000000000000000000000000000000000000000000000165afa9081156103d0578091610393575b6020826040519060020b8152f35b90506020823d6020116103c8575b816103ae60209383612c2f565b8101031261019d57506103c26020916131da565b38610385565b3d91506103a1565b604051903d90823e3d90fd5b503461019d5760207ffffffffffffffffffffffffffffffffffffffffffffffffffffffffffffffffc36011261019d57604061041e610419612b29565b614190565b82519182526020820152f35b503461019d5760207ffffffffffffffffffffffffffffffffffffffffffffffffffffffffffffffffc36011261019d576101e0610465612b29565b613cfd565b503461019d5760a07ffffffffffffffffffffffffffffffffffffffffffffffffffffffffffffffffc36011261019d576104a2612b29565b90602435604435926104b381615008565b73ffffffffffffffffffffffffffffffffffffffff8116808452836020526040842054906104e2821515613175565b84936104ed8361575d565b610b2f575b6104fa613bad565b97909582610b08575b81610ae1575b73ffffffffffffffffffffffffffffffffffffffff7f000000000000000000000000000000000000000000000000000000000000000061054a85828b615084565b61055584828d615084565b16906103844201804211610ab45798809a60606106089b6040519061057982612c13565b8a825288602083015287604083015260643583830152608435608083015260a0820152604051809d81927f219f5d170000000000000000000000000000000000000000000000000000000083526004830191909160a08060c083019480518452602081015160208501526040810151604085015260608101516060850152608081015160808501520151910152565b038185885af198891561090f57829a839c849b610a79575b506040517f70a0823100000000000000000000000000000000000000000000000000000000815230600482015260208160248173ffffffffffffffffffffffffffffffffffffffff86165afa9081156109ee578591610a44575b50604051917f70a0823100000000000000000000000000000000000000000000000000000000835230600484015260208360248173ffffffffffffffffffffffffffffffffffffffff89165afa928315610a395786936109fd575b508161091e575b50508061083d575b50505050610786575b507ff03a5d00d8dfa5218d1f2e308480a84e1ef34e8e836f5351726b694e74dcc7309160a091898561029e999a9b52600360205260404291205560405191825260208201528860408201528560608201526fffffffffffffffffffffffffffffffff88166080820152a3604051938493846040919493926fffffffffffffffffffffffffffffffff606083019616825260208201520152565b803b15610839576040517f42842e0e0000000000000000000000000000000000000000000000000000000081523060048201527f000000000000000000000000000000000000000000000000000000000000000073ffffffffffffffffffffffffffffffffffffffff166024820152604481018690529089908290606490829084905af1801561082e57156106ed57610820898092612c2f565b61082a57386106ed565b8780fd5b6040513d8b823e3d90fd5b8880fd5b73ffffffffffffffffffffffffffffffffffffffff7f000000000000000000000000000000000000000000000000000000000000000061087e838287615084565b16803b1561091a576040517fb3db428b00000000000000000000000000000000000000000000000000000000815273ffffffffffffffffffffffffffffffffffffffff9384166004820152939092166024840152604483015282908290606490829084905af1801561090f576108f6575b80806106e4565b8161090091612c2f565b61090b5789386108ef565b8980fd5b6040513d84823e3d90fd5b8480fd5b73ffffffffffffffffffffffffffffffffffffffff7f000000000000000000000000000000000000000000000000000000000000000061095f848285615084565b1691823b156109f9576040517fb3db428b00000000000000000000000000000000000000000000000000000000815273ffffffffffffffffffffffffffffffffffffffff868116600483015292909216602483015260448201529085908290606490829084905af19081156109ee578591156106dc57816109df91612c2f565b6109ea5783386106dc565b8380fd5b6040513d87823e3d90fd5b8680fd5b955091506020853d602011610a31575b81610a1a60209383612c2f565b81010312610a2c578e945191386106d5565b600080fd5b3d9150610a0d565b6040513d88823e3d90fd5b9450506020843d602011610a71575b81610a6060209383612c2f565b81010312610a2c578d93513861067a565b3d9150610a53565b919b509950610aa1919b5060603d606011610aad575b610a998183612c2f565b810190613cdb565b9b919a909b9938610620565b503d610a8f565b60248a7f4e487b710000000000000000000000000000000000000000000000000000000081526011600452fd5b610b0382308873ffffffffffffffffffffffffffffffffffffffff8d1661525d565b610509565b610b2a83308873ffffffffffffffffffffffffffffffffffffffff8b1661525d565b610503565b935073ffffffffffffffffffffffffffffffffffffffff7f000000000000000000000000000000000000000000000000000000000000000016610b738115156132a2565b6040517ef714ce0000000000000000000000000000000000000000000000000000000081526004810184905230602482015290602090829060449082908a905af18015610a3957610bc8575b506001936104f2565b6020813d602011610bef575b81610be160209383612c2f565b81010312610a2c5751610bbf565b3d9150610bd4565b503461019d57807ffffffffffffffffffffffffffffffffffffffffffffffffffffffffffffffffc36011261019d57602060405173ffffffffffffffffffffffffffffffffffffffff7f0000000000000000000000000000000000000000000000000000000000000000168152f35b503461019d5760207ffffffffffffffffffffffffffffffffffffffffffffffffffffffffffffffffc36011261019d57604060209173ffffffffffffffffffffffffffffffffffffffff610cb8612b29565b168152600383522054604051908152f35b503461019d57807ffffffffffffffffffffffffffffffffffffffffffffffffffffffffffffffffc36011261019d57602060405173ffffffffffffffffffffffffffffffffffffffff7f0000000000000000000000000000000000000000000000000000000000000000168152f35b503461019d57807ffffffffffffffffffffffffffffffffffffffffffffffffffffffffffffffffc36011261019d57610d6f613bad565b6040805173ffffffffffffffffffffffffffffffffffffffff9384168152919092166020820152f35b503461019d5760207ffffffffffffffffffffffffffffffffffffffffffffffffffffffffffffffffc36011261019d57604060209173ffffffffffffffffffffffffffffffffffffffff610dea612b29565b1681528083522054604051908152f35b503461019d5760207ffffffffffffffffffffffffffffffffffffffffffffffffffffffffffffffffc36011261019d57604061041e610e37612b29565b6139cf565b503461019d57807ffffffffffffffffffffffffffffffffffffffffffffffffffffffffffffffffc36011261019d57602060405173ffffffffffffffffffffffffffffffffffffffff7f0000000000000000000000000000000000000000000000000000000000000000168152f35b503461019d5760a07ffffffffffffffffffffffffffffffffffffffffffffffffffffffffffffffffc36011261019d57611043610ee6612b29565b91610eef612b6f565b92610ef8612b7f565b9360643590608435610f0984615008565b73ffffffffffffffffffffffffffffffffffffffff8416855284602052604085205496610f37881515613175565b610f49610f438961575d565b15613944565b73ffffffffffffffffffffffffffffffffffffffff7f0000000000000000000000000000000000000000000000000000000000000000169360408051610f8e81612bdb565b8a81523060208201526fffffffffffffffffffffffffffffffff828201526fffffffffffffffffffffffffffffffff60608201528151809a81927ffc6f78650000000000000000000000000000000000000000000000000000000083526004830191909160606fffffffffffffffffffffffffffffffff8160808401958051855273ffffffffffffffffffffffffffffffffffffffff6020820151166020860152826040820151166040860152015116910152565b03818a895af1988915611c1e578798889a611bef575b5061107f6110769798999a61106c613bad565b99909c8d8c6153bd565b5050888a6153bd565b50506040517f99fbab88000000000000000000000000000000000000000000000000000000008152816004820152610180816024818a5afa90811561195957906fffffffffffffffffffffffffffffffff918b91611bb4575b5016806119ad575b50853b1561083957604051907f42966c6800000000000000000000000000000000000000000000000000000000825260048201528881602481838a5af1801561082e57908991611998575b50509073ffffffffffffffffffffffffffffffffffffffff9182881689528860205288604081205560208a6024604051809681937f70a08231000000000000000000000000000000000000000000000000000000008352306004840152165afa92831561082e578993611964575b50604051907f70a0823100000000000000000000000000000000000000000000000000000000825230600483015260208260248173ffffffffffffffffffffffffffffffffffffffff8c165afa918215611959578a92611925575b508061191f57507fffffffffffffffffffffffffffffffffffffffffffffffffffffffffffffffff935b8061191a57507fffffffffffffffffffffffffffffffffffffffffffffffffffffffffffffffff5b838b8a849783811161181f575b50505050818111611717575b505061128c827f00000000000000000000000000000000000000000000000000000000000000008b615084565b6112b7837f000000000000000000000000000000000000000000000000000000000000000088615084565b604051937fddca3f4300000000000000000000000000000000000000000000000000000000855260208560048173ffffffffffffffffffffffffffffffffffffffff7f0000000000000000000000000000000000000000000000000000000000000000165afa94851561082e5789956116db575b50610384420194854211610ab4579389989796938b936080979362ffffff6114ba9873ffffffffffffffffffffffffffffffffffffffff6040519861136f8a612b8f565b16885273ffffffffffffffffffffffffffffffffffffffff8c16602089015216604087015260020b606086015260020b8785015260a084015260c08301528760e083015287610100830152306101208301526101408201526040519788809481937f88316456000000000000000000000000000000000000000000000000000000008352600483019190916101408061016083019473ffffffffffffffffffffffffffffffffffffffff815116845273ffffffffffffffffffffffffffffffffffffffff602082015116602085015262ffffff6040820151166040850152606081015160020b6060850152608081015160020b608085015260a081015160a085015260c081015160c085015260e081015160e085015261010081015161010085015273ffffffffffffffffffffffffffffffffffffffff610120820151166101208501520151910152565b03925af19384156116d0578390849561169a575b5073ffffffffffffffffffffffffffffffffffffffff831684528360205260408420556040517f70a0823100000000000000000000000000000000000000000000000000000000815230600482015260208160248173ffffffffffffffffffffffffffffffffffffffff8a165afa90811561168f57849161165d575b50604051907f70a0823100000000000000000000000000000000000000000000000000000000825230600483015260208260248173ffffffffffffffffffffffffffffffffffffffff87165afa9182156109ee578592611622575b5090602096828573ffffffffffffffffffffffffffffffffffffffff96959461160f575b915050816115fc575b505050168152600183526040429120556fffffffffffffffffffffffffffffffff60405191168152f35b84611607931661533a565b3880826115d2565b8661161a931661533a565b3880846115c9565b939291506020843d602011611655575b8161163f60209383612c2f565b81010312610a2c579251919290919060206115a5565b3d9150611632565b90506020813d602011611687575b8161167860209383612c2f565b81010312610a2c57513861154a565b3d915061166b565b6040513d86823e3d90fd5b90506116bf91945060803d6080116116c9575b6116b78183612c2f565b810190612ce8565b50509390386114ce565b503d6116ad565b6040513d85823e3d90fd5b9094506020813d60201161170f575b816116f760209383612c2f565b810103126108395761170890612c7f565b933861132b565b3d91506116ea565b8161172191612d32565b604051907f70a0823100000000000000000000000000000000000000000000000000000000825273ffffffffffffffffffffffffffffffffffffffff8a16600483015260208260248173ffffffffffffffffffffffffffffffffffffffff8d165afa918215611814578b926117e0575b50818111156117d85750905b811561125f576117d09294506117cb82308b73ffffffffffffffffffffffffffffffffffffffff8c1661525d565b612c8f565b91388061125f565b90509061179d565b9091506020813d60201161180c575b816117fc60209383612c2f565b81010312610a2c57519038611791565b3d91506117ef565b6040513d8d823e3d90fd5b73ffffffffffffffffffffffffffffffffffffffff602461184286602094612d32565b938260405196879485937f70a08231000000000000000000000000000000000000000000000000000000008552166004840152165afa91821561190f578d926118db575b50818111156118d35750905b8c826118a1575b908b90611253565b6118ca939650826117cb918d73ffffffffffffffffffffffffffffffffffffffff30921661525d565b9238808c611899565b905090611892565b9091506020813d602011611907575b816118f760209383612c2f565b81010312610a2c57519038611886565b3d91506118ea565b6040513d8f823e3d90fd5b611246565b9361121e565b9091506020813d602011611951575b8161194160209383612c2f565b81010312610a2c575190386111f4565b3d9150611934565b6040513d8c823e3d90fd5b9092506020813d602011611990575b8161198060209383612c2f565b81010312610a2c57519138611199565b3d9150611973565b816119a291612c2f565b61082a57873861112b565b6103844201804211611b8757611a53916040918251916119cc83612bf7565b858352602083019081528383018e9052606083018e81526080840192835284517f0c49ccbe0000000000000000000000000000000000000000000000000000000081528451600482015291516fffffffffffffffffffffffffffffffff166024830152604090930151604482015291516064830152516084820152918290819060a4820190565b03818d8b5af1801561195957611b69575b50611b2a60408051611a7581612bdb565b8381523060208201526fffffffffffffffffffffffffffffffff828201526fffffffffffffffffffffffffffffffff60608201528151809381927ffc6f78650000000000000000000000000000000000000000000000000000000083526004830191909160606fffffffffffffffffffffffffffffffff8160808401958051855273ffffffffffffffffffffffffffffffffffffffff6020820151166020860152826040820151166040860152015116910152565b03818d8b5af1801561195957156110e057611b5c9060403d604011611b62575b611b548183612c2f565b810190613307565b506110e0565b503d611b4a565b611b819060403d604011611b6257611b548183612c2f565b50611a64565b60248b7f4e487b710000000000000000000000000000000000000000000000000000000081526011600452fd5b611bd691506101803d8111611be8575b611bce8183612c2f565b8101906131e8565b505050509650505050505050386110d8565b503d611bc4565b61107f9a5061107697989950611c139060403d604011611b6257611b548183612c2f565b9a9099989750611059565b6040513d89823e3d90fd5b503461019d5760207ffffffffffffffffffffffffffffffffffffffffffffffffffffffffffffffffc36011261019d57604060209173ffffffffffffffffffffffffffffffffffffffff611c7b612b29565b168152600283522054604051908152f35b503461019d5760207ffffffffffffffffffffffffffffffffffffffffffffffffffffffffffffffffc36011261019d576101e0611cc7612b29565b61331d565b503461019d57807ffffffffffffffffffffffffffffffffffffffffffffffffffffffffffffffffc36011261019d576040517f3850c7bd00000000000000000000000000000000000000000000000000000000815260e08160048173ffffffffffffffffffffffffffffffffffffffff7f0000000000000000000000000000000000000000000000000000000000000000165afa801561090f5782918391611d98575b6040838373ffffffffffffffffffffffffffffffffffffffff83519216825260020b6020820152f35b91505060e0813d60e011611e3f575b81611db460e09383612c2f565b81010312611e3b57805173ffffffffffffffffffffffffffffffffffffffff81168103611e3757611de7602083016131da565b91611df460408201613293565b50611e0160608201613293565b50611e0e60808201613293565b5060a081015163ffffffff8116036109ea5760c0015180151503611e3757604092509038611d6f565b8280fd5b5080fd5b3d9150611da7565b503461019d5760207ffffffffffffffffffffffffffffffffffffffffffffffffffffffffffffffffc36011261019d5773ffffffffffffffffffffffffffffffffffffffff611e94612b29565b168152806020526040812054611eab811515613175565b604051907f99fbab8800000000000000000000000000000000000000000000000000000000825260048201526101808160248173ffffffffffffffffffffffffffffffffffffffff7f0000000000000000000000000000000000000000000000000000000000000000165afa801561090f5791606092818091611f56575b6fffffffffffffffffffffffffffffffff9293506040519360020b845260020b6020840152166040820152f35b505050611f826fffffffffffffffffffffffffffffffff916101803d8111611be857611bce8183612c2f565b5050505095509695509250505092839250611f29565b503461019d5760207ffffffffffffffffffffffffffffffffffffffffffffffffffffffffffffffffc36011261019d576040611fda611fd5612b29565b612d3f565b73ffffffffffffffffffffffffffffffffffffffff8351921682526020820152f35b503461019d57807ffffffffffffffffffffffffffffffffffffffffffffffffffffffffffffffffc36011261019d57602060405173ffffffffffffffffffffffffffffffffffffffff7f0000000000000000000000000000000000000000000000000000000000000000168152f35b503461019d5760807ffffffffffffffffffffffffffffffffffffffffffffffffffffffffffffffffc36011261019d576120a3612b29565b506120ac612b4c565b5060643567ffffffffffffffff8111611e3b5736602382011215611e3b57806004013567ffffffffffffffff8111611e37573691016024011161019d5760206040517f150b7a02000000000000000000000000000000000000000000000000000000008152f35b503461019d5760607ffffffffffffffffffffffffffffffffffffffffffffffffffffffffffffffffc36011261019d5761214b612b29565b90612154612b6f565b9161215d612b7f565b9161216782615008565b73ffffffffffffffffffffffffffffffffffffffff82168082528160205260408220546127b657612196613bad565b94909573ffffffffffffffffffffffffffffffffffffffff871695604051977f70a082310000000000000000000000000000000000000000000000000000000089528460048a01526020896024818b5afa988915610a39578699612782575b5073ffffffffffffffffffffffffffffffffffffffff821693604051927f70a08231000000000000000000000000000000000000000000000000000000008452866004850152602084602481895afa9384156126b857889461274e575b508a1580158091612745575b156126e7578b936122ae928b868e89956126d4575b505050826126c3575b6122a97f00000000000000000000000000000000000000000000000000000000000000009e8f8094615084565b615084565b604051937fddca3f4300000000000000000000000000000000000000000000000000000000855260208560048173ffffffffffffffffffffffffffffffffffffffff7f0000000000000000000000000000000000000000000000000000000000000000165afa9485156126b857889561267c575b5061038442019485421161264f57938a9b9373ffffffffffffffffffffffffffffffffffffffff9b936080979362ffffff612499986040519761236489612b8f565b88528b602089015216604087015260020b606086015260020b8785015260a084015260c08301528760e0830152876101008301523061012083015261014082015286604051998a809581947f88316456000000000000000000000000000000000000000000000000000000008352600483019190916101408061016083019473ffffffffffffffffffffffffffffffffffffffff815116845273ffffffffffffffffffffffffffffffffffffffff602082015116602085015262ffffff6040820151166040850152606081015160020b6060850152608081015160020b608085015260a081015160a085015260c081015160c085015260e081015160e085015261010081015161010085015273ffffffffffffffffffffffffffffffffffffffff610120820151166101208501520151910152565b0393165af19384156116d05783958495612626575b5082845283602052856040852055604051907f70a082310000000000000000000000000000000000000000000000000000000082523060048301526020826024818b5afa9182156109ee5785926125f2575b50604051917f70a08231000000000000000000000000000000000000000000000000000000008352306004840152602083602481875afa928315610a395786936125af575b509060409882826fffffffffffffffffffffffffffffffff99989796959461259e575b5050508161258d575b5050508152600160205284429120558351928352166020820152f35b6125969261533a565b388080612571565b6125a79261533a565b388082612568565b969594939250906020873d6020116125ea575b816125cf60209383612c2f565b81010312610a2c579551949593949293919291906040612545565b3d91506125c2565b9091506020813d60201161261e575b8161260e60209383612c2f565b81010312610a2c57519038612500565b3d9150612601565b90945061264391955060803d6080116116c9576116b78183612c2f565b505094909493386124ae565b6024897f4e487b710000000000000000000000000000000000000000000000000000000081526011600452fd5b9094506020813d6020116126b0575b8161269860209383612c2f565b8101031261082a576126a990612c7f565b9338612322565b3d915061268b565b6040513d8a823e3d90fd5b6126cf83308e8c61525d565b61227c565b6126df92309161525d565b8b868e612273565b60646040517f08c379a000000000000000000000000000000000000000000000000000000000815260206004820152601a60248201527f50616e63616b655633416461707465723a206e6f2066756e64730000000000006044820152fd5b5084151561225e565b9093506020813d60201161277a575b8161276a60209383612c2f565b81010312610a2c57519238612252565b3d915061275d565b9098506020813d6020116127ae575b8161279e60209383612c2f565b81010312610a2c575197386121f5565b3d9150612791565b60646040517f08c379a000000000000000000000000000000000000000000000000000000000815260206004820152602060248201527f50616e63616b655633416461707465723a20616c7265616479206f70656e65646044820152fd5b503461019d5760607ffffffffffffffffffffffffffffffffffffffffffffffffffffffffffffffffc36011261019d5761284c612b29565b612854612b4c565b906044359061286281615008565b73ffffffffffffffffffffffffffffffffffffffff8316928315612acb576040517f70a08231000000000000000000000000000000000000000000000000000000008152306004820152602081602481885afa908115610a39578691612a95575b50831581858215612a8b575b5050612a83575b508215612a25578473ffffffffffffffffffffffffffffffffffffffff7f000000000000000000000000000000000000000000000000000000000000000061291f868286615084565b1691823b15611e3b576040517fb3db428b00000000000000000000000000000000000000000000000000000000815273ffffffffffffffffffffffffffffffffffffffff858116600483015291909116602482015260448101859052918290606490829084905af180156109ee576129d8575b50602073ffffffffffffffffffffffffffffffffffffffff7f933ff3ac7bdff879fb9421b4d137a4fc8fc1ac8a448d04b4d0cb97b0d2e4700c926040519485521692a380f35b73ffffffffffffffffffffffffffffffffffffffff85612a1c7f933ff3ac7bdff879fb9421b4d137a4fc8fc1ac8a448d04b4d0cb97b0d2e4700c9497602094612c2f565b95925050612992565b60646040517f08c379a000000000000000000000000000000000000000000000000000000000815260206004820152601760248201527f50616e63616b655633416461707465723a20656d7074790000000000000000006044820152fd5b9250386128d6565b11905081386128cf565b90506020813d602011612ac3575b81612ab060209383612c2f565b81010312612abf5751386128c3565b8580fd5b3d9150612aa3565b60646040517f08c379a000000000000000000000000000000000000000000000000000000000815260206004820152601960248201527f50616e63616b655633416461707465723a20746f6b656e3d30000000000000006044820152fd5b6004359073ffffffffffffffffffffffffffffffffffffffff82168203610a2c57565b6024359073ffffffffffffffffffffffffffffffffffffffff82168203610a2c57565b602435908160020b8203610a2c57565b604435908160020b8203610a2c57565b610160810190811067ffffffffffffffff821117612bac57604052565b7f4e487b7100000000000000000000000000000000000000000000000000000000600052604160045260246000fd5b6080810190811067ffffffffffffffff821117612bac57604052565b60a0810190811067ffffffffffffffff821117612bac57604052565b60c0810190811067ffffffffffffffff821117612bac57604052565b90601f7fffffffffffffffffffffffffffffffffffffffffffffffffffffffffffffffe0910116810190811067ffffffffffffffff821117612bac57604052565b90816020910312610a2c575190565b519062ffffff82168203610a2c57565b91908201809211612c9c57565b7f4e487b7100000000000000000000000000000000000000000000000000000000600052601160045260246000fd5b51906fffffffffffffffffffffffffffffffff82168203610a2c57565b9190826080910312610a2c57815191612d0360208201612ccb565b916060604083015192015190565b519073ffffffffffffffffffffffffffffffffffffffff82168203610a2c57565b91908203918211612c9c57565b612d4881615008565b73ffffffffffffffffffffffffffffffffffffffff7f00000000000000000000000000000000000000000000000000000000000000001690811561316b5773ffffffffffffffffffffffffffffffffffffffff81169081600052600060205260406000205490811561315f576040517f4ca6ef28000000000000000000000000000000000000000000000000000000008152602081600481885afa60009181613123575b50612dfe575050505050600090600090565b9373ffffffffffffffffffffffffffffffffffffffff85161561311657604051907f70a0823100000000000000000000000000000000000000000000000000000000825230600483015260208260248173ffffffffffffffffffffffffffffffffffffffff8a165afa918215613065576000926130e2575b506040517f18fccc760000000000000000000000000000000000000000000000000000000081526004810185905230602482015290602090829060449082906000905af190816130b3575b50612ed3575050505050600090600090565b6040517f70a082310000000000000000000000000000000000000000000000000000000081523060048201529495939473ffffffffffffffffffffffffffffffffffffffff871691602082602481865afa9182156130655760009261307f575b508082111561307157612f4a602091602493612d32565b925b604051928380927f70a082310000000000000000000000000000000000000000000000000000000082523060048301525afa90811561306557600091613033575b508115808061302b575b613020579187949391612fb5931560001461301657509384916153bd565b83959182600052600260205242604060002055604051948552602085015260408401527f21bfd968014a2c5c47d330b3842b3c4c3642cd171e7da51a1cca7c101c635eda606073ffffffffffffffffffffffffffffffffffffffff881694a4565b90509384916153bd565b506000955050505050565b508115612f97565b906020823d60201161305d575b8161304d60209383612c2f565b8101031261019d57505138612f8d565b3d9150613040565b6040513d6000823e3d90fd5b505060246020600092612f4c565b90916020823d6020116130ab575b8161309a60209383612c2f565b8101031261019d5750519038612f33565b3d915061308d565b6020813d6020116130da575b816130cc60209383612c2f565b81010312610a2c5751612ec1565b3d91506130bf565b90916020823d60201161310e575b816130fd60209383612c2f565b8101031261019d5750519038612e76565b3d91506130f0565b5050505050600090600090565b9091506020813d602011613157575b8161313f60209383612c2f565b81010312610a2c5761315090612d11565b9038612dec565b3d9150613132565b50505050600090600090565b5050600090600090565b1561317c57565b60646040517f08c379a000000000000000000000000000000000000000000000000000000000815260206004820152601d60248201527f50616e63616b655633416461707465723a206e6f20706f736974696f6e0000006044820152fd5b51908160020b8203610a2c57565b919082610180910312610a2c5781516bffffffffffffffffffffffff81168103610a2c579161321960208201612d11565b9161322660408301612d11565b9161323360608201612d11565b9161324060808301612c7f565b9161324d60a082016131da565b9161325a60c083016131da565b9161326760e08201612ccb565b9161010082015191610120810151916132906101606132896101408501612ccb565b9301612ccb565b90565b519061ffff82168203610a2c57565b156132a957565b60646040517f08c379a000000000000000000000000000000000000000000000000000000000815260206004820152601a60248201527f50616e63616b655633416461707465723a206e6f2067617567650000000000006044820152fd5b9190826040910312610a2c576020825192015190565b9061332782615008565b600073ffffffffffffffffffffffffffffffffffffffff83169283825281602052604082205493841561393d5761335d8561575d565b613872575b61345f9073ffffffffffffffffffffffffffffffffffffffff7f000000000000000000000000000000000000000000000000000000000000000016604080516133aa81612bdb565b8881523060208201526fffffffffffffffffffffffffffffffff828201526fffffffffffffffffffffffffffffffff60608201528151809581927ffc6f78650000000000000000000000000000000000000000000000000000000083526004830191909160606fffffffffffffffffffffffffffffffff8160808401958051855273ffffffffffffffffffffffffffffffffffffffff6020820151166020860152826040820151166040860152015116910152565b038188855af19687156109ee5761349196978694879161384d575b5061349a90613487613bad565b99909687896153bd565b505088876153bd565b50506040517f99fbab8800000000000000000000000000000000000000000000000000000000815281600482015261018081602481865afa908115611c1e57906fffffffffffffffffffffffffffffffff918891613822575b5016806136e0575b50813b15612abf5785916024839260405194859384927f42966c6800000000000000000000000000000000000000000000000000000000845260048401525af180156109ee576136b6575b509073ffffffffffffffffffffffffffffffffffffffff9184528360205283604081205516604051937f70a08231000000000000000000000000000000000000000000000000000000008552306004860152602085602481855afa94851561168f57849561366e575b5073ffffffffffffffffffffffffffffffffffffffff16936040517f70a08231000000000000000000000000000000000000000000000000000000008152306004820152602081602481895afa9485156103d0579461363a575b508281613629575b5050508161361e57505050565b6136279261533a565b565b6136329261533a565b388082613611565b9093506020813d602011613666575b8161365660209383612c2f565b81010312610a2c57519238613609565b3d9150613649565b9094506020813d6020116136ae575b8161368a60209383612c2f565b81010312610a2c57519373ffffffffffffffffffffffffffffffffffffffff6135af565b3d915061367d565b936136d88173ffffffffffffffffffffffffffffffffffffffff949396612c2f565b939091613546565b61038442018042116137f557613786916040918251916136ff83612bf7565b858352602083019081528383018b9052606083018b81526080840192835284517f0c49ccbe0000000000000000000000000000000000000000000000000000000081528451600482015291516fffffffffffffffffffffffffffffffff166024830152604090930151604482015291516064830152516084820152918290819060a4820190565b03818a875af18015611c1e576137d7575b506137a860408051611a7581612bdb565b03818a875af18015611c1e57156134fb576137d19060403d604011611b6257611b548183612c2f565b506134fb565b6137ef9060403d604011611b6257611b548183612c2f565b50613797565b6024887f4e487b710000000000000000000000000000000000000000000000000000000081526011600452fd5b61383b91506101803d8111611be857611bce8183612c2f565b505050509650505050505050386134f3565b61349a955061386b915060403d604011611b6257611b548183612c2f565b909461347a565b73ffffffffffffffffffffffffffffffffffffffff7f0000000000000000000000000000000000000000000000000000000000000000166138b48115156132a2565b6040517ef714ce00000000000000000000000000000000000000000000000000000000815260048101879052306024820152906020908290604490829088905af1801561168f579061345f929161390e575b509050613362565b61392f9060203d602011613936575b6139278183612c2f565b810190612c70565b5038613906565b503d61391d565b5050509050565b1561394b57565b60846040517f08c379a000000000000000000000000000000000000000000000000000000000815260206004820152602160248201527f50616e63616b655633416461707465723a20706f736974696f6e207374616b6560448201527f64000000000000000000000000000000000000000000000000000000000000006064820152fd5b906139d982615008565b73ffffffffffffffffffffffffffffffffffffffff821660005260006020526040600020548015613ba45760408051613aca9392613a1682612bdb565b81523060208201526fffffffffffffffffffffffffffffffff828201526fffffffffffffffffffffffffffffffff60608201528151809481927ffc6f78650000000000000000000000000000000000000000000000000000000083526004830191909160606fffffffffffffffffffffffffffffffff8160808401958051855273ffffffffffffffffffffffffffffffffffffffff6020820151166020860152826040820151166040860152015116910152565b0381600073ffffffffffffffffffffffffffffffffffffffff7f0000000000000000000000000000000000000000000000000000000000000000165af191821561306557600090600093613b80575b50828194613b25613bad565b938281613b59575b50505081613b3a57505050565b73ffffffffffffffffffffffffffffffffffffffff613627931661533a565b73ffffffffffffffffffffffffffffffffffffffff613b78931661533a565b388082613b2d565b9050613b9c91925060403d604011611b6257611b548183612c2f565b919038613b19565b50600091508190565b73ffffffffffffffffffffffffffffffffffffffff7f000000000000000000000000000000000000000000000000000000000000000016906040517f0dfe1681000000000000000000000000000000000000000000000000000000008152602081600481865afa90811561306557600091613c9c575b50602060049193604051928380927fd21220a70000000000000000000000000000000000000000000000000000000082525afa90811561306557600091613c68575090565b90506020813d602011613c94575b81613c8360209383612c2f565b81010312610a2c5761329090612d11565b3d9150613c76565b90506020813d602011613cd3575b81613cb760209383612c2f565b81010312610a2c576020613ccc600492612d11565b9150613c23565b3d9150613caa565b90816060910312610a2c57613cef81612ccb565b916040602083015192015190565b90613d0782615008565b60009073ffffffffffffffffffffffffffffffffffffffff83169283835282602052604083205493841561418957613d41610f438661575d565b73ffffffffffffffffffffffffffffffffffffffff7f00000000000000000000000000000000000000000000000000000000000000001694613d8960408051611a7581612bdb565b0381898b5af18015610a395761416b575b506040517f99fbab88000000000000000000000000000000000000000000000000000000008152816004820152610180816024818a5afa908115610a3957906fffffffffffffffffffffffffffffffff918791614140575b50169586613f3c575b859650809594953b1561091a576024859260405198899384927f42966c6800000000000000000000000000000000000000000000000000000000845260048401525af19485156116d05773ffffffffffffffffffffffffffffffffffffffff9495613f28575b50825281602052816040812055613e76613bad565b9316604051937f70a08231000000000000000000000000000000000000000000000000000000008552306004860152602085602481855afa94851561168f57849561366e575073ffffffffffffffffffffffffffffffffffffffff16936040517f70a08231000000000000000000000000000000000000000000000000000000008152306004820152602081602481895afa9485156103d0579461363a57508281613629575050508161361e57505050565b83613f3591949294612c2f565b9138613e61565b61038442018042116141135760408798613fe692829998995191613f5f83612bf7565b868352602083019081528383018a9052606083018a81526080840192835284517f0c49ccbe0000000000000000000000000000000000000000000000000000000081528451600482015291516fffffffffffffffffffffffffffffffff166024830152604090930151604482015291516064830152516084820152918290819060a4820190565b038189865af18015610a39576140f5575b506140bd6040805161400881612bdb565b8481523060208201526fffffffffffffffffffffffffffffffff828201526fffffffffffffffffffffffffffffffff60608201528151809381927ffc6f78650000000000000000000000000000000000000000000000000000000083526004830191909160606fffffffffffffffffffffffffffffffff8160808401958051855273ffffffffffffffffffffffffffffffffffffffff6020820151166020860152826040820151166040860152015116910152565b038189865af18015610a39576140d7575b50949394613dfb565b6140ef9060403d604011611b6257611b548183612c2f565b506140ce565b61410d9060403d604011611b6257611b548183612c2f565b50613ff7565b6024877f4e487b710000000000000000000000000000000000000000000000000000000081526011600452fd5b61415991506101803d8111611be857611bce8183612c2f565b50505050965050505050505038613df2565b6141839060403d604011611b6257611b548183612c2f565b50613d9a565b5050915050565b61419981615008565b60009173ffffffffffffffffffffffffffffffffffffffff821680845283602052604084205490811561453a57846141d08361575d565b614474575b6142d39073ffffffffffffffffffffffffffffffffffffffff7f000000000000000000000000000000000000000000000000000000000000000016906040805161421e81612bdb565b8681523060208201526fffffffffffffffffffffffffffffffff828201526fffffffffffffffffffffffffffffffff60608201528151809581927ffc6f78650000000000000000000000000000000000000000000000000000000083526004830191909160606fffffffffffffffffffffffffffffffff8160808401958051855273ffffffffffffffffffffffffffffffffffffffff6020820151166020860152826040820151166040860152015116910152565b03818b865af19687156126b8578893899861444d575b5090839188839a61430f826143076142ff613bad565b9890876153bd565b9790956153bd565b969094614372575b509160c095939183897f1755c989066b7ed4b9f645c6b694b777e6c92fcea8ec1046243d8673f0403391999795526002602052604042912055604051958652602086015260408501526060840152608083015260a0820152a3565b803b15611e3b576040517f42842e0e0000000000000000000000000000000000000000000000000000000081523060048201527f000000000000000000000000000000000000000000000000000000000000000073ffffffffffffffffffffffffffffffffffffffff166024820152604481018b90529082908290606490829084905af1801561090f579160c097959391817f1755c989066b7ed4b9f645c6b694b777e6c92fcea8ec1046243d8673f04033919a98969461443d575b50509193959750919395614317565b61444691612c2f565b388161442e565b90975061446a91935060403d604011611b6257611b548183612c2f565b96909290836142e9565b5073ffffffffffffffffffffffffffffffffffffffff7f0000000000000000000000000000000000000000000000000000000000000000166144b78115156132a2565b6040517ef714ce0000000000000000000000000000000000000000000000000000000081526004810184905230602482015290602090829060449082908a905af18015610a395761450b575b5060016141d5565b6020813d602011614532575b8161452460209383612c2f565b81010312612abf5751614503565b3d9150614517565b5083925050565b61454a81615008565b73ffffffffffffffffffffffffffffffffffffffff7f0000000000000000000000000000000000000000000000000000000000000000168015614629576145fd60209173ffffffffffffffffffffffffffffffffffffffff60009416845283835260408420546145bb811515613175565b6040517ef714ce000000000000000000000000000000000000000000000000000000008152600481019190915230602482015293849283919082906044820190565b03925af180156130655761460e5750565b6146269060203d602011613936576139278183612c2f565b50565b5050565b9291909161463a84615008565b73ffffffffffffffffffffffffffffffffffffffff8416928360005260006020526040600020549261466d841515613175565b614679610f438561575d565b614681613bad565b9173ffffffffffffffffffffffffffffffffffffffff8216966040517f70a082310000000000000000000000000000000000000000000000000000000081528160048201526020816024818c5afa90811561306557600091614b3f575b5073ffffffffffffffffffffffffffffffffffffffff851695604051927f70a0823100000000000000000000000000000000000000000000000000000000845260048401526020836024818a5afa92831561306557600093614b0b575b5080614af45750915b80614add5750905b80614acb575b5080614ab9575b50604051907f70a082310000000000000000000000000000000000000000000000000000000082523060048301526020826024818a5afa91821561306557600092614a85575b50604051927f70a08231000000000000000000000000000000000000000000000000000000008452306004850152602084602481885afa93841561306557600094614a51575b50821580614a49575b614a3857838392614826926122a97f000000000000000000000000000000000000000000000000000000000000000095868094615084565b610384420195864211612c9c5773ffffffffffffffffffffffffffffffffffffffff966060946148eb946040519361485d85612c13565b8452602084015260408301526000858301526000608083015260a082015260006040519788809581947f219f5d170000000000000000000000000000000000000000000000000000000083526004830191909160a08060c083019480518452602081015160208501526040810151604085015260608101516060850152608081015160808501520151910152565b0393165af193841561306557600094600094600091614a0f575b50939495604051917f70a08231000000000000000000000000000000000000000000000000000000008352306004840152602083602481845afa928315613065576000936149db575b50604051927f70a08231000000000000000000000000000000000000000000000000000000008452306004850152602084602481885afa938415613065576000946149a757508281613629575050508161361e57505050565b90936020823d6020116149d3575b816149c260209383612c2f565b8101031261019d5750519238613609565b3d91506149b5565b90926020823d602011614a07575b816149f660209383612c2f565b8101031261019d575051913861494e565b3d91506149e9565b91955050614a2d91935060603d606011610aad57610a998183612c2f565b939194909338614905565b506000975087965086955050505050565b5083156147ee565b90936020823d602011614a7d575b81614a6c60209383612c2f565b8101031261019d57505192386147e5565b3d9150614a5f565b90916020823d602011614ab1575b81614aa060209383612c2f565b8101031261019d575051903861479f565b3d9150614a93565b614ac59030898661525d565b38614759565b614ad790308a8a61525d565b38614752565b80821015614aed57505b9061474c565b9050614ae7565b80821015614b0457505b91614744565b9050614afe565b90926020823d602011614b37575b81614b2660209383612c2f565b8101031261019d575051913861473b565b3d9150614b19565b906020823d602011614b69575b81614b5960209383612c2f565b8101031261019d575051386146de565b3d9150614b4c565b614b7a81615008565b7f000000000000000000000000000000000000000000000000000000000000000060009173ffffffffffffffffffffffffffffffffffffffff821615614c9d5773ffffffffffffffffffffffffffffffffffffffff16825281602052604082205490614be7821515613175565b73ffffffffffffffffffffffffffffffffffffffff7f00000000000000000000000000000000000000000000000000000000000000001690813b156109ea576040517f42842e0e00000000000000000000000000000000000000000000000000000000815230600482015273ffffffffffffffffffffffffffffffffffffffff919091166024820152604481019290925282908290606490829084905af1801561090f57614c93575050565b8161462691612c2f565b505050565b614cab81615008565b73ffffffffffffffffffffffffffffffffffffffff7f0000000000000000000000000000000000000000000000000000000000000000169081156146295773ffffffffffffffffffffffffffffffffffffffff811660005260006020526040600020548015614c9d576040517f18fccc760000000000000000000000000000000000000000000000000000000081526004810182905273ffffffffffffffffffffffffffffffffffffffff831660248201526020816044816000885af19081614fd9575b50614c9d576000926000916040517f4ca6ef28000000000000000000000000000000000000000000000000000000008152602081600481865afa60009181614f9d575b50614ef3575b506040517f18fccc76000000000000000000000000000000000000000000000000000000008152600481019190915230602482015290602090829081600081604481015b03925af19081614ec4575b50614e1157505050565b73ffffffffffffffffffffffffffffffffffffffff169182614e3257505050565b604051907f70a08231000000000000000000000000000000000000000000000000000000008252306004830152602082602481875afa801561306557600090614e90575b614e809250612d32565b908115614c9d576136279261533a565b506020823d602011614ebc575b81614eaa60209383612c2f565b81010312610a2c57614e809151614e76565b3d9150614e9d565b6020813d602011614eeb575b81614edd60209383612c2f565b81010312610a2c5751614e07565b3d9150614ed0565b925073ffffffffffffffffffffffffffffffffffffffff83168015614db857602492919550602090604051938480927f70a082310000000000000000000000000000000000000000000000000000000082523060048301525afa91821561306557600092614f67575b509093614dfc614db8565b91506020823d602011614f95575b81614f8260209383612c2f565b81010312610a2c57905190614dfc614f5c565b3d9150614f75565b9091506020813d602011614fd1575b81614fb960209383612c2f565b81010312610a2c57614fca90612d11565b9038614db2565b3d9150614fac565b6020813d602011615000575b81614ff260209383612c2f565b81010312610a2c5751614d6f565b3d9150614fe5565b73ffffffffffffffffffffffffffffffffffffffff16330361502657565b60646040517f08c379a000000000000000000000000000000000000000000000000000000000815260206004820152601c60248201527f50616e63616b655633416461707465723a206f6e6c79207661756c74000000006044820152fd5b8215614c9d576040517fdd62ed3e00000000000000000000000000000000000000000000000000000000815230600482015273ffffffffffffffffffffffffffffffffffffffff8381166024830152919091169290602081604481875afa9081156130655760009161522b575b50106150fb575050565b61510760008284615840565b156151de575b6151387fffffffffffffffffffffffffffffffffffffffffffffffffffffffffffffffff8284615840565b15615141575050565b61514b81836158bb565b156151b0577fffffffffffffffffffffffffffffffffffffffffffffffffffffffffffffffff61517b9183615946565b156151835750565b7f5274afe70000000000000000000000000000000000000000000000000000000060005260045260246000fd5b507f5274afe70000000000000000000000000000000000000000000000000000000060005260045260246000fd5b6151e881836158bb565b156151b0576151f960008284615946565b61510d57507f5274afe70000000000000000000000000000000000000000000000000000000060005260045260246000fd5b90506020813d602011615255575b8161524660209383612c2f565b81010312610a2c5751386150f1565b3d9150615239565b92916020919273ffffffffffffffffffffffffffffffffffffffff60009281604051967f23b872dd000000000000000000000000000000000000000000000000000000008652166004521660245260445260648180865af190600160005114821615615318575b6040526000606052156152d45750565b73ffffffffffffffffffffffffffffffffffffffff907f5274afe7000000000000000000000000000000000000000000000000000000006000521660045260246000fd5b90600181151661533057823b15153d151616906152c4565b503d6000823e3d90fd5b9160209060009073ffffffffffffffffffffffffffffffffffffffff604051947fa9059cbb0000000000000000000000000000000000000000000000000000000084521660045260245260448180865af1906001600051148216156153a5575b604052156152d45750565b90600181151661533057823b15153d1516169061539a565b92909260009083156157555773ffffffffffffffffffffffffffffffffffffffff811694604051947fc415b95c0000000000000000000000000000000000000000000000000000000086526020866004818a5afa95861561168f578496615714575b50602060049697604051978880927f492f4e180000000000000000000000000000000000000000000000000000000082525afa95861561168f5784966156e0575b50839573ffffffffffffffffffffffffffffffffffffffff88168015159788615651575b61ffff168061563a575085915b869984998415159081615632575b5061557d575b5050505050846154b457505050565b73ffffffffffffffffffffffffffffffffffffffff7f00000000000000000000000000000000000000000000000000000000000000006154f5878285615084565b1691823b156109ea576040517fb3db428b00000000000000000000000000000000000000000000000000000000815273ffffffffffffffffffffffffffffffffffffffff918216600482015291166024820152604481018590529082908290606490829084905af1801561090f5761556b575050565b615576828092612c2f565b61019d5750565b61559192949a508584969a50939193615084565b813b1561091a5784916064839260405194859384927ffc8e3896000000000000000000000000000000000000000000000000000000008452600484015273ffffffffffffffffffffffffffffffffffffffff8c1660248401528760448401525af1908161561e575b5061560d57508194935b38808080806154a5565b806156189196612d32565b93615603565b8461562b91959295612c2f565b92386155f9565b90503861549f565b808402908482040361411357612710900491615491565b506040517f35659fb8000000000000000000000000000000000000000000000000000000008152602081600481855afa8791816156a4575b5061569b575061ffff865b9050615484565b61ffff90615694565b9091506020813d6020116156d8575b816156c060209383612c2f565b8101031261082a576156d190613293565b9038615689565b3d91506156b3565b9095506020813d60201161570c575b816156fc60209383612c2f565b810103126109ea57519438615460565b3d91506156ef565b9695506020873d60201161574d575b8161573060209383612c2f565b810103126109ea57602061574660049798612d11565b965061541f565b3d9150615723565b509250829150565b801561583a57604051907f6352211e000000000000000000000000000000000000000000000000000000008252600482015260208160248173ffffffffffffffffffffffffffffffffffffffff7f0000000000000000000000000000000000000000000000000000000000000000165afa600091816157fe575b506157e25750600090565b73ffffffffffffffffffffffffffffffffffffffff1630141590565b9091506020813d602011615832575b8161581a60209383612c2f565b81010312610a2c5761582b90612d11565b90386157d7565b3d915061580d565b50600090565b92919260009373ffffffffffffffffffffffffffffffffffffffff604051937f095ea7b30000000000000000000000000000000000000000000000000000000087521660045260245260208460448180855af19360018151148516156158a8575b5050604052565b939193503b15153d1516169138806158a1565b919073ffffffffffffffffffffffffffffffffffffffff604051917f095ea7b3000000000000000000000000000000000000000000000000000000006000521660045260006024526020600060448180875af192600160005114841615615923575b50604052565b6001849294151661593c573b15153d151616913861591d565b833d6000823e3d90fd5b929173ffffffffffffffffffffffffffffffffffffffff604051927f095ea7b300000000000000000000000000000000000000000000000000000000600052166004526024526020600060448180875af192600160005114841615615923575060405256fea2646970667358221220dbc31753938d00c55365ea91a764b4814631dccd2e3ad36ccca911a48c2ac35064736f6c634300081e0033","linkReferences":{}},"methodIdentifiers":{"claimRewards(address)":"ef5cfb8c","collectToVault(address)":"762100e7","currentRange(address)":"270d3136","currentTokenId(address)":"86ff5c4b","exitPositionToVault(address)":"b0217240","exitPositionToVaultAndHarvestFeesToBuffer(address)":"47f1aac2","feeBuffer()":"a00622dc","gauge()":"a6f19c84","harvestGaugeRewardsToBuffer(address)":"17268844","harvestPoolFeesToBuffer(address)":"b89b1f47","increaseLiquidityFromVault(address,uint256,uint256,uint256,uint256)":"af52b2f9","increaseLiquidityWithCaps(address,uint256,uint256)":"de959d16","lastCompound(address)":"a26d6dd5","lastHarvest(address)":"486b9f88","lastRebalance(address)":"fdd0fd2d","nfpm()":"7303e913","onERC721Received(address,address,uint256,bytes)":"150b7a02","openInitialPosition(address,int24,int24)":"109162ef","pool()":"16f0115b","rebalanceWithCaps(address,int24,int24,uint256,uint256)":"6783ac17","slot0()":"3850c7bd","stakePosition(address)":"e4010503","sweepAdapterTokenToBuffer(address,address,uint256)":"0c7d47fe","tickSpacing()":"d0c93a7c","tokens()":"9d63848a","unstakePosition(address)":"dcfc070b"},"id":60}