{"abi":[{"type":"constructor","inputs":[{"name":"_pool","type":"address","internalType":"address"},{"name":"_nfpm","type":"address","internalType":"address"},{"name":"_masterChefV3","type":"address","internalType":"address"},{"name":"_feeBuffer","type":"address","internalType":"address"}],"stateMutability":"nonpayable"},{"type":"function","name":"claimRewards","inputs":[{"name":"vault","type":"address","internalType":"address"}],"outputs":[],"stateMutability":"nonpayable"},{"type":"function","name":"collectToVault","inputs":[{"name":"vault","type":"address","internalType":"address"}],"outputs":[{"name":"amount0","type":"uint256","internalType":"uint256"},{"name":"amount1","type":"uint256","internalType":"uint256"}],"stateMutability":"nonpayable"},{"type":"function","name":"currentRange","inputs":[{"name":"vault","type":"address","internalType":"address"}],"outputs":[{"name":"lower","type":"int24","internalType":"int24"},{"name":"upper","type":"int24","internalType":"int24"},{"name":"liquidity","type":"uint128","internalType":"uint128"}],"stateMutability":"view"},{"type":"function","name":"currentTokenId","inputs":[{"name":"vault","type":"address","internalType":"address"}],"outputs":[{"name":"","type":"uint256","internalType":"uint256"}],"stateMutability":"view"},{"type":"function","name":"exitPositionToVault","inputs":[{"name":"vault","type":"address","internalType":"address"}],"outputs":[],"stateMutability":"nonpayable"},{"type":"function","name":"exitPositionToVaultAndHarvestFeesToBuffer","inputs":[{"name":"vault","type":"address","internalType":"address"}],"outputs":[],"stateMutability":"nonpayable"},{"type":"function","name":"feeBuffer","inputs":[],"outputs":[{"name":"","type":"address","internalType":"address"}],"stateMutability":"view"},{"type":"function","name":"gauge","inputs":[],"outputs":[{"name":"","type":"address","internalType":"address"}],"stateMutability":"view"},{"type":"function","name":"gaugeRewardToken","inputs":[],"outputs":[{"name":"","type":"address","internalType":"address"}],"stateMutability":"view"},{"type":"function","name":"harvestGaugeRewardsToBuffer","inputs":[{"name":"vault","type":"address","internalType":"address"}],"outputs":[{"name":"rewardToken","type":"address","internalType":"address"},{"name":"grossReward","type":"uint256","internalType":"uint256"}],"stateMutability":"nonpayable"},{"type":"function","name":"harvestPoolFeesToBuffer","inputs":[{"name":"vault","type":"address","internalType":"address"}],"outputs":[{"name":"gross0","type":"uint256","internalType":"uint256"},{"name":"gross1","type":"uint256","internalType":"uint256"}],"stateMutability":"nonpayable"},{"type":"function","name":"increaseLiquidityFromVault","inputs":[{"name":"vault","type":"address","internalType":"address"},{"name":"amount0Desired","type":"uint256","internalType":"uint256"},{"name":"amount1Desired","type":"uint256","internalType":"uint256"},{"name":"amount0Min","type":"uint256","internalType":"uint256"},{"name":"amount1Min","type":"uint256","internalType":"uint256"}],"outputs":[{"name":"liquidityAdded","type":"uint128","internalType":"uint128"},{"name":"used0","type":"uint256","internalType":"uint256"},{"name":"used1","type":"uint256","internalType":"uint256"}],"stateMutability":"nonpayable"},{"type":"function","name":"increaseLiquidityWithCaps","inputs":[{"name":"vault","type":"address","internalType":"address"},{"name":"cap0","type":"uint256","internalType":"uint256"},{"name":"cap1","type":"uint256","internalType":"uint256"}],"outputs":[{"name":"addedLiquidity","type":"uint128","internalType":"uint128"},{"name":"used0","type":"uint256","internalType":"uint256"},{"name":"used1","type":"uint256","internalType":"uint256"}],"stateMutability":"nonpayable"},{"type":"function","name":"lastCompound","inputs":[{"name":"","type":"address","internalType":"address"}],"outputs":[{"name":"","type":"uint256","internalType":"uint256"}],"stateMutability":"view"},{"type":"function","name":"lastHarvest","inputs":[{"name":"","type":"address","internalType":"address"}],"outputs":[{"name":"","type":"uint256","internalType":"uint256"}],"stateMutability":"view"},{"type":"function","name":"lastRebalance","inputs":[{"name":"","type":"address","internalType":"address"}],"outputs":[{"name":"","type":"uint256","internalType":"uint256"}],"stateMutability":"view"},{"type":"function","name":"nfpm","inputs":[],"outputs":[{"name":"","type":"address","internalType":"address"}],"stateMutability":"view"},{"type":"function","name":"onERC721Received","inputs":[{"name":"","type":"address","internalType":"address"},{"name":"","type":"address","internalType":"address"},{"name":"","type":"uint256","internalType":"uint256"},{"name":"","type":"bytes","internalType":"bytes"}],"outputs":[{"name":"","type":"bytes4","internalType":"bytes4"}],"stateMutability":"pure"},{"type":"function","name":"openInitialPosition","inputs":[{"name":"vault","type":"address","internalType":"address"},{"name":"tickLower","type":"int24","internalType":"int24"},{"name":"tickUpper","type":"int24","internalType":"int24"}],"outputs":[{"name":"tokenId","type":"uint256","internalType":"uint256"},{"name":"liquidity","type":"uint128","internalType":"uint128"}],"stateMutability":"nonpayable"},{"type":"function","name":"pool","inputs":[],"outputs":[{"name":"","type":"address","internalType":"address"}],"stateMutability":"view"},{"type":"function","name":"rebalanceWithCaps","inputs":[{"name":"vault","type":"address","internalType":"address"},{"name":"tickLower","type":"int24","internalType":"int24"},{"name":"tickUpper","type":"int24","internalType":"int24"},{"name":"cap0","type":"uint256","internalType":"uint256"},{"name":"cap1","type":"uint256","internalType":"uint256"}],"outputs":[{"name":"newLiquidity","type":"uint128","internalType":"uint128"}],"stateMutability":"nonpayable"},{"type":"function","name":"slot0","inputs":[],"outputs":[{"name":"sqrtPriceX96","type":"uint160","internalType":"uint160"},{"name":"tick","type":"int24","internalType":"int24"}],"stateMutability":"view"},{"type":"function","name":"stakePosition","inputs":[{"name":"vault","type":"address","internalType":"address"}],"outputs":[],"stateMutability":"nonpayable"},{"type":"function","name":"sweepAdapterTokenToBuffer","inputs":[{"name":"vault","type":"address","internalType":"address"},{"name":"token","type":"address","internalType":"address"},{"name":"amount","type":"uint256","internalType":"uint256"}],"outputs":[],"stateMutability":"nonpayable"},{"type":"function","name":"tickSpacing","inputs":[],"outputs":[{"name":"","type":"int24","internalType":"int24"}],"stateMutability":"view"},{"type":"function","name":"tokens","inputs":[],"outputs":[{"name":"token0","type":"address","internalType":"address"},{"name":"token1","type":"address","internalType":"address"}],"stateMutability":"view"},{"type":"function","name":"unstakePosition","inputs":[{"name":"vault","type":"address","internalType":"address"}],"outputs":[],"stateMutability":"nonpayable"},{"type":"event","name":"CompoundedFromBuffer","inputs":[{"name":"vault","type":"address","indexed":true,"internalType":"address"},{"name":"tokenId","type":"uint256","indexed":true,"internalType":"uint256"},{"name":"amount0Desired","type":"uint256","indexed":false,"internalType":"uint256"},{"name":"amount1Desired","type":"uint256","indexed":false,"internalType":"uint256"},{"name":"amount0Used","type":"uint256","indexed":false,"internalType":"uint256"},{"name":"amount1Used","type":"uint256","indexed":false,"internalType":"uint256"},{"name":"liquidityAdded","type":"uint128","indexed":false,"internalType":"uint128"}],"anonymous":false},{"type":"event","name":"GaugeRewardsHarvestedToBuffer","inputs":[{"name":"vault","type":"address","indexed":true,"internalType":"address"},{"name":"tokenId","type":"uint256","indexed":true,"internalType":"uint256"},{"name":"rewardToken","type":"address","indexed":true,"internalType":"address"},{"name":"gross","type":"uint256","indexed":false,"internalType":"uint256"},{"name":"protocolFee","type":"uint256","indexed":false,"internalType":"uint256"},{"name":"net","type":"uint256","indexed":false,"internalType":"uint256"}],"anonymous":false},{"type":"event","name":"PoolFeesHarvestedToBuffer","inputs":[{"name":"vault","type":"address","indexed":true,"internalType":"address"},{"name":"tokenId","type":"uint256","indexed":true,"internalType":"uint256"},{"name":"gross0","type":"uint256","indexed":false,"internalType":"uint256"},{"name":"gross1","type":"uint256","indexed":false,"internalType":"uint256"},{"name":"protocol0","type":"uint256","indexed":false,"internalType":"uint256"},{"name":"protocol1","type":"uint256","indexed":false,"internalType":"uint256"},{"name":"net0","type":"uint256","indexed":false,"internalType":"uint256"},{"name":"net1","type":"uint256","indexed":false,"internalType":"uint256"}],"anonymous":false},{"type":"event","name":"SweptToBuffer","inputs":[{"name":"vault","type":"address","indexed":true,"internalType":"address"},{"name":"token","type":"address","indexed":true,"internalType":"address"},{"name":"amount","type":"uint256","indexed":false,"internalType":"uint256"}],"anonymous":false},{"type":"error","name":"SafeERC20FailedOperation","inputs":[{"name":"token","type":"address","internalType":"address"}]}],"bytecode":{"object":"0x61012080604052346102f8576080816160a0803803809161002082856102fd565b8339810103126102f85761003381610336565b61003f60208301610336565b610057606061005060408601610336565b9401610336565b916001600160a01b0381161515806102e6575b156102a1576001600160a01b0383161561025c5760805260a05260c082905260e0526000906001600160a01b0316806101e3575b5061010052604051615d55908161034b8239608051818181610360015281816113ea01528181611e2d01528181612136015281816124500152613c46015260a05181818161052d01528181610f760152818161104f015281816113560152818161138101528181611fe4015281816123df0152818161330101528181613b6701528181613dda0152818161427401528181614a6001528181614e600152615780015260c0518181816107c801528181610b3e01528181610d3101528181612e750152818161380d0152818161442b01528181614510015281816146ca01528181614dde0152614f27015260e0518181816108610152818161094201528181610e0301528181612a480152615922015261010051818181610b970152818161224d01528181612eca01528181613852015281816145530152818161473a01526156240152f35b90602060049260405193848092630994dde560e31b82525afa9091828261021a575b5050610215575060005b3861009e565b61020f565b909192506020823d602011610254575b81610237602093836102fd565b81010312610251575061024990610336565b903880610205565b80fd5b3d915061022a565b60405162461bcd60e51b815260206004820152601d60248201527f50616e63616b655633416461707465723a206665654275666665723d300000006044820152606490fd5b60405162461bcd60e51b815260206004820152601e60248201527f50616e63616b655633416461707465723a207a65726f206164647265737300006044820152606490fd5b506001600160a01b038216151561006a565b600080fd5b601f909101601f19168101906001600160401b0382119082101761032057604052565b634e487b7160e01b600052604160045260246000fd5b51906001600160a01b03821682036102f85756fe6080604052600436101561001257600080fd5b6000803560e01c80630c7d47fe14612967578063109162ef1461227157806310bb73ed14612202578063150b7a021461215a57806316f0115b146120eb5780631726884414612087578063270d313614611f365780633850c7bd14611dbb57806347f1aac214611d7b578063486b9f8814611d185780636783ac1714610f9a5780637303e91314610f2b578063762100e714610ee957806386ff5c4b14610e875780639d63848a14610e27578063a00622dc14610db8578063a26d6dd514610d55578063a6f19c8414610ce6578063af52b2f914610475578063b021724014610435578063b89b1f47146103e7578063d0c93a7c146102ed578063dcfc070b146102ad578063de959d161461022e578063e4010503146101ee578063ef5cfb8c146101ab5763fdd0fd2d1461014657600080fd5b346101a85760207ffffffffffffffffffffffffffffffffffffffffffffffffffffffffffffffffc3601126101a857604060209173ffffffffffffffffffffffffffffffffffffffff610197612c7c565b168152600183522054604051908152f35b80fd5b50346101a85760207ffffffffffffffffffffffffffffffffffffffffffffffffffffffffffffffffc3601126101a8576101eb6101e6612c7c565b614f07565b80f35b50346101a85760207ffffffffffffffffffffffffffffffffffffffffffffffffffffffffffffffffc3601126101a8576101eb610229612c7c565b614dd3565b50346101a85760607ffffffffffffffffffffffffffffffffffffffffffffffffffffffffffffffffc3601126101a8576102a961027961026c612c7c565b604435906024359061488f565b604080516fffffffffffffffffffffffffffffffff90941684526020840192909252908201529081906060820190565b0390f35b50346101a85760207ffffffffffffffffffffffffffffffffffffffffffffffffffffffffffffffffc3601126101a8576101eb6102e8612c7c565b6146aa565b50346101a857807ffffffffffffffffffffffffffffffffffffffffffffffffffffffffffffffffc3601126101a857604051907fd0c93a7c00000000000000000000000000000000000000000000000000000000825260208260048173ffffffffffffffffffffffffffffffffffffffff7f0000000000000000000000000000000000000000000000000000000000000000165afa9081156103db57809161039e575b6020826040519060020b8152f35b90506020823d6020116103d3575b816103b960209383612d82565b810103126101a857506103cd60209161315e565b38610390565b3d91506103ac565b604051903d90823e3d90fd5b50346101a85760207ffffffffffffffffffffffffffffffffffffffffffffffffffffffffffffffffc3601126101a8576040610429610424612c7c565b614212565b82519182526020820152f35b50346101a85760207ffffffffffffffffffffffffffffffffffffffffffffffffffffffffffffffffc3601126101a8576101eb610470612c7c565b613d7f565b50346101a85760a07ffffffffffffffffffffffffffffffffffffffffffffffffffffffffffffffffc3601126101a8576104ad612c7c565b90602435604435926104be8161526d565b73ffffffffffffffffffffffffffffffffffffffff8116808452836020526040842054906104ed8215156130d8565b8493856104f984615731565b610b3c575b50610507613c2f565b97909582610b15575b81610aee575b73ffffffffffffffffffffffffffffffffffffffff7f000000000000000000000000000000000000000000000000000000000000000061055785828b6152e9565b61056284828d6152e9565b16906103844201804211610ac15798809a60606106159b6040519061058682612d66565b8a825288602083015287604083015260643583830152608435608083015260a0820152604051809d81927f219f5d170000000000000000000000000000000000000000000000000000000083526004830191909160a08060c083019480518452602081015160208501526040810151604085015260608101516060850152608081015160808501520151910152565b038185885af198891561091c57829a839c849b610a86575b506040517f70a0823100000000000000000000000000000000000000000000000000000000815230600482015260208160248173ffffffffffffffffffffffffffffffffffffffff86165afa9081156109fb578591610a51575b50604051917f70a0823100000000000000000000000000000000000000000000000000000000835230600484015260208360248173ffffffffffffffffffffffffffffffffffffffff89165afa928315610a46578693610a0a575b508161092b575b50508061084a575b50505050610793575b507ff03a5d00d8dfa5218d1f2e308480a84e1ef34e8e836f5351726b694e74dcc7309160a09189856102a9999a9b52600360205260404291205560405191825260208201528860408201528560608201526fffffffffffffffffffffffffffffffff88166080820152a3604051938493846040919493926fffffffffffffffffffffffffffffffff606083019616825260208201520152565b803b15610846576040517f42842e0e0000000000000000000000000000000000000000000000000000000081523060048201527f000000000000000000000000000000000000000000000000000000000000000073ffffffffffffffffffffffffffffffffffffffff166024820152604481018690529089908290606490829084905af1801561083b57156106fa5761082d898092612d82565b61083757386106fa565b8780fd5b6040513d8b823e3d90fd5b8880fd5b73ffffffffffffffffffffffffffffffffffffffff7f000000000000000000000000000000000000000000000000000000000000000061088b8382876152e9565b16803b15610927576040517fb3db428b00000000000000000000000000000000000000000000000000000000815273ffffffffffffffffffffffffffffffffffffffff9384166004820152939092166024840152604483015282908290606490829084905af1801561091c57610903575b80806106f1565b8161090d91612d82565b6109185789386108fc565b8980fd5b6040513d84823e3d90fd5b8480fd5b73ffffffffffffffffffffffffffffffffffffffff7f000000000000000000000000000000000000000000000000000000000000000061096c8482856152e9565b1691823b15610a06576040517fb3db428b00000000000000000000000000000000000000000000000000000000815273ffffffffffffffffffffffffffffffffffffffff868116600483015292909216602483015260448201529085908290606490829084905af19081156109fb578591156106e957816109ec91612d82565b6109f75783386106e9565b8380fd5b6040513d87823e3d90fd5b8680fd5b955091506020853d602011610a3e575b81610a2760209383612d82565b81010312610a39578e945191386106e2565b600080fd5b3d9150610a1a565b6040513d88823e3d90fd5b9450506020843d602011610a7e575b81610a6d60209383612d82565b81010312610a39578d935138610687565b3d9150610a60565b919b509950610aae919b5060603d606011610aba575b610aa68183612d82565b810190613d5d565b9b919a909b993861062d565b503d610a9c565b60248a7f4e487b710000000000000000000000000000000000000000000000000000000081526011600452fd5b610b1082308873ffffffffffffffffffffffffffffffffffffffff8d166154c2565b610516565b610b3783308873ffffffffffffffffffffffffffffffffffffffff8b166154c2565b610510565b7f000000000000000000000000000000000000000000000000000000000000000073ffffffffffffffffffffffffffffffffffffffff169550610b80861515613226565b73ffffffffffffffffffffffffffffffffffffffff7f000000000000000000000000000000000000000000000000000000000000000016958615159687610c64575b506040517ef714ce0000000000000000000000000000000000000000000000000000000081526004810186905230602482015290602090829060449082908c905af18015610c5957610c2a575b50600195156104fe57610c229085615622565b5050506104fe565b6020813d602011610c51575b81610c4360209383612d82565b81010312610a395751610c0f565b3d9150610c36565b6040513d8a823e3d90fd5b6024919250602090604051928380927f70a082310000000000000000000000000000000000000000000000000000000082523060048301525afa908115610c59578891610cb4575b509038610bc2565b90506020813d602011610cde575b81610ccf60209383612d82565b81010312610a39575138610cac565b3d9150610cc2565b50346101a857807ffffffffffffffffffffffffffffffffffffffffffffffffffffffffffffffffc3601126101a857602060405173ffffffffffffffffffffffffffffffffffffffff7f0000000000000000000000000000000000000000000000000000000000000000168152f35b50346101a85760207ffffffffffffffffffffffffffffffffffffffffffffffffffffffffffffffffc3601126101a857604060209173ffffffffffffffffffffffffffffffffffffffff610da7612c7c565b168152600383522054604051908152f35b50346101a857807ffffffffffffffffffffffffffffffffffffffffffffffffffffffffffffffffc3601126101a857602060405173ffffffffffffffffffffffffffffffffffffffff7f0000000000000000000000000000000000000000000000000000000000000000168152f35b50346101a857807ffffffffffffffffffffffffffffffffffffffffffffffffffffffffffffffffc3601126101a857610e5e613c2f565b6040805173ffffffffffffffffffffffffffffffffffffffff9384168152919092166020820152f35b50346101a85760207ffffffffffffffffffffffffffffffffffffffffffffffffffffffffffffffffc3601126101a857604060209173ffffffffffffffffffffffffffffffffffffffff610ed9612c7c565b1681528083522054604051908152f35b50346101a85760207ffffffffffffffffffffffffffffffffffffffffffffffffffffffffffffffffc3601126101a8576040610429610f26612c7c565b613a51565b50346101a857807ffffffffffffffffffffffffffffffffffffffffffffffffffffffffffffffffc3601126101a857602060405173ffffffffffffffffffffffffffffffffffffffff7f0000000000000000000000000000000000000000000000000000000000000000168152f35b50346101a85760a07ffffffffffffffffffffffffffffffffffffffffffffffffffffffffffffffffc3601126101a857611132610fd5612c7c565b91610fde612cc2565b92610fe7612cd2565b9360643590608435610ff88461526d565b73ffffffffffffffffffffffffffffffffffffffff84168552846020526040852054966110268815156130d8565b61103861103289615731565b156139b9565b73ffffffffffffffffffffffffffffffffffffffff7f000000000000000000000000000000000000000000000000000000000000000016936040805161107d81612d2e565b8a81523060208201526fffffffffffffffffffffffffffffffff828201526fffffffffffffffffffffffffffffffff60608201528151809a81927ffc6f78650000000000000000000000000000000000000000000000000000000083526004830191909160606fffffffffffffffffffffffffffffffff8160808401958051855273ffffffffffffffffffffffffffffffffffffffff6020820151166020860152826040820151166040860152015116910152565b03818a895af1988915611d0d578798889a611cde575b5061116e6111659798999a61115b613c2f565b99909c8d8c615814565b5050888a615814565b50506040517f99fbab88000000000000000000000000000000000000000000000000000000008152816004820152610180816024818a5afa908115611a4857906fffffffffffffffffffffffffffffffff918b91611ca3575b501680611a9c575b50853b1561084657604051907f42966c6800000000000000000000000000000000000000000000000000000000825260048201528881602481838a5af1801561083b57908991611a87575b50509073ffffffffffffffffffffffffffffffffffffffff9182881689528860205288604081205560208a6024604051809681937f70a08231000000000000000000000000000000000000000000000000000000008352306004840152165afa92831561083b578993611a53575b50604051907f70a0823100000000000000000000000000000000000000000000000000000000825230600483015260208260248173ffffffffffffffffffffffffffffffffffffffff8c165afa918215611a48578a92611a14575b5080611a0e57507fffffffffffffffffffffffffffffffffffffffffffffffffffffffffffffffff935b80611a0957507fffffffffffffffffffffffffffffffffffffffffffffffffffffffffffffffff5b838b8a849783811161190e575b50505050818111611806575b505061137b827f00000000000000000000000000000000000000000000000000000000000000008b6152e9565b6113a6837f0000000000000000000000000000000000000000000000000000000000000000886152e9565b604051937fddca3f4300000000000000000000000000000000000000000000000000000000855260208560048173ffffffffffffffffffffffffffffffffffffffff7f0000000000000000000000000000000000000000000000000000000000000000165afa94851561083b5789956117ca575b50610384420194854211610ac1579389989796938b936080979362ffffff6115a99873ffffffffffffffffffffffffffffffffffffffff6040519861145e8a612ce2565b16885273ffffffffffffffffffffffffffffffffffffffff8c16602089015216604087015260020b606086015260020b8785015260a084015260c08301528760e083015287610100830152306101208301526101408201526040519788809481937f88316456000000000000000000000000000000000000000000000000000000008352600483019190916101408061016083019473ffffffffffffffffffffffffffffffffffffffff815116845273ffffffffffffffffffffffffffffffffffffffff602082015116602085015262ffffff6040820151166040850152606081015160020b6060850152608081015160020b608085015260a081015160a085015260c081015160c085015260e081015160e085015261010081015161010085015273ffffffffffffffffffffffffffffffffffffffff610120820151166101208501520151910152565b03925af19384156117bf5783908495611789575b5073ffffffffffffffffffffffffffffffffffffffff831684528360205260408420556040517f70a0823100000000000000000000000000000000000000000000000000000000815230600482015260208160248173ffffffffffffffffffffffffffffffffffffffff8a165afa90811561177e57849161174c575b50604051907f70a0823100000000000000000000000000000000000000000000000000000000825230600483015260208260248173ffffffffffffffffffffffffffffffffffffffff87165afa9182156109fb578592611711575b5090602096828573ffffffffffffffffffffffffffffffffffffffff9695946116fe575b915050816116eb575b505050168152600183526040429120556fffffffffffffffffffffffffffffffff60405191168152f35b846116f6931661559f565b3880826116c1565b86611709931661559f565b3880846116b8565b939291506020843d602011611744575b8161172e60209383612d82565b81010312610a3957925191929091906020611694565b3d9150611721565b90506020813d602011611776575b8161176760209383612d82565b81010312610a39575138611639565b3d915061175a565b6040513d86823e3d90fd5b90506117ae91945060803d6080116117b8575b6117a68183612d82565b810190612e2c565b50509390386115bd565b503d61179c565b6040513d85823e3d90fd5b9094506020813d6020116117fe575b816117e660209383612d82565b81010312610846576117f790612dc3565b933861141a565b3d91506117d9565b8161181091613a44565b604051907f70a0823100000000000000000000000000000000000000000000000000000000825273ffffffffffffffffffffffffffffffffffffffff8a16600483015260208260248173ffffffffffffffffffffffffffffffffffffffff8d165afa918215611903578b926118cf575b50818111156118c75750905b811561134e576118bf9294506118ba82308b73ffffffffffffffffffffffffffffffffffffffff8c166154c2565b612dd3565b91388061134e565b90509061188c565b9091506020813d6020116118fb575b816118eb60209383612d82565b81010312610a3957519038611880565b3d91506118de565b6040513d8d823e3d90fd5b73ffffffffffffffffffffffffffffffffffffffff602461193186602094613a44565b938260405196879485937f70a08231000000000000000000000000000000000000000000000000000000008552166004840152165afa9182156119fe578d926119ca575b50818111156119c25750905b8c82611990575b908b90611342565b6119b9939650826118ba918d73ffffffffffffffffffffffffffffffffffffffff3092166154c2565b9238808c611988565b905090611981565b9091506020813d6020116119f6575b816119e660209383612d82565b81010312610a3957519038611975565b3d91506119d9565b6040513d8f823e3d90fd5b611335565b9361130d565b9091506020813d602011611a40575b81611a3060209383612d82565b81010312610a39575190386112e3565b3d9150611a23565b6040513d8c823e3d90fd5b9092506020813d602011611a7f575b81611a6f60209383612d82565b81010312610a3957519138611288565b3d9150611a62565b81611a9191612d82565b61083757873861121a565b6103844201804211611c7657611b4291604091825191611abb83612d4a565b858352602083019081528383018e9052606083018e81526080840192835284517f0c49ccbe0000000000000000000000000000000000000000000000000000000081528451600482015291516fffffffffffffffffffffffffffffffff166024830152604090930151604482015291516064830152516084820152918290819060a4820190565b03818d8b5af18015611a4857611c58575b50611c1960408051611b6481612d2e565b8381523060208201526fffffffffffffffffffffffffffffffff828201526fffffffffffffffffffffffffffffffff60608201528151809381927ffc6f78650000000000000000000000000000000000000000000000000000000083526004830191909160606fffffffffffffffffffffffffffffffff8160808401958051855273ffffffffffffffffffffffffffffffffffffffff6020820151166020860152826040820151166040860152015116910152565b03818d8b5af18015611a4857156111cf57611c4b9060403d604011611c51575b611c438183612d82565b81019061328b565b506111cf565b503d611c39565b611c709060403d604011611c5157611c438183612d82565b50611b53565b60248b7f4e487b710000000000000000000000000000000000000000000000000000000081526011600452fd5b611cc591506101803d8111611cd7575b611cbd8183612d82565b81019061316c565b505050509650505050505050386111c7565b503d611cb3565b61116e9a5061116597989950611d029060403d604011611c5157611c438183612d82565b9a9099989750611148565b6040513d89823e3d90fd5b50346101a85760207ffffffffffffffffffffffffffffffffffffffffffffffffffffffffffffffffc3601126101a857604060209173ffffffffffffffffffffffffffffffffffffffff611d6a612c7c565b168152600283522054604051908152f35b50346101a85760207ffffffffffffffffffffffffffffffffffffffffffffffffffffffffffffffffc3601126101a8576101eb611db6612c7c565b6132a1565b50346101a857807ffffffffffffffffffffffffffffffffffffffffffffffffffffffffffffffffc3601126101a8576040517f3850c7bd00000000000000000000000000000000000000000000000000000000815260e08160048173ffffffffffffffffffffffffffffffffffffffff7f0000000000000000000000000000000000000000000000000000000000000000165afa801561091c5782918391611e87575b6040838373ffffffffffffffffffffffffffffffffffffffff83519216825260020b6020820152f35b91505060e0813d60e011611f2e575b81611ea360e09383612d82565b81010312611f2a57805173ffffffffffffffffffffffffffffffffffffffff81168103611f2657611ed66020830161315e565b91611ee360408201613217565b50611ef060608201613217565b50611efd60808201613217565b5060a081015163ffffffff8116036109f75760c0015180151503611f2657604092509038611e5e565b8280fd5b5080fd5b3d9150611e96565b50346101a85760207ffffffffffffffffffffffffffffffffffffffffffffffffffffffffffffffffc3601126101a85773ffffffffffffffffffffffffffffffffffffffff611f83612c7c565b168152806020526040812054611f9a8115156130d8565b604051907f99fbab8800000000000000000000000000000000000000000000000000000000825260048201526101808160248173ffffffffffffffffffffffffffffffffffffffff7f0000000000000000000000000000000000000000000000000000000000000000165afa801561091c5791606092818091612045575b6fffffffffffffffffffffffffffffffff9293506040519360020b845260020b6020840152166040820152f35b5050506120716fffffffffffffffffffffffffffffffff916101803d8111611cd757611cbd8183612d82565b5050505095509695509250505092839250612018565b50346101a85760207ffffffffffffffffffffffffffffffffffffffffffffffffffffffffffffffffc3601126101a85760406120c96120c4612c7c565b612e55565b73ffffffffffffffffffffffffffffffffffffffff8351921682526020820152f35b50346101a857807ffffffffffffffffffffffffffffffffffffffffffffffffffffffffffffffffc3601126101a857602060405173ffffffffffffffffffffffffffffffffffffffff7f0000000000000000000000000000000000000000000000000000000000000000168152f35b50346101a85760807ffffffffffffffffffffffffffffffffffffffffffffffffffffffffffffffffc3601126101a857612192612c7c565b5061219b612c9f565b5060643567ffffffffffffffff8111611f2a5736602382011215611f2a57806004013567ffffffffffffffff8111611f2657369101602401116101a85760206040517f150b7a02000000000000000000000000000000000000000000000000000000008152f35b50346101a857807ffffffffffffffffffffffffffffffffffffffffffffffffffffffffffffffffc3601126101a857602060405173ffffffffffffffffffffffffffffffffffffffff7f0000000000000000000000000000000000000000000000000000000000000000168152f35b50346101a85760607ffffffffffffffffffffffffffffffffffffffffffffffffffffffffffffffffc3601126101a8576122a9612c7c565b906122b2612cc2565b916122bb612cd2565b916122c58261526d565b73ffffffffffffffffffffffffffffffffffffffff8216808252816020526040822054612909576122f4613c2f565b94909573ffffffffffffffffffffffffffffffffffffffff871695604051977f70a082310000000000000000000000000000000000000000000000000000000089528460048a01526020896024818b5afa988915610a465786996128d5575b5073ffffffffffffffffffffffffffffffffffffffff821693604051927f70a08231000000000000000000000000000000000000000000000000000000008452866004850152602084602481895afa938415610c595788946128a1575b508a1580158091612898575b1561283a578b9361240c928b868e8995612827575b50505082612816575b6124077f00000000000000000000000000000000000000000000000000000000000000009e8f80946152e9565b6152e9565b604051937fddca3f4300000000000000000000000000000000000000000000000000000000855260208560048173ffffffffffffffffffffffffffffffffffffffff7f0000000000000000000000000000000000000000000000000000000000000000165afa948515610c595788956127da575b506103844201948542116127ad57938a9b9373ffffffffffffffffffffffffffffffffffffffff9b936080979362ffffff6125f798604051976124c289612ce2565b88528b602089015216604087015260020b606086015260020b8785015260a084015260c08301528760e0830152876101008301523061012083015261014082015286604051998a809581947f88316456000000000000000000000000000000000000000000000000000000008352600483019190916101408061016083019473ffffffffffffffffffffffffffffffffffffffff815116845273ffffffffffffffffffffffffffffffffffffffff602082015116602085015262ffffff6040820151166040850152606081015160020b6060850152608081015160020b608085015260a081015160a085015260c081015160c085015260e081015160e085015261010081015161010085015273ffffffffffffffffffffffffffffffffffffffff610120820151166101208501520151910152565b0393165af19384156117bf5783958495612784575b5082845283602052856040852055604051907f70a082310000000000000000000000000000000000000000000000000000000082523060048301526020826024818b5afa9182156109fb578592612750575b50604051917f70a08231000000000000000000000000000000000000000000000000000000008352306004840152602083602481875afa928315610a4657869361270d575b509060409882826fffffffffffffffffffffffffffffffff9998979695946126fc575b505050816126eb575b5050508152600160205284429120558351928352166020820152f35b6126f49261559f565b3880806126cf565b6127059261559f565b3880826126c6565b969594939250906020873d602011612748575b8161272d60209383612d82565b81010312610a395795519495939492939192919060406126a3565b3d9150612720565b9091506020813d60201161277c575b8161276c60209383612d82565b81010312610a395751903861265e565b3d915061275f565b9094506127a191955060803d6080116117b8576117a68183612d82565b5050949094933861260c565b6024897f4e487b710000000000000000000000000000000000000000000000000000000081526011600452fd5b9094506020813d60201161280e575b816127f660209383612d82565b810103126108375761280790612dc3565b9338612480565b3d91506127e9565b61282283308e8c6154c2565b6123da565b6128329230916154c2565b8b868e6123d1565b60646040517f08c379a000000000000000000000000000000000000000000000000000000000815260206004820152601a60248201527f50616e63616b655633416461707465723a206e6f2066756e64730000000000006044820152fd5b508415156123bc565b9093506020813d6020116128cd575b816128bd60209383612d82565b81010312610a39575192386123b0565b3d91506128b0565b9098506020813d602011612901575b816128f160209383612d82565b81010312610a3957519738612353565b3d91506128e4565b60646040517f08c379a000000000000000000000000000000000000000000000000000000000815260206004820152602060248201527f50616e63616b655633416461707465723a20616c7265616479206f70656e65646044820152fd5b50346101a85760607ffffffffffffffffffffffffffffffffffffffffffffffffffffffffffffffffc3601126101a85761299f612c7c565b6129a7612c9f565b90604435906129b58161526d565b73ffffffffffffffffffffffffffffffffffffffff8316928315612c1e576040517f70a08231000000000000000000000000000000000000000000000000000000008152306004820152602081602481885afa908115610a46578691612be8575b50831581858215612bde575b5050612bd6575b508215612b78578473ffffffffffffffffffffffffffffffffffffffff7f0000000000000000000000000000000000000000000000000000000000000000612a728682866152e9565b1691823b15611f2a576040517fb3db428b00000000000000000000000000000000000000000000000000000000815273ffffffffffffffffffffffffffffffffffffffff858116600483015291909116602482015260448101859052918290606490829084905af180156109fb57612b2b575b50602073ffffffffffffffffffffffffffffffffffffffff7f933ff3ac7bdff879fb9421b4d137a4fc8fc1ac8a448d04b4d0cb97b0d2e4700c926040519485521692a380f35b73ffffffffffffffffffffffffffffffffffffffff85612b6f7f933ff3ac7bdff879fb9421b4d137a4fc8fc1ac8a448d04b4d0cb97b0d2e4700c9497602094612d82565b95925050612ae5565b60646040517f08c379a000000000000000000000000000000000000000000000000000000000815260206004820152601760248201527f50616e63616b655633416461707465723a20656d7074790000000000000000006044820152fd5b925038612a29565b1190508138612a22565b90506020813d602011612c16575b81612c0360209383612d82565b81010312612c12575138612a16565b8580fd5b3d9150612bf6565b60646040517f08c379a000000000000000000000000000000000000000000000000000000000815260206004820152601960248201527f50616e63616b655633416461707465723a20746f6b656e3d30000000000000006044820152fd5b6004359073ffffffffffffffffffffffffffffffffffffffff82168203610a3957565b6024359073ffffffffffffffffffffffffffffffffffffffff82168203610a3957565b602435908160020b8203610a3957565b604435908160020b8203610a3957565b610160810190811067ffffffffffffffff821117612cff57604052565b7f4e487b7100000000000000000000000000000000000000000000000000000000600052604160045260246000fd5b6080810190811067ffffffffffffffff821117612cff57604052565b60a0810190811067ffffffffffffffff821117612cff57604052565b60c0810190811067ffffffffffffffff821117612cff57604052565b90601f7fffffffffffffffffffffffffffffffffffffffffffffffffffffffffffffffe0910116810190811067ffffffffffffffff821117612cff57604052565b519062ffffff82168203610a3957565b91908201809211612de057565b7f4e487b7100000000000000000000000000000000000000000000000000000000600052601160045260246000fd5b51906fffffffffffffffffffffffffffffffff82168203610a3957565b9190826080910312610a3957815191612e4760208201612e0f565b916060604083015192015190565b612e5e8161526d565b73ffffffffffffffffffffffffffffffffffffffff7f00000000000000000000000000000000000000000000000000000000000000001680156130ce5773ffffffffffffffffffffffffffffffffffffffff82168060005260006020526040600020549182156130c2577f00000000000000000000000000000000000000000000000000000000000000009373ffffffffffffffffffffffffffffffffffffffff8516156130b557604051917f70a0823100000000000000000000000000000000000000000000000000000000835230600484015260208360248173ffffffffffffffffffffffffffffffffffffffff8a165afa9283156130a957600093613075575b506040517f18fccc760000000000000000000000000000000000000000000000000000000081526004810186905230602482015290602090829060449082906000905af19081613046575b50612fbb575050505090600090565b90612fc99195939495615622565b82949296939185612fdd575b505050505050565b7f21bfd968014a2c5c47d330b3842b3c4c3642cd171e7da51a1cca7c101c635eda9260609273ffffffffffffffffffffffffffffffffffffffff9286600052600260205242604060002055604051988952602089015260408801521694a4388080808080612fd5565b6020813d60201161306d575b8161305f60209383612d82565b81010312610a395751612fac565b3d9150613052565b9092506020813d6020116130a1575b8161309160209383612d82565b81010312610a3957519138612f61565b3d9150613084565b6040513d6000823e3d90fd5b5050505050600090600090565b50505050600090600090565b5050600090600090565b156130df57565b60646040517f08c379a000000000000000000000000000000000000000000000000000000000815260206004820152601d60248201527f50616e63616b655633416461707465723a206e6f20706f736974696f6e0000006044820152fd5b519073ffffffffffffffffffffffffffffffffffffffff82168203610a3957565b51908160020b8203610a3957565b919082610180910312610a395781516bffffffffffffffffffffffff81168103610a39579161319d6020820161313d565b916131aa6040830161313d565b916131b76060820161313d565b916131c460808301612dc3565b916131d160a0820161315e565b916131de60c0830161315e565b916131eb60e08201612e0f565b91610100820151916101208101519161321461016061320d6101408501612e0f565b9301612e0f565b90565b519061ffff82168203610a3957565b1561322d57565b60646040517f08c379a000000000000000000000000000000000000000000000000000000000815260206004820152601a60248201527f50616e63616b655633416461707465723a206e6f2067617567650000000000006044820152fd5b9190826040910312610a39576020825192015190565b906132ab8261526d565b600073ffffffffffffffffffffffffffffffffffffffff8316928382528160205260408220549384156139b2576132e185615731565b6137f6575b6133e39073ffffffffffffffffffffffffffffffffffffffff7f0000000000000000000000000000000000000000000000000000000000000000166040805161332e81612d2e565b8881523060208201526fffffffffffffffffffffffffffffffff828201526fffffffffffffffffffffffffffffffff60608201528151809581927ffc6f78650000000000000000000000000000000000000000000000000000000083526004830191909160606fffffffffffffffffffffffffffffffff8160808401958051855273ffffffffffffffffffffffffffffffffffffffff6020820151166020860152826040820151166040860152015116910152565b038188855af19687156109fb576134159697869487916137d1575b5061341e9061340b613c2f565b9990968789615814565b50508887615814565b50506040517f99fbab8800000000000000000000000000000000000000000000000000000000815281600482015261018081602481865afa908115611d0d57906fffffffffffffffffffffffffffffffff9188916137a6575b501680613664575b50813b15612c125785916024839260405194859384927f42966c6800000000000000000000000000000000000000000000000000000000845260048401525af180156109fb5761363a575b509073ffffffffffffffffffffffffffffffffffffffff9184528360205283604081205516604051937f70a08231000000000000000000000000000000000000000000000000000000008552306004860152602085602481855afa94851561177e5784956135f2575b5073ffffffffffffffffffffffffffffffffffffffff16936040517f70a08231000000000000000000000000000000000000000000000000000000008152306004820152602081602481895afa9485156103db57946135be575b5082816135ad575b505050816135a257505050565b6135ab9261559f565b565b6135b69261559f565b388082613595565b9093506020813d6020116135ea575b816135da60209383612d82565b81010312610a395751923861358d565b3d91506135cd565b9094506020813d602011613632575b8161360e60209383612d82565b81010312610a3957519373ffffffffffffffffffffffffffffffffffffffff613533565b3d9150613601565b9361365c8173ffffffffffffffffffffffffffffffffffffffff949396612d82565b9390916134ca565b61038442018042116137795761370a9160409182519161368383612d4a565b858352602083019081528383018b9052606083018b81526080840192835284517f0c49ccbe0000000000000000000000000000000000000000000000000000000081528451600482015291516fffffffffffffffffffffffffffffffff166024830152604090930151604482015291516064830152516084820152918290819060a4820190565b03818a875af18015611d0d5761375b575b5061372c60408051611b6481612d2e565b03818a875af18015611d0d571561347f576137559060403d604011611c5157611c438183612d82565b5061347f565b6137739060403d604011611c5157611c438183612d82565b5061371b565b6024887f4e487b710000000000000000000000000000000000000000000000000000000081526011600452fd5b6137bf91506101803d8111611cd757611cbd8183612d82565b50505050965050505050505038613477565b61341e95506137ef915060403d604011611c5157611c438183612d82565b90946133fe565b73ffffffffffffffffffffffffffffffffffffffff7f000000000000000000000000000000000000000000000000000000000000000016613838811515613226565b83908473ffffffffffffffffffffffffffffffffffffffff7f000000000000000000000000000000000000000000000000000000000000000016918215159283613925575b506040517ef714ce000000000000000000000000000000000000000000000000000000008152600481018a9052306024820152916020918391829081604481015b03925af18015610a46576138f3575b50906133e392916138e1575b5090506132e6565b6138eb9084615622565b5050506138d9565b6020813d60201161391d575b8161390c60209383612d82565b81010312612c1257506133e36138cd565b3d91506138ff565b602091945060249250604051928380927f70a082310000000000000000000000000000000000000000000000000000000082523060048301525afa908115610a4657908691829161397b575b50926138be61387d565b9150506020813d6020116139aa575b8161399760209383612d82565b81010312612c12575185906138be613971565b3d915061398a565b5050509050565b156139c057565b60846040517f08c379a000000000000000000000000000000000000000000000000000000000815260206004820152602160248201527f50616e63616b655633416461707465723a20706f736974696f6e207374616b6560448201527f64000000000000000000000000000000000000000000000000000000000000006064820152fd5b91908203918211612de057565b90613a5b8261526d565b73ffffffffffffffffffffffffffffffffffffffff821660005260006020526040600020548015613c265760408051613b4c9392613a9882612d2e565b81523060208201526fffffffffffffffffffffffffffffffff828201526fffffffffffffffffffffffffffffffff60608201528151809481927ffc6f78650000000000000000000000000000000000000000000000000000000083526004830191909160606fffffffffffffffffffffffffffffffff8160808401958051855273ffffffffffffffffffffffffffffffffffffffff6020820151166020860152826040820151166040860152015116910152565b0381600073ffffffffffffffffffffffffffffffffffffffff7f0000000000000000000000000000000000000000000000000000000000000000165af19182156130a957600090600093613c02575b50828194613ba7613c2f565b938281613bdb575b50505081613bbc57505050565b73ffffffffffffffffffffffffffffffffffffffff6135ab931661559f565b73ffffffffffffffffffffffffffffffffffffffff613bfa931661559f565b388082613baf565b9050613c1e91925060403d604011611c5157611c438183612d82565b919038613b9b565b50600091508190565b73ffffffffffffffffffffffffffffffffffffffff7f000000000000000000000000000000000000000000000000000000000000000016906040517f0dfe1681000000000000000000000000000000000000000000000000000000008152602081600481865afa9081156130a957600091613d1e575b50602060049193604051928380927fd21220a70000000000000000000000000000000000000000000000000000000082525afa9081156130a957600091613cea575090565b90506020813d602011613d16575b81613d0560209383612d82565b81010312610a39576132149061313d565b3d9150613cf8565b90506020813d602011613d55575b81613d3960209383612d82565b81010312610a39576020613d4e60049261313d565b9150613ca5565b3d9150613d2c565b90816060910312610a3957613d7181612e0f565b916040602083015192015190565b90613d898261526d565b60009073ffffffffffffffffffffffffffffffffffffffff83169283835282602052604083205493841561420b57613dc361103286615731565b73ffffffffffffffffffffffffffffffffffffffff7f00000000000000000000000000000000000000000000000000000000000000001694613e0b60408051611b6481612d2e565b0381898b5af18015610a46576141ed575b506040517f99fbab88000000000000000000000000000000000000000000000000000000008152816004820152610180816024818a5afa908115610a4657906fffffffffffffffffffffffffffffffff9187916141c2575b50169586613fbe575b859650809594953b15610927576024859260405198899384927f42966c6800000000000000000000000000000000000000000000000000000000845260048401525af19485156117bf5773ffffffffffffffffffffffffffffffffffffffff9495613faa575b50825281602052816040812055613ef8613c2f565b9316604051937f70a08231000000000000000000000000000000000000000000000000000000008552306004860152602085602481855afa94851561177e5784956135f2575073ffffffffffffffffffffffffffffffffffffffff16936040517f70a08231000000000000000000000000000000000000000000000000000000008152306004820152602081602481895afa9485156103db57946135be575082816135ad57505050816135a257505050565b83613fb791949294612d82565b9138613ee3565b6103844201804211614195576040879861406892829998995191613fe183612d4a565b868352602083019081528383018a9052606083018a81526080840192835284517f0c49ccbe0000000000000000000000000000000000000000000000000000000081528451600482015291516fffffffffffffffffffffffffffffffff166024830152604090930151604482015291516064830152516084820152918290819060a4820190565b038189865af18015610a4657614177575b5061413f6040805161408a81612d2e565b8481523060208201526fffffffffffffffffffffffffffffffff828201526fffffffffffffffffffffffffffffffff60608201528151809381927ffc6f78650000000000000000000000000000000000000000000000000000000083526004830191909160606fffffffffffffffffffffffffffffffff8160808401958051855273ffffffffffffffffffffffffffffffffffffffff6020820151166020860152826040820151166040860152015116910152565b038189865af18015610a4657614159575b50949394613e7d565b6141719060403d604011611c5157611c438183612d82565b50614150565b61418f9060403d604011611c5157611c438183612d82565b50614079565b6024877f4e487b710000000000000000000000000000000000000000000000000000000081526011600452fd5b6141db91506101803d8111611cd757611cbd8183612d82565b50505050965050505050505038613e74565b6142059060403d604011611c5157611c438183612d82565b50613e1c565b5050915050565b61421b8161526d565b60009173ffffffffffffffffffffffffffffffffffffffff82168084528360205260408420549081156146a357848061425384615731565b6144f8575b614357915073ffffffffffffffffffffffffffffffffffffffff7f00000000000000000000000000000000000000000000000000000000000000001690604080516142a281612d2e565b8681523060208201526fffffffffffffffffffffffffffffffff828201526fffffffffffffffffffffffffffffffff60608201528151809581927ffc6f78650000000000000000000000000000000000000000000000000000000083526004830191909160606fffffffffffffffffffffffffffffffff8160808401958051855273ffffffffffffffffffffffffffffffffffffffff6020820151166020860152826040820151166040860152015116910152565b03818b865af1968715610c5957889389986144d1575b5090839188839a6143938261438b614383613c2f565b989087615814565b979095615814565b9690946143f6575b509160c095939183897f1755c989066b7ed4b9f645c6b694b777e6c92fcea8ec1046243d8673f0403391999795526002602052604042912055604051958652602086015260408501526060840152608083015260a0820152a3565b803b15611f2a576040517f42842e0e0000000000000000000000000000000000000000000000000000000081523060048201527f000000000000000000000000000000000000000000000000000000000000000073ffffffffffffffffffffffffffffffffffffffff166024820152604481018b90529082908290606490829084905af1801561091c579160c097959391817f1755c989066b7ed4b9f645c6b694b777e6c92fcea8ec1046243d8673f04033919a9896946144c1575b5050919395975091939561439b565b6144ca91612d82565b38816144b2565b9097506144ee91935060403d604011611c5157611c438183612d82565b969092908361436d565b5073ffffffffffffffffffffffffffffffffffffffff7f0000000000000000000000000000000000000000000000000000000000000000169061453c821515613226565b73ffffffffffffffffffffffffffffffffffffffff7f000000000000000000000000000000000000000000000000000000000000000016908115159182614623575b506040517ef714ce0000000000000000000000000000000000000000000000000000000081526004810186905230602482015292602090849060449082908c905af18015610c59576145f0575b61435792506001916145de575b50614258565b6145e89087615622565b5050506145d8565b6020833d60201161461b575b8161460960209383612d82565b810103126108375761435792506145cb565b3d91506145fc565b60249150602090604051928380927f70a082310000000000000000000000000000000000000000000000000000000082523060048301525afa908115610c59578891614671575b503861457e565b90506020813d60201161469b575b8161468c60209383612d82565b8101031261083757513861466a565b3d915061467f565b5083925050565b6146b38161526d565b73ffffffffffffffffffffffffffffffffffffffff7f000000000000000000000000000000000000000000000000000000000000000016801561488b5773ffffffffffffffffffffffffffffffffffffffff821660005260006020526040600020546147208115156130d8565b60009173ffffffffffffffffffffffffffffffffffffffff7f0000000000000000000000000000000000000000000000000000000000000000169182151592836147fe575b506040517ef714ce000000000000000000000000000000000000000000000000000000008152600481019190915230602482015290602090829081600081604481015b03925af180156130a9576147cf575b506147c0575050565b6147c991615622565b50505050565b6020813d6020116147f6575b816147e860209383612d82565b81010312610a3957516147b7565b3d91506147db565b6020602491604096939651928380927f70a082310000000000000000000000000000000000000000000000000000000082523060048301525afa9182156103db578092614853575b50909390506147a8614765565b9091506020823d602011614883575b8161486f60209383612d82565b810103126101a85750516147a86000614846565b3d9150614862565b5050565b9291909161489c8461526d565b73ffffffffffffffffffffffffffffffffffffffff841692836000526000602052604060002054926148cf8415156130d8565b6148db61103285615731565b6148e3613c2f565b9173ffffffffffffffffffffffffffffffffffffffff8216966040517f70a082310000000000000000000000000000000000000000000000000000000081528160048201526020816024818c5afa9081156130a957600091614da1575b5073ffffffffffffffffffffffffffffffffffffffff851695604051927f70a0823100000000000000000000000000000000000000000000000000000000845260048401526020836024818a5afa9283156130a957600093614d6d575b5080614d565750915b80614d3f5750905b80614d2d575b5080614d1b575b50604051907f70a082310000000000000000000000000000000000000000000000000000000082523060048301526020826024818a5afa9182156130a957600092614ce7575b50604051927f70a08231000000000000000000000000000000000000000000000000000000008452306004850152602084602481885afa9384156130a957600094614cb3575b50821580614cab575b614c9a57838392614a88926124077f0000000000000000000000000000000000000000000000000000000000000000958680946152e9565b610384420195864211612de05773ffffffffffffffffffffffffffffffffffffffff96606094614b4d9460405193614abf85612d66565b8452602084015260408301526000858301526000608083015260a082015260006040519788809581947f219f5d170000000000000000000000000000000000000000000000000000000083526004830191909160a08060c083019480518452602081015160208501526040810151604085015260608101516060850152608081015160808501520151910152565b0393165af19384156130a957600094600094600091614c71575b50939495604051917f70a08231000000000000000000000000000000000000000000000000000000008352306004840152602083602481845afa9283156130a957600093614c3d575b50604051927f70a08231000000000000000000000000000000000000000000000000000000008452306004850152602084602481885afa9384156130a957600094614c09575082816135ad57505050816135a257505050565b90936020823d602011614c35575b81614c2460209383612d82565b810103126101a8575051923861358d565b3d9150614c17565b90926020823d602011614c69575b81614c5860209383612d82565b810103126101a85750519138614bb0565b3d9150614c4b565b91955050614c8f91935060603d606011610aba57610aa68183612d82565b939194909338614b67565b506000975087965086955050505050565b508315614a50565b90936020823d602011614cdf575b81614cce60209383612d82565b810103126101a85750519238614a47565b3d9150614cc1565b90916020823d602011614d13575b81614d0260209383612d82565b810103126101a85750519038614a01565b3d9150614cf5565b614d27903089866154c2565b386149bb565b614d3990308a8a6154c2565b386149b4565b80821015614d4f57505b906149ae565b9050614d49565b80821015614d6657505b916149a6565b9050614d60565b90926020823d602011614d99575b81614d8860209383612d82565b810103126101a8575051913861499d565b3d9150614d7b565b906020823d602011614dcb575b81614dbb60209383612d82565b810103126101a857505138614940565b3d9150614dae565b614ddc8161526d565b7f000000000000000000000000000000000000000000000000000000000000000060009173ffffffffffffffffffffffffffffffffffffffff821615614f025773ffffffffffffffffffffffffffffffffffffffff16825281602052604082205490614e498215156130d8565b73ffffffffffffffffffffffffffffffffffffffff7f00000000000000000000000000000000000000000000000000000000000000001690813b156109f7576040517f42842e0e00000000000000000000000000000000000000000000000000000000815230600482015273ffffffffffffffffffffffffffffffffffffffff919091166024820152604481019290925282908290606490829084905af1801561091c57614ef5575050565b81614eff91612d82565b50565b505050565b614f108161526d565b73ffffffffffffffffffffffffffffffffffffffff7f00000000000000000000000000000000000000000000000000000000000000001690811561488b5773ffffffffffffffffffffffffffffffffffffffff811660005260006020526040600020548015614f02576040517f18fccc760000000000000000000000000000000000000000000000000000000081526004810182905273ffffffffffffffffffffffffffffffffffffffff831660248201526020816044816000885af1908161523e575b50614f02576000926000916040517f4ca6ef28000000000000000000000000000000000000000000000000000000008152602081600481865afa60009181615202575b50615158575b506040517f18fccc76000000000000000000000000000000000000000000000000000000008152600481019190915230602482015290602090829081600081604481015b03925af19081615129575b5061507657505050565b73ffffffffffffffffffffffffffffffffffffffff16918261509757505050565b604051907f70a08231000000000000000000000000000000000000000000000000000000008252306004830152602082602481875afa80156130a9576000906150f5575b6150e59250613a44565b908115614f02576135ab9261559f565b506020823d602011615121575b8161510f60209383612d82565b81010312610a39576150e591516150db565b3d9150615102565b6020813d602011615150575b8161514260209383612d82565b81010312610a39575161506c565b3d9150615135565b925073ffffffffffffffffffffffffffffffffffffffff8316801561501d57602492919550602090604051938480927f70a082310000000000000000000000000000000000000000000000000000000082523060048301525afa9182156130a9576000926151cc575b50909361506161501d565b91506020823d6020116151fa575b816151e760209383612d82565b81010312610a39579051906150616151c1565b3d91506151da565b9091506020813d602011615236575b8161521e60209383612d82565b81010312610a395761522f9061313d565b9038615017565b3d9150615211565b6020813d602011615265575b8161525760209383612d82565b81010312610a395751614fd4565b3d915061524a565b73ffffffffffffffffffffffffffffffffffffffff16330361528b57565b60646040517f08c379a000000000000000000000000000000000000000000000000000000000815260206004820152601c60248201527f50616e63616b655633416461707465723a206f6e6c79207661756c74000000006044820152fd5b8215614f02576040517fdd62ed3e00000000000000000000000000000000000000000000000000000000815230600482015273ffffffffffffffffffffffffffffffffffffffff8381166024830152919091169290602081604481875afa9081156130a957600091615490575b5010615360575050565b61536c60008284615bb4565b15615443575b61539d7fffffffffffffffffffffffffffffffffffffffffffffffffffffffffffffffff8284615bb4565b156153a6575050565b6153b08183615c2f565b15615415577fffffffffffffffffffffffffffffffffffffffffffffffffffffffffffffffff6153e09183615cba565b156153e85750565b7f5274afe70000000000000000000000000000000000000000000000000000000060005260045260246000fd5b507f5274afe70000000000000000000000000000000000000000000000000000000060005260045260246000fd5b61544d8183615c2f565b156154155761545e60008284615cba565b61537257507f5274afe70000000000000000000000000000000000000000000000000000000060005260045260246000fd5b90506020813d6020116154ba575b816154ab60209383612d82565b81010312610a39575138615356565b3d915061549e565b92916020919273ffffffffffffffffffffffffffffffffffffffff60009281604051967f23b872dd000000000000000000000000000000000000000000000000000000008652166004521660245260445260648180865af19060016000511482161561557d575b6040526000606052156155395750565b73ffffffffffffffffffffffffffffffffffffffff907f5274afe7000000000000000000000000000000000000000000000000000000006000521660045260246000fd5b90600181151661559557823b15153d15161690615529565b503d6000823e3d90fd5b9160209060009073ffffffffffffffffffffffffffffffffffffffff604051947fa9059cbb0000000000000000000000000000000000000000000000000000000084521660045260245260448180865af19060016000511482161561560a575b604052156155395750565b90600181151661559557823b15153d151616906155ff565b7f00000000000000000000000000000000000000000000000000000000000000009173ffffffffffffffffffffffffffffffffffffffff831615615720576040517f70a0823100000000000000000000000000000000000000000000000000000000815230600482015260208160248173ffffffffffffffffffffffffffffffffffffffff88165afa9081156130a9576000916156ee575b50818111156156df57916156d36156db92859694613a44565b938491615814565b9091565b50505090600090600090600090565b906020823d602011615718575b8161570860209383612d82565b810103126101a8575051386156ba565b3d91506156fb565b505050600090600090600090600090565b801561580e57604051907f6352211e000000000000000000000000000000000000000000000000000000008252600482015260208160248173ffffffffffffffffffffffffffffffffffffffff7f0000000000000000000000000000000000000000000000000000000000000000165afa600091816157d2575b506157b65750600090565b73ffffffffffffffffffffffffffffffffffffffff1630141590565b9091506020813d602011615806575b816157ee60209383612d82565b81010312610a39576157ff9061313d565b90386157ab565b3d91506157e1565b50600090565b9290926000908315615bac5773ffffffffffffffffffffffffffffffffffffffff811694604051947fc415b95c0000000000000000000000000000000000000000000000000000000086526020866004818a5afa95861561177e578496615b6b575b50602060049697604051978880927f492f4e180000000000000000000000000000000000000000000000000000000082525afa95861561177e578496615b37575b50839573ffffffffffffffffffffffffffffffffffffffff88168015159788615aa8575b61ffff1680615a91575085915b869984998415159081615a89575b506159d4575b50505050508461590b57505050565b73ffffffffffffffffffffffffffffffffffffffff7f000000000000000000000000000000000000000000000000000000000000000061594c8782856152e9565b1691823b156109f7576040517fb3db428b00000000000000000000000000000000000000000000000000000000815273ffffffffffffffffffffffffffffffffffffffff918216600482015291166024820152604481018590529082908290606490829084905af1801561091c576159c2575050565b6159cd828092612d82565b6101a85750565b6159e892949a508584969a509391936152e9565b813b156109275784916064839260405194859384927ffc8e3896000000000000000000000000000000000000000000000000000000008452600484015273ffffffffffffffffffffffffffffffffffffffff8c1660248401528760448401525af19081615a75575b50615a6457508194935b38808080806158fc565b80615a6f9196613a44565b93615a5a565b84615a8291959295612d82565b9238615a50565b9050386158f6565b8084029084820403614195576127109004916158e8565b506040517f35659fb8000000000000000000000000000000000000000000000000000000008152602081600481855afa879181615afb575b50615af2575061ffff865b90506158db565b61ffff90615aeb565b9091506020813d602011615b2f575b81615b1760209383612d82565b8101031261083757615b2890613217565b9038615ae0565b3d9150615b0a565b9095506020813d602011615b63575b81615b5360209383612d82565b810103126109f7575194386158b7565b3d9150615b46565b9695506020873d602011615ba4575b81615b8760209383612d82565b810103126109f7576020615b9d6004979861313d565b9650615876565b3d9150615b7a565b509250829150565b92919260009373ffffffffffffffffffffffffffffffffffffffff604051937f095ea7b30000000000000000000000000000000000000000000000000000000087521660045260245260208460448180855af1936001815114851615615c1c575b5050604052565b939193503b15153d151616913880615c15565b919073ffffffffffffffffffffffffffffffffffffffff604051917f095ea7b3000000000000000000000000000000000000000000000000000000006000521660045260006024526020600060448180875af192600160005114841615615c97575b50604052565b60018492941516615cb0573b15153d1516169138615c91565b833d6000823e3d90fd5b929173ffffffffffffffffffffffffffffffffffffffff604051927f095ea7b300000000000000000000000000000000000000000000000000000000600052166004526024526020600060448180875af192600160005114841615615c97575060405256fea2646970667358221220dc8ee5dfb83a9d233b410f666c8f1ab0b2a62b0c4b309b9c3c10dc16c2a5744764736f6c634300081e0033","linkReferences":{}},"methodIdentifiers":{"claimRewards(address)":"ef5cfb8c","collectToVault(address)":"762100e7","currentRange(address)":"270d3136","currentTokenId(address)":"86ff5c4b","exitPositionToVault(address)":"b0217240","exitPositionToVaultAndHarvestFeesToBuffer(address)":"47f1aac2","feeBuffer()":"a00622dc","gauge()":"a6f19c84","gaugeRewardToken()":"10bb73ed","harvestGaugeRewardsToBuffer(address)":"17268844","harvestPoolFeesToBuffer(address)":"b89b1f47","increaseLiquidityFromVault(address,uint256,uint256,uint256,uint256)":"af52b2f9","increaseLiquidityWithCaps(address,uint256,uint256)":"de959d16","lastCompound(address)":"a26d6dd5","lastHarvest(address)":"486b9f88","lastRebalance(address)":"fdd0fd2d","nfpm()":"7303e913","onERC721Received(address,address,uint256,bytes)":"150b7a02","openInitialPosition(address,int24,int24)":"109162ef","pool()":"16f0115b","rebalanceWithCaps(address,int24,int24,uint256,uint256)":"6783ac17","slot0()":"3850c7bd","stakePosition(address)":"e4010503","sweepAdapterTokenToBuffer(address,address,uint256)":"0c7d47fe","tickSpacing()":"d0c93a7c","tokens()":"9d63848a","unstakePosition(address)":"dcfc070b"},"id":60}