{"abi":[{"type":"constructor","inputs":[{"name":"_pool","type":"address","internalType":"address"},{"name":"_nfpm","type":"address","internalType":"address"},{"name":"_masterChefV3","type":"address","internalType":"address"}],"stateMutability":"nonpayable"},{"type":"function","name":"claimRewards","inputs":[{"name":"vault","type":"address","internalType":"address"}],"outputs":[],"stateMutability":"nonpayable"},{"type":"function","name":"collectToVault","inputs":[{"name":"vault","type":"address","internalType":"address"}],"outputs":[{"name":"amount0","type":"uint256","internalType":"uint256"},{"name":"amount1","type":"uint256","internalType":"uint256"}],"stateMutability":"nonpayable"},{"type":"function","name":"currentRange","inputs":[{"name":"vault","type":"address","internalType":"address"}],"outputs":[{"name":"lower","type":"int24","internalType":"int24"},{"name":"upper","type":"int24","internalType":"int24"},{"name":"liquidity","type":"uint128","internalType":"uint128"}],"stateMutability":"view"},{"type":"function","name":"currentTokenId","inputs":[{"name":"vault","type":"address","internalType":"address"}],"outputs":[{"name":"","type":"uint256","internalType":"uint256"}],"stateMutability":"view"},{"type":"function","name":"exitPositionToVault","inputs":[{"name":"vault","type":"address","internalType":"address"}],"outputs":[],"stateMutability":"nonpayable"},{"type":"function","name":"gauge","inputs":[],"outputs":[{"name":"","type":"address","internalType":"address"}],"stateMutability":"view"},{"type":"function","name":"lastRebalance","inputs":[{"name":"","type":"address","internalType":"address"}],"outputs":[{"name":"","type":"uint256","internalType":"uint256"}],"stateMutability":"view"},{"type":"function","name":"nfpm","inputs":[],"outputs":[{"name":"","type":"address","internalType":"address"}],"stateMutability":"view"},{"type":"function","name":"onERC721Received","inputs":[{"name":"","type":"address","internalType":"address"},{"name":"","type":"address","internalType":"address"},{"name":"","type":"uint256","internalType":"uint256"},{"name":"","type":"bytes","internalType":"bytes"}],"outputs":[{"name":"","type":"bytes4","internalType":"bytes4"}],"stateMutability":"pure"},{"type":"function","name":"openInitialPosition","inputs":[{"name":"vault","type":"address","internalType":"address"},{"name":"tickLower","type":"int24","internalType":"int24"},{"name":"tickUpper","type":"int24","internalType":"int24"}],"outputs":[{"name":"tokenId","type":"uint256","internalType":"uint256"},{"name":"liquidity","type":"uint128","internalType":"uint128"}],"stateMutability":"nonpayable"},{"type":"function","name":"pool","inputs":[],"outputs":[{"name":"","type":"address","internalType":"address"}],"stateMutability":"view"},{"type":"function","name":"rebalanceWithCaps","inputs":[{"name":"vault","type":"address","internalType":"address"},{"name":"tickLower","type":"int24","internalType":"int24"},{"name":"tickUpper","type":"int24","internalType":"int24"},{"name":"cap0","type":"uint256","internalType":"uint256"},{"name":"cap1","type":"uint256","internalType":"uint256"}],"outputs":[{"name":"newLiquidity","type":"uint128","internalType":"uint128"}],"stateMutability":"nonpayable"},{"type":"function","name":"slot0","inputs":[],"outputs":[{"name":"sqrtPriceX96","type":"uint160","internalType":"uint160"},{"name":"tick","type":"int24","internalType":"int24"}],"stateMutability":"view"},{"type":"function","name":"stakePosition","inputs":[{"name":"vault","type":"address","internalType":"address"}],"outputs":[],"stateMutability":"nonpayable"},{"type":"function","name":"tickSpacing","inputs":[],"outputs":[{"name":"","type":"int24","internalType":"int24"}],"stateMutability":"view"},{"type":"function","name":"tokens","inputs":[],"outputs":[{"name":"token0","type":"address","internalType":"address"},{"name":"token1","type":"address","internalType":"address"}],"stateMutability":"view"},{"type":"function","name":"unstakePosition","inputs":[{"name":"vault","type":"address","internalType":"address"}],"outputs":[],"stateMutability":"nonpayable"},{"type":"error","name":"SafeERC20FailedOperation","inputs":[{"name":"token","type":"address","internalType":"address"}]}],"bytecode":{"object":"0x60e03461018057601f6135e838819003918201601f19168301916001600160401b0383118484101761018557808492606094604052833981010312610180576100478161019b565b9061006060406100596020840161019b565b920161019b565b916001600160a01b03811615158061016e575b156101295760805260a05260c05260405161343890816101b082396080518181816102770152818161095f0152818161129301528181611547015281816117e301526122bd015260a051818181610508015281816105d4015281816108cb015281816108f60152818161145901528181611772015281816121d00152818161242401528181612a970152613203015260c051818181610389015281816124de015281816128df01528181612a2d0152612b310152f35b60405162461bcd60e51b815260206004820152601e60248201527f50616e63616b655633416461707465723a207a65726f206164647265737300006044820152606490fd5b506001600160a01b0382161515610073565b600080fd5b634e487b7160e01b600052604160045260246000fd5b51906001600160a01b03821682036101805756fe608080604052600436101561001357600080fd5b600090813560e01c908163109162ef1461161357508063150b7a021461156b57806316f0115b146114fc578063270d3136146113ab5780633850c7bd146112215780636783ac171461052c5780637303e913146104bd578063762100e71461046f57806386ff5c4b1461040d5780639d63848a146103ad578063a6f19c841461033e578063b0217240146102fe578063d0c93a7c14610204578063dcfc070b146101c4578063e401050314610184578063ef5cfb8c146101415763fdd0fd2d146100dc57600080fd5b3461013e5760207ffffffffffffffffffffffffffffffffffffffffffffffffffffffffffffffffc36011261013e57604060209173ffffffffffffffffffffffffffffffffffffffff61012d611cfb565b168152600183522054604051908152f35b80fd5b503461013e5760207ffffffffffffffffffffffffffffffffffffffffffffffffffffffffffffffffc36011261013e5761018161017c611cfb565b612b1a565b80f35b503461013e5760207ffffffffffffffffffffffffffffffffffffffffffffffffffffffffffffffffc36011261013e576101816101bf611cfb565b612a13565b503461013e5760207ffffffffffffffffffffffffffffffffffffffffffffffffffffffffffffffffc36011261013e576101816101ff611cfb565b6128c6565b503461013e57807ffffffffffffffffffffffffffffffffffffffffffffffffffffffffffffffffc36011261013e57604051907fd0c93a7c00000000000000000000000000000000000000000000000000000000825260208260048173ffffffffffffffffffffffffffffffffffffffff7f0000000000000000000000000000000000000000000000000000000000000000165afa9081156102f25780916102b5575b6020826040519060020b8152f35b90506020823d6020116102ea575b816102d060209383611de5565b8101031261013e57506102e4602091611f4d565b386102a7565b3d91506102c3565b604051903d90823e3d90fd5b503461013e5760207ffffffffffffffffffffffffffffffffffffffffffffffffffffffffffffffffc36011261013e57610181610339611cfb565b6123d4565b503461013e57807ffffffffffffffffffffffffffffffffffffffffffffffffffffffffffffffffc36011261013e57602060405173ffffffffffffffffffffffffffffffffffffffff7f0000000000000000000000000000000000000000000000000000000000000000168152f35b503461013e57807ffffffffffffffffffffffffffffffffffffffffffffffffffffffffffffffffc36011261013e576103e46122a6565b6040805173ffffffffffffffffffffffffffffffffffffffff9384168152919092166020820152f35b503461013e5760207ffffffffffffffffffffffffffffffffffffffffffffffffffffffffffffffffc36011261013e57604060209173ffffffffffffffffffffffffffffffffffffffff61045f611cfb565b1681528083522054604051908152f35b503461013e5760207ffffffffffffffffffffffffffffffffffffffffffffffffffffffffffffffffc36011261013e5760406104b16104ac611cfb565b6120c3565b82519182526020820152f35b503461013e57807ffffffffffffffffffffffffffffffffffffffffffffffffffffffffffffffffc36011261013e57602060405173ffffffffffffffffffffffffffffffffffffffff7f0000000000000000000000000000000000000000000000000000000000000000168152f35b503461013e5760a07ffffffffffffffffffffffffffffffffffffffffffffffffffffffffffffffffc36011261013e57610564611cfb565b9061056d611d41565b91610576611d51565b73ffffffffffffffffffffffffffffffffffffffff8216835260208390526040832054606435946084356105ab831515611ec7565b6105bd6105b7846131b4565b15612015565b73ffffffffffffffffffffffffffffffffffffffff7f000000000000000000000000000000000000000000000000000000000000000016926106ba6040805161060581611dad565b8381523060208201526fffffffffffffffffffffffffffffffff828201526fffffffffffffffffffffffffffffffff60608201528151809381927ffc6f78650000000000000000000000000000000000000000000000000000000083526004830191909160606fffffffffffffffffffffffffffffffff8160808401958051855273ffffffffffffffffffffffffffffffffffffffff6020820151166020860152826040820151166040860152015116910152565b03818b895af1801561117257611203575b506040517f99fbab8800000000000000000000000000000000000000000000000000000000815281600482015261018081602481885afa90811561117257906fffffffffffffffffffffffffffffffff9189916111c8575b50168061106b575b50833b1561106757604051907f42966c680000000000000000000000000000000000000000000000000000000082526004820152868160248183885af1801561105c57611048575b5073ffffffffffffffffffffffffffffffffffffffff851686528560205285604081205573ffffffffffffffffffffffffffffffffffffffff6107b46122a6565b95909860208a6024604051809681937f70a08231000000000000000000000000000000000000000000000000000000008352306004840152165afa928315610dbc578993611014575b50604051907f70a0823100000000000000000000000000000000000000000000000000000000825230600483015260208260248173ffffffffffffffffffffffffffffffffffffffff8c165afa918215611009578a92610fd5575b5080610fcf57507fffffffffffffffffffffffffffffffffffffffffffffffffffffffffffffffff935b80610fca57507fffffffffffffffffffffffffffffffffffffffffffffffffffffffffffffffff5b838b8a8497838111610ecf575b50505050818111610dc7575b50506108f0827f00000000000000000000000000000000000000000000000000000000000000008b612f58565b61091b837f000000000000000000000000000000000000000000000000000000000000000088612f58565b604051937fddca3f4300000000000000000000000000000000000000000000000000000000855260208560048173ffffffffffffffffffffffffffffffffffffffff7f0000000000000000000000000000000000000000000000000000000000000000165afa948515610dbc578995610d7c575b50610384420194854211610d4f579389989796938b936080979362ffffff610b1e9873ffffffffffffffffffffffffffffffffffffffff604051986109d38a611d61565b16885273ffffffffffffffffffffffffffffffffffffffff8c16602089015216604087015260020b606086015260020b8785015260a084015260c08301528760e083015287610100830152306101208301526101408201526040519788809481937f88316456000000000000000000000000000000000000000000000000000000008352600483019190916101408061016083019473ffffffffffffffffffffffffffffffffffffffff815116845273ffffffffffffffffffffffffffffffffffffffff602082015116602085015262ffffff6040820151166040850152606081015160020b6060850152608081015160020b608085015260a081015160a085015260c081015160c085015260e081015160e085015261010081015161010085015273ffffffffffffffffffffffffffffffffffffffff610120820151166101208501520151910152565b03925af1938415610d445783908495610d0e575b5073ffffffffffffffffffffffffffffffffffffffff831684528360205260408420556040517f70a0823100000000000000000000000000000000000000000000000000000000815230600482015260208160248173ffffffffffffffffffffffffffffffffffffffff8a165afa908115610d03578491610cd1575b50604051907f70a0823100000000000000000000000000000000000000000000000000000000825230600483015260208260248173ffffffffffffffffffffffffffffffffffffffff87165afa918215610cc6578592610c86575b5090602096828573ffffffffffffffffffffffffffffffffffffffff969594610c73575b91505081610c60575b505050168152600183526040429120556fffffffffffffffffffffffffffffffff60405191168152f35b84610c6b9316613131565b388082610c36565b86610c7e9316613131565b388084610c2d565b939291506020843d602011610cbe575b81610ca360209383611de5565b81010312610cb957925191929091906020610c09565b600080fd5b3d9150610c96565b6040513d87823e3d90fd5b90506020813d602011610cfb575b81610cec60209383611de5565b81010312610cb9575138610bae565b3d9150610cdf565b6040513d86823e3d90fd5b9050610d3391945060803d608011610d3d575b610d2b8183611de5565b810190611e9e565b5050939038610b32565b503d610d21565b6040513d85823e3d90fd5b60248a7f4e487b710000000000000000000000000000000000000000000000000000000081526011600452fd5b9094506020813d602011610db4575b81610d9860209383611de5565b81010312610db057610da990611e35565b933861098f565b8880fd5b3d9150610d8b565b6040513d8b823e3d90fd5b81610dd1916120b6565b604051907f70a0823100000000000000000000000000000000000000000000000000000000825273ffffffffffffffffffffffffffffffffffffffff8a16600483015260208260248173ffffffffffffffffffffffffffffffffffffffff8d165afa918215610ec4578b92610e90575b5081811115610e885750905b81156108c357610e80929450610e7b82308b73ffffffffffffffffffffffffffffffffffffffff8c16612e7b565b611e45565b9138806108c3565b905090610e4d565b9091506020813d602011610ebc575b81610eac60209383611de5565b81010312610cb957519038610e41565b3d9150610e9f565b6040513d8d823e3d90fd5b73ffffffffffffffffffffffffffffffffffffffff6024610ef2866020946120b6565b938260405196879485937f70a08231000000000000000000000000000000000000000000000000000000008552166004840152165afa918215610fbf578d92610f8b575b5081811115610f835750905b8c82610f51575b908b906108b7565b610f7a93965082610e7b918d73ffffffffffffffffffffffffffffffffffffffff309216612e7b565b9238808c610f49565b905090610f42565b9091506020813d602011610fb7575b81610fa760209383611de5565b81010312610cb957519038610f36565b3d9150610f9a565b6040513d8f823e3d90fd5b6108aa565b93610882565b9091506020813d602011611001575b81610ff160209383611de5565b81010312610cb957519038610858565b3d9150610fe4565b6040513d8c823e3d90fd5b9092506020813d602011611040575b8161103060209383611de5565b81010312610cb9575191386107fd565b3d9150611023565b8661105591979297611de5565b9438610773565b6040513d89823e3d90fd5b8680fd5b610384420180421161119b576111119160409182519161108a83611dc9565b858352602083019081528383018c9052606083018c81526080840192835284517f0c49ccbe0000000000000000000000000000000000000000000000000000000081528451600482015291516fffffffffffffffffffffffffffffffff166024830152604090930151604482015291516064830152516084820152918290819060a4820190565b03818b895af180156111725761117d575b506111336040805161060581611dad565b03818b895af18015611172571561072b576111659060403d60401161116b575b61115d8183611de5565b8101906120a0565b5061072b565b503d611153565b6040513d8a823e3d90fd5b6111959060403d60401161116b5761115d8183611de5565b50611122565b6024897f4e487b710000000000000000000000000000000000000000000000000000000081526011600452fd5b6111ea91506101803d81116111fc575b6111e28183611de5565b810190611f5b565b50505050965050505050505038610723565b503d6111d8565b61121b9060403d60401161116b5761115d8183611de5565b506106cb565b503461013e57807ffffffffffffffffffffffffffffffffffffffffffffffffffffffffffffffffc36011261013e576040517f3850c7bd00000000000000000000000000000000000000000000000000000000815260e08160048173ffffffffffffffffffffffffffffffffffffffff7f0000000000000000000000000000000000000000000000000000000000000000165afa80156113a057829183916112ed575b6040838373ffffffffffffffffffffffffffffffffffffffff83519216825260020b6020820152f35b91505060e0813d60e011611398575b8161130960e09383611de5565b8101031261139457805173ffffffffffffffffffffffffffffffffffffffff8116810361138c5761133c60208301611f4d565b9161134960408201612006565b5061135660608201612006565b5061136360808201612006565b5060a081015163ffffffff8116036113905760c001518015150361138c576040925090386112c4565b8280fd5b8380fd5b5080fd5b3d91506112fc565b6040513d84823e3d90fd5b503461013e5760207ffffffffffffffffffffffffffffffffffffffffffffffffffffffffffffffffc36011261013e5773ffffffffffffffffffffffffffffffffffffffff6113f8611cfb565b16815280602052604081205461140f811515611ec7565b604051907f99fbab8800000000000000000000000000000000000000000000000000000000825260048201526101808160248173ffffffffffffffffffffffffffffffffffffffff7f0000000000000000000000000000000000000000000000000000000000000000165afa80156113a057916060928180916114ba575b6fffffffffffffffffffffffffffffffff9293506040519360020b845260020b6020840152166040820152f35b5050506114e66fffffffffffffffffffffffffffffffff916101803d81116111fc576111e28183611de5565b505050509550969550925050509283925061148d565b503461013e57807ffffffffffffffffffffffffffffffffffffffffffffffffffffffffffffffffc36011261013e57602060405173ffffffffffffffffffffffffffffffffffffffff7f0000000000000000000000000000000000000000000000000000000000000000168152f35b503461013e5760807ffffffffffffffffffffffffffffffffffffffffffffffffffffffffffffffffc36011261013e576115a3611cfb565b506115ac611d1e565b5060643567ffffffffffffffff8111611394573660238201121561139457806004013567ffffffffffffffff811161138c573691016024011161013e5760206040517f150b7a02000000000000000000000000000000000000000000000000000000008152f35b823461013e5760607ffffffffffffffffffffffffffffffffffffffffffffffffffffffffffffffffc36011261013e5761164b611cfb565b611653611d41565b9261165c611d51565b73ffffffffffffffffffffffffffffffffffffffff831691828552846020526040852054611c9f575061168d6122a6565b95909173ffffffffffffffffffffffffffffffffffffffff831691604051977f70a082310000000000000000000000000000000000000000000000000000000089528560048a0152602089602481875afa988915611172578899611c6b575b5073ffffffffffffffffffffffffffffffffffffffff811694604051917f70a082310000000000000000000000000000000000000000000000000000000083528760048401526020836024818a5afa928315611009578a93611c37575b508a1580158091611c2e575b15611bd0578b9261179f928592611bbf575b82611bae575b61179a7f00000000000000000000000000000000000000000000000000000000000000009e8f8094612f58565b612f58565b604051937fddca3f4300000000000000000000000000000000000000000000000000000000855260208560048173ffffffffffffffffffffffffffffffffffffffff7f0000000000000000000000000000000000000000000000000000000000000000165afa948515611009578a95611b6e575b50610384420193844211611b4157926080959261198a959273ffffffffffffffffffffffffffffffffffffffff9c9d9562ffffff6040519661185488611d61565b8b88528c602089015216604087015260020b606086015260020b8785015260a084015260c08301528a60e08301528a6101008301523061012083015261014082015289604051998a809581947f88316456000000000000000000000000000000000000000000000000000000008352600483019190916101408061016083019473ffffffffffffffffffffffffffffffffffffffff815116845273ffffffffffffffffffffffffffffffffffffffff602082015116602085015262ffffff6040820151166040850152606081015160020b6060850152608081015160020b608085015260a081015160a085015260c081015160c085015260e081015160e085015261010081015161010085015273ffffffffffffffffffffffffffffffffffffffff610120820151166101208501520151910152565b0393165af1938415611b365786958795611b0d575b5083875286602052856040882055604051917f70a08231000000000000000000000000000000000000000000000000000000008352306004840152602083602481845afa928315611172578893611ad5575b50604051927f70a08231000000000000000000000000000000000000000000000000000000008452306004850152602084602481885afa938415610dbc578994611aa0575b50916fffffffffffffffffffffffffffffffff96959391838260409b9795611a8f575b50505081611a7e575b5050508152600160205284429120558351928352166020820152f35b611a8792613131565b868080611a62565b611a9892613131565b898082611a59565b9093506020813d602011611acd575b81611abc60209383611de5565b81010312610db05751926040611a36565b3d9150611aaf565b9092506020813d602011611b05575b81611af160209383611de5565b81010312611b01575191886119f1565b8780fd5b3d9150611ae4565b909450611b2a91955060803d608011610d3d57610d2b8183611de5565b5050949094938761199f565b6040513d88823e3d90fd5b60248b7f4e487b710000000000000000000000000000000000000000000000000000000081526011600452fd5b9094506020813d602011611ba6575b81611b8a60209383611de5565b81010312611ba257611b9b90611e35565b938b611813565b8980fd5b3d9150611b7d565b611bba83308e8d612e7b565b61176d565b611bcb85308e8c612e7b565b611767565b60646040517f08c379a000000000000000000000000000000000000000000000000000000000815260206004820152601a60248201527f50616e63616b655633416461707465723a206e6f2066756e64730000000000006044820152fd5b50831515611755565b9092506020813d602011611c63575b81611c5360209383611de5565b81010312611ba25751918b611749565b3d9150611c46565b9098506020813d602011611c97575b81611c8760209383611de5565b81010312611b01575197896116ec565b3d9150611c7a565b807f08c379a0000000000000000000000000000000000000000000000000000000006064925260206004820152602060248201527f50616e63616b655633416461707465723a20616c7265616479206f70656e65646044820152fd5b6004359073ffffffffffffffffffffffffffffffffffffffff82168203610cb957565b6024359073ffffffffffffffffffffffffffffffffffffffff82168203610cb957565b602435908160020b8203610cb957565b604435908160020b8203610cb957565b610160810190811067ffffffffffffffff821117611d7e57604052565b7f4e487b7100000000000000000000000000000000000000000000000000000000600052604160045260246000fd5b6080810190811067ffffffffffffffff821117611d7e57604052565b60a0810190811067ffffffffffffffff821117611d7e57604052565b90601f7fffffffffffffffffffffffffffffffffffffffffffffffffffffffffffffffe0910116810190811067ffffffffffffffff821117611d7e57604052565b90816020910312610cb9575190565b519062ffffff82168203610cb957565b91908201809211611e5257565b7f4e487b7100000000000000000000000000000000000000000000000000000000600052601160045260246000fd5b51906fffffffffffffffffffffffffffffffff82168203610cb957565b9190826080910312610cb957815191611eb960208201611e81565b916060604083015192015190565b15611ece57565b60646040517f08c379a000000000000000000000000000000000000000000000000000000000815260206004820152601d60248201527f50616e63616b655633416461707465723a206e6f20706f736974696f6e0000006044820152fd5b519073ffffffffffffffffffffffffffffffffffffffff82168203610cb957565b51908160020b8203610cb957565b919082610180910312610cb95781516bffffffffffffffffffffffff81168103610cb95791611f8c60208201611f2c565b91611f9960408301611f2c565b91611fa660608201611f2c565b91611fb360808301611e35565b91611fc060a08201611f4d565b91611fcd60c08301611f4d565b91611fda60e08201611e81565b916101008201519161012081015191612003610160611ffc6101408501611e81565b9301611e81565b90565b519061ffff82168203610cb957565b1561201c57565b60846040517f08c379a000000000000000000000000000000000000000000000000000000000815260206004820152602160248201527f50616e63616b655633416461707465723a20706f736974696f6e207374616b6560448201527f64000000000000000000000000000000000000000000000000000000000000006064820152fd5b9190826040910312610cb9576020825192015190565b91908203918211611e5257565b9073ffffffffffffffffffffffffffffffffffffffff82166000526000602052604060002054801561229d57604080516121b5939261210182611dad565b81523060208201526fffffffffffffffffffffffffffffffff828201526fffffffffffffffffffffffffffffffff60608201528151809481927ffc6f78650000000000000000000000000000000000000000000000000000000083526004830191909160606fffffffffffffffffffffffffffffffff8160808401958051855273ffffffffffffffffffffffffffffffffffffffff6020820151166020860152826040820151166040860152015116910152565b0381600073ffffffffffffffffffffffffffffffffffffffff7f0000000000000000000000000000000000000000000000000000000000000000165af19182156122915760009060009361226d575b508281946122106122a6565b938281612246575b5050508161222557505050565b73ffffffffffffffffffffffffffffffffffffffff6122449316613131565b565b73ffffffffffffffffffffffffffffffffffffffff6122659316613131565b388082612218565b905061228991925060403d60401161116b5761115d8183611de5565b919038612204565b6040513d6000823e3d90fd5b50600091508190565b73ffffffffffffffffffffffffffffffffffffffff7f000000000000000000000000000000000000000000000000000000000000000016906040517f0dfe1681000000000000000000000000000000000000000000000000000000008152602081600481865afa90811561229157600091612395575b50602060049193604051928380927fd21220a70000000000000000000000000000000000000000000000000000000082525afa90811561229157600091612361575090565b90506020813d60201161238d575b8161237c60209383611de5565b81010312610cb95761200390611f2c565b3d915061236f565b90506020813d6020116123cc575b816123b060209383611de5565b81010312610cb95760206123c5600492611f2c565b915061231c565b3d91506123a3565b90600073ffffffffffffffffffffffffffffffffffffffff83169283825281602052604082205480156128bf5761240d6105b7826131b4565b73ffffffffffffffffffffffffffffffffffffffff7f000000000000000000000000000000000000000000000000000000000000000016906124556040805161060581611dad565b038188875af18015610cc6576128a1575b506040517f99fbab8800000000000000000000000000000000000000000000000000000000815281600482015261018081602481865afa908115610cc657906fffffffffffffffffffffffffffffffff918691612876575b501680612734575b5073ffffffffffffffffffffffffffffffffffffffff7f0000000000000000000000000000000000000000000000000000000000000000166126d9575b813b156113905783916024839260405194859384927f42966c6800000000000000000000000000000000000000000000000000000000845260048401525af18015610d44576126c4575b5073ffffffffffffffffffffffffffffffffffffffff92938252816020528160408120556125796122a6565b9316604051937f70a08231000000000000000000000000000000000000000000000000000000008552306004860152602085602481855afa948515610d0357849561267c575b5073ffffffffffffffffffffffffffffffffffffffff16936040517f70a08231000000000000000000000000000000000000000000000000000000008152306004820152602081602481895afa9485156102f25794612648575b508281612637575b5050508161262e57505050565b61224492613131565b61264092613131565b388082612621565b9093506020813d602011612674575b8161266460209383611de5565b81010312610cb957519238612619565b3d9150612657565b9094506020813d6020116126bc575b8161269860209383611de5565b81010312610cb957519373ffffffffffffffffffffffffffffffffffffffff6125bf565b3d915061268b565b6126cf838092611de5565b611394573861254d565b303b15611390576040517fef5cfb8c000000000000000000000000000000000000000000000000000000008152866004820152848160248183305af1612720575b50612503565b8461272d91959295611de5565b923861271a565b6103844201804211612849576127da9160409182519161275383611dc9565b85835260208301908152838301899052606083018981526080840192835284517f0c49ccbe0000000000000000000000000000000000000000000000000000000081528451600482015291516fffffffffffffffffffffffffffffffff166024830152604090930151604482015291516064830152516084820152918290819060a4820190565b038188875af18015610cc65761282b575b506127fc6040805161060581611dad565b038188875af18015610cc657156124c6576128259060403d60401161116b5761115d8183611de5565b506124c6565b6128439060403d60401161116b5761115d8183611de5565b506127eb565b6024867f4e487b710000000000000000000000000000000000000000000000000000000081526011600452fd5b61288f91506101803d81116111fc576111e28183611de5565b505050509650505050505050386124be565b6128b99060403d60401161116b5761115d8183611de5565b50612466565b5050509050565b600073ffffffffffffffffffffffffffffffffffffffff7f000000000000000000000000000000000000000000000000000000000000000016918215612a0e5773ffffffffffffffffffffffffffffffffffffffff1680825281602052604082205490612934821515611ec7565b303b1561138c57604051907fef5cfb8c0000000000000000000000000000000000000000000000000000000082526004820152828160248183305af16129f5575b506040517ef714ce0000000000000000000000000000000000000000000000000000000081526004810191909152306024820152916020908390818481604481015b03925af19081156102f257506129ca5750565b6129eb9060203d6020116129ee575b6129e38183611de5565b810190611e26565b50565b503d6129d9565b82612a06602093946129b793611de5565b929150612975565b505050565b60009073ffffffffffffffffffffffffffffffffffffffff7f000000000000000000000000000000000000000000000000000000000000000016908115612a0e5773ffffffffffffffffffffffffffffffffffffffff168252816020526040822054612a80811515611ec7565b73ffffffffffffffffffffffffffffffffffffffff7f00000000000000000000000000000000000000000000000000000000000000001691823b156113905790606484928360405195869485937f42842e0e000000000000000000000000000000000000000000000000000000008552306004860152602485015260448401525af180156113a057612b10575050565b816129eb91611de5565b73ffffffffffffffffffffffffffffffffffffffff7f000000000000000000000000000000000000000000000000000000000000000016908115612e775773ffffffffffffffffffffffffffffffffffffffff811660005260006020526040600020548015612a0e576040517f18fccc760000000000000000000000000000000000000000000000000000000081526004810182905273ffffffffffffffffffffffffffffffffffffffff831660248201526020816044816000885af19081612e48575b50612a0e576000926000916040517f4ca6ef28000000000000000000000000000000000000000000000000000000008152602081600481865afa60009181612e0c575b50612d62575b506040517f18fccc76000000000000000000000000000000000000000000000000000000008152600481019190915230602482015290602090829081600081604481015b03925af19081612d33575b50612c8057505050565b73ffffffffffffffffffffffffffffffffffffffff169182612ca157505050565b604051907f70a08231000000000000000000000000000000000000000000000000000000008252306004830152602082602481875afa801561229157600090612cff575b612cef92506120b6565b908115612a0e5761224492613131565b506020823d602011612d2b575b81612d1960209383611de5565b81010312610cb957612cef9151612ce5565b3d9150612d0c565b6020813d602011612d5a575b81612d4c60209383611de5565b81010312610cb95751612c76565b3d9150612d3f565b925073ffffffffffffffffffffffffffffffffffffffff83168015612c2757602492919550602090604051938480927f70a082310000000000000000000000000000000000000000000000000000000082523060048301525afa91821561229157600092612dd6575b509093612c6b612c27565b91506020823d602011612e04575b81612df160209383611de5565b81010312610cb957905190612c6b612dcb565b3d9150612de4565b9091506020813d602011612e40575b81612e2860209383611de5565b81010312610cb957612e3990611f2c565b9038612c21565b3d9150612e1b565b6020813d602011612e6f575b81612e6160209383611de5565b81010312610cb95751612bde565b3d9150612e54565b5050565b92916020919273ffffffffffffffffffffffffffffffffffffffff60009281604051967f23b872dd000000000000000000000000000000000000000000000000000000008652166004521660245260445260648180865af190600160005114821615612f36575b604052600060605215612ef25750565b73ffffffffffffffffffffffffffffffffffffffff907f5274afe7000000000000000000000000000000000000000000000000000000006000521660045260246000fd5b906001811516612f4e57823b15153d15161690612ee2565b503d6000823e3d90fd5b8215612a0e576040517fdd62ed3e00000000000000000000000000000000000000000000000000000000815230600482015273ffffffffffffffffffffffffffffffffffffffff8381166024830152919091169290602081604481875afa908115612291576000916130ff575b5010612fcf575050565b612fdb60008284613297565b156130b2575b61300c7fffffffffffffffffffffffffffffffffffffffffffffffffffffffffffffffff8284613297565b15613015575050565b61301f8183613312565b15613084577fffffffffffffffffffffffffffffffffffffffffffffffffffffffffffffffff61304f918361339d565b156130575750565b7f5274afe70000000000000000000000000000000000000000000000000000000060005260045260246000fd5b507f5274afe70000000000000000000000000000000000000000000000000000000060005260045260246000fd5b6130bc8183613312565b15613084576130cd6000828461339d565b612fe157507f5274afe70000000000000000000000000000000000000000000000000000000060005260045260246000fd5b90506020813d602011613129575b8161311a60209383611de5565b81010312610cb9575138612fc5565b3d915061310d565b9160209060009073ffffffffffffffffffffffffffffffffffffffff604051947fa9059cbb0000000000000000000000000000000000000000000000000000000084521660045260245260448180865af19060016000511482161561319c575b60405215612ef25750565b906001811516612f4e57823b15153d15161690613191565b801561329157604051907f6352211e000000000000000000000000000000000000000000000000000000008252600482015260208160248173ffffffffffffffffffffffffffffffffffffffff7f0000000000000000000000000000000000000000000000000000000000000000165afa60009181613255575b506132395750600090565b73ffffffffffffffffffffffffffffffffffffffff1630141590565b9091506020813d602011613289575b8161327160209383611de5565b81010312610cb95761328290611f2c565b903861322e565b3d9150613264565b50600090565b92919260009373ffffffffffffffffffffffffffffffffffffffff604051937f095ea7b30000000000000000000000000000000000000000000000000000000087521660045260245260208460448180855af19360018151148516156132ff575b5050604052565b939193503b15153d1516169138806132f8565b919073ffffffffffffffffffffffffffffffffffffffff604051917f095ea7b3000000000000000000000000000000000000000000000000000000006000521660045260006024526020600060448180875af19260016000511484161561337a575b50604052565b60018492941516613393573b15153d1516169138613374565b833d6000823e3d90fd5b929173ffffffffffffffffffffffffffffffffffffffff604051927f095ea7b300000000000000000000000000000000000000000000000000000000600052166004526024526020600060448180875af19260016000511484161561337a575060405256fea26469706673582212200b6cc34a5761c734657349bcee2af3017ce0855f5305067dbb64238ad03d100464736f6c634300081e0033","linkReferences":{}},"methodIdentifiers":{"claimRewards(address)":"ef5cfb8c","collectToVault(address)":"762100e7","currentRange(address)":"270d3136","currentTokenId(address)":"86ff5c4b","exitPositionToVault(address)":"b0217240","gauge()":"a6f19c84","lastRebalance(address)":"fdd0fd2d","nfpm()":"7303e913","onERC721Received(address,address,uint256,bytes)":"150b7a02","openInitialPosition(address,int24,int24)":"109162ef","pool()":"16f0115b","rebalanceWithCaps(address,int24,int24,uint256,uint256)":"6783ac17","slot0()":"3850c7bd","stakePosition(address)":"e4010503","tickSpacing()":"d0c93a7c","tokens()":"9d63848a","unstakePosition(address)":"dcfc070b"},"id":71}