{"abi":[{"type":"constructor","inputs":[{"name":"initialOwner","type":"address","internalType":"address"},{"name":"initialTreasury","type":"address","internalType":"address"},{"name":"initialProtocolFeeBps","type":"uint16","internalType":"uint16"}],"stateMutability":"nonpayable"},{"type":"function","name":"authorizedReporter","inputs":[{"name":"","type":"address","internalType":"address"}],"outputs":[{"name":"","type":"bool","internalType":"bool"}],"stateMutability":"view"},{"type":"function","name":"owner","inputs":[],"outputs":[{"name":"","type":"address","internalType":"address"}],"stateMutability":"view"},{"type":"function","name":"protocolFeeBps","inputs":[],"outputs":[{"name":"","type":"uint16","internalType":"uint16"}],"stateMutability":"view"},{"type":"function","name":"renounceOwnership","inputs":[],"outputs":[],"stateMutability":"nonpayable"},{"type":"function","name":"reportFees","inputs":[{"name":"strategyId","type":"uint256","internalType":"uint256"},{"name":"token","type":"address","internalType":"address"},{"name":"amount","type":"uint256","internalType":"uint256"}],"outputs":[],"stateMutability":"nonpayable"},{"type":"function","name":"setProtocolFeeBps","inputs":[{"name":"newBps","type":"uint16","internalType":"uint16"}],"outputs":[],"stateMutability":"nonpayable"},{"type":"function","name":"setReporter","inputs":[{"name":"reporter","type":"address","internalType":"address"},{"name":"authorized","type":"bool","internalType":"bool"}],"outputs":[],"stateMutability":"nonpayable"},{"type":"function","name":"setTreasury","inputs":[{"name":"newTreasury","type":"address","internalType":"address"}],"outputs":[],"stateMutability":"nonpayable"},{"type":"function","name":"strategyByToken","inputs":[{"name":"","type":"uint256","internalType":"uint256"},{"name":"","type":"address","internalType":"address"}],"outputs":[{"name":"","type":"uint256","internalType":"uint256"}],"stateMutability":"view"},{"type":"function","name":"totalByToken","inputs":[{"name":"","type":"address","internalType":"address"}],"outputs":[{"name":"","type":"uint256","internalType":"uint256"}],"stateMutability":"view"},{"type":"function","name":"transferOwnership","inputs":[{"name":"newOwner","type":"address","internalType":"address"}],"outputs":[],"stateMutability":"nonpayable"},{"type":"function","name":"treasury","inputs":[],"outputs":[{"name":"","type":"address","internalType":"address"}],"stateMutability":"view"},{"type":"function","name":"withdrawAllFees","inputs":[{"name":"tokens","type":"address[]","internalType":"address[]"},{"name":"to","type":"address","internalType":"address"}],"outputs":[],"stateMutability":"nonpayable"},{"type":"function","name":"withdrawFees","inputs":[{"name":"token","type":"address","internalType":"address"},{"name":"amount","type":"uint256","internalType":"uint256"},{"name":"to","type":"address","internalType":"address"}],"outputs":[],"stateMutability":"nonpayable"},{"type":"event","name":"FeesReported","inputs":[{"name":"reporter","type":"address","indexed":true,"internalType":"address"},{"name":"strategyId","type":"uint256","indexed":true,"internalType":"uint256"},{"name":"token","type":"address","indexed":true,"internalType":"address"},{"name":"amount","type":"uint256","indexed":false,"internalType":"uint256"}],"anonymous":false},{"type":"event","name":"FeesWithdrawn","inputs":[{"name":"token","type":"address","indexed":true,"internalType":"address"},{"name":"to","type":"address","indexed":true,"internalType":"address"},{"name":"amount","type":"uint256","indexed":false,"internalType":"uint256"}],"anonymous":false},{"type":"event","name":"OwnershipTransferred","inputs":[{"name":"previousOwner","type":"address","indexed":true,"internalType":"address"},{"name":"newOwner","type":"address","indexed":true,"internalType":"address"}],"anonymous":false},{"type":"event","name":"ProtocolFeeBpsUpdated","inputs":[{"name":"oldBps","type":"uint16","indexed":false,"internalType":"uint16"},{"name":"newBps","type":"uint16","indexed":false,"internalType":"uint16"}],"anonymous":false},{"type":"event","name":"ReporterAuthorizationUpdated","inputs":[{"name":"reporter","type":"address","indexed":true,"internalType":"address"},{"name":"authorized","type":"bool","indexed":false,"internalType":"bool"}],"anonymous":false},{"type":"event","name":"TreasuryUpdated","inputs":[{"name":"oldTreasury","type":"address","indexed":true,"internalType":"address"},{"name":"newTreasury","type":"address","indexed":true,"internalType":"address"}],"anonymous":false},{"type":"error","name":"OwnableInvalidOwner","inputs":[{"name":"owner","type":"address","internalType":"address"}]},{"type":"error","name":"OwnableUnauthorizedAccount","inputs":[{"name":"account","type":"address","internalType":"address"}]},{"type":"error","name":"ReentrancyGuardReentrantCall","inputs":[]},{"type":"error","name":"SafeERC20FailedOperation","inputs":[{"name":"token","type":"address","internalType":"address"}]}],"bytecode":{"object":"0x6080346101d157601f6113db38819003918201601f19168301916001600160401b038311848410176101d6578084926060946040528339810103126101d157610047816101ec565b906040610056602083016101ec565b9101519161ffff8316908184036101d1576001600160a01b03169182156101bb57600080546001600160a01b031981168517825560405194916001600160a01b03909116907f8be0079c531659141344cd1fd0a4f28419497f9722a3daafe3b4186f6b6457e09080a360017f9b779b17422d0df92223018b32b4d1fa46e071723d6817e2486d003becc55f00556001600160a01b0316918215610179575061138810610129576001549161ffff60a01b9060a01b169160018060b01b03191617176001556040516111da90816102018239f35b60405162461bcd60e51b815260206004820152602260248201527f50726f746f636f6c466565436f6c6c6563746f723a2066656520746f6f2068696044820152610ced60f31b6064820152608490fd5b62461bcd60e51b815260206004820181905260248201527f50726f746f636f6c466565436f6c6c6563746f723a2074726561737572793d306044820152606490fd5b631e4fbdf760e01b600052600060045260246000fd5b600080fd5b634e487b7160e01b600052604160045260246000fd5b51906001600160a01b03821682036101d15756fe6080604052600436101561001257600080fd5b60003560e01c80631e7d312614610c1057806335659fb814610bcd57806361d027b314610b7b578063715018a614610adf57806373e29a8814610a755780638da5cb5b14610a235780639ba372c2146108cc578063be37b12c1461077a578063d4318adf14610715578063e1bb5133146105e7578063f0f44260146104c6578063f2fde38b146103d4578063f7319640146103605763fc8e3896146100b657600080fd5b3461035b5760607ffffffffffffffffffffffffffffffffffffffffffffffffffffffffffffffffc36011261035b576004356100f0610ea3565b90604435916100fd611064565b33600052600260205260ff60406000205416156102d85773ffffffffffffffffffffffffffffffffffffffff1691610136831515610f74565b801561027a5760006020604051917f23b872dd00000000000000000000000000000000000000000000000000000000815233600452306024528360445260648180885af190600160005114821615610258575b60405260006060521561022a5782600052600360205260406000206101af828254610fd9565b905581600052600460205260406000208360005260205260406000206101d6828254610fd9565b90556040519081527fba4c6cd5cec3d85701362b3e5222938ad616e5ee2ebd30b0a7a42884816d3cc860203392a460017f9b779b17422d0df92223018b32b4d1fa46e071723d6817e2486d003becc55f0055005b827f5274afe70000000000000000000000000000000000000000000000000000000060005260045260246000fd5b90600181151661027057843b15153d15161690610189565b503d6000823e3d90fd5b60646040517f08c379a000000000000000000000000000000000000000000000000000000000815260206004820152601e60248201527f50726f746f636f6c466565436f6c6c6563746f723a20616d6f756e743d3000006044820152fd5b60846040517f08c379a0000000000000000000000000000000000000000000000000000000008152602060048201526024808201527f50726f746f636f6c466565436f6c6c6563746f723a206e6f7420617574686f7260448201527f697a6564000000000000000000000000000000000000000000000000000000006064820152fd5b600080fd5b3461035b5760407ffffffffffffffffffffffffffffffffffffffffffffffffffffffffffffffffc36011261035b57610397610ea3565b600435600052600460205273ffffffffffffffffffffffffffffffffffffffff604060002091166000526020526020604060002054604051908152f35b3461035b5760207ffffffffffffffffffffffffffffffffffffffffffffffffffffffffffffffffc36011261035b5773ffffffffffffffffffffffffffffffffffffffff610420610ec6565b610428611015565b1680156104975773ffffffffffffffffffffffffffffffffffffffff600054827fffffffffffffffffffffffff0000000000000000000000000000000000000000821617600055167f8be0079c531659141344cd1fd0a4f28419497f9722a3daafe3b4186f6b6457e0600080a3005b7f1e4fbdf700000000000000000000000000000000000000000000000000000000600052600060045260246000fd5b3461035b5760207ffffffffffffffffffffffffffffffffffffffffffffffffffffffffffffffffc36011261035b5773ffffffffffffffffffffffffffffffffffffffff610512610ec6565b61051a611015565b1680156105895773ffffffffffffffffffffffffffffffffffffffff600154827fffffffffffffffffffffffff0000000000000000000000000000000000000000821617600155167f4ab5be82436d353e61ca18726e984e561f5c1cc7c6d38b29d2553c790434705a600080a3005b60646040517f08c379a000000000000000000000000000000000000000000000000000000000815260206004820152602060248201527f50726f746f636f6c466565436f6c6c6563746f723a2074726561737572793d306044820152fd5b3461035b5760407ffffffffffffffffffffffffffffffffffffffffffffffffffffffffffffffffc36011261035b5761061e610ec6565b6024359081151580920361035b5773ffffffffffffffffffffffffffffffffffffffff9061064a611015565b169081156106b75760207fe5f91a550f392839def17eb9a01fb77e02e7b5089413c63158f526349d5015e091836000526002825260406000207fffffffffffffffffffffffffffffffffffffffffffffffffffffffffffffff0081541660ff8316179055604051908152a2005b60646040517f08c379a000000000000000000000000000000000000000000000000000000000815260206004820152602060248201527f50726f746f636f6c466565436f6c6c6563746f723a207265706f727465723d306044820152fd5b3461035b5760207ffffffffffffffffffffffffffffffffffffffffffffffffffffffffffffffffc36011261035b5773ffffffffffffffffffffffffffffffffffffffff610761610ec6565b1660005260036020526020604060002054604051908152f35b3461035b5760207ffffffffffffffffffffffffffffffffffffffffffffffffffffffffffffffffc36011261035b5760043561ffff811680820361035b576107c0611015565b6113888111610848577f740c4f8812f57c051142b386664c613b7140458e4fd9420eda309b6d0ad319099160409175ffff00000000000000000000000000000000000000006001549260a01b167fffffffffffffffffffff0000ffffffffffffffffffffffffffffffffffffffff83161760015561ffff83519260a01c1682526020820152a1005b60846040517f08c379a000000000000000000000000000000000000000000000000000000000815260206004820152602260248201527f50726f746f636f6c466565436f6c6c6563746f723a2066656520746f6f20686960448201527f67680000000000000000000000000000000000000000000000000000000000006064820152fd5b3461035b5760607ffffffffffffffffffffffffffffffffffffffffffffffffffffffffffffffffc36011261035b57610903610ec6565b6024359060443573ffffffffffffffffffffffffffffffffffffffff81169182820361035b5773ffffffffffffffffffffffffffffffffffffffff90610947611015565b61094f611064565b169161095c831515610f74565b6109f957507f5e110f8bc8a20b65dcc87f224bdf1cc039346e267118bae2739847f07321ffa8602073ffffffffffffffffffffffffffffffffffffffff60015416935b6109cc8173ffffffffffffffffffffffffffffffffffffffff8716966109c6881515610ee9565b866110dd565b604051908152a360017f9b779b17422d0df92223018b32b4d1fa46e071723d6817e2486d003becc55f0055005b60207f5e110f8bc8a20b65dcc87f224bdf1cc039346e267118bae2739847f07321ffa8919361099f565b3461035b5760007ffffffffffffffffffffffffffffffffffffffffffffffffffffffffffffffffc36011261035b57602073ffffffffffffffffffffffffffffffffffffffff60005416604051908152f35b3461035b5760207ffffffffffffffffffffffffffffffffffffffffffffffffffffffffffffffffc36011261035b5773ffffffffffffffffffffffffffffffffffffffff610ac1610ec6565b166000526002602052602060ff604060002054166040519015158152f35b3461035b5760007ffffffffffffffffffffffffffffffffffffffffffffffffffffffffffffffffc36011261035b57610b16611015565b600073ffffffffffffffffffffffffffffffffffffffff81547fffffffffffffffffffffffff000000000000000000000000000000000000000081168355167f8be0079c531659141344cd1fd0a4f28419497f9722a3daafe3b4186f6b6457e08280a3005b3461035b5760007ffffffffffffffffffffffffffffffffffffffffffffffffffffffffffffffffc36011261035b57602073ffffffffffffffffffffffffffffffffffffffff60015416604051908152f35b3461035b5760007ffffffffffffffffffffffffffffffffffffffffffffffffffffffffffffffffc36011261035b57602061ffff60015460a01c16604051908152f35b3461035b5760407ffffffffffffffffffffffffffffffffffffffffffffffffffffffffffffffffc36011261035b5760043567ffffffffffffffff811161035b573660238201121561035b57806004013567ffffffffffffffff811161035b573660248260051b8401011161035b57610c87610ea3565b610c8f611015565b610c97611064565b73ffffffffffffffffffffffffffffffffffffffff8116610e9e575073ffffffffffffffffffffffffffffffffffffffff600154165b73ffffffffffffffffffffffffffffffffffffffff811690610cf0821515610ee9565b60005b83811015610e785760009060248160051b8701013573ffffffffffffffffffffffffffffffffffffffff8116809103610e7457610d31811515610f74565b6040517f70a08231000000000000000000000000000000000000000000000000000000008152306004820152602081602481855afa908115610e6957908692918591610dca575b506001945080610d8c575b50505001610cf3565b602081610dbb7f5e110f8bc8a20b65dcc87f224bdf1cc039346e267118bae2739847f07321ffa89389866110dd565b604051908152a3838780610d83565b925050919260203d8111610e62575b7fffffffffffffffffffffffffffffffffffffffffffffffffffffffffffffffe0601f820116830183811067ffffffffffffffff821117610e3557602091849160405281010312610e3257506001929185915189610d78565b80fd5b6024837f4e487b710000000000000000000000000000000000000000000000000000000081526041600452fd5b503d610dd9565b6040513d86823e3d90fd5b8280fd5b60017f9b779b17422d0df92223018b32b4d1fa46e071723d6817e2486d003becc55f0055005b610ccd565b6024359073ffffffffffffffffffffffffffffffffffffffff8216820361035b57565b6004359073ffffffffffffffffffffffffffffffffffffffff8216820361035b57565b15610ef057565b60846040517f08c379a000000000000000000000000000000000000000000000000000000000815260206004820152602160248201527f50726f746f636f6c466565436f6c6c6563746f723a20726563697069656e743d60448201527f30000000000000000000000000000000000000000000000000000000000000006064820152fd5b15610f7b57565b60646040517f08c379a000000000000000000000000000000000000000000000000000000000815260206004820152601d60248201527f50726f746f636f6c466565436f6c6c6563746f723a20746f6b656e3d300000006044820152fd5b91908201809211610fe657565b7f4e487b7100000000000000000000000000000000000000000000000000000000600052601160045260246000fd5b73ffffffffffffffffffffffffffffffffffffffff60005416330361103657565b7f118cdaa7000000000000000000000000000000000000000000000000000000006000523360045260246000fd5b60027f9b779b17422d0df92223018b32b4d1fa46e071723d6817e2486d003becc55f0054146110b35760027f9b779b17422d0df92223018b32b4d1fa46e071723d6817e2486d003becc55f0055565b7f3ee5aeb50000000000000000000000000000000000000000000000000000000060005260046000fd5b9160209060009073ffffffffffffffffffffffffffffffffffffffff604051947fa9059cbb0000000000000000000000000000000000000000000000000000000084521660045260245260448180865af19060016000511482161561118c575b604052156111485750565b73ffffffffffffffffffffffffffffffffffffffff907f5274afe7000000000000000000000000000000000000000000000000000000006000521660045260246000fd5b90600181151661027057823b15153d1516169061113d56fea26469706673582212204b0799db521df7be6e81d624075070194afff35097448d260255af50e9fcacbe64736f6c634300081e0033","linkReferences":{}},"methodIdentifiers":{"authorizedReporter(address)":"73e29a88","owner()":"8da5cb5b","protocolFeeBps()":"35659fb8","renounceOwnership()":"715018a6","reportFees(uint256,address,uint256)":"fc8e3896","setProtocolFeeBps(uint16)":"be37b12c","setReporter(address,bool)":"e1bb5133","setTreasury(address)":"f0f44260","strategyByToken(uint256,address)":"f7319640","totalByToken(address)":"d4318adf","transferOwnership(address)":"f2fde38b","treasury()":"61d027b3","withdrawAllFees(address[],address)":"1e7d3126","withdrawFees(address,uint256,address)":"9ba372c2"},"id":71}