{"abi":[{"type":"constructor","inputs":[{"name":"initialOwner","type":"address","internalType":"address"},{"name":"initialTreasury","type":"address","internalType":"address"},{"name":"initialProtocolFeeBps","type":"uint16","internalType":"uint16"}],"stateMutability":"nonpayable"},{"type":"function","name":"authorizedReporter","inputs":[{"name":"","type":"address","internalType":"address"}],"outputs":[{"name":"","type":"bool","internalType":"bool"}],"stateMutability":"view"},{"type":"function","name":"owner","inputs":[],"outputs":[{"name":"","type":"address","internalType":"address"}],"stateMutability":"view"},{"type":"function","name":"protocolFeeBps","inputs":[],"outputs":[{"name":"","type":"uint16","internalType":"uint16"}],"stateMutability":"view"},{"type":"function","name":"renounceOwnership","inputs":[],"outputs":[],"stateMutability":"nonpayable"},{"type":"function","name":"reportFees","inputs":[{"name":"strategyId","type":"uint256","internalType":"uint256"},{"name":"token","type":"address","internalType":"address"},{"name":"amount","type":"uint256","internalType":"uint256"}],"outputs":[],"stateMutability":"nonpayable"},{"type":"function","name":"setProtocolFeeBps","inputs":[{"name":"newBps","type":"uint16","internalType":"uint16"}],"outputs":[],"stateMutability":"nonpayable"},{"type":"function","name":"setReporter","inputs":[{"name":"reporter","type":"address","internalType":"address"},{"name":"authorized","type":"bool","internalType":"bool"}],"outputs":[],"stateMutability":"nonpayable"},{"type":"function","name":"setTreasury","inputs":[{"name":"newTreasury","type":"address","internalType":"address"}],"outputs":[],"stateMutability":"nonpayable"},{"type":"function","name":"strategyByToken","inputs":[{"name":"","type":"uint256","internalType":"uint256"},{"name":"","type":"address","internalType":"address"}],"outputs":[{"name":"","type":"uint256","internalType":"uint256"}],"stateMutability":"view"},{"type":"function","name":"totalByToken","inputs":[{"name":"","type":"address","internalType":"address"}],"outputs":[{"name":"","type":"uint256","internalType":"uint256"}],"stateMutability":"view"},{"type":"function","name":"transferOwnership","inputs":[{"name":"newOwner","type":"address","internalType":"address"}],"outputs":[],"stateMutability":"nonpayable"},{"type":"function","name":"treasury","inputs":[],"outputs":[{"name":"","type":"address","internalType":"address"}],"stateMutability":"view"},{"type":"function","name":"withdrawAllFees","inputs":[{"name":"tokens","type":"address[]","internalType":"address[]"},{"name":"to","type":"address","internalType":"address"}],"outputs":[],"stateMutability":"nonpayable"},{"type":"function","name":"withdrawFees","inputs":[{"name":"token","type":"address","internalType":"address"},{"name":"amount","type":"uint256","internalType":"uint256"},{"name":"to","type":"address","internalType":"address"}],"outputs":[],"stateMutability":"nonpayable"},{"type":"event","name":"FeesReported","inputs":[{"name":"reporter","type":"address","indexed":true,"internalType":"address"},{"name":"strategyId","type":"uint256","indexed":true,"internalType":"uint256"},{"name":"token","type":"address","indexed":true,"internalType":"address"},{"name":"amount","type":"uint256","indexed":false,"internalType":"uint256"}],"anonymous":false},{"type":"event","name":"FeesWithdrawn","inputs":[{"name":"token","type":"address","indexed":true,"internalType":"address"},{"name":"to","type":"address","indexed":true,"internalType":"address"},{"name":"amount","type":"uint256","indexed":false,"internalType":"uint256"}],"anonymous":false},{"type":"event","name":"OwnershipTransferred","inputs":[{"name":"previousOwner","type":"address","indexed":true,"internalType":"address"},{"name":"newOwner","type":"address","indexed":true,"internalType":"address"}],"anonymous":false},{"type":"event","name":"ProtocolFeeBpsUpdated","inputs":[{"name":"oldBps","type":"uint16","indexed":false,"internalType":"uint16"},{"name":"newBps","type":"uint16","indexed":false,"internalType":"uint16"}],"anonymous":false},{"type":"event","name":"ReporterAuthorizationUpdated","inputs":[{"name":"reporter","type":"address","indexed":true,"internalType":"address"},{"name":"authorized","type":"bool","indexed":false,"internalType":"bool"}],"anonymous":false},{"type":"event","name":"TreasuryUpdated","inputs":[{"name":"oldTreasury","type":"address","indexed":true,"internalType":"address"},{"name":"newTreasury","type":"address","indexed":true,"internalType":"address"}],"anonymous":false},{"type":"error","name":"OwnableInvalidOwner","inputs":[{"name":"owner","type":"address","internalType":"address"}]},{"type":"error","name":"OwnableUnauthorizedAccount","inputs":[{"name":"account","type":"address","internalType":"address"}]},{"type":"error","name":"ReentrancyGuardReentrantCall","inputs":[]},{"type":"error","name":"SafeERC20FailedOperation","inputs":[{"name":"token","type":"address","internalType":"address"}]}],"bytecode":{"object":"0x6080346101d157601f610df638819003918201601f19168301916001600160401b038311848410176101d6578084926060946040528339810103126101d157610047816101ec565b906040610056602083016101ec565b9101519161ffff8316908184036101d1576001600160a01b03169182156101bb57600080546001600160a01b031981168517825560405194916001600160a01b03909116907f8be0079c531659141344cd1fd0a4f28419497f9722a3daafe3b4186f6b6457e09080a360017f9b779b17422d0df92223018b32b4d1fa46e071723d6817e2486d003becc55f00556001600160a01b0316918215610179575061138810610129576001549161ffff60a01b9060a01b169160018060b01b0319161717600155604051610bf590816102018239f35b60405162461bcd60e51b815260206004820152602260248201527f50726f746f636f6c466565436f6c6c6563746f723a2066656520746f6f2068696044820152610ced60f31b6064820152608490fd5b62461bcd60e51b815260206004820181905260248201527f50726f746f636f6c466565436f6c6c6563746f723a2074726561737572793d306044820152606490fd5b631e4fbdf760e01b600052600060045260246000fd5b600080fd5b634e487b7160e01b600052604160045260246000fd5b51906001600160a01b03821682036101d15756fe6080604052600436101561001257600080fd5b60003560e01c80631e7d31261461080e57806335659fb8146107e957806361d027b3146107c0578063715018a61461076757806373e29a88146107285780638da5cb5b146106ff5780639ba372c214610609578063be37b12c14610533578063d4318adf146104f9578063e1bb51331461042f578063f0f4426014610377578063f2fde38b146102ee578063f7319640146102a65763fc8e3896146100b657600080fd5b346102a15760603660031901126102a1576004356100d26109ef565b90604435916100df610b09565b33600052600260205260ff6040600020541615610250576001600160a01b03169161010b831515610a71565b801561020b5760006020604051916323b872dd60e01b815233600452306024528360445260648180885af1906001600051148216156101e9575b6040526000606052156101d457826000526003602052604060002061016b828254610abd565b90558160005260046020526040600020836000526020526040600020610192828254610abd565b90556040519081527fba4c6cd5cec3d85701362b3e5222938ad616e5ee2ebd30b0a7a42884816d3cc860203392a46001600080516020610bc983398151915255005b82635274afe760e01b60005260045260246000fd5b90600181151661020157843b15153d15161690610145565b503d6000823e3d90fd5b60405162461bcd60e51b815260206004820152601e60248201527f50726f746f636f6c466565436f6c6c6563746f723a20616d6f756e743d3000006044820152606490fd5b60405162461bcd60e51b8152602060048201526024808201527f50726f746f636f6c466565436f6c6c6563746f723a206e6f7420617574686f726044820152631a5e995960e21b6064820152608490fd5b600080fd5b346102a15760403660031901126102a1576102bf6109ef565b600435600052600460205260406000209060018060a01b03166000526020526020604060002054604051908152f35b346102a15760203660031901126102a157610307610a05565b61030f610ae0565b6001600160a01b0316801561036157600080546001600160a01b03198116831782556001600160a01b0316907f8be0079c531659141344cd1fd0a4f28419497f9722a3daafe3b4186f6b6457e09080a3005b631e4fbdf760e01b600052600060045260246000fd5b346102a15760203660031901126102a157610390610a05565b610398610ae0565b6001600160a01b031680156103eb57600180546001600160a01b0319811683179091556001600160a01b03167f4ab5be82436d353e61ca18726e984e561f5c1cc7c6d38b29d2553c790434705a600080a3005b606460405162461bcd60e51b815260206004820152602060248201527f50726f746f636f6c466565436f6c6c6563746f723a2074726561737572793d306044820152fd5b346102a15760403660031901126102a157610448610a05565b602435908115158092036102a15761045e610ae0565b6001600160a01b03169081156104b55760207fe5f91a550f392839def17eb9a01fb77e02e7b5089413c63158f526349d5015e0918360005260028252604060002060ff1981541660ff8316179055604051908152a2005b606460405162461bcd60e51b815260206004820152602060248201527f50726f746f636f6c466565436f6c6c6563746f723a207265706f727465723d306044820152fd5b346102a15760203660031901126102a1576001600160a01b0361051a610a05565b1660005260036020526020604060002054604051908152f35b346102a15760203660031901126102a15760043561ffff81168082036102a15761055b610ae0565b61138881116105b9577f740c4f8812f57c051142b386664c613b7140458e4fd9420eda309b6d0ad31909916040916001549161ffff60a01b9060a01b1661ffff60a01b1983161760015561ffff83519260a01c1682526020820152a1005b60405162461bcd60e51b815260206004820152602260248201527f50726f746f636f6c466565436f6c6c6563746f723a2066656520746f6f2068696044820152610ced60f31b6064820152608490fd5b346102a15760603660031901126102a157610622610a05565b602435906044356001600160a01b038116918282036102a157610643610ae0565b61064b610b09565b6001600160a01b031691610660831515610a71565b6106d557506001546001600160a01b0316917f5e110f8bc8a20b65dcc87f224bdf1cc039346e267118bae2739847f07321ffa8906020905b6001600160a01b038516946106ba9082906106b4881515610a1b565b86610b45565b604051908152a36001600080516020610bc983398151915255005b60207f5e110f8bc8a20b65dcc87f224bdf1cc039346e267118bae2739847f07321ffa89193610698565b346102a15760003660031901126102a1576000546040516001600160a01b039091168152602090f35b346102a15760203660031901126102a1576001600160a01b03610749610a05565b166000526002602052602060ff604060002054166040519015158152f35b346102a15760003660031901126102a157610780610ae0565b600080546001600160a01b0319811682556001600160a01b03167f8be0079c531659141344cd1fd0a4f28419497f9722a3daafe3b4186f6b6457e08280a3005b346102a15760003660031901126102a1576001546040516001600160a01b039091168152602090f35b346102a15760003660031901126102a157602061ffff60015460a01c16604051908152f35b346102a15760403660031901126102a15760043567ffffffffffffffff81116102a157366023820112156102a157806004013567ffffffffffffffff81116102a1573660248260051b840101116102a1576108676109ef565b61086f610ae0565b610877610b09565b6001600160a01b0381166109ea57506001546001600160a01b03165b6001600160a01b038116906108a9821515610a1b565b60005b838110156109d6576000906024600582901b870101356001600160a01b038116908190036109d2576108df811515610a71565b6040516370a0823160e01b8152306004820152602081602481855afa9081156109c75790869291859161095f575b506001945080610921575b505050016108ac565b6020816109507f5e110f8bc8a20b65dcc87f224bdf1cc039346e267118bae2739847f07321ffa8938986610b45565b604051908152a3838780610918565b925050919260203d81116109c0575b601f8101601f1916830167ffffffffffffffff8111848210176109ac576020918491604052810103126109a95750600192918591518961090d565b80fd5b634e487b7160e01b83526041600452602483fd5b503d61096e565b6040513d86823e3d90fd5b8280fd5b6001600080516020610bc983398151915255005b610893565b602435906001600160a01b03821682036102a157565b600435906001600160a01b03821682036102a157565b15610a2257565b60405162461bcd60e51b815260206004820152602160248201527f50726f746f636f6c466565436f6c6c6563746f723a20726563697069656e743d6044820152600360fc1b6064820152608490fd5b15610a7857565b60405162461bcd60e51b815260206004820152601d60248201527f50726f746f636f6c466565436f6c6c6563746f723a20746f6b656e3d300000006044820152606490fd5b91908201809211610aca57565b634e487b7160e01b600052601160045260246000fd5b6000546001600160a01b03163303610af457565b63118cdaa760e01b6000523360045260246000fd5b6002600080516020610bc98339815191525414610b34576002600080516020610bc983398151915255565b633ee5aeb560e01b60005260046000fd5b60405163a9059cbb60e01b60009081526001600160a01b03909316600452602493909352919060209060448180865af190600160005114821615610bb0575b60405215610b8f5750565b635274afe760e01b60009081526001600160a01b0391909116600452602490fd5b90600181151661020157823b15153d15161690610b8456fe9b779b17422d0df92223018b32b4d1fa46e071723d6817e2486d003becc55f00a164736f6c634300081e000a","linkReferences":{}},"methodIdentifiers":{"authorizedReporter(address)":"73e29a88","owner()":"8da5cb5b","protocolFeeBps()":"35659fb8","renounceOwnership()":"715018a6","reportFees(uint256,address,uint256)":"fc8e3896","setProtocolFeeBps(uint16)":"be37b12c","setReporter(address,bool)":"e1bb5133","setTreasury(address)":"f0f44260","strategyByToken(uint256,address)":"f7319640","totalByToken(address)":"d4318adf","transferOwnership(address)":"f2fde38b","treasury()":"61d027b3","withdrawAllFees(address[],address)":"1e7d3126","withdrawFees(address,uint256,address)":"9ba372c2"},"id":71}