{"abi":[{"type":"constructor","inputs":[{"name":"initialOwner","type":"address","internalType":"address"}],"stateMutability":"nonpayable"},{"type":"function","name":"allowedAdapters","inputs":[{"name":"","type":"address","internalType":"address"}],"outputs":[{"name":"","type":"bool","internalType":"bool"}],"stateMutability":"view"},{"type":"function","name":"allowedRouters","inputs":[{"name":"","type":"address","internalType":"address"}],"outputs":[{"name":"","type":"bool","internalType":"bool"}],"stateMutability":"view"},{"type":"function","name":"getAllStrategiesByOwner","inputs":[{"name":"owner","type":"address","internalType":"address"}],"outputs":[{"name":"all","type":"tuple[]","internalType":"struct StrategyRegistry.Strategy[]","components":[{"name":"adapter","type":"address","internalType":"address"},{"name":"dexRouter","type":"address","internalType":"address"},{"name":"token0","type":"address","internalType":"address"},{"name":"token1","type":"address","internalType":"address"},{"name":"name","type":"string","internalType":"string"},{"name":"description","type":"string","internalType":"string"},{"name":"active","type":"bool","internalType":"bool"}]}],"stateMutability":"view"},{"type":"function","name":"getMyStrategy","inputs":[{"name":"strategyId","type":"uint256","internalType":"uint256"}],"outputs":[{"name":"s","type":"tuple","internalType":"struct StrategyRegistry.Strategy","components":[{"name":"adapter","type":"address","internalType":"address"},{"name":"dexRouter","type":"address","internalType":"address"},{"name":"token0","type":"address","internalType":"address"},{"name":"token1","type":"address","internalType":"address"},{"name":"name","type":"string","internalType":"string"},{"name":"description","type":"string","internalType":"string"},{"name":"active","type":"bool","internalType":"bool"}]}],"stateMutability":"view"},{"type":"function","name":"getStrategy","inputs":[{"name":"owner","type":"address","internalType":"address"},{"name":"strategyId","type":"uint256","internalType":"uint256"}],"outputs":[{"name":"s","type":"tuple","internalType":"struct StrategyRegistry.Strategy","components":[{"name":"adapter","type":"address","internalType":"address"},{"name":"dexRouter","type":"address","internalType":"address"},{"name":"token0","type":"address","internalType":"address"},{"name":"token1","type":"address","internalType":"address"},{"name":"name","type":"string","internalType":"string"},{"name":"description","type":"string","internalType":"string"},{"name":"active","type":"bool","internalType":"bool"}]}],"stateMutability":"view"},{"type":"function","name":"getStrategyIdsByOwner","inputs":[{"name":"owner","type":"address","internalType":"address"}],"outputs":[{"name":"ids","type":"uint256[]","internalType":"uint256[]"}],"stateMutability":"view"},{"type":"function","name":"isStrategyActive","inputs":[{"name":"owner","type":"address","internalType":"address"},{"name":"strategyId","type":"uint256","internalType":"uint256"}],"outputs":[{"name":"","type":"bool","internalType":"bool"}],"stateMutability":"view"},{"type":"function","name":"nextStrategyIdByOwner","inputs":[{"name":"","type":"address","internalType":"address"}],"outputs":[{"name":"","type":"uint256","internalType":"uint256"}],"stateMutability":"view"},{"type":"function","name":"owner","inputs":[],"outputs":[{"name":"","type":"address","internalType":"address"}],"stateMutability":"view"},{"type":"function","name":"registerStrategy","inputs":[{"name":"adapter","type":"address","internalType":"address"},{"name":"dexRouter","type":"address","internalType":"address"},{"name":"token0","type":"address","internalType":"address"},{"name":"token1","type":"address","internalType":"address"},{"name":"name","type":"string","internalType":"string"},{"name":"description","type":"string","internalType":"string"}],"outputs":[{"name":"strategyId","type":"uint256","internalType":"uint256"}],"stateMutability":"nonpayable"},{"type":"function","name":"renounceOwnership","inputs":[],"outputs":[],"stateMutability":"nonpayable"},{"type":"function","name":"setAdapterAllowed","inputs":[{"name":"adapter","type":"address","internalType":"address"},{"name":"allowed","type":"bool","internalType":"bool"}],"outputs":[],"stateMutability":"nonpayable"},{"type":"function","name":"setRouterAllowed","inputs":[{"name":"router","type":"address","internalType":"address"},{"name":"allowed","type":"bool","internalType":"bool"}],"outputs":[],"stateMutability":"nonpayable"},{"type":"function","name":"setStrategyActive","inputs":[{"name":"strategyId","type":"uint256","internalType":"uint256"},{"name":"active","type":"bool","internalType":"bool"}],"outputs":[],"stateMutability":"nonpayable"},{"type":"function","name":"strategiesLengthByOwner","inputs":[{"name":"owner","type":"address","internalType":"address"}],"outputs":[{"name":"length","type":"uint256","internalType":"uint256"}],"stateMutability":"view"},{"type":"function","name":"transferOwnership","inputs":[{"name":"newOwner","type":"address","internalType":"address"}],"outputs":[],"stateMutability":"nonpayable"},{"type":"function","name":"updateStrategy","inputs":[{"name":"strategyId","type":"uint256","internalType":"uint256"},{"name":"adapter","type":"address","internalType":"address"},{"name":"dexRouter","type":"address","internalType":"address"},{"name":"token0","type":"address","internalType":"address"},{"name":"token1","type":"address","internalType":"address"},{"name":"name","type":"string","internalType":"string"},{"name":"description","type":"string","internalType":"string"}],"outputs":[],"stateMutability":"nonpayable"},{"type":"event","name":"AdapterAllowlistUpdated","inputs":[{"name":"adapter","type":"address","indexed":true,"internalType":"address"},{"name":"allowed","type":"bool","indexed":false,"internalType":"bool"}],"anonymous":false},{"type":"event","name":"OwnershipTransferred","inputs":[{"name":"previousOwner","type":"address","indexed":true,"internalType":"address"},{"name":"newOwner","type":"address","indexed":true,"internalType":"address"}],"anonymous":false},{"type":"event","name":"RouterAllowlistUpdated","inputs":[{"name":"router","type":"address","indexed":true,"internalType":"address"},{"name":"allowed","type":"bool","indexed":false,"internalType":"bool"}],"anonymous":false},{"type":"event","name":"StrategyRegistered","inputs":[{"name":"owner","type":"address","indexed":true,"internalType":"address"},{"name":"strategyId","type":"uint256","indexed":true,"internalType":"uint256"},{"name":"adapter","type":"address","indexed":true,"internalType":"address"},{"name":"dexRouter","type":"address","indexed":false,"internalType":"address"},{"name":"token0","type":"address","indexed":false,"internalType":"address"},{"name":"token1","type":"address","indexed":false,"internalType":"address"},{"name":"name","type":"string","indexed":false,"internalType":"string"}],"anonymous":false},{"type":"event","name":"StrategyStatusChanged","inputs":[{"name":"owner","type":"address","indexed":true,"internalType":"address"},{"name":"strategyId","type":"uint256","indexed":true,"internalType":"uint256"},{"name":"active","type":"bool","indexed":false,"internalType":"bool"}],"anonymous":false},{"type":"event","name":"StrategyUpdated","inputs":[{"name":"owner","type":"address","indexed":true,"internalType":"address"},{"name":"strategyId","type":"uint256","indexed":true,"internalType":"uint256"},{"name":"adapter","type":"address","indexed":true,"internalType":"address"},{"name":"dexRouter","type":"address","indexed":false,"internalType":"address"},{"name":"token0","type":"address","indexed":false,"internalType":"address"},{"name":"token1","type":"address","indexed":false,"internalType":"address"},{"name":"name","type":"string","indexed":false,"internalType":"string"}],"anonymous":false},{"type":"error","name":"OwnableInvalidOwner","inputs":[{"name":"owner","type":"address","internalType":"address"}]},{"type":"error","name":"OwnableUnauthorizedAccount","inputs":[{"name":"account","type":"address","internalType":"address"}]}],"bytecode":{"object":"0x60803460bc57601f61224b38819003918201601f19168301916001600160401b0383118484101760c15780849260209460405283398101031260bc57516001600160a01b0381169081900360bc57801560a657600080546001600160a01b031981168317825560405192916001600160a01b03909116907f8be0079c531659141344cd1fd0a4f28419497f9722a3daafe3b4186f6b6457e09080a361217390816100d88239f35b631e4fbdf760e01b600052600060045260246000fd5b600080fd5b634e487b7160e01b600052604160045260246000fdfe6080604052600436101561001257600080fd5b60003560e01c8063033a1560146111245780630c7de627146110dd5780631b51521e146110785780632f600d2014610f935780633bdfe4f514610f295780634648f90314610ecb5780636cc88edb14610dfd578063715018a614610d61578063885ebb6814610ac85780638da5cb5b14610a76578063aa5999e014610558578063b2976fb91461047f578063c646aee214610415578063e74c0d7614610338578063f2fde38b14610246578063fecc9870146101415763ff6a9cba146100d757600080fd5b3461013c5760207ffffffffffffffffffffffffffffffffffffffffffffffffffffffffffffffffc36011261013c5773ffffffffffffffffffffffffffffffffffffffff6101236117a2565b1660005260036020526020604060002054604051908152f35b600080fd5b3461013c5760407ffffffffffffffffffffffffffffffffffffffffffffffffffffffffffffffffc36011261013c5773ffffffffffffffffffffffffffffffffffffffff61018d6117a2565b16600052600460205260406000206024356000526020526020604060002073ffffffffffffffffffffffffffffffffffffffff60ff6006604051936101d185611c50565b838154168552836001820154168686015283600282015416604086015283600382015416606086015261020660048201611e62565b608086015261021760058201611e62565b60a08601520154161515918260c082015251161515908161023e575b506040519015158152f35b905082610233565b3461013c5760207ffffffffffffffffffffffffffffffffffffffffffffffffffffffffffffffffc36011261013c5773ffffffffffffffffffffffffffffffffffffffff6102926117a2565b61029a6120ee565b1680156103095773ffffffffffffffffffffffffffffffffffffffff600054827fffffffffffffffffffffffff0000000000000000000000000000000000000000821617600055167f8be0079c531659141344cd1fd0a4f28419497f9722a3daafe3b4186f6b6457e0600080a3005b7f1e4fbdf700000000000000000000000000000000000000000000000000000000600052600060045260246000fd5b3461013c5760407ffffffffffffffffffffffffffffffffffffffffffffffffffffffffffffffffc36011261013c57600435610372611972565b3360005260046020526040600020826000526020526103e581600660406000206103b473ffffffffffffffffffffffffffffffffffffffff8254161515611f24565b019060ff7fffffffffffffffffffffffffffffffffffffffffffffffffffffffffffffff0083541691151516179055565b60405190151581527f0171e1e915e498d12a7928078d20ed4bfc9e259f099d772795b829259cf44fc260203392a3005b3461013c5760207ffffffffffffffffffffffffffffffffffffffffffffffffffffffffffffffffc36011261013c5773ffffffffffffffffffffffffffffffffffffffff6104616117a2565b166000526002602052602060ff604060002054166040519015158152f35b3461013c5760407ffffffffffffffffffffffffffffffffffffffffffffffffffffffffffffffffc36011261013c576104b66117a2565b7ffa6867abe1e1b14d8dcd1b145316fbb69828ba5c807f23653167f6a7ea50306a602073ffffffffffffffffffffffffffffffffffffffff6104f6611972565b936104ff6120ee565b169261050c841515611981565b836000526001825261054d8160406000209060ff7fffffffffffffffffffffffffffffffffffffffffffffffffffffffffffffff0083541691151516179055565b6040519015158152a2005b3461013c5760e07ffffffffffffffffffffffffffffffffffffffffffffffffffffffffffffffffc36011261013c576004356105926117c5565b9061059b6117e8565b6105a361180b565b6084359073ffffffffffffffffffffffffffffffffffffffff82169485830361013c5760a43567ffffffffffffffff811161013c576105e690369060040161182e565b9160c43567ffffffffffffffff811161013c5761060790369060040161182e565b909133600052600460205260406000208960005260205273ffffffffffffffffffffffffffffffffffffffff604060002091610647828454161515611f24565b16996106548b1515611981565b73ffffffffffffffffffffffffffffffffffffffff89166106768115156119e6565b73ffffffffffffffffffffffffffffffffffffffff88169081151580610a6d575b6106a090611a4b565b6106ac83831415611ab0565b8c60005260016020526106c660ff60406000205416611b3b565b8060005260026020526106e060ff60406000205416611bc6565b8c7fffffffffffffffffffffffff000000000000000000000000000000000000000085541617845560018401907fffffffffffffffffffffffff000000000000000000000000000000000000000082541617905560028301907fffffffffffffffffffffffff000000000000000000000000000000000000000082541617905560038201907fffffffffffffffffffffffff0000000000000000000000000000000000000000825416179055600481019067ffffffffffffffff861161098e576107b4866107ae8454611d12565b84611d65565b60009186601f81116001146109c85780610804916005956000916109bd575b507fffffffffffffffffffffffffffffffffffffffffffffffffffffffffffffffff8260011b9260031b1c19161790565b90555b019167ffffffffffffffff821161098e5761082c826108268554611d12565b85611d65565b600090601f83116001146108c557826108b595937f806900b4d7260020cf93e950b3ae409de5f6a3c53504dca4e2149844d1fcb7ba99989795936108a4936000926108ba575b50507fffffffffffffffffffffffffffffffffffffffffffffffffffffffffffffffff8260011b9260031b1c19161790565b90555b604051948594339886611db7565b0390a4005b013590508d80610872565b83825260208220917fffffffffffffffffffffffffffffffffffffffffffffffffffffffffffffffe08416815b81811061097657509260019285926108b598967f806900b4d7260020cf93e950b3ae409de5f6a3c53504dca4e2149844d1fcb7ba9c9b9a98961061093e575b505050811b0190556108a7565b7fffffffffffffffffffffffffffffffffffffffffffffffffffffffffffffffff60f88560031b161c199101351690558c8080610931565b919360206001819287870135815501950192016108f2565b7f4e487b7100000000000000000000000000000000000000000000000000000000600052604160045260246000fd5b90508801358f6107d3565b7fffffffffffffffffffffffffffffffffffffffffffffffffffffffffffffffe0169281815260208120908881955b808710610a4f576005965010610a17575b5050600187811b019055610807565b7fffffffffffffffffffffffffffffffffffffffffffffffffffffffffffffffff60f88a60031b161c19908801351690558c80610a08565b898301358455602096870196600190940193909201918a91506109f7565b50821515610697565b3461013c5760007ffffffffffffffffffffffffffffffffffffffffffffffffffffffffffffffffc36011261013c57602073ffffffffffffffffffffffffffffffffffffffff60005416604051908152f35b3461013c5760207ffffffffffffffffffffffffffffffffffffffffffffffffffffffffffffffffc36011261013c5773ffffffffffffffffffffffffffffffffffffffff610b146117a2565b168060005260056020526040600020906040518083602082955493848152019060005260206000209260005b818110610d48575050610b5592500383611c6c565b8151917fffffffffffffffffffffffffffffffffffffffffffffffffffffffffffffffe0610b9b610b85856120c2565b94610b936040519687611c6c565b8086526120c2565b0160005b818110610d3157505060005b8151811015610cad576001908360005260046020526040600020610bcf82856120da565b51600052602052604060002060ff600660405192610bec84611c50565b73ffffffffffffffffffffffffffffffffffffffff815416845273ffffffffffffffffffffffffffffffffffffffff8682015416602085015273ffffffffffffffffffffffffffffffffffffffff600282015416604085015273ffffffffffffffffffffffffffffffffffffffff6003820154166060850152610c7160048201611e62565b6080850152610c8260058201611e62565b60a0850152015416151560c0820152610c9b82876120da565b52610ca681866120da565b5001610bab565b836040518091602082016020835281518091526040830190602060408260051b8601019301916000905b828210610ce657505050500390f35b91936020610d21827fffffffffffffffffffffffffffffffffffffffffffffffffffffffffffffffc0600195979984950301865288516118bb565b9601920192018594939192610cd7565b602090610d3c611e29565b82828801015201610b9f565b8454835260019485019487945060209093019201610b40565b3461013c5760007ffffffffffffffffffffffffffffffffffffffffffffffffffffffffffffffffc36011261013c57610d986120ee565b600073ffffffffffffffffffffffffffffffffffffffff81547fffffffffffffffffffffffff000000000000000000000000000000000000000081168355167f8be0079c531659141344cd1fd0a4f28419497f9722a3daafe3b4186f6b6457e08280a3005b3461013c5760407ffffffffffffffffffffffffffffffffffffffffffffffffffffffffffffffffc36011261013c57610e346117a2565b7f45c10d9ef89aef5e9ff4cc0f5cd4020b4fd814b606e3263e5d314016cfc5a553602073ffffffffffffffffffffffffffffffffffffffff610e74611972565b93610e7d6120ee565b1692610e8a8415156119e6565b836000526002825261054d8160406000209060ff7fffffffffffffffffffffffffffffffffffffffffffffffffffffffffffffff0083541691151516179055565b3461013c5760407ffffffffffffffffffffffffffffffffffffffffffffffffffffffffffffffffc36011261013c57610f25610f11610f086117a2565b60243590611faf565b6040519182916020835260208301906118bb565b0390f35b3461013c5760207ffffffffffffffffffffffffffffffffffffffffffffffffffffffffffffffffc36011261013c5773ffffffffffffffffffffffffffffffffffffffff610f756117a2565b166000526001602052602060ff604060002054166040519015158152f35b3461013c5760207ffffffffffffffffffffffffffffffffffffffffffffffffffffffffffffffffc36011261013c5773ffffffffffffffffffffffffffffffffffffffff610fdf6117a2565b16600052600560205260406000206040518060208354918281520190819360005260206000209060005b818110611062575050508161101f910382611c6c565b6040519182916020830190602084525180915260408301919060005b818110611049575050500390f35b825184528594506020938401939092019160010161103b565b8254845260209093019260019283019201611009565b3461013c5760207ffffffffffffffffffffffffffffffffffffffffffffffffffffffffffffffffc36011261013c5773ffffffffffffffffffffffffffffffffffffffff6110c46117a2565b1660005260056020526020604060002054604051908152f35b3461013c5760207ffffffffffffffffffffffffffffffffffffffffffffffffffffffffffffffffc36011261013c57611114611e29565b50610f25610f1160043533611faf565b3461013c5760c07ffffffffffffffffffffffffffffffffffffffffffffffffffffffffffffffffc36011261013c5761115b6117a2565b6111636117c5565b9061116c6117e8565b9061117561180b565b9160843567ffffffffffffffff811161013c5761119690369060040161182e565b94909160a4359467ffffffffffffffff861161013c576111cf73ffffffffffffffffffffffffffffffffffffffff96369060040161182e565b96909516946111df861515611981565b73ffffffffffffffffffffffffffffffffffffffff84166112018115156119e6565b73ffffffffffffffffffffffffffffffffffffffff84169081151580611783575b61122b90611a4b565b73ffffffffffffffffffffffffffffffffffffffff84169861124f8a841415611ab0565b88600052600160205261126960ff60406000205416611b3b565b81600052600260205261128360ff60406000205416611bc6565b336000526003602052604060002054998a1561177a575b60018b0190818c1161174b5773ffffffffffffffffffffffffffffffffffffffff8c95818f8e996113068f61131593859933600052600360205260406000205560606040519e8f906112eb82611c50565b8152602081019d8e5260408101988952019889523691611cad565b9760808c019889523691611cad565b9660a08a0197885260c08a019860018a52336000526004602052604060002090600052602052818060406000209b5116167fffffffffffffffffffffffff00000000000000000000000000000000000000008b5416178a5551168260018a0191167fffffffffffffffffffffffff00000000000000000000000000000000000000008254161790555116826002880191167fffffffffffffffffffffffff0000000000000000000000000000000000000000825416179055511673ffffffffffffffffffffffffffffffffffffffff6003860191167fffffffffffffffffffffffff000000000000000000000000000000000000000082541617905560048401905180519067ffffffffffffffff821161098e57611437826108268554611d12565b602090601f83116001146116a85761148492916000918361169d5750507fffffffffffffffffffffffffffffffffffffffffffffffffffffffffffffffff8260011b9260031b1c19161790565b90555b518051600584019167ffffffffffffffff821161098e576114ac826108268554611d12565b602090601f83116001146115f2578261153a96959360069593611502936000926115e75750507fffffffffffffffffffffffffffffffffffffffffffffffffffffffffffffffff8260011b9260031b1c19161790565b90555b51151591019060ff7fffffffffffffffffffffffffffffffffffffffffffffffffffffffffffffff0083541691151516179055565b33600052600560205260406000209182546801000000000000000081101561098e57600181018085558110156115b8576020988896876115ad937f18e6fe596242d14212f76cb3f2acb1eb11007b13a9e2ae3a0e5a90bd339650c0976000528c6000200155604051948594339886611db7565b0390a4604051908152f35b7f4e487b7100000000000000000000000000000000000000000000000000000000600052603260045260246000fd5b015190508f80610872565b907fffffffffffffffffffffffffffffffffffffffffffffffffffffffffffffffe083169184600052816000209260005b818110611685575092600192859261153a999896600698961061164e575b505050811b019055611505565b01517fffffffffffffffffffffffffffffffffffffffffffffffffffffffffffffffff60f88460031b161c191690558e8080611641565b92936020600181928786015181550195019301611623565b015190508e80610872565b907fffffffffffffffffffffffffffffffffffffffffffffffffffffffffffffffe083169184600052816000209260005b81811061173357509084600195949392106116fc575b505050811b019055611487565b01517fffffffffffffffffffffffffffffffffffffffffffffffffffffffffffffffff60f88460031b161c191690558d80806116ef565b929360206001819287860151815501950193016116d9565b7f4e487b7100000000000000000000000000000000000000000000000000000000600052601160045260246000fd5b60019a5061129a565b5073ffffffffffffffffffffffffffffffffffffffff84161515611222565b6004359073ffffffffffffffffffffffffffffffffffffffff8216820361013c57565b6024359073ffffffffffffffffffffffffffffffffffffffff8216820361013c57565b6044359073ffffffffffffffffffffffffffffffffffffffff8216820361013c57565b6064359073ffffffffffffffffffffffffffffffffffffffff8216820361013c57565b9181601f8401121561013c5782359167ffffffffffffffff831161013c576020838186019501011161013c57565b919082519283825260005b8481106118a65750507fffffffffffffffffffffffffffffffffffffffffffffffffffffffffffffffe0601f8460006020809697860101520116010190565b80602080928401015182828601015201611867565b9073ffffffffffffffffffffffffffffffffffffffff825116815273ffffffffffffffffffffffffffffffffffffffff602083015116602082015273ffffffffffffffffffffffffffffffffffffffff604083015116604082015273ffffffffffffffffffffffffffffffffffffffff606083015116606082015260c080611967611955608086015160e0608087015260e086019061185c565b60a086015185820360a087015261185c565b930151151591015290565b60243590811515820361013c57565b1561198857565b60646040517f08c379a000000000000000000000000000000000000000000000000000000000815260206004820152601b60248201527f537472617465677952656769737472793a20616461707465723d3000000000006044820152fd5b156119ed57565b60646040517f08c379a000000000000000000000000000000000000000000000000000000000815260206004820152601a60248201527f537472617465677952656769737472793a20726f757465723d300000000000006044820152fd5b15611a5257565b60646040517f08c379a000000000000000000000000000000000000000000000000000000000815260206004820152601a60248201527f537472617465677952656769737472793a20746f6b656e733d300000000000006044820152fd5b15611ab757565b60846040517f08c379a000000000000000000000000000000000000000000000000000000000815260206004820152602260248201527f537472617465677952656769737472793a206964656e746963616c20746f6b6560448201527f6e730000000000000000000000000000000000000000000000000000000000006064820152fd5b15611b4257565b60846040517f08c379a000000000000000000000000000000000000000000000000000000000815260206004820152602560248201527f537472617465677952656769737472793a2061646170746572206e6f7420616c60448201527f6c6f7765640000000000000000000000000000000000000000000000000000006064820152fd5b15611bcd57565b60846040517f08c379a0000000000000000000000000000000000000000000000000000000008152602060048201526024808201527f537472617465677952656769737472793a20726f75746572206e6f7420616c6c60448201527f6f776564000000000000000000000000000000000000000000000000000000006064820152fd5b60e0810190811067ffffffffffffffff82111761098e57604052565b90601f7fffffffffffffffffffffffffffffffffffffffffffffffffffffffffffffffe0910116810190811067ffffffffffffffff82111761098e57604052565b92919267ffffffffffffffff821161098e5760405191611cf560207fffffffffffffffffffffffffffffffffffffffffffffffffffffffffffffffe0601f8401160184611c6c565b82948184528183011161013c578281602093846000960137010152565b90600182811c92168015611d5b575b6020831014611d2c57565b7f4e487b7100000000000000000000000000000000000000000000000000000000600052602260045260246000fd5b91607f1691611d21565b601f8211611d7257505050565b6000526020600020906020601f840160051c83019310611dad575b601f0160051c01905b818110611da1575050565b60008155600101611d96565b9091508190611d8d565b939460a09573ffffffffffffffffffffffffffffffffffffffff7fffffffffffffffffffffffffffffffffffffffffffffffffffffffffffffffe09581601f96818697168a52166020890152166040870152608060608701528160808701528686013760008582860101520116010190565b60405190611e3682611c50565b600060c08382815282602082015282604082015282606082015260606080820152606060a08201520152565b9060405191826000825492611e7684611d12565b8084529360018116908115611ee45750600114611e9d575b50611e9b92500383611c6c565b565b90506000929192526020600020906000915b818310611ec8575050906020611e9b9282010138611e8e565b6020919350806001915483858901015201910190918492611eaf565b60209350611e9b9592507fffffffffffffffffffffffffffffffffffffffffffffffffffffffffffffff0091501682840152151560051b82010138611e8e565b15611f2b57565b60846040517f08c379a000000000000000000000000000000000000000000000000000000000815260206004820152602260248201527f537472617465677952656769737472793a20756e6b6e6f776e2073747261746560448201527f67790000000000000000000000000000000000000000000000000000000000006064820152fd5b73ffffffffffffffffffffffffffffffffffffffff90611fcd611e29565b5016600052600460205260406000209060005260205260406000209060ff600660405193611ffa85611c50565b73ffffffffffffffffffffffffffffffffffffffff815416855273ffffffffffffffffffffffffffffffffffffffff600182015416602086015273ffffffffffffffffffffffffffffffffffffffff600282015416604086015273ffffffffffffffffffffffffffffffffffffffff600382015416606086015261208060048201611e62565b608086015261209160058201611e62565b60a0860152015416151560c0830152611e9b73ffffffffffffffffffffffffffffffffffffffff8351161515611f24565b67ffffffffffffffff811161098e5760051b60200190565b80518210156115b85760209160051b010190565b73ffffffffffffffffffffffffffffffffffffffff60005416330361210f57565b7f118cdaa7000000000000000000000000000000000000000000000000000000006000523360045260246000fdfea2646970667358221220144b0e39a5bbb43e347ffdad1c5469bbb5ae6fc8ff2a5e61b1d0e5f860f2a80964736f6c634300081e0033","linkReferences":{}},"methodIdentifiers":{"allowedAdapters(address)":"3bdfe4f5","allowedRouters(address)":"c646aee2","getAllStrategiesByOwner(address)":"885ebb68","getMyStrategy(uint256)":"0c7de627","getStrategy(address,uint256)":"4648f903","getStrategyIdsByOwner(address)":"2f600d20","isStrategyActive(address,uint256)":"fecc9870","nextStrategyIdByOwner(address)":"ff6a9cba","owner()":"8da5cb5b","registerStrategy(address,address,address,address,string,string)":"033a1560","renounceOwnership()":"715018a6","setAdapterAllowed(address,bool)":"b2976fb9","setRouterAllowed(address,bool)":"6cc88edb","setStrategyActive(uint256,bool)":"e74c0d76","strategiesLengthByOwner(address)":"1b51521e","transferOwnership(address)":"f2fde38b","updateStrategy(uint256,address,address,address,address,string,string)":"aa5999e0"},"id":72}