{"abi":[{"type":"constructor","inputs":[{"name":"initialOwner","type":"address","internalType":"address"}],"stateMutability":"nonpayable"},{"type":"function","name":"allowedAdapters","inputs":[{"name":"","type":"address","internalType":"address"}],"outputs":[{"name":"","type":"bool","internalType":"bool"}],"stateMutability":"view"},{"type":"function","name":"allowedRouters","inputs":[{"name":"","type":"address","internalType":"address"}],"outputs":[{"name":"","type":"bool","internalType":"bool"}],"stateMutability":"view"},{"type":"function","name":"getAllStrategiesByOwner","inputs":[{"name":"owner","type":"address","internalType":"address"}],"outputs":[{"name":"all","type":"tuple[]","internalType":"struct StrategyRegistry.Strategy[]","components":[{"name":"adapter","type":"address","internalType":"address"},{"name":"dexRouter","type":"address","internalType":"address"},{"name":"token0","type":"address","internalType":"address"},{"name":"token1","type":"address","internalType":"address"},{"name":"name","type":"string","internalType":"string"},{"name":"description","type":"string","internalType":"string"},{"name":"active","type":"bool","internalType":"bool"}]}],"stateMutability":"view"},{"type":"function","name":"getMyStrategy","inputs":[{"name":"strategyId","type":"uint256","internalType":"uint256"}],"outputs":[{"name":"s","type":"tuple","internalType":"struct StrategyRegistry.Strategy","components":[{"name":"adapter","type":"address","internalType":"address"},{"name":"dexRouter","type":"address","internalType":"address"},{"name":"token0","type":"address","internalType":"address"},{"name":"token1","type":"address","internalType":"address"},{"name":"name","type":"string","internalType":"string"},{"name":"description","type":"string","internalType":"string"},{"name":"active","type":"bool","internalType":"bool"}]}],"stateMutability":"view"},{"type":"function","name":"getStrategy","inputs":[{"name":"owner","type":"address","internalType":"address"},{"name":"strategyId","type":"uint256","internalType":"uint256"}],"outputs":[{"name":"s","type":"tuple","internalType":"struct StrategyRegistry.Strategy","components":[{"name":"adapter","type":"address","internalType":"address"},{"name":"dexRouter","type":"address","internalType":"address"},{"name":"token0","type":"address","internalType":"address"},{"name":"token1","type":"address","internalType":"address"},{"name":"name","type":"string","internalType":"string"},{"name":"description","type":"string","internalType":"string"},{"name":"active","type":"bool","internalType":"bool"}]}],"stateMutability":"view"},{"type":"function","name":"getStrategyIdsByOwner","inputs":[{"name":"owner","type":"address","internalType":"address"}],"outputs":[{"name":"ids","type":"uint256[]","internalType":"uint256[]"}],"stateMutability":"view"},{"type":"function","name":"isStrategyActive","inputs":[{"name":"owner","type":"address","internalType":"address"},{"name":"strategyId","type":"uint256","internalType":"uint256"}],"outputs":[{"name":"","type":"bool","internalType":"bool"}],"stateMutability":"view"},{"type":"function","name":"nextStrategyIdByOwner","inputs":[{"name":"","type":"address","internalType":"address"}],"outputs":[{"name":"","type":"uint256","internalType":"uint256"}],"stateMutability":"view"},{"type":"function","name":"owner","inputs":[],"outputs":[{"name":"","type":"address","internalType":"address"}],"stateMutability":"view"},{"type":"function","name":"registerStrategy","inputs":[{"name":"adapter","type":"address","internalType":"address"},{"name":"dexRouter","type":"address","internalType":"address"},{"name":"token0","type":"address","internalType":"address"},{"name":"token1","type":"address","internalType":"address"},{"name":"name","type":"string","internalType":"string"},{"name":"description","type":"string","internalType":"string"}],"outputs":[{"name":"strategyId","type":"uint256","internalType":"uint256"}],"stateMutability":"nonpayable"},{"type":"function","name":"renounceOwnership","inputs":[],"outputs":[],"stateMutability":"nonpayable"},{"type":"function","name":"setAdapterAllowed","inputs":[{"name":"adapter","type":"address","internalType":"address"},{"name":"allowed","type":"bool","internalType":"bool"}],"outputs":[],"stateMutability":"nonpayable"},{"type":"function","name":"setRouterAllowed","inputs":[{"name":"router","type":"address","internalType":"address"},{"name":"allowed","type":"bool","internalType":"bool"}],"outputs":[],"stateMutability":"nonpayable"},{"type":"function","name":"setStrategyActive","inputs":[{"name":"strategyId","type":"uint256","internalType":"uint256"},{"name":"active","type":"bool","internalType":"bool"}],"outputs":[],"stateMutability":"nonpayable"},{"type":"function","name":"strategiesLengthByOwner","inputs":[{"name":"owner","type":"address","internalType":"address"}],"outputs":[{"name":"length","type":"uint256","internalType":"uint256"}],"stateMutability":"view"},{"type":"function","name":"transferOwnership","inputs":[{"name":"newOwner","type":"address","internalType":"address"}],"outputs":[],"stateMutability":"nonpayable"},{"type":"function","name":"updateStrategy","inputs":[{"name":"strategyId","type":"uint256","internalType":"uint256"},{"name":"adapter","type":"address","internalType":"address"},{"name":"dexRouter","type":"address","internalType":"address"},{"name":"token0","type":"address","internalType":"address"},{"name":"token1","type":"address","internalType":"address"},{"name":"name","type":"string","internalType":"string"},{"name":"description","type":"string","internalType":"string"}],"outputs":[],"stateMutability":"nonpayable"},{"type":"event","name":"AdapterAllowlistUpdated","inputs":[{"name":"adapter","type":"address","indexed":true,"internalType":"address"},{"name":"allowed","type":"bool","indexed":false,"internalType":"bool"}],"anonymous":false},{"type":"event","name":"OwnershipTransferred","inputs":[{"name":"previousOwner","type":"address","indexed":true,"internalType":"address"},{"name":"newOwner","type":"address","indexed":true,"internalType":"address"}],"anonymous":false},{"type":"event","name":"RouterAllowlistUpdated","inputs":[{"name":"router","type":"address","indexed":true,"internalType":"address"},{"name":"allowed","type":"bool","indexed":false,"internalType":"bool"}],"anonymous":false},{"type":"event","name":"StrategyRegistered","inputs":[{"name":"owner","type":"address","indexed":true,"internalType":"address"},{"name":"strategyId","type":"uint256","indexed":true,"internalType":"uint256"},{"name":"adapter","type":"address","indexed":true,"internalType":"address"},{"name":"dexRouter","type":"address","indexed":false,"internalType":"address"},{"name":"token0","type":"address","indexed":false,"internalType":"address"},{"name":"token1","type":"address","indexed":false,"internalType":"address"},{"name":"name","type":"string","indexed":false,"internalType":"string"}],"anonymous":false},{"type":"event","name":"StrategyStatusChanged","inputs":[{"name":"owner","type":"address","indexed":true,"internalType":"address"},{"name":"strategyId","type":"uint256","indexed":true,"internalType":"uint256"},{"name":"active","type":"bool","indexed":false,"internalType":"bool"}],"anonymous":false},{"type":"event","name":"StrategyUpdated","inputs":[{"name":"owner","type":"address","indexed":true,"internalType":"address"},{"name":"strategyId","type":"uint256","indexed":true,"internalType":"uint256"},{"name":"adapter","type":"address","indexed":true,"internalType":"address"},{"name":"dexRouter","type":"address","indexed":false,"internalType":"address"},{"name":"token0","type":"address","indexed":false,"internalType":"address"},{"name":"token1","type":"address","indexed":false,"internalType":"address"},{"name":"name","type":"string","indexed":false,"internalType":"string"}],"anonymous":false},{"type":"error","name":"OwnableInvalidOwner","inputs":[{"name":"owner","type":"address","internalType":"address"}]},{"type":"error","name":"OwnableUnauthorizedAccount","inputs":[{"name":"account","type":"address","internalType":"address"}]}],"bytecode":{"object":"0x60803460bc57601f61188638819003918201601f19168301916001600160401b0383118484101760c15780849260209460405283398101031260bc57516001600160a01b0381169081900360bc57801560a657600080546001600160a01b031981168317825560405192916001600160a01b03909116907f8be0079c531659141344cd1fd0a4f28419497f9722a3daafe3b4186f6b6457e09080a36117ae90816100d88239f35b631e4fbdf760e01b600052600060045260246000fd5b600080fd5b634e487b7160e01b600052604160045260246000fdfe6080604052600436101561001257600080fd5b60003560e01c8063033a156014610c105780630c7de62714610be75780631b51521e14610bad5780632f600d2014610af35780633bdfe4f514610ab45780634648f90314610a745780636cc88edb146109f0578063715018a614610997578063885ebb68146107aa5780638da5cb5b14610781578063aa5999e0146103d5578063b2976fb914610346578063c646aee214610307578063e74c0d7614610275578063f2fde38b146101ec578063fecc9870146101165763ff6a9cba146100d757600080fd5b34610111576020366003190112610111576001600160a01b036100f86110d7565b1660005260036020526020604060002054604051908152f35b600080fd5b34610111576040366003190112610111576001600160a01b036101376110d7565b16600052600460205260406000206024356000526020526020604060002060ff60066040519261016684611411565b80546001600160a01b039081168552600182015481168686015260028201548116604086015260038201541660608501526101a3600482016115a2565b60808501526101b4600582016115a2565b60a0850152015416151560c0820181905290516001600160a01b0316151590816101e4575b506040519015158152f35b9050826101d9565b34610111576020366003190112610111576102056110d7565b61020d611778565b6001600160a01b0316801561025f57600080546001600160a01b03198116831782556001600160a01b0316907f8be0079c531659141344cd1fd0a4f28419497f9722a3daafe3b4186f6b6457e09080a3005b631e4fbdf760e01b600052600060045260246000fd5b3461011157604036600319011261011157600435610291611215565b3360005260046020526040600020826000526020526102d781600660406000206102c560018060a01b038254161515611646565b019060ff801983541691151516179055565b60405190151581527f0171e1e915e498d12a7928078d20ed4bfc9e259f099d772795b829259cf44fc260203392a3005b34610111576020366003190112610111576001600160a01b036103286110d7565b166000526002602052602060ff604060002054166040519015158152f35b346101115760403660031901126101115761035f6110d7565b7ffa6867abe1e1b14d8dcd1b145316fbb69828ba5c807f23653167f6a7ea50306a602061038a611215565b92610393611778565b6001600160a01b0316926103a8841515611224565b83600052600182526103ca8160406000209060ff801983541691151516179055565b6040519015158152a2005b346101115760e0366003190112610111576004356103f16110ed565b906103fa611103565b610402611119565b6084356001600160a01b038116949091908583036101115760a4356001600160401b0381116101115761043990369060040161112f565b9160c4356001600160401b0381116101115761045990369060040161112f565b909133600052600460205260406000208960005260205260406000209061048a60018060a01b038354161515611646565b6001600160a01b03169961049f8b1515611224565b6001600160a01b0389166104b4811515611270565b6001600160a01b0388169081151580610778575b6104d1906112bc565b6104dd83831415611308565b8c60005260016020526104f760ff6040600020541661135f565b80600052600260205261051160ff604060002054166113b9565b8c6001600160601b0360a01b85541617845560018401906001600160601b0360a01b82541617905560028301906001600160601b0360a01b82541617905560038201906001600160601b0360a01b82541617905560048101906001600160401b0386116106ef5761058c866105868454611493565b846114cd565b60009186601f811160011461071057806105bf91600595600091610705575b508160011b916000199060031b1c19161790565b90555b01916001600160401b0382116106ef576105e6826105e08554611493565b856114cd565b600090601f8311600114610662578261065295937f806900b4d7260020cf93e950b3ae409de5f6a3c53504dca4e2149844d1fcb7ba999897959361064193600092610657575b50508160011b916000199060031b1c19161790565b90555b60405194859433988661151f565b0390a4005b013590508d8061062c565b8382526020822091601f198416815b8181106106d7575092600192859261065298967f806900b4d7260020cf93e950b3ae409de5f6a3c53504dca4e2149844d1fcb7ba9c9b9a9896106106bd575b505050811b019055610644565b0135600019600384901b60f8161c191690558c80806106b0565b91936020600181928787013581550195019201610671565b634e487b7160e01b600052604160045260246000fd5b90508801358f6105ab565b50808352602083208388601f1981165b80871061075a576005965010610740575b5050600187811b0190556105c2565b87013560001960038a901b60f8161c191690558c80610731565b898301358455602096870196600190940193909201918a9150610720565b508215156104c8565b34610111576000366003190112610111576000546040516001600160a01b039091168152602090f35b34610111576020366003190112610111576001600160a01b036107cb6110d7565b168060005260056020526040600020906040518083602082955493848152019060005260206000209260005b81811061097e57505061080c9250038361142c565b8151916108188361174d565b92610826604051948561142c565b808452610835601f199161174d565b0160005b81811061096757505060005b81518110156108ff5760019083600052600460205260406000206108698285611764565b51600052602052604060002060ff60066040519261088684611411565b805460a087901b8790039081168552818701548116602086015260028201548116604086015260038201541660608501526108c3600482016115a2565b60808501526108d4600582016115a2565b60a0850152015416151560c08201526108ed8287611764565b526108f88186611764565b5001610845565b836040518091602082016020835281518091526040830190602060408260051b8601019301916000905b82821061093857505050500390f35b919360019193955060206109578192603f198a8203018652885161119d565b9601920192018594939192610929565b602090610972611569565b82828801015201610839565b84548352600194850194879450602090930192016107f7565b34610111576000366003190112610111576109b0611778565b600080546001600160a01b0319811682556001600160a01b03167f8be0079c531659141344cd1fd0a4f28419497f9722a3daafe3b4186f6b6457e08280a3005b3461011157604036600319011261011157610a096110d7565b7f45c10d9ef89aef5e9ff4cc0f5cd4020b4fd814b606e3263e5d314016cfc5a5536020610a34611215565b92610a3d611778565b6001600160a01b031692610a52841515611270565b83600052600282526103ca8160406000209060ff801983541691151516179055565b3461011157604036600319011261011157610ab0610a9c610a936110d7565b6024359061169d565b60405191829160208352602083019061119d565b0390f35b34610111576020366003190112610111576001600160a01b03610ad56110d7565b166000526001602052602060ff604060002054166040519015158152f35b34610111576020366003190112610111576001600160a01b03610b146110d7565b16600052600560205260406000206040518060208354918281520190819360005260206000209060005b818110610b975750505081610b5491038261142c565b6040519182916020830190602084525180915260408301919060005b818110610b7e575050500390f35b8251845285945060209384019390920191600101610b70565b8254845260209093019260019283019201610b3e565b34610111576020366003190112610111576001600160a01b03610bce6110d7565b1660005260056020526020604060002054604051908152f35b3461011157602036600319011261011157610c00611569565b50610ab0610a9c6004353361169d565b346101115760c036600319011261011157610c296110d7565b610c316110ed565b90610c3a611103565b90610c43611119565b916084356001600160401b03811161011157610c6390369060040161112f565b94909160a4356001600160401b03811161011157610c8590369060040161112f565b956001600160a01b039095169490610c9e861515611224565b6001600160a01b038416610cb3811515611270565b6001600160a01b038416801515806110c5575b610ccf906112bc565b6001600160a01b03841698610ce6828b1415611308565b886000526001602052610d0060ff6040600020541661135f565b826000526002602052610d1a60ff604060002054166113b9565b336000526003602052604060002054998a156110bc575b60018b01808c116110a6578c95610d9091336000526003602052604060002055610d8160405197610d6189611411565b8d895260208901978852604089019687526060890194855236908d61144d565b9360808801948552369161144d565b9260a0860193845260c08601946001865233600052600460205260406000208d60005260205260406000209660018060a01b039060018060a01b03905116166001600160601b0360a01b88541617875560018060a01b03905116600187019060018060a01b03166001600160601b0360a01b82541617905560018060a01b03905116600286019060018060a01b03166001600160601b0360a01b82541617905560018060a01b03905116600385019060018060a01b03166001600160601b0360a01b8254161790556004840190518051906001600160401b0382116106ef57610e7d826105e08554611493565b602090601f831160011461103f57610ead9291600091836110345750508160011b916000199060031b1c19161790565b90555b51805160058401916001600160401b0382116106ef57610ed4826105e08554611493565b602090601f8311600114610fc55782610f2696959360069593610f0d93600092610fba5750508160011b916000199060031b1c19161790565b90555b51151591019060ff801983541691151516179055565b3360005260056020526040600020918254680100000000000000008110156106ef5760018101808555811015610fa457602098889687610f99937f18e6fe596242d14212f76cb3f2acb1eb11007b13a9e2ae3a0e5a90bd339650c0976000528c600020015560405194859433988661151f565b0390a4604051908152f35b634e487b7160e01b600052603260045260246000fd5b015190508f8061062c565b90601f1983169184600052816000209260005b81811061101c5750926001928592610f269998966006989610611003575b505050811b019055610f10565b015160001960f88460031b161c191690558e8080610ff6565b92936020600181928786015181550195019301610fd8565b015190508e8061062c565b90601f1983169184600052816000209260005b81811061108e5750908460019594939210611075575b505050811b019055610eb0565b015160001960f88460031b161c191690558d8080611068565b92936020600181928786015181550195019301611052565b634e487b7160e01b600052601160045260246000fd5b60019a50610d31565b506001600160a01b0384161515610cc6565b600435906001600160a01b038216820361011157565b602435906001600160a01b038216820361011157565b604435906001600160a01b038216820361011157565b606435906001600160a01b038216820361011157565b9181601f84011215610111578235916001600160401b038311610111576020838186019501011161011157565b919082519283825260005b848110611188575050826000602080949584010152601f8019910116010190565b80602080928401015182828601015201611167565b80516001600160a01b0390811683526020808301518216908401526040808301518216908401526060808301519091169083015260808082015160e091840182905291929160c091829161120a916111f8919086019061115c565b60a086015185820360a087015261115c565b930151151591015290565b60243590811515820361011157565b1561122b57565b60405162461bcd60e51b815260206004820152601b60248201527f537472617465677952656769737472793a20616461707465723d3000000000006044820152606490fd5b1561127757565b60405162461bcd60e51b815260206004820152601a60248201527f537472617465677952656769737472793a20726f757465723d300000000000006044820152606490fd5b156112c357565b60405162461bcd60e51b815260206004820152601a60248201527f537472617465677952656769737472793a20746f6b656e733d300000000000006044820152606490fd5b1561130f57565b60405162461bcd60e51b815260206004820152602260248201527f537472617465677952656769737472793a206964656e746963616c20746f6b656044820152616e7360f01b6064820152608490fd5b1561136657565b60405162461bcd60e51b815260206004820152602560248201527f537472617465677952656769737472793a2061646170746572206e6f7420616c6044820152641b1bddd95960da1b6064820152608490fd5b156113c057565b60405162461bcd60e51b8152602060048201526024808201527f537472617465677952656769737472793a20726f75746572206e6f7420616c6c6044820152631bddd95960e21b6064820152608490fd5b60e081019081106001600160401b038211176106ef57604052565b90601f801991011681019081106001600160401b038211176106ef57604052565b9291926001600160401b0382116106ef5760405191611476601f8201601f19166020018461142c565b829481845281830111610111578281602093846000960137010152565b90600182811c921680156114c3575b60208310146114ad57565b634e487b7160e01b600052602260045260246000fd5b91607f16916114a2565b601f82116114da57505050565b6000526020600020906020601f840160051c83019310611515575b601f0160051c01905b818110611509575050565b600081556001016114fe565b90915081906114f5565b6001600160a01b03918216815291811660208301529091166040820152608060608201819052810183905260a09290918190848401376000828201840152601f01601f1916010190565b6040519061157682611411565b600060c08382815282602082015282604082015282606082015260606080820152606060a08201520152565b90604051918260008254926115b684611493565b808452936001811690811561162457506001146115dd575b506115db9250038361142c565b565b90506000929192526020600020906000915b8183106116085750509060206115db92820101386115ce565b60209193508060019154838589010152019101909184926115ef565b9050602092506115db94915060ff191682840152151560051b820101386115ce565b1561164d57565b60405162461bcd60e51b815260206004820152602260248201527f537472617465677952656769737472793a20756e6b6e6f776e20737472617465604482015261677960f01b6064820152608490fd5b6116a5611569565b5060018060a01b0316600052600460205260406000209060005260205260406000209060ff6006604051936116d985611411565b80546001600160a01b0390811686526001820154811660208701526002820154811660408701526003820154166060860152611717600482016115a2565b6080860152611728600582016115a2565b60a0860152015416151560c083015281516115db906001600160a01b03161515611646565b6001600160401b0381116106ef5760051b60200190565b8051821015610fa45760209160051b010190565b6000546001600160a01b0316330361178c57565b63118cdaa760e01b6000523360045260246000fdfea164736f6c634300081e000a","linkReferences":{}},"methodIdentifiers":{"allowedAdapters(address)":"3bdfe4f5","allowedRouters(address)":"c646aee2","getAllStrategiesByOwner(address)":"885ebb68","getMyStrategy(uint256)":"0c7de627","getStrategy(address,uint256)":"4648f903","getStrategyIdsByOwner(address)":"2f600d20","isStrategyActive(address,uint256)":"fecc9870","nextStrategyIdByOwner(address)":"ff6a9cba","owner()":"8da5cb5b","registerStrategy(address,address,address,address,string,string)":"033a1560","renounceOwnership()":"715018a6","setAdapterAllowed(address,bool)":"b2976fb9","setRouterAllowed(address,bool)":"6cc88edb","setStrategyActive(uint256,bool)":"e74c0d76","strategiesLengthByOwner(address)":"1b51521e","transferOwnership(address)":"f2fde38b","updateStrategy(uint256,address,address,address,address,string,string)":"aa5999e0"},"id":72}