{"abi":[{"type":"constructor","inputs":[{"name":"_nfpm","type":"address","internalType":"address"},{"name":"_pool","type":"address","internalType":"address"}],"stateMutability":"nonpayable"},{"type":"function","name":"claimRewards","inputs":[{"name":"","type":"address","internalType":"address"}],"outputs":[],"stateMutability":"nonpayable"},{"type":"function","name":"collectToVault","inputs":[{"name":"vault","type":"address","internalType":"address"}],"outputs":[{"name":"amount0","type":"uint256","internalType":"uint256"},{"name":"amount1","type":"uint256","internalType":"uint256"}],"stateMutability":"nonpayable"},{"type":"function","name":"currentRange","inputs":[{"name":"vault","type":"address","internalType":"address"}],"outputs":[{"name":"lower","type":"int24","internalType":"int24"},{"name":"upper","type":"int24","internalType":"int24"},{"name":"liquidity","type":"uint128","internalType":"uint128"}],"stateMutability":"view"},{"type":"function","name":"currentTokenId","inputs":[{"name":"vault","type":"address","internalType":"address"}],"outputs":[{"name":"","type":"uint256","internalType":"uint256"}],"stateMutability":"view"},{"type":"function","name":"exitPositionToVault","inputs":[{"name":"vault","type":"address","internalType":"address"}],"outputs":[],"stateMutability":"nonpayable"},{"type":"function","name":"gauge","inputs":[],"outputs":[{"name":"","type":"address","internalType":"address"}],"stateMutability":"view"},{"type":"function","name":"lastRebalance","inputs":[{"name":"","type":"address","internalType":"address"}],"outputs":[{"name":"","type":"uint256","internalType":"uint256"}],"stateMutability":"view"},{"type":"function","name":"maxTwapDeviationTicks","inputs":[],"outputs":[{"name":"","type":"int24","internalType":"int24"}],"stateMutability":"view"},{"type":"function","name":"maxWidth","inputs":[],"outputs":[{"name":"","type":"int24","internalType":"int24"}],"stateMutability":"view"},{"type":"function","name":"minCooldown","inputs":[],"outputs":[{"name":"","type":"uint256","internalType":"uint256"}],"stateMutability":"view"},{"type":"function","name":"minWidth","inputs":[],"outputs":[{"name":"","type":"int24","internalType":"int24"}],"stateMutability":"view"},{"type":"function","name":"nfpm","inputs":[],"outputs":[{"name":"","type":"address","internalType":"address"}],"stateMutability":"view"},{"type":"function","name":"openInitialPosition","inputs":[{"name":"vault","type":"address","internalType":"address"},{"name":"lower","type":"int24","internalType":"int24"},{"name":"upper","type":"int24","internalType":"int24"}],"outputs":[{"name":"tokenId","type":"uint256","internalType":"uint256"},{"name":"liquidity","type":"uint128","internalType":"uint128"}],"stateMutability":"nonpayable"},{"type":"function","name":"pool","inputs":[],"outputs":[{"name":"","type":"address","internalType":"address"}],"stateMutability":"view"},{"type":"function","name":"rebalanceWithCaps","inputs":[{"name":"vault","type":"address","internalType":"address"},{"name":"lower","type":"int24","internalType":"int24"},{"name":"upper","type":"int24","internalType":"int24"},{"name":"cap0","type":"uint256","internalType":"uint256"},{"name":"cap1","type":"uint256","internalType":"uint256"}],"outputs":[{"name":"newLiquidity","type":"uint128","internalType":"uint128"}],"stateMutability":"nonpayable"},{"type":"function","name":"slot0","inputs":[],"outputs":[{"name":"sqrtPriceX96","type":"uint160","internalType":"uint160"},{"name":"tick","type":"int24","internalType":"int24"}],"stateMutability":"view"},{"type":"function","name":"stakePosition","inputs":[{"name":"","type":"address","internalType":"address"}],"outputs":[],"stateMutability":"nonpayable"},{"type":"function","name":"tickSpacing","inputs":[],"outputs":[{"name":"","type":"int24","internalType":"int24"}],"stateMutability":"view"},{"type":"function","name":"tokens","inputs":[],"outputs":[{"name":"token0","type":"address","internalType":"address"},{"name":"token1","type":"address","internalType":"address"}],"stateMutability":"view"},{"type":"function","name":"twapOk","inputs":[],"outputs":[{"name":"","type":"bool","internalType":"bool"}],"stateMutability":"view"},{"type":"function","name":"twapWindow","inputs":[],"outputs":[{"name":"","type":"uint32","internalType":"uint32"}],"stateMutability":"view"},{"type":"function","name":"unstakePosition","inputs":[{"name":"","type":"address","internalType":"address"}],"outputs":[],"stateMutability":"nonpayable"},{"type":"error","name":"InRangeRequiresBothTokens","inputs":[]},{"type":"error","name":"SafeERC20FailedOperation","inputs":[{"name":"token","type":"address","internalType":"address"}]}],"bytecode":{"object":"0x60e080604052346101eb576040816129f3803803809161001f828561027b565b8339810103126101eb5761003e6020610037836102b4565b92016102b4565b603c600055600180546001600160681b031916693c0000320dbba000001e179055906001600160a01b03811680151580610269575b1561023e5760206004916040519283809263c45a015560e01b82525afa9081156101f857600091610204575b5060405163c45a015560e01b8152906020826004816001600160a01b0388165afa9182156101f8576000926101b7575b506001600160a01b039081169116036101805760a052608052600060c05260405161272a90816102c982396080518181816101970152818161059f0152818161082501528181610fc401528181611152015281816112c701528181611a9101528181611c800152611f95015260a0518181816103d5015281816104c301528181610607015281816107bf015281816107ea015281816110a30152818161128401526122c9015260c051816102860152f35b60405162461bcd60e51b815260206004820152600f60248201526e696e76616c696420666163746f727960881b6044820152606490fd5b9091506020813d6020116101f0575b816101d36020938361027b565b810103126101eb576101e4906102b4565b90386100cf565b600080fd5b3d91506101c6565b6040513d6000823e3d90fd5b90506020813d602011610236575b8161021f6020938361027b565b810103126101eb57610230906102b4565b3861009f565b3d9150610212565b606460405162461bcd60e51b81526020600482015260046024820152637a65726f60e01b6044820152fd5b506001600160a01b0383161515610073565b601f909101601f19168101906001600160401b0382119082101761029e57604052565b634e487b7160e01b600052604160045260246000fd5b51906001600160a01b03821682036101eb5756fe608080604052600436101561001357600080fd5b600090813560e01c908163035229cf1461165b57508063109162ef1461118157806316f0115b1461113c578063270d31361461104b5780633850c7bd14610f9d5780636006ecc814610f79578063616ea55714610f555780636783ac17146104f25780637303e913146104ad578063762100e71461034a5780638107e1331461032357806386ff5c4b146102ea5780639d63848a146102b5578063a6f19c8414610270578063b02172401461024b578063c4f97bfb14610226578063d0c93a7c14610170578063d6e8b9f314610153578063dcfc070b1461014e578063e40105031461014e578063ef5cfb8c1461014e5763fdd0fd2d1461011357600080fd5b3461014b57602036600319011261014b576020906040906001600160a01b0361013a61167e565b168152600283522054604051908152f35b80fd5b6116b4565b503461014b578060031936011261014b5760209054604051908152f35b503461014b578060031936011261014b576040516334324e9f60e21b8152906020826004817f00000000000000000000000000000000000000000000000000000000000000006001600160a01b03165afa90811561021a5780916101dd575b6020826040519060020b8152f35b90506020823d602011610212575b816101f86020938361173a565b8101031261014b575061020c6020916118b3565b386101cf565b3d91506101eb565b604051903d90823e3d90fd5b503461014b578060031936011261014b576020610241611f86565b6040519015158152f35b503461014b57602036600319011261014b5761026d61026861167e565b6122a4565b80f35b503461014b578060031936011261014b576040517f00000000000000000000000000000000000000000000000000000000000000006001600160a01b03168152602090f35b503461014b578060031936011261014b576102ce611a82565b604080516001600160a01b039384168152919092166020820152f35b503461014b57602036600319011261014b576020906040906001600160a01b0361031261167e565b168152600383522054604051908152f35b503461014b578060031936011261014b57602063ffffffff60015460481c16604051908152f35b503461014b57602036600319011261014b576103d09061036861167e565b6001600160a01b0381168252600360205260408083205461038a811515611865565b81519061039682611702565b81523060208201526001600160801b03828201526001600160801b03606082015281518095819263fc6f786560e01b8352600483016119fb565b0381857f00000000000000000000000000000000000000000000000000000000000000006001600160a01b03165af19081156104a2576040938392610470575b508161041a611a82565b9290858281610456575b5050508161043c575b50505082519182526020820152f35b61044e926001600160a01b0316611f24565b38818161042d565b610468926001600160a01b0316611f24565b388582610424565b9092506104939150833d851161049b575b61048b818361173a565b8101906119e5565b909138610410565b503d610481565b6040513d84823e3d90fd5b503461014b578060031936011261014b576040517f00000000000000000000000000000000000000000000000000000000000000006001600160a01b03168152602090f35b503461014b5760a036600319011261014b5761050c61167e565b90610515611694565b9161051e6116a4565b6001600160a01b038216835260036020526040832054909390610542901515611865565b6001600160a01b03821683526002602052604083205483546105639161176c565b4210610f2557610571611f86565b15610efa576105808482611b9b565b61058a8482611c6a565b604051633850c7bd60e01b815260e0816004817f00000000000000000000000000000000000000000000000000000000000000006001600160a01b03165afa908115610a71578491610ec4575b5060020b908060020b8212159182610eb6575b506001600160a01b038381168552600360205260408086205481517f0000000000000000000000000000000000000000000000000000000000000000909316939290916106759161063a81611702565b8381523060208201526001600160801b03828201526001600160801b03606082015281518093819263fc6f786560e01b8352600483016119fb565b03818a885af18015610e2057610e98575b5060405163133f757160e31b81526004810182905261018081602481875afa908115610e2057906001600160801b03918891610e5d575b501680610d7f575b50823b15610d7b5760405190630852cd8d60e31b82526004820152858160248183875af18015610d7057610d5c575b506001600160a01b0384168552600360205260408520859055610715611a82565b6040516370a0823160e01b81523060048201529197909491906020826024816001600160a01b038d165afa918215610d51578892610d1d575b506040516370a0823160e01b8152306004820152926020846024816001600160a01b038b165afa938415610b11578994610ce9575b50606435610ce057600019935b608435610cd8576000195b848c8397828111610c09575b505050818111610b41575b5050610b1c575b6107e4827f00000000000000000000000000000000000000000000000000000000000000008b611df2565b61080f837f000000000000000000000000000000000000000000000000000000000000000088611df2565b60405163ddca3f4360e01b8152936020856004817f00000000000000000000000000000000000000000000000000000000000000006001600160a01b03165afa948515610b11578995610ad1575b50610384420194854211610abd579389989796938b936080979362ffffff6108f9986040519761088c896116cf565b60018060a01b0316885260018060a01b038c16602089015216604087015260020b606086015260020b8785015260a084015260c08301528760e08301528761010083015230610120830152610140820152604051978880948193634418b22b60e11b8352600483016117cc565b03925af1938415610ab25783908495610a7c575b5060018060a01b0383168452600360205260408420556040516370a0823160e01b815230600482015260208160248160018060a01b038a165afa908115610a71578491610a3f575b506040516370a0823160e01b8152306004820152956020876024816001600160a01b0387165afa918215610a345785926109fa575b6020975084816109e0575b915050816109c6575b50505060018060a01b03168152600283526040429120556001600160801b0360405191168152f35b6109d8926001600160a01b0316611f24565b38808261099e565b6109f2926001600160a01b0316611f24565b388084610995565b91506020873d602011610a2c575b81610a156020938361173a565b81010312610a2757602096519161098a565b600080fd5b3d9150610a08565b6040513d87823e3d90fd5b90506020813d602011610a69575b81610a5a6020938361173a565b81010312610a27575138610955565b3d9150610a4d565b6040513d86823e3d90fd5b9050610aa191945060803d608011610aab575b610a99818361173a565b8101906117a3565b505093903861090d565b503d610a8f565b6040513d85823e3d90fd5b634e487b7160e01b8a52601160045260248afd5b9094506020813d602011610b09575b81610aed6020938361173a565b81010312610b0557610afe9061175c565b933861085d565b8880fd5b3d9150610ae0565b6040513d8b823e3d90fd5b81158015610b39575b156107b95763946b85b160e01b8852600488fd5b508215610b25565b81610b4b91611a75565b6040516370a0823160e01b81526001600160a01b038b81166004830152909190602090839060249082908e165afa918215610bfe578c92610bca575b5081811115610bc25750905b81156107b257919450610bba91610bb582308c6001600160a01b038d16611d5b565b61176c565b9238806107b2565b905090610b93565b9091506020813d602011610bf6575b81610be66020938361173a565b81010312610a2757519038610b87565b3d9150610bd9565b6040513d8e823e3d90fd5b82610c1391611a75565b6040516370a0823160e01b81526001600160a01b03808f166004830152909260209184916024918391165afa918215610ccb578e92610c97575b5081811115610c8f5750905b8d8c83610c68575b50906107a7565b939750610c8593610bb591849130916001600160a01b0316611d5b565b9338808d8c610c61565b905090610c59565b9091506020813d602011610cc3575b81610cb36020938361173a565b81010312610a2757519038610c4d565b3d9150610ca6565b8e604051903d90823e3d90fd5b60843561079b565b60643593610790565b9093506020813d602011610d15575b81610d056020938361173a565b81010312610a2757519238610783565b3d9150610cf8565b9091506020813d602011610d49575b81610d396020938361173a565b81010312610a275751903861074e565b3d9150610d2c565b6040513d8a823e3d90fd5b85610d699196929661173a565b93386106f4565b6040513d88823e3d90fd5b8580fd5b6103844201804211610e4957610dcf91604091825191610d9e8361171e565b858352602083015289838301528960608301526080820152815180938192630624e65f60e11b835260048301611a38565b03818a885af18015610e2057610e2b575b50610df16040805161063a81611702565b03818a885af18015610e2057156106c557610e1a9060403d60401161049b5761048b818361173a565b506106c5565b6040513d89823e3d90fd5b610e439060403d60401161049b5761048b818361173a565b50610de0565b634e487b7160e01b88526011600452602488fd5b610e7f91506101803d8111610e91575b610e77818361173a565b8101906118c1565b505050509650505050505050386106bd565b503d610e6d565b610eb09060403d60401161049b5761048b818361173a565b50610686565b600286900b139150386105ea565b610ee6915060e03d60e011610ef3575b610ede818361173a565b81019061197b565b50505050509050386105d7565b503d610ed4565b606460405162461bcd60e51b81526020600482015260046024820152630747761760e41b6044820152fd5b60405162461bcd60e51b815260206004820152600860248201526731b7b7b63237bbb760c11b6044820152606490fd5b503461014b578060031936011261014b57602060015460301c60020b604051908152f35b503461014b578060031936011261014b57602060015460181c60020b604051908152f35b503461014b578060031936011261014b57604051633850c7bd60e01b81529060e0826004817f00000000000000000000000000000000000000000000000000000000000000006001600160a01b03165afa801561103e576040928291611018575b5082516001600160a01b03909216825260020b6020820152f35b9050611033915060e03d60e011610ef357610ede818361173a565b505050505038610ffe565b50604051903d90823e3d90fd5b503461014b57602036600319011261014b576001600160a01b0361106d61167e565b16815260036020526040812054611085811515611865565b60405163133f757160e31b81526004810191909152610180816024817f00000000000000000000000000000000000000000000000000000000000000006001600160a01b03165afa80156104a25791606092818091611103575b6001600160801b039293506040519360020b845260020b6020840152166040820152f35b5050506111266001600160801b03916101803d8111610e9157610e77818361173a565b50505050955096955092505050928392506110df565b503461014b578060031936011261014b576040517f00000000000000000000000000000000000000000000000000000000000000006001600160a01b03168152602090f35b503461014b57606036600319011261014b5761119b61167e565b906111a4611694565b916111ad6116a4565b6001600160a01b03821680845260036020526040842054909190611625576111d58186611b9b565b6111df8186611c6a565b6111e7611a82565b6040516370a0823160e01b8152600481018590529691926001600160a01b038416929091602089602481875afa988915610d515788996115f1575b506040516370a0823160e01b8152600481018790526001600160a01b0382169590916020836024818a5afa928315611557578a936115bd575b508a15801580916115b4575b15611584578b926112b1928592611573575b82611562575b6112ac7f00000000000000000000000000000000000000000000000000000000000000009e8f8094611df2565b611df2565b60405163ddca3f4360e01b8152936020856004817f00000000000000000000000000000000000000000000000000000000000000006001600160a01b03165afa948515611557578a95611517575b5061038442019384421161150357926080959261138995928c9d9562ffffff6040519661132b886116cf565b8b88528c602089015216604087015260020b606086015260020b8785015260a084015260c08301528960e08301528961010083015230610120830152610140820152604051988980948193634418b22b60e11b8352600483016117cc565b03926001600160a01b03165af1938415610d7057869587956114da575b508387526003602052856040882055604051916370a0823160e01b8352306004840152602083602481845afa928315610d515788936114a2575b506040516370a0823160e01b815230600482015292602084602481885afa938415610b1157899461146d575b50916001600160801b0396959391838260409b979561145c575b5050508161144b575b5050508152600260205284429120558351928352166020820152f35b61145492611f24565b38808061142f565b61146592611f24565b388082611426565b9093506020813d60201161149a575b816114896020938361173a565b81010312610b05575192604061140c565b3d915061147c565b9092506020813d6020116114d2575b816114be6020938361173a565b810103126114ce575191386113e0565b8780fd5b3d91506114b1565b9094506114f791955060803d608011610aab57610a99818361173a565b505094909493386113a6565b634e487b7160e01b8b52601160045260248bfd5b9094506020813d60201161154f575b816115336020938361173a565b8101031261154b576115449061175c565b93386112ff565b8980fd5b3d9150611526565b6040513d8c823e3d90fd5b61156e83308e8d611d5b565b61127f565b61157f85308e8c611d5b565b611279565b60405162461bcd60e51b81526020600482015260086024820152676e6f2066756e647360c01b6044820152606490fd5b50831515611267565b9092506020813d6020116115e9575b816115d96020938361173a565b8101031261154b5751913861125b565b3d91506115cc565b9098506020813d60201161161d575b8161160d6020938361173a565b810103126114ce57519738611222565b3d9150611600565b60405162461bcd60e51b815260206004820152600e60248201526d185b1c9958591e481bdc195b995960921b6044820152606490fd5b90503461167a578160031936011261167a5760209060015460020b8152f35b5080fd5b600435906001600160a01b0382168203610a2757565b602435908160020b8203610a2757565b604435908160020b8203610a2757565b34610a27576020366003190112610a27576116cd61167e565b005b610160810190811067ffffffffffffffff8211176116ec57604052565b634e487b7160e01b600052604160045260246000fd5b6080810190811067ffffffffffffffff8211176116ec57604052565b60a0810190811067ffffffffffffffff8211176116ec57604052565b90601f8019910116810190811067ffffffffffffffff8211176116ec57604052565b519062ffffff82168203610a2757565b9190820180921161177957565b634e487b7160e01b600052601160045260246000fd5b51906001600160801b0382168203610a2757565b9190826080910312610a27578151916117be6020820161178f565b916060604083015192015190565b9190916101408061016083019460018060a01b03815116845260018060a01b03602082015116602085015262ffffff6040820151166040850152606081015160020b6060850152608081015160020b608085015260a081015160a085015260c081015160c085015260e081015160e085015261010081015161010085015260018060a01b03610120820151166101208501520151910152565b1561186c57565b60405162461bcd60e51b815260206004820152600b60248201526a3737903837b9b4ba34b7b760a91b6044820152606490fd5b51906001600160a01b0382168203610a2757565b51908160020b8203610a2757565b919082610180910312610a275781516bffffffffffffffffffffffff81168103610a2757916118f26020820161189f565b916118ff6040830161189f565b9161190c6060820161189f565b916119196080830161175c565b9161192660a082016118b3565b9161193360c083016118b3565b9161194060e0820161178f565b916101008201519161012081015191611969610160611962610140850161178f565b930161178f565b90565b519061ffff82168203610a2757565b908160e0910312610a275761198f8161189f565b9161199c602083016118b3565b916119a96040820161196c565b916119b66060830161196c565b916119c36080820161196c565b9160a082015160ff81168103610a275760c0909201518015158103610a275790565b9190826040910312610a27576020825192015190565b91909160606001600160801b038160808401958051855260018060a01b036020820151166020860152826040820151166040860152015116910152565b91909160808060a0830194805184526001600160801b03602082015116602085015260408101516040850152606081015160608501520151910152565b9190820391821161177957565b604051630dfe168160e01b81527f00000000000000000000000000000000000000000000000000000000000000006001600160a01b03169190602081600481865afa908115611b3357600091611b3f575b506020600491936040519283809263d21220a760e01b82525afa908115611b3357600091611aff575090565b90506020813d602011611b2b575b81611b1a6020938361173a565b81010312610a27576119699061189f565b3d9150611b0d565b6040513d6000823e3d90fd5b90506020813d602011611b76575b81611b5a6020938361173a565b81010312610a27576020611b6f60049261189f565b9150611ad3565b3d9150611b4d565b600291820b910b0390627fffff198212627fffff83131761177957565b8060020b8260020b1315611c1557611bb291611b7e565b6001549060020b8160020b8112159182611c04575b505015611bd057565b60405162461bcd60e51b815260206004820152600c60248201526b776964746820626f756e647360a01b6044820152606490fd5b60181c60020b121590503880611bc7565b60405162461bcd60e51b81526020600482015260056024820152640eed2c8e8d60db1b6044820152606490fd5b9060020b908115611c545760020b0790565b634e487b7160e01b600052601260045260246000fd5b6040516334324e9f60e21b8152906020826004817f00000000000000000000000000000000000000000000000000000000000000006001600160a01b03165afa918215611b3357600092611d1c575b5081611cc491611c42565b60020b159182611d07575b505015611cd857565b60405162461bcd60e51b815260206004820152600760248201526673706163696e6760c81b6044820152606490fd5b611d119250611c42565b60020b153880611ccf565b9091506020813d602011611d53575b81611d386020938361173a565b81010312610a2757611d4c611cc4916118b3565b9190611cb9565b3d9150611d2b565b6040516323b872dd60e01b60009081526001600160a01b039384166004529290931660245260449390935260209060648180865af190600160005114821615611dd0575b604052600060605215611daf5750565b635274afe760e01b60009081526001600160a01b0391909116600452602490fd5b906001811516611de857823b15153d15161690611d9f565b503d6000823e3d90fd5b8215611f1f57604051636eb1769f60e11b81523060048201526001600160a01b038381166024830152919091169290602081604481875afa908115611b3357600091611eed575b5010611e43575050565b611e4f6000828461261d565b15611eb9575b611e62600019828461261d565b15611e6b575050565b611e758183612677565b15611ea457611e889060001990836126df565b15611e905750565b635274afe760e01b60005260045260246000fd5b50635274afe760e01b60005260045260246000fd5b611ec38183612677565b15611ea457611ed4600082846126df565b611e555750635274afe760e01b60005260045260246000fd5b90506020813d602011611f17575b81611f086020938361173a565b81010312610a27575138611e39565b3d9150611efb565b505050565b60405163a9059cbb60e01b60009081526001600160a01b03909316600452602493909352919060209060448180865af190600160005114821615611f6e575b60405215611daf5750565b906001811516611de857823b15153d15161690611f63565b604051633850c7bd60e01b81527f00000000000000000000000000000000000000000000000000000000000000006001600160a01b031660e082600481845afa918215611b335760009261227c575b506001549163ffffffff8360481c169182156122445760405190611ffa60608361173a565b600282526020820191604036843784612012826125ea565b52600061201e8261260d565b5260405163883bdbfd60e01b8152602060048201529051602482018190529092839160448301919060005b8181106122255750505091818060009403915afa908115611b335760009161210b575b506120836120798261260d565b5160060b916125ea565b5160060b900391667fffffffffffff198312667fffffffffffff8413176117795760060b9160060b918015611c5457667fffffffffffff198314600019821416611779576120d5920560020b90611b7e565b908160020b600081126120f3575b5060301c60020b9060020b131590565b909150627fffff1981146117795760000390386120e3565b903d8082843e61211b818461173a565b82019060408383031261014b57825167ffffffffffffffff811161167a5783019282601f8501121561167a578351612152816125d2565b94612160604051968761173a565b81865260208087019260051b8201019085821161222157602001915b8183106122075750505060208101519067ffffffffffffffff8211612203570182601f8201121561167a578051916020806121b6856125d2565b6121c3604051918261173a565b858152019360051b83010193841161014b5750602001905b8282106121eb575050503861206c565b602080916121f88461189f565b8152019101906121db565b8280fd5b82518060060b8103610d7b5781526020928301920161217c565b8480fd5b825163ffffffff16845286945060209384019390920191600101612049565b60405162461bcd60e51b815260206004820152601060248201526f545741505f57494e444f575f5a45524f60801b6044820152606490fd5b61229691925060e03d60e011610ef357610ede818361173a565b505050505090509038611fd5565b6001600160a01b03811660008181526003602052604081205480156125cc57604080517f00000000000000000000000000000000000000000000000000000000000000006001600160a01b031692916123009161063a81611702565b038187875af18015610a71576125ae575b5060405163133f757160e31b81526004810182905261018081602481865afa908115610a7157906001600160801b03918591612583575b5016806124b0575b50813b15612203578291602483926040519485938492630852cd8d60e31b845260048401525af180156104a2576124a0575b509081526003602052806040812055612399611a82565b6040516370a0823160e01b815230600482015293916001600160a01b031690602085602481855afa948515610a7157849561246c575b506040516370a0823160e01b81523060048201526001600160a01b03919091169490602081602481895afa94851561021a5794612438575b508281612427575b5050508161241c57505050565b61242592611f24565b565b61243092611f24565b38808261240f565b9093506020813d602011612464575b816124546020938361173a565b81010312610a2757519238612407565b3d9150612447565b9094506020813d602011612498575b816124886020938361173a565b81010312610a27575193386123cf565b3d915061247b565b816124aa9161173a565b38612382565b610384420180421161256f57612500916040918251916124cf8361171e565b858352602083015286838301528660608301526080820152815180938192630624e65f60e11b835260048301611a38565b038187875af18015610a7157612551575b506125226040805161063a81611702565b038187875af18015610a7157156123505761254b9060403d60401161049b5761048b818361173a565b50612350565b6125699060403d60401161049b5761048b818361173a565b50612511565b634e487b7160e01b85526011600452602485fd5b61259c91506101803d8111610e9157610e77818361173a565b50505050965050505050505038612348565b6125c69060403d60401161049b5761048b818361173a565b50612311565b50505050565b67ffffffffffffffff81116116ec5760051b60200190565b8051156125f75760200190565b634e487b7160e01b600052603260045260246000fd5b8051600110156125f75760400190565b60405163095ea7b360e01b60009081526001600160a01b039093166004526024939093529092919060208460448180855af1936001815114851615612664575b5050604052565b939193503b15153d15161691388061265d565b60405163095ea7b360e01b60009081526001600160a01b03909316600452602483905290929160209060448180875af1926001600051148416156126bc575b50604052565b600184929415166126d5573b15153d15161691386126b6565b833d6000823e3d90fd5b92916040519163095ea7b360e01b60005260018060a01b03166004526024526020600060448180875af1926001600051148416156126bc575060405256fea164736f6c634300081e000a","linkReferences":{}},"methodIdentifiers":{"claimRewards(address)":"ef5cfb8c","collectToVault(address)":"762100e7","currentRange(address)":"270d3136","currentTokenId(address)":"86ff5c4b","exitPositionToVault(address)":"b0217240","gauge()":"a6f19c84","lastRebalance(address)":"fdd0fd2d","maxTwapDeviationTicks()":"616ea557","maxWidth()":"6006ecc8","minCooldown()":"d6e8b9f3","minWidth()":"035229cf","nfpm()":"7303e913","openInitialPosition(address,int24,int24)":"109162ef","pool()":"16f0115b","rebalanceWithCaps(address,int24,int24,uint256,uint256)":"6783ac17","slot0()":"3850c7bd","stakePosition(address)":"e4010503","tickSpacing()":"d0c93a7c","tokens()":"9d63848a","twapOk()":"c4f97bfb","twapWindow()":"8107e133","unstakePosition(address)":"dcfc070b"},"id":65}