{"abi":[{"type":"constructor","inputs":[{"name":"initialOwner","type":"address","internalType":"address"}],"stateMutability":"nonpayable"},{"type":"function","name":"authorizedDepositor","inputs":[{"name":"","type":"address","internalType":"address"}],"outputs":[{"name":"","type":"bool","internalType":"bool"}],"stateMutability":"view"},{"type":"function","name":"balanceOf","inputs":[{"name":"","type":"address","internalType":"address"},{"name":"","type":"address","internalType":"address"}],"outputs":[{"name":"","type":"uint256","internalType":"uint256"}],"stateMutability":"view"},{"type":"function","name":"depositFor","inputs":[{"name":"vault","type":"address","internalType":"address"},{"name":"token","type":"address","internalType":"address"},{"name":"amount","type":"uint256","internalType":"uint256"}],"outputs":[],"stateMutability":"nonpayable"},{"type":"function","name":"owner","inputs":[],"outputs":[{"name":"","type":"address","internalType":"address"}],"stateMutability":"view"},{"type":"function","name":"renounceOwnership","inputs":[],"outputs":[],"stateMutability":"nonpayable"},{"type":"function","name":"setDepositor","inputs":[{"name":"depositor","type":"address","internalType":"address"},{"name":"allowed","type":"bool","internalType":"bool"}],"outputs":[],"stateMutability":"nonpayable"},{"type":"function","name":"transferOwnership","inputs":[{"name":"newOwner","type":"address","internalType":"address"}],"outputs":[],"stateMutability":"nonpayable"},{"type":"function","name":"withdrawAllTo","inputs":[{"name":"token","type":"address","internalType":"address"},{"name":"to","type":"address","internalType":"address"}],"outputs":[{"name":"amount","type":"uint256","internalType":"uint256"}],"stateMutability":"nonpayable"},{"type":"function","name":"withdrawTo","inputs":[{"name":"token","type":"address","internalType":"address"},{"name":"amount","type":"uint256","internalType":"uint256"},{"name":"to","type":"address","internalType":"address"}],"outputs":[],"stateMutability":"nonpayable"},{"type":"event","name":"Deposited","inputs":[{"name":"depositor","type":"address","indexed":true,"internalType":"address"},{"name":"vault","type":"address","indexed":true,"internalType":"address"},{"name":"token","type":"address","indexed":true,"internalType":"address"},{"name":"amount","type":"uint256","indexed":false,"internalType":"uint256"}],"anonymous":false},{"type":"event","name":"DepositorAuthorizationUpdated","inputs":[{"name":"depositor","type":"address","indexed":true,"internalType":"address"},{"name":"allowed","type":"bool","indexed":false,"internalType":"bool"}],"anonymous":false},{"type":"event","name":"OwnershipTransferred","inputs":[{"name":"previousOwner","type":"address","indexed":true,"internalType":"address"},{"name":"newOwner","type":"address","indexed":true,"internalType":"address"}],"anonymous":false},{"type":"event","name":"Withdrawn","inputs":[{"name":"vault","type":"address","indexed":true,"internalType":"address"},{"name":"token","type":"address","indexed":true,"internalType":"address"},{"name":"to","type":"address","indexed":true,"internalType":"address"},{"name":"amount","type":"uint256","indexed":false,"internalType":"uint256"}],"anonymous":false},{"type":"error","name":"OwnableInvalidOwner","inputs":[{"name":"owner","type":"address","internalType":"address"}]},{"type":"error","name":"OwnableUnauthorizedAccount","inputs":[{"name":"account","type":"address","internalType":"address"}]},{"type":"error","name":"ReentrancyGuardReentrantCall","inputs":[]},{"type":"error","name":"SafeERC20FailedOperation","inputs":[{"name":"token","type":"address","internalType":"address"}]}],"bytecode":{"object":"0x6080346100e557601f610edb38819003918201601f19168301916001600160401b038311848410176100ea578084926020946040528339810103126100e557516001600160a01b038116908190036100e55780156100cf57600080546001600160a01b031981168317825560405192916001600160a01b03909116907f8be0079c531659141344cd1fd0a4f28419497f9722a3daafe3b4186f6b6457e09080a360017f9b779b17422d0df92223018b32b4d1fa46e071723d6817e2486d003becc55f0055610dda90816101018239f35b631e4fbdf760e01b600052600060045260246000fd5b600080fd5b634e487b7160e01b600052604160045260246000fdfe608080604052600436101561001357600080fd5b60003560e01c9081634922f09614610a3a575080636f860d741461090c578063715018a6146108705780638da5cb5b1461081e578063b3db428b1461052d578063b6703fcd146103a4578063c4e2c1e614610209578063f2fde38b146101175763f7888aec1461008257600080fd5b346101125760407ffffffffffffffffffffffffffffffffffffffffffffffffffffffffffffffffc360112610112576100b9610aa0565b73ffffffffffffffffffffffffffffffffffffffff6100d6610ac3565b9116600052600160205273ffffffffffffffffffffffffffffffffffffffff604060002091166000526020526020604060002054604051908152f35b600080fd5b346101125760207ffffffffffffffffffffffffffffffffffffffffffffffffffffffffffffffffc3601126101125773ffffffffffffffffffffffffffffffffffffffff610163610aa0565b61016b610c15565b1680156101da5773ffffffffffffffffffffffffffffffffffffffff600054827fffffffffffffffffffffffff0000000000000000000000000000000000000000821617600055167f8be0079c531659141344cd1fd0a4f28419497f9722a3daafe3b4186f6b6457e0600080a3005b7f1e4fbdf700000000000000000000000000000000000000000000000000000000600052600060045260246000fd5b346101125760607ffffffffffffffffffffffffffffffffffffffffffffffffffffffffffffffffc36011261011257610240610aa0565b6024356044359073ffffffffffffffffffffffffffffffffffffffff8216928383036101125773ffffffffffffffffffffffffffffffffffffffff90610284610c64565b1691610291831515610ae6565b61029c821515610b4b565b6102a7841515610bb0565b336000526001602052604060002083600052602052604060002054828110610346576102f49183913360005260016020526040600020866000526020528260406000209103905584610cdd565b6040519081527fa4195c37c2947bbe89165f03e320b6903116f0b10d8cfdb522330f7ce6f9fa2460203392a460017f9b779b17422d0df92223018b32b4d1fa46e071723d6817e2486d003becc55f0055005b60646040517f08c379a000000000000000000000000000000000000000000000000000000000815260206004820152601c60248201527f5661756c744665654275666665723a20696e73756666696369656e74000000006044820152fd5b346101125760407ffffffffffffffffffffffffffffffffffffffffffffffffffffffffffffffffc360112610112576103db610aa0565b73ffffffffffffffffffffffffffffffffffffffff6103f8610ac3565b91610401610c64565b1661040d811515610ae6565b73ffffffffffffffffffffffffffffffffffffffff821661042f811515610bb0565b3360005260016020526040600020826000526020526040600020549182156104cf5761047883602095336000526001875260406000208460005287526000604081205583610cdd565b6040518381527fa4195c37c2947bbe89165f03e320b6903116f0b10d8cfdb522330f7ce6f9fa24853392a460017f9b779b17422d0df92223018b32b4d1fa46e071723d6817e2486d003becc55f0055604051908152f35b60646040517f08c379a000000000000000000000000000000000000000000000000000000000815260206004820152601560248201527f5661756c744665654275666665723a20656d70747900000000000000000000006044820152fd5b346101125760607ffffffffffffffffffffffffffffffffffffffffffffffffffffffffffffffffc36011261011257610564610aa0565b61056c610ac3565b73ffffffffffffffffffffffffffffffffffffffff6044359261058d610c64565b169081156107c05773ffffffffffffffffffffffffffffffffffffffff16916105b7831515610ae6565b6105c2811515610b4b565b33600052600260205260ff6040600020541680156107b7575b156107335760006020604051917f23b872dd00000000000000000000000000000000000000000000000000000000815233600452306024528360445260648180885af190600160005114821615610711575b6040526000606052156106e35781600052600160205260406000208360005260205260406000208054908282018092116106b457556040519081527f4174a9435a04d04d274c76779cad136a41fde6937c56241c09ab9d3c7064a1a960203392a460017f9b779b17422d0df92223018b32b4d1fa46e071723d6817e2486d003becc55f0055005b7f4e487b7100000000000000000000000000000000000000000000000000000000600052601160045260246000fd5b827f5274afe70000000000000000000000000000000000000000000000000000000060005260045260246000fd5b90600181151661072957843b15153d1516169061062d565b503d6000823e3d90fd5b60846040517f08c379a000000000000000000000000000000000000000000000000000000000815260206004820152602560248201527f5661756c744665654275666665723a206465706f7369746f72206e6f7420616c60448201527f6c6f7765640000000000000000000000000000000000000000000000000000006064820152fd5b508133146105db565b60646040517f08c379a000000000000000000000000000000000000000000000000000000000815260206004820152601760248201527f5661756c744665654275666665723a207661756c743d300000000000000000006044820152fd5b346101125760007ffffffffffffffffffffffffffffffffffffffffffffffffffffffffffffffffc36011261011257602073ffffffffffffffffffffffffffffffffffffffff60005416604051908152f35b346101125760007ffffffffffffffffffffffffffffffffffffffffffffffffffffffffffffffffc360112610112576108a7610c15565b600073ffffffffffffffffffffffffffffffffffffffff81547fffffffffffffffffffffffff000000000000000000000000000000000000000081168355167f8be0079c531659141344cd1fd0a4f28419497f9722a3daafe3b4186f6b6457e08280a3005b346101125760407ffffffffffffffffffffffffffffffffffffffffffffffffffffffffffffffffc36011261011257610943610aa0565b602435908115158092036101125773ffffffffffffffffffffffffffffffffffffffff9061096f610c15565b169081156109dc5760207f2d4e148aeef3f95d4739548b154cc8b84fda8c8682faabe5f6d47c8a6b476f9a91836000526002825260406000207fffffffffffffffffffffffffffffffffffffffffffffffffffffffffffffff0081541660ff8316179055604051908152a2005b60646040517f08c379a000000000000000000000000000000000000000000000000000000000815260206004820152601b60248201527f5661756c744665654275666665723a206465706f7369746f723d3000000000006044820152fd5b346101125760207ffffffffffffffffffffffffffffffffffffffffffffffffffffffffffffffffc3601126101125760209073ffffffffffffffffffffffffffffffffffffffff610a89610aa0565b166000526002825260ff6040600020541615158152f35b6004359073ffffffffffffffffffffffffffffffffffffffff8216820361011257565b6024359073ffffffffffffffffffffffffffffffffffffffff8216820361011257565b15610aed57565b60646040517f08c379a000000000000000000000000000000000000000000000000000000000815260206004820152601760248201527f5661756c744665654275666665723a20746f6b656e3d300000000000000000006044820152fd5b15610b5257565b60646040517f08c379a000000000000000000000000000000000000000000000000000000000815260206004820152601860248201527f5661756c744665654275666665723a20616d6f756e743d3000000000000000006044820152fd5b15610bb757565b60646040517f08c379a000000000000000000000000000000000000000000000000000000000815260206004820152601460248201527f5661756c744665654275666665723a20746f3d300000000000000000000000006044820152fd5b73ffffffffffffffffffffffffffffffffffffffff600054163303610c3657565b7f118cdaa7000000000000000000000000000000000000000000000000000000006000523360045260246000fd5b60027f9b779b17422d0df92223018b32b4d1fa46e071723d6817e2486d003becc55f005414610cb35760027f9b779b17422d0df92223018b32b4d1fa46e071723d6817e2486d003becc55f0055565b7f3ee5aeb50000000000000000000000000000000000000000000000000000000060005260046000fd5b9160209060009073ffffffffffffffffffffffffffffffffffffffff604051947fa9059cbb0000000000000000000000000000000000000000000000000000000084521660045260245260448180865af190600160005114821615610d8c575b60405215610d485750565b73ffffffffffffffffffffffffffffffffffffffff907f5274afe7000000000000000000000000000000000000000000000000000000006000521660045260246000fd5b90600181151661072957823b15153d15161690610d3d56fea2646970667358221220e3e32f9a41a11c49419ef1ae3ed7ee1067fccb4cbf7edbb9342c0a6af40392ea64736f6c634300081e0033","linkReferences":{}},"methodIdentifiers":{"authorizedDepositor(address)":"4922f096","balanceOf(address,address)":"f7888aec","depositFor(address,address,uint256)":"b3db428b","owner()":"8da5cb5b","renounceOwnership()":"715018a6","setDepositor(address,bool)":"6f860d74","transferOwnership(address)":"f2fde38b","withdrawAllTo(address,address)":"b6703fcd","withdrawTo(address,uint256,address)":"c4e2c1e6"},"id":74}