{"abi":[{"type":"constructor","inputs":[{"name":"initialOwner","type":"address","internalType":"address"}],"stateMutability":"nonpayable"},{"type":"function","name":"authorizedDepositor","inputs":[{"name":"","type":"address","internalType":"address"}],"outputs":[{"name":"","type":"bool","internalType":"bool"}],"stateMutability":"view"},{"type":"function","name":"balanceOf","inputs":[{"name":"","type":"address","internalType":"address"},{"name":"","type":"address","internalType":"address"}],"outputs":[{"name":"","type":"uint256","internalType":"uint256"}],"stateMutability":"view"},{"type":"function","name":"depositFor","inputs":[{"name":"vault","type":"address","internalType":"address"},{"name":"token","type":"address","internalType":"address"},{"name":"amount","type":"uint256","internalType":"uint256"}],"outputs":[],"stateMutability":"nonpayable"},{"type":"function","name":"owner","inputs":[],"outputs":[{"name":"","type":"address","internalType":"address"}],"stateMutability":"view"},{"type":"function","name":"renounceOwnership","inputs":[],"outputs":[],"stateMutability":"nonpayable"},{"type":"function","name":"setDepositor","inputs":[{"name":"depositor","type":"address","internalType":"address"},{"name":"allowed","type":"bool","internalType":"bool"}],"outputs":[],"stateMutability":"nonpayable"},{"type":"function","name":"transferOwnership","inputs":[{"name":"newOwner","type":"address","internalType":"address"}],"outputs":[],"stateMutability":"nonpayable"},{"type":"function","name":"withdrawAllTo","inputs":[{"name":"token","type":"address","internalType":"address"},{"name":"to","type":"address","internalType":"address"}],"outputs":[{"name":"amount","type":"uint256","internalType":"uint256"}],"stateMutability":"nonpayable"},{"type":"function","name":"withdrawTo","inputs":[{"name":"token","type":"address","internalType":"address"},{"name":"amount","type":"uint256","internalType":"uint256"},{"name":"to","type":"address","internalType":"address"}],"outputs":[],"stateMutability":"nonpayable"},{"type":"event","name":"Deposited","inputs":[{"name":"depositor","type":"address","indexed":true,"internalType":"address"},{"name":"vault","type":"address","indexed":true,"internalType":"address"},{"name":"token","type":"address","indexed":true,"internalType":"address"},{"name":"amount","type":"uint256","indexed":false,"internalType":"uint256"}],"anonymous":false},{"type":"event","name":"DepositorAuthorizationUpdated","inputs":[{"name":"depositor","type":"address","indexed":true,"internalType":"address"},{"name":"allowed","type":"bool","indexed":false,"internalType":"bool"}],"anonymous":false},{"type":"event","name":"OwnershipTransferred","inputs":[{"name":"previousOwner","type":"address","indexed":true,"internalType":"address"},{"name":"newOwner","type":"address","indexed":true,"internalType":"address"}],"anonymous":false},{"type":"event","name":"Withdrawn","inputs":[{"name":"vault","type":"address","indexed":true,"internalType":"address"},{"name":"token","type":"address","indexed":true,"internalType":"address"},{"name":"to","type":"address","indexed":true,"internalType":"address"},{"name":"amount","type":"uint256","indexed":false,"internalType":"uint256"}],"anonymous":false},{"type":"error","name":"OwnableInvalidOwner","inputs":[{"name":"owner","type":"address","internalType":"address"}]},{"type":"error","name":"OwnableUnauthorizedAccount","inputs":[{"name":"account","type":"address","internalType":"address"}]},{"type":"error","name":"ReentrancyGuardReentrantCall","inputs":[]},{"type":"error","name":"SafeERC20FailedOperation","inputs":[{"name":"token","type":"address","internalType":"address"}]}],"bytecode":{"object":"0x6080346100e557601f610a6d38819003918201601f19168301916001600160401b038311848410176100ea578084926020946040528339810103126100e557516001600160a01b038116908190036100e55780156100cf57600080546001600160a01b031981168317825560405192916001600160a01b03909116907f8be0079c531659141344cd1fd0a4f28419497f9722a3daafe3b4186f6b6457e09080a360017f9b779b17422d0df92223018b32b4d1fa46e071723d6817e2486d003becc55f005561096c90816101018239f35b631e4fbdf760e01b600052600060045260246000fd5b600080fd5b634e487b7160e01b600052604160045260246000fdfe608080604052600436101561001357600080fd5b60003560e01c9081634922f09614610715575080636f860d741461064a578063715018a6146105f15780638da5cb5b146105c8578063b3db428b146103b6578063b6703fcd14610298578063c4e2c1e614610161578063f2fde38b146100d85763f7888aec1461008257600080fd5b346100d35760403660031901126100d35761009b610750565b6100a3610766565b6001600160a01b039182166000908152600160209081526040808320949093168252928352819020549051908152f35b600080fd5b346100d35760203660031901126100d3576100f1610750565b6100f9610857565b6001600160a01b0316801561014b57600080546001600160a01b03198116831782556001600160a01b0316907f8be0079c531659141344cd1fd0a4f28419497f9722a3daafe3b4186f6b6457e09080a3005b631e4fbdf760e01b600052600060045260246000fd5b346100d35760603660031901126100d35761017a610750565b6044356001600160a01b03811691602435908383036100d35761019b610880565b6001600160a01b0316916101b083151561077c565b6101bb8215156107c8565b6101c6841515610814565b3360005260016020526040600020836000526020526040600020548281106102535761021391839133600052600160205260406000208660005260205282604060002091039055846108bc565b6040519081527fa4195c37c2947bbe89165f03e320b6903116f0b10d8cfdb522330f7ce6f9fa2460203392a4600160008051602061094083398151915255005b60405162461bcd60e51b815260206004820152601c60248201527f5661756c744665654275666665723a20696e73756666696369656e74000000006044820152606490fd5b346100d35760403660031901126100d3576102b1610750565b6102b9610766565b906102c2610880565b6001600160a01b03166102d681151561077c565b6001600160a01b0382166102eb811515610814565b33600052600160205260406000208260005260205260406000205491821561037957610334836020953360005260018752604060002084600052875260006040812055836108bc565b6040518381527fa4195c37c2947bbe89165f03e320b6903116f0b10d8cfdb522330f7ce6f9fa24853392a4600160008051602061094083398151915255604051908152f35b60405162461bcd60e51b81526020600482015260156024820152745661756c744665654275666665723a20656d70747960581b6044820152606490fd5b346100d35760603660031901126100d3576103cf610750565b6103d7610766565b604435916103e3610880565b6001600160a01b0316908115610583576001600160a01b03169161040883151561077c565b6104138115156107c8565b33600052600260205260ff60406000205416801561057a575b156105275760006020604051916323b872dd60e01b815233600452306024528360445260648180885af190600160005114821615610505575b6040526000606052156104f05781600052600160205260406000208360005260205260406000208054908282018092116104da57556040519081527f4174a9435a04d04d274c76779cad136a41fde6937c56241c09ab9d3c7064a1a960203392a4600160008051602061094083398151915255005b634e487b7160e01b600052601160045260246000fd5b82635274afe760e01b60005260045260246000fd5b90600181151661051d57843b15153d15161690610465565b503d6000823e3d90fd5b60405162461bcd60e51b815260206004820152602560248201527f5661756c744665654275666665723a206465706f7369746f72206e6f7420616c6044820152641b1bddd95960da1b6064820152608490fd5b5081331461042c565b60405162461bcd60e51b815260206004820152601760248201527f5661756c744665654275666665723a207661756c743d300000000000000000006044820152606490fd5b346100d35760003660031901126100d3576000546040516001600160a01b039091168152602090f35b346100d35760003660031901126100d35761060a610857565b600080546001600160a01b0319811682556001600160a01b03167f8be0079c531659141344cd1fd0a4f28419497f9722a3daafe3b4186f6b6457e08280a3005b346100d35760403660031901126100d357610663610750565b602435908115158092036100d357610679610857565b6001600160a01b03169081156106d05760207f2d4e148aeef3f95d4739548b154cc8b84fda8c8682faabe5f6d47c8a6b476f9a918360005260028252604060002060ff1981541660ff8316179055604051908152a2005b60405162461bcd60e51b815260206004820152601b60248201527f5661756c744665654275666665723a206465706f7369746f723d3000000000006044820152606490fd5b346100d35760203660031901126100d3576020906001600160a01b03610739610750565b166000526002825260ff6040600020541615158152f35b600435906001600160a01b03821682036100d357565b602435906001600160a01b03821682036100d357565b1561078357565b60405162461bcd60e51b815260206004820152601760248201527f5661756c744665654275666665723a20746f6b656e3d300000000000000000006044820152606490fd5b156107cf57565b60405162461bcd60e51b815260206004820152601860248201527f5661756c744665654275666665723a20616d6f756e743d3000000000000000006044820152606490fd5b1561081b57565b60405162461bcd60e51b815260206004820152601460248201527305661756c744665654275666665723a20746f3d360641b6044820152606490fd5b6000546001600160a01b0316330361086b57565b63118cdaa760e01b6000523360045260246000fd5b600260008051602061094083398151915254146108ab57600260008051602061094083398151915255565b633ee5aeb560e01b60005260046000fd5b60405163a9059cbb60e01b60009081526001600160a01b03909316600452602493909352919060209060448180865af190600160005114821615610927575b604052156109065750565b635274afe760e01b60009081526001600160a01b0391909116600452602490fd5b90600181151661051d57823b15153d151616906108fb56fe9b779b17422d0df92223018b32b4d1fa46e071723d6817e2486d003becc55f00a164736f6c634300081e000a","linkReferences":{}},"methodIdentifiers":{"authorizedDepositor(address)":"4922f096","balanceOf(address,address)":"f7888aec","depositFor(address,address,uint256)":"b3db428b","owner()":"8da5cb5b","renounceOwnership()":"715018a6","setDepositor(address,bool)":"6f860d74","transferOwnership(address)":"f2fde38b","withdrawAllTo(address,address)":"b6703fcd","withdrawTo(address,uint256,address)":"c4e2c1e6"},"id":74}