{"abi":[{"type":"constructor","inputs":[{"name":"initialOwner","type":"address","internalType":"address"},{"name":"_strategyRegistry","type":"address","internalType":"address"},{"name":"_executor","type":"address","internalType":"address"},{"name":"_feeCollector","type":"address","internalType":"address"},{"name":"_defaultCooldownSec","type":"uint32","internalType":"uint32"},{"name":"_defaultMaxSlippageBps","type":"uint16","internalType":"uint16"},{"name":"_defaultAllowSwap","type":"bool","internalType":"bool"}],"stateMutability":"nonpayable"},{"type":"function","name":"allVaults","inputs":[{"name":"","type":"uint256","internalType":"uint256"}],"outputs":[{"name":"vault","type":"address","internalType":"address"},{"name":"owner","type":"address","internalType":"address"},{"name":"strategyId","type":"uint256","internalType":"uint256"}],"stateMutability":"view"},{"type":"function","name":"allVaultsLength","inputs":[],"outputs":[{"name":"length","type":"uint256","internalType":"uint256"}],"stateMutability":"view"},{"type":"function","name":"createClientVault","inputs":[{"name":"strategyId","type":"uint256","internalType":"uint256"},{"name":"ownerOverride","type":"address","internalType":"address"}],"outputs":[{"name":"vaultAddr","type":"address","internalType":"address"}],"stateMutability":"nonpayable"},{"type":"function","name":"defaultAllowSwap","inputs":[],"outputs":[{"name":"","type":"bool","internalType":"bool"}],"stateMutability":"view"},{"type":"function","name":"defaultCooldownSec","inputs":[],"outputs":[{"name":"","type":"uint32","internalType":"uint32"}],"stateMutability":"view"},{"type":"function","name":"defaultMaxSlippageBps","inputs":[],"outputs":[{"name":"","type":"uint16","internalType":"uint16"}],"stateMutability":"view"},{"type":"function","name":"executor","inputs":[],"outputs":[{"name":"","type":"address","internalType":"address"}],"stateMutability":"view"},{"type":"function","name":"feeCollector","inputs":[],"outputs":[{"name":"","type":"address","internalType":"address"}],"stateMutability":"view"},{"type":"function","name":"getVaultsByOwner","inputs":[{"name":"owner","type":"address","internalType":"address"}],"outputs":[{"name":"vaults","type":"address[]","internalType":"address[]"}],"stateMutability":"view"},{"type":"function","name":"getVaultsByOwnerAndStrategy","inputs":[{"name":"owner","type":"address","internalType":"address"},{"name":"strategyId","type":"uint256","internalType":"uint256"}],"outputs":[{"name":"vaults","type":"address[]","internalType":"address[]"}],"stateMutability":"view"},{"type":"function","name":"owner","inputs":[],"outputs":[{"name":"","type":"address","internalType":"address"}],"stateMutability":"view"},{"type":"function","name":"renounceOwnership","inputs":[],"outputs":[],"stateMutability":"nonpayable"},{"type":"function","name":"setDefaults","inputs":[{"name":"_cooldownSec","type":"uint32","internalType":"uint32"},{"name":"_maxSlippageBps","type":"uint16","internalType":"uint16"},{"name":"_allowSwap","type":"bool","internalType":"bool"}],"outputs":[],"stateMutability":"nonpayable"},{"type":"function","name":"setExecutor","inputs":[{"name":"newExecutor","type":"address","internalType":"address"}],"outputs":[],"stateMutability":"nonpayable"},{"type":"function","name":"setFeeCollector","inputs":[{"name":"newCollector","type":"address","internalType":"address"}],"outputs":[],"stateMutability":"nonpayable"},{"type":"function","name":"strategyRegistry","inputs":[],"outputs":[{"name":"","type":"address","internalType":"contract StrategyRegistry"}],"stateMutability":"view"},{"type":"function","name":"transferOwnership","inputs":[{"name":"newOwner","type":"address","internalType":"address"}],"outputs":[],"stateMutability":"nonpayable"},{"type":"function","name":"vaultsByOwner","inputs":[{"name":"","type":"address","internalType":"address"},{"name":"","type":"uint256","internalType":"uint256"}],"outputs":[{"name":"","type":"address","internalType":"address"}],"stateMutability":"view"},{"type":"function","name":"vaultsByOwnerStrategy","inputs":[{"name":"","type":"address","internalType":"address"},{"name":"","type":"uint256","internalType":"uint256"},{"name":"","type":"uint256","internalType":"uint256"}],"outputs":[{"name":"","type":"address","internalType":"address"}],"stateMutability":"view"},{"type":"event","name":"ClientVaultDeployed","inputs":[{"name":"vault","type":"address","indexed":true,"internalType":"address"},{"name":"owner","type":"address","indexed":true,"internalType":"address"},{"name":"strategyId","type":"uint256","indexed":true,"internalType":"uint256"},{"name":"vaultIndex","type":"uint256","indexed":false,"internalType":"uint256"}],"anonymous":false},{"type":"event","name":"DefaultsUpdated","inputs":[{"name":"cooldownSec","type":"uint32","indexed":false,"internalType":"uint32"},{"name":"maxSlippageBps","type":"uint16","indexed":false,"internalType":"uint16"},{"name":"allowSwap","type":"bool","indexed":false,"internalType":"bool"}],"anonymous":false},{"type":"event","name":"ExecutorUpdated","inputs":[{"name":"oldExecutor","type":"address","indexed":true,"internalType":"address"},{"name":"newExecutor","type":"address","indexed":true,"internalType":"address"}],"anonymous":false},{"type":"event","name":"FeeCollectorUpdated","inputs":[{"name":"oldCollector","type":"address","indexed":true,"internalType":"address"},{"name":"newCollector","type":"address","indexed":true,"internalType":"address"}],"anonymous":false},{"type":"event","name":"OwnershipTransferred","inputs":[{"name":"previousOwner","type":"address","indexed":true,"internalType":"address"},{"name":"newOwner","type":"address","indexed":true,"internalType":"address"}],"anonymous":false},{"type":"error","name":"OwnableInvalidOwner","inputs":[{"name":"owner","type":"address","internalType":"address"}]},{"type":"error","name":"OwnableUnauthorizedAccount","inputs":[{"name":"account","type":"address","internalType":"address"}]},{"type":"error","name":"ReentrancyGuardReentrantCall","inputs":[]}],"bytecode":{"object":"0x60a03461026457601f61626c38819003918201601f19168301916001600160401b038311848410176102695780849260e094604052833981010312610264576100478161027f565b906100546020820161027f565b6100606040830161027f565b9061006d6060840161027f565b9060808401519263ffffffff841684036102645760a08501519461ffff861686036102645760c0015195861515809703610264576001600160a01b031691821561024e57600080546001600160a01b031981168517825560405194916001600160a01b03909116907f8be0079c531659141344cd1fd0a4f28419497f9722a3daafe3b4186f6b6457e09080a360017f9b779b17422d0df92223018b32b4d1fa46e071723d6817e2486d003becc55f00556001600160a01b031691821561020c57506001600160a01b03169081156101c757608052600180546001600160a01b0319169190911790556002805460c09490941b61ffff60c01b1660a09390931b63ffffffff60a01b166001600160d81b03199094166001600160a01b039290921691909117929092171760d09290921b60ff60d01b16919091179055604051615fd8908161029482396080518181816103f10152610a9d0152f35b60405162461bcd60e51b815260206004820152601860248201527f5661756c74466163746f72793a206578656375746f723d3000000000000000006044820152606490fd5b62461bcd60e51b815260206004820152601860248201527f5661756c74466163746f72793a2072656769737472793d3000000000000000006044820152606490fd5b631e4fbdf760e01b600052600060045260246000fd5b600080fd5b634e487b7160e01b600052604160045260246000fd5b51906001600160a01b03821682036102645756fe6080604052600436101561001257600080fd5b60003560e01c80631a0121db146111275780631c3c0ea814611006578063369988d61461098a5780634cd185771461094e578063715018a6146108b257806372735c29146107895780638da5cb5b146107375780639094a91e146106a3578063a42dce80146105f8578063ac81871114610540578063b4b80795146104fd578063c34c08e5146104ab578063c415b95c14610459578063ce01fe7114610415578063d080bf27146103a6578063d61973ce14610361578063d69ea24f1461028b578063f2fde38b146101995763f94d85fd146100ed57600080fd5b346101945760607ffffffffffffffffffffffffffffffffffffffffffffffffffffffffffffffffc360112610194576101246111b0565b73ffffffffffffffffffffffffffffffffffffffff60443591166000526005602052604060002060243560005260205260406000209081548110156101945761018473ffffffffffffffffffffffffffffffffffffffff916020936111d3565b90549060031b1c16604051908152f35b600080fd5b346101945760207ffffffffffffffffffffffffffffffffffffffffffffffffffffffffffffffffc3601126101945773ffffffffffffffffffffffffffffffffffffffff6101e56111b0565b6101ed6113df565b16801561025c5773ffffffffffffffffffffffffffffffffffffffff600054827fffffffffffffffffffffffff0000000000000000000000000000000000000000821617600055167f8be0079c531659141344cd1fd0a4f28419497f9722a3daafe3b4186f6b6457e0600080a3005b7f1e4fbdf700000000000000000000000000000000000000000000000000000000600052600060045260246000fd5b346101945760407ffffffffffffffffffffffffffffffffffffffffffffffffffffffffffffffffc3601126101945773ffffffffffffffffffffffffffffffffffffffff6102d76111b0565b1660005260056020526040600020602435600052602052604060002060405190816020825491828152019160005260206000209060005b8181106103355761033185610325818703826112a2565b60405191829182611252565b0390f35b825473ffffffffffffffffffffffffffffffffffffffff1684526020909301926001928301920161030e565b346101945760007ffffffffffffffffffffffffffffffffffffffffffffffffffffffffffffffffc36011261019457602063ffffffff60025460a01c16604051908152f35b346101945760007ffffffffffffffffffffffffffffffffffffffffffffffffffffffffffffffffc36011261019457602060405173ffffffffffffffffffffffffffffffffffffffff7f0000000000000000000000000000000000000000000000000000000000000000168152f35b346101945760007ffffffffffffffffffffffffffffffffffffffffffffffffffffffffffffffffc36011261019457602060ff60025460d01c166040519015158152f35b346101945760007ffffffffffffffffffffffffffffffffffffffffffffffffffffffffffffffffc36011261019457602073ffffffffffffffffffffffffffffffffffffffff60025416604051908152f35b346101945760007ffffffffffffffffffffffffffffffffffffffffffffffffffffffffffffffffc36011261019457602073ffffffffffffffffffffffffffffffffffffffff60015416604051908152f35b346101945760007ffffffffffffffffffffffffffffffffffffffffffffffffffffffffffffffffc36011261019457602061ffff60025460c01c16604051908152f35b346101945760207ffffffffffffffffffffffffffffffffffffffffffffffffffffffffffffffffc3601126101945773ffffffffffffffffffffffffffffffffffffffff61058c6111b0565b166000526004602052604060002060405190816020825491828152019160005260206000209060005b8181106105cc5761033185610325818703826112a2565b825473ffffffffffffffffffffffffffffffffffffffff168452602090930192600192830192016105b5565b346101945760207ffffffffffffffffffffffffffffffffffffffffffffffffffffffffffffffffc3601126101945761062f6111b0565b6106376113df565b73ffffffffffffffffffffffffffffffffffffffff80600254921691827fffffffffffffffffffffffff0000000000000000000000000000000000000000821617600255167f5d16ad41baeb009cd23eb8f6c7cde5c2e0cd5acf4a33926ab488875c37c37f38600080a3005b346101945760207ffffffffffffffffffffffffffffffffffffffffffffffffffffffffffffffffc36011261019457600435600354811015610194576106ea60609161121a565b5073ffffffffffffffffffffffffffffffffffffffff81541690600273ffffffffffffffffffffffffffffffffffffffff6001830154169101549060405192835260208301526040820152f35b346101945760007ffffffffffffffffffffffffffffffffffffffffffffffffffffffffffffffffc36011261019457602073ffffffffffffffffffffffffffffffffffffffff60005416604051908152f35b346101945760607ffffffffffffffffffffffffffffffffffffffffffffffffffffffffffffffffc3601126101945760043563ffffffff8116808203610194576024359061ffff82168083036101945760443590811515809203610194577f8f8169b885ebbe2a1bab0afadbccca0f1be64145b5d9796581da27960626fed4946060946108146113df565b79ffff0000000000000000000000000000000000000000000000006002547fffffffffff00000000000000ffffffffffffffffffffffffffffffffffffffff77ffffffff00000000000000000000000000000000000000007aff00000000000000000000000000000000000000000000000000008860d01b169560a01b169116179160c01b16171760025560405192835260208301526040820152a1005b346101945760007ffffffffffffffffffffffffffffffffffffffffffffffffffffffffffffffffc360112610194576108e96113df565b600073ffffffffffffffffffffffffffffffffffffffff81547fffffffffffffffffffffffff000000000000000000000000000000000000000081168355167f8be0079c531659141344cd1fd0a4f28419497f9722a3daafe3b4186f6b6457e08280a3005b346101945760007ffffffffffffffffffffffffffffffffffffffffffffffffffffffffffffffffc360112610194576020600354604051908152f35b346101945760407ffffffffffffffffffffffffffffffffffffffffffffffffffffffffffffffffc3601126101945760043560243573ffffffffffffffffffffffffffffffffffffffff81168082036101945760027f9b779b17422d0df92223018b32b4d1fa46e071723d6817e2486d003becc55f005414610fdc5760027f9b779b17422d0df92223018b32b4d1fa46e071723d6817e2486d003becc55f005515610fc05773ffffffffffffffffffffffffffffffffffffffff905b16908115610f62576040517f4648f90300000000000000000000000000000000000000000000000000000000815282600482015281602482015260008160448173ffffffffffffffffffffffffffffffffffffffff7f0000000000000000000000000000000000000000000000000000000000000000165afa908115610d9b57600091610e2b575b5060c081015115610da75773ffffffffffffffffffffffffffffffffffffffff600154169073ffffffffffffffffffffffffffffffffffffffff60208183511692015116916002549260405193614b74908186019286841067ffffffffffffffff851117610d6c5761012095879560ff9461142f88398a865260208601526040850152606084015273ffffffffffffffffffffffffffffffffffffffff811660808401528660a084015263ffffffff8160a01c1660c084015261ffff8160c01c1660e084015260d01c1615156101008201520301906000f08015610d9b5773ffffffffffffffffffffffffffffffffffffffff1690600354926040516060810181811067ffffffffffffffff821117610d6c576040528381526020810190828252604081019084825268010000000000000000871015610d6c5760018701600355610c188761121a565b979097610d3d5760209760027fb866f89590840e6c6366b97783b9ef78494c3bf84c3b9e623ee922d63d2f463a9473ffffffffffffffffffffffffffffffffffffffff8a9781808e985116167fffffffffffffffffffffffff0000000000000000000000000000000000000000865416178555511673ffffffffffffffffffffffffffffffffffffffff6001850191167fffffffffffffffffffffffff0000000000000000000000000000000000000000825416179055519101558460005260048252610ce9846040600020611392565b84600052600582526040600020866000528252610d0a846040600020611392565b604051908152a460017f9b779b17422d0df92223018b32b4d1fa46e071723d6817e2486d003becc55f0055604051908152f35b7f4e487b7100000000000000000000000000000000000000000000000000000000600052600060045260246000fd5b7f4e487b7100000000000000000000000000000000000000000000000000000000600052604160045260246000fd5b6040513d6000823e3d90fd5b60846040517f08c379a000000000000000000000000000000000000000000000000000000000815260206004820152602160248201527f5661756c74466163746f72793a207374726174656779206e6f7420616374697660448201527f65000000000000000000000000000000000000000000000000000000000000006064820152fd5b903d8082843e610e3b81846112a2565b820191602081840312610f5a5780519067ffffffffffffffff8211610f5e570160e081840312610f5a576040519260e0840184811067ffffffffffffffff821117610f2d57604052610e8c826112e3565b8452610e9a602083016112e3565b6020850152610eab604083016112e3565b6040850152610ebc606083016112e3565b6060850152608082015167ffffffffffffffff8111610f295781610ee1918401611304565b608085015260a082015167ffffffffffffffff8111610f29578291610f099160c09401611304565b60a08501520151908115158203610f26575060c082015283610ace565b80fd5b8380fd5b6024847f4e487b710000000000000000000000000000000000000000000000000000000081526041600452fd5b5080fd5b8280fd5b60646040517f08c379a000000000000000000000000000000000000000000000000000000000815260206004820152601560248201527f5661756c74466163746f72793a206f776e65723d3000000000000000000000006044820152fd5b5073ffffffffffffffffffffffffffffffffffffffff33610a46565b7f3ee5aeb50000000000000000000000000000000000000000000000000000000060005260046000fd5b346101945760207ffffffffffffffffffffffffffffffffffffffffffffffffffffffffffffffffc3601126101945773ffffffffffffffffffffffffffffffffffffffff6110526111b0565b61105a6113df565b1680156110c95773ffffffffffffffffffffffffffffffffffffffff600154827fffffffffffffffffffffffff0000000000000000000000000000000000000000821617600155167f0ef3c7eb9dbcf33ddf032f4cce366a07eda85eed03e3172e4a90c4cc16d57886600080a3005b60646040517f08c379a000000000000000000000000000000000000000000000000000000000815260206004820152601860248201527f5661756c74466163746f72793a206578656375746f723d3000000000000000006044820152fd5b346101945760407ffffffffffffffffffffffffffffffffffffffffffffffffffffffffffffffffc3601126101945761115e6111b0565b73ffffffffffffffffffffffffffffffffffffffff6024359116600052600460205260406000209081548110156101945761018473ffffffffffffffffffffffffffffffffffffffff916020936111d3565b6004359073ffffffffffffffffffffffffffffffffffffffff8216820361019457565b80548210156111eb5760005260206000200190600090565b7f4e487b7100000000000000000000000000000000000000000000000000000000600052603260045260246000fd5b6003548110156111eb576003600081815291027fc2575a0e9e593c00f959f8c92f12db2869c3395a3b0502d05e2516446f71f85b0191565b602060408183019282815284518094520192019060005b8181106112765750505090565b825173ffffffffffffffffffffffffffffffffffffffff16845260209384019390920191600101611269565b90601f7fffffffffffffffffffffffffffffffffffffffffffffffffffffffffffffffe0910116810190811067ffffffffffffffff821117610d6c57604052565b519073ffffffffffffffffffffffffffffffffffffffff8216820361019457565b81601f820112156101945780519067ffffffffffffffff8211610d6c576040519261135760207fffffffffffffffffffffffffffffffffffffffffffffffffffffffffffffffe0601f86011601856112a2565b828452602083830101116101945760005b82811061137d57505060206000918301015290565b80602080928401015182828701015201611368565b805468010000000000000000811015610d6c576113b4916001820181556111d3565b73ffffffffffffffffffffffffffffffffffffffff80839493549260031b9316831b921b1916179055565b73ffffffffffffffffffffffffffffffffffffffff60005416330361140057565b7f118cdaa7000000000000000000000000000000000000000000000000000000006000523360045260246000fdfe610140346103d257601f614b7438819003918201601f19168301916001600160401b038311848410176103d757808492610120946040528339810103126103d257610049816103ed565b90610056602082016103ed565b90610063604082016103ed565b91610070606083016103ed565b9061007d608084016103ed565b60a084015160c08501519163ffffffff831683036103d25760e08601519561ffff871687036103d2576101000151928315158094036103d25760017f9b779b17422d0df92223018b32b4d1fa46e071723d6817e2486d003becc55f00556001600160a01b03891696871561038d576001600160a01b038616988915610348576001600160a01b0316998a15610303576001600160a01b0388169586156102be577f59fbf569e13224f023993109b7bc20408873be1498dfe4494b6061367e924c969860609866ffff00000000009360805260a0528c60c05260e0528461010052856101205264ffffffff0067ff000000000000006000549260381b169460081b169060018060401b031916179160281b16171760005560405192835260018060a01b031660208301526040820152a460405161477290816104028239608051818181610260015281816103d00152818161072b01528181610bf401528181610ea301528181610f210152818161118d015281816113ca01528181611723015281816118d201528181611b3a01528181611c8001528181611dda0152818161258f0152612758015260a0518181816106b501528181611f120152612849015260c05181818161078f01528181610c4201528181610dce01528181610f67015281816111d30152818161179d01528181611cc701528181611e2101528181611f91015281816125d6015281816128d9015281816138860152614127015260e0518181816138180152613cda0152610100518161064601526101205181611a9b0152f35b60405162461bcd60e51b815260206004820152601860248201527f436c69656e745661756c743a20646578526f757465723d3000000000000000006044820152606490fd5b60405162461bcd60e51b815260206004820152601660248201527f436c69656e745661756c743a20616461707465723d30000000000000000000006044820152606490fd5b60405162461bcd60e51b815260206004820152601760248201527f436c69656e745661756c743a206578656375746f723d300000000000000000006044820152606490fd5b60405162461bcd60e51b815260206004820152601460248201527f436c69656e745661756c743a206f776e65723d300000000000000000000000006044820152606490fd5b600080fd5b634e487b7160e01b600052604160045260246000fd5b51906001600160a01b03821682036103d25756fe608080604052600436101561001357600080fd5b600090813560e01c90816303eadcfc1461383c575080630758d924146137cd5780630d0cd752146127fe578063119d084a146126dc5780632d13977b146126a05780632def66201461254657806333fdf8c914611ec7578063372500ab14611d915780633a4b66f114611c3757806344b1527b14611bf457806346445e6914611abe578063492f4e1814611a655780634d2e259c146119fc57806366e6e60d1461197357806379886b9d14611930578063799b2b541461057d57806379e666221461185d5780637b0f7cc9146116da5780637ba34f28146113185780637ba45d5914611144578063824518de14610ec75780638da5cb5b14610e585780639d63848a14610d5b5780639ebc1a8e14610d1a578063a04cedd514610b96578063bc0931b9146106d9578063c34c08e51461066a578063c415b95c146105fb578063c4aa7395146105b9578063ceefe5d11461057d578063d1a663bb14610541578063d966a59414610501578063d9c531d5146104bc578063e7cb9f2d14610478578063ec4c667a1461043c578063f1070bd31461033c578063f6f47619146102f85763fe86702b146101c357600080fd5b346102f55760607ffffffffffffffffffffffffffffffffffffffffffffffffffffffffffffffffc3601126102f55760043563ffffffff81168082036102f3576024359061ffff82168083036102ef57604435908115158092036102eb577f289c3c8fc0205d25d66b324359427612e37eecb1d57a186e522c8d5078c7bdd99460609461028773ffffffffffffffffffffffffffffffffffffffff7f0000000000000000000000000000000000000000000000000000000000000000163314613b71565b66ffff000000000088547fffffffffffffffffffffffffffffffffffffffffffffffff00000000000000ff64ffffffff0067ff000000000000008860381b169560081b169116179160281b161717865560405192835260208301526040820152a180f35b8580fd5b8480fd5b825b80fd5b50346102f557807ffffffffffffffffffffffffffffffffffffffffffffffffffffffffffffffffc3601126102f55763ffffffff6020915460481c16604051908152f35b50346102f55760c07ffffffffffffffffffffffffffffffffffffffffffffffffffffffffffffffffc3601126102f5576103746138ef565b61037c6138cc565b9060443562ffffff811681036104385760a4359373ffffffffffffffffffffffffffffffffffffffff851685036102f557602061040c868686866103f773ffffffffffffffffffffffffffffffffffffffff7f0000000000000000000000000000000000000000000000000000000000000000163314613b71565b6103ff613c59565b6084359260643592613cd2565b60017f9b779b17422d0df92223018b32b4d1fa46e071723d6817e2486d003becc55f0055604051908152f35b8380fd5b50346102f557807ffffffffffffffffffffffffffffffffffffffffffffffffffffffffffffffffc3601126102f5576020600154604051908152f35b50346102f557807ffffffffffffffffffffffffffffffffffffffffffffffffffffffffffffffffc3601126102f55763ffffffff6020915460081c16604051908152f35b50346102f557807ffffffffffffffffffffffffffffffffffffffffffffffffffffffffffffffffc3601126102f557602063ffffffff60025460081c16604051908152f35b50346102f557807ffffffffffffffffffffffffffffffffffffffffffffffffffffffffffffffffc3601126102f55760ff60209154166040519015158152f35b50346102f557807ffffffffffffffffffffffffffffffffffffffffffffffffffffffffffffffffc3601126102f5576020600854604051908152f35b50346102f557807ffffffffffffffffffffffffffffffffffffffffffffffffffffffffffffffffc3601126102f5576020600754604051908152f35b50346102f557807ffffffffffffffffffffffffffffffffffffffffffffffffffffffffffffffffc3601126102f55761ffff6020915460281c16604051908152f35b50346102f557807ffffffffffffffffffffffffffffffffffffffffffffffffffffffffffffffffc3601126102f557602060405173ffffffffffffffffffffffffffffffffffffffff7f0000000000000000000000000000000000000000000000000000000000000000168152f35b50346102f557807ffffffffffffffffffffffffffffffffffffffffffffffffffffffffffffffffc3601126102f557602060405173ffffffffffffffffffffffffffffffffffffffff7f0000000000000000000000000000000000000000000000000000000000000000168152f35b50346102f55760207ffffffffffffffffffffffffffffffffffffffffffffffffffffffffffffffffc3601126102f5576107116138ef565b61075273ffffffffffffffffffffffffffffffffffffffff7f0000000000000000000000000000000000000000000000000000000000000000163314613b71565b61075a613c59565b73ffffffffffffffffffffffffffffffffffffffff8116908115610b385773ffffffffffffffffffffffffffffffffffffffff7f00000000000000000000000000000000000000000000000000000000000000001690813b1561043857836040517fb0217240000000000000000000000000000000000000000000000000000000008152306004820152818160248183885af18015610b2d57610b18575b50506040517f86ff5c4b000000000000000000000000000000000000000000000000000000008152306004820152602081602481865afa908115610b0d578591610ada575b506004926040916007558151938480927f9d63848a0000000000000000000000000000000000000000000000000000000082525afa918215610acf5784908593610a89575b5073ffffffffffffffffffffffffffffffffffffffff1690604051927f70a08231000000000000000000000000000000000000000000000000000000008452306004850152602084602481865afa938415610a7e578694610a36575b5073ffffffffffffffffffffffffffffffffffffffff1690604051927f70a08231000000000000000000000000000000000000000000000000000000008452306004850152602084602481865afa938415610a2b5787946109cc575b50918382869485604097957f0389747e9da8f2c7b6c44d1297d97afc766ea18c607b154fabdafe72b21dd6a0996109bb575b505050816109aa575b50505082519182526020820152a260017f9b779b17422d0df92223018b32b4d1fa46e071723d6817e2486d003becc55f005580f35b6109b392614483565b388181610975565b6109c492614483565b38858261096c565b935093916020843d602011610a23575b816109e960209383613a0f565b81010312610a1e57925191939192917f0389747e9da8f2c7b6c44d1297d97afc766ea18c607b154fabdafe72b21dd6a061093a565b600080fd5b3d91506109dc565b6040513d89823e3d90fd5b9093506020813d602011610a76575b81610a5260209383613a0f565b81010312610a1e57519273ffffffffffffffffffffffffffffffffffffffff6108de565b3d9150610a45565b6040513d88823e3d90fd5b73ffffffffffffffffffffffffffffffffffffffff9350610ac2915060403d604011610ac8575b610aba8183613a0f565b810190613aa0565b92610882565b503d610ab0565b6040513d86823e3d90fd5b90506020813d602011610b05575b81610af560209383613a0f565b81010312610a1e5751600461083d565b3d9150610ae8565b6040513d87823e3d90fd5b81610b2291613a0f565b6104385783386107f8565b6040513d84823e3d90fd5b60646040517f08c379a000000000000000000000000000000000000000000000000000000000815260206004820152601160248201527f436c69656e745661756c743a20746f3d300000000000000000000000000000006044820152fd5b50346102f55760407ffffffffffffffffffffffffffffffffffffffffffffffffffffffffffffffffc3601126102f557610c28610bd1613912565b610bd9613922565b90610c1b73ffffffffffffffffffffffffffffffffffffffff7f0000000000000000000000000000000000000000000000000000000000000000163314613b71565b610c23613c59565b61410e565b50508073ffffffffffffffffffffffffffffffffffffffff7f000000000000000000000000000000000000000000000000000000000000000016803b15610d17578180916024604051809581937fe40105030000000000000000000000000000000000000000000000000000000083523060048401525af19182610cfe575b5050610cd5575b60017f9b779b17422d0df92223018b32b4d1fa46e071723d6817e2486d003becc55f005580f35b7f7c8034b0915ddb06daf1c98814ae561303379b3db725b973ef0d14ea2c923d5c8180a1610cae565b81610d0891613a0f565b610d13578138610ca7565b5080fd5b50fd5b50346102f557807ffffffffffffffffffffffffffffffffffffffffffffffffffffffffffffffffc3601126102f557602060ff600254166040519015158152f35b50346102f557807ffffffffffffffffffffffffffffffffffffffffffffffffffffffffffffffffc3601126102f557604051907f9d63848a00000000000000000000000000000000000000000000000000000000825260408260048173ffffffffffffffffffffffffffffffffffffffff7f0000000000000000000000000000000000000000000000000000000000000000165afa918215610e4b578192610e29575b506040805173ffffffffffffffffffffffffffffffffffffffff928316815292909116602083015290f35b9050610e44915060403d604011610ac857610aba8183613a0f565b9038610dfe565b50604051903d90823e3d90fd5b50346102f557807ffffffffffffffffffffffffffffffffffffffffffffffffffffffffffffffffc3601126102f557602060405173ffffffffffffffffffffffffffffffffffffffff7f0000000000000000000000000000000000000000000000000000000000000000168152f35b50346102f55760807ffffffffffffffffffffffffffffffffffffffffffffffffffffffffffffffffc3601126102f557610eff613912565b610f07613922565b610f4873ffffffffffffffffffffffffffffffffffffffff7f0000000000000000000000000000000000000000000000000000000000000000163314613b71565b610f50613c59565b73ffffffffffffffffffffffffffffffffffffffff7f000000000000000000000000000000000000000000000000000000000000000016604051927f6783ac1700000000000000000000000000000000000000000000000000000000845230600485015260020b9182602485015260020b908160448501526044356064850152606435608485015260208460a48188855af1938415610b0d578594611103575b506020602491604051928380927f86ff5c4b0000000000000000000000000000000000000000000000000000000082523060048301525afa908115610b0d5785916110ab575b507ff11c7bb58b96ebaf21e2b7c98f5156d8cc615078346535b1d12842baceae698193606093926fffffffffffffffffffffffffffffffff926007556040519384526020840152166040820152a160017f9b779b17422d0df92223018b32b4d1fa46e071723d6817e2486d003becc55f005580f35b90506020929192813d6020116110fb575b816110c960209383613a0f565b81010312610a1e57519091907ff11c7bb58b96ebaf21e2b7c98f5156d8cc615078346535b1d12842baceae6981611036565b3d91506110bc565b9093506020813d60201161113c575b8161111f60209383613a0f565b810103126102ef576020611134602492613c3c565b949150610ff0565b3d9150611112565b50346102f557807ffffffffffffffffffffffffffffffffffffffffffffffffffffffffffffffffc3601126102f5576111b473ffffffffffffffffffffffffffffffffffffffff7f0000000000000000000000000000000000000000000000000000000000000000163314613b71565b6111bc613c59565b73ffffffffffffffffffffffffffffffffffffffff7f000000000000000000000000000000000000000000000000000000000000000016803b15610d1357816040517fb0217240000000000000000000000000000000000000000000000000000000008152306004820152818160248183875af18015610b2d57611303575b50506020602491604051928380927f86ff5c4b0000000000000000000000000000000000000000000000000000000082523060048301525afa908115610b2d5782916112d1575b506007557fcddb7c3bd3716f33d8c8e4e6c4a630b71671c6a8c3abfee8c3b9892e8032d6df8180a160017f9b779b17422d0df92223018b32b4d1fa46e071723d6817e2486d003becc55f005580f35b90506020813d6020116112fb575b816112ec60209383613a0f565b81010312610a1e575138611282565b3d91506112df565b8161130d91613a0f565b610d1357813861123b565b50346102f55760a07ffffffffffffffffffffffffffffffffffffffffffffffffffffffffffffffffc3601126102f5576113506138aa565b906113596138cc565b6044359273ffffffffffffffffffffffffffffffffffffffff841693848103610438576064359062ffffff82168083036102eb576084359673ffffffffffffffffffffffffffffffffffffffff8816918289036116d6576113f173ffffffffffffffffffffffffffffffffffffffff7f0000000000000000000000000000000000000000000000000000000000000000163314613b71565b73ffffffffffffffffffffffffffffffffffffffff871690811515806116cd575b1561166f57828214611611576040519060a0820182811067ffffffffffffffff8211176115e4579460807f45d6530781e89b42056f6e2039254a9e227ddbeaeebf594d82f7d8b27afc08c79b9c9795938295936115de9a986040528b15159485835260208301528560408301526060820152015260ff7fffffffffffffffffffffffffffffffffffffffffffffffffffffffffffffff00600454169116176004556004547fffffffffffffffffffffff0000000000000000000000000000000000000000ff74ffffffffffffffffffffffffffffffffffffffff008a60081b169116176004557fffffffffffffffffffffffff000000000000000000000000000000000000000060055416176005556005547fffffffffffffffffff000000ffffffffffffffffffffffffffffffffffffffff76ffffff00000000000000000000000000000000000000008560a01b169116176005557fffffffffffffffffffffffff00000000000000000000000000000000000000006006541617600655604051958695869362ffffff9073ffffffffffffffffffffffffffffffffffffffff6080958180969a99959a60a08a019b15158a5216602089015216604087015216606085015216910152565b0390a180f35b60248b7f4e487b710000000000000000000000000000000000000000000000000000000081526041600452fd5b60646040517f08c379a000000000000000000000000000000000000000000000000000000000815260206004820152601d60248201527f436c69656e745661756c743a20746f6b656e496e3d746f6b656e4f75740000006044820152fd5b60646040517f08c379a000000000000000000000000000000000000000000000000000000000815260206004820152601460248201527f436c69656e745661756c743a20746f6b656e3d300000000000000000000000006044820152fd5b50821515611412565b8780fd5b50346102f557807ffffffffffffffffffffffffffffffffffffffffffffffffffffffffffffffffc3601126102f55761174a73ffffffffffffffffffffffffffffffffffffffff7f0000000000000000000000000000000000000000000000000000000000000000163314613b71565b611752613c59565b604051907f762100e70000000000000000000000000000000000000000000000000000000082523060048301526040826024818473ffffffffffffffffffffffffffffffffffffffff7f0000000000000000000000000000000000000000000000000000000000000000165af18015610e4b57604092829161182e575b507f099830bf72bfd4281b6dd74da06794aabc4a2fc97ed1e35c125293c6a2dccd00838051848152836020820152a160017f9b779b17422d0df92223018b32b4d1fa46e071723d6817e2486d003becc55f005582519182526020820152f35b90506118509150823d8411611856575b6118488183613a0f565b810190613ac4565b386117cf565b503d61183e565b50346102f55760207ffffffffffffffffffffffffffffffffffffffffffffffffffffffffffffffffc3601126102f5577f597db723170e2062ff01c7a921f699b0274807a884be8bdce5f2fcf3d645844b60206118b86138aa565b6118f973ffffffffffffffffffffffffffffffffffffffff7f0000000000000000000000000000000000000000000000000000000000000000163314613b71565b15157fffffffffffffffffffffffffffffffffffffffffffffffffffffffffffffff0084541660ff8216178455604051908152a180f35b50346102f557807ffffffffffffffffffffffffffffffffffffffffffffffffffffffffffffffffc3601126102f55760ff6020915460381c166040519015158152f35b50346102f557807ffffffffffffffffffffffffffffffffffffffffffffffffffffffffffffffffc3601126102f5576004546005546006546040805160ff85161515815273ffffffffffffffffffffffffffffffffffffffff60089590951c851660208201528484169181019190915262ffffff60a093841c1660608201529216608083015290f35b50346102f557807ffffffffffffffffffffffffffffffffffffffffffffffffffffffffffffffffc3601126102f5576080905460ff604051918181161515835263ffffffff8160081c16602084015261ffff8160281c16604084015260381c1615156060820152f35b50346102f557807ffffffffffffffffffffffffffffffffffffffffffffffffffffffffffffffffc3601126102f55760206040517f00000000000000000000000000000000000000000000000000000000000000008152f35b50346102f55760407ffffffffffffffffffffffffffffffffffffffffffffffffffffffffffffffffc3601126102f5577fdb4349850272f6a7988875162ae9ec0afca77fc3792552b5f0732c06ab8ad761611b176138aa565b611b1f6138b9565b90611b6173ffffffffffffffffffffffffffffffffffffffff7f0000000000000000000000000000000000000000000000000000000000000000163314613b71565b6115de8454926cffffffff0000000000000000008160481b1668ff000000000000000084151560401b167fffffffffffffffffffffffffffffffffffffff0000000000ffffffffffffffff86161717865560405193849360ff63ffffffff8360481c169260401c1685929363ffffffff809296956060946080870198151587521515602087015216604085015216910152565b50346102f557807ffffffffffffffffffffffffffffffffffffffffffffffffffffffffffffffffc3601126102f55760ff6020915460401c166040519015158152f35b50346102f557807ffffffffffffffffffffffffffffffffffffffffffffffffffffffffffffffffc3601126102f557611ca773ffffffffffffffffffffffffffffffffffffffff7f0000000000000000000000000000000000000000000000000000000000000000163314613b71565b611caf613c59565b8073ffffffffffffffffffffffffffffffffffffffff7f000000000000000000000000000000000000000000000000000000000000000016803b15610d17578180916024604051809481937fe40105030000000000000000000000000000000000000000000000000000000083523060048401525af18015610b2d57611d7c575b50807f7c8034b0915ddb06daf1c98814ae561303379b3db725b973ef0d14ea2c923d5c91a160017f9b779b17422d0df92223018b32b4d1fa46e071723d6817e2486d003becc55f005580f35b81611d8691613a0f565b6102f5578038611d30565b50346102f557807ffffffffffffffffffffffffffffffffffffffffffffffffffffffffffffffffc3601126102f557611e0173ffffffffffffffffffffffffffffffffffffffff7f0000000000000000000000000000000000000000000000000000000000000000163314613b71565b611e09613c59565b8073ffffffffffffffffffffffffffffffffffffffff7f000000000000000000000000000000000000000000000000000000000000000016803b15610d17578180916024604051809481937fef5cfb8c0000000000000000000000000000000000000000000000000000000083523060048401525af18015610b2d57611eb2575b5060017f9b779b17422d0df92223018b32b4d1fa46e071723d6817e2486d003becc55f005580f35b81611ebc91613a0f565b6102f5578038611e8a565b50346102f5576101007ffffffffffffffffffffffffffffffffffffffffffffffffffffffffffffffffc3601126102f557611f3973ffffffffffffffffffffffffffffffffffffffff7f0000000000000000000000000000000000000000000000000000000000000000163314613932565b611f41613c59565b805460ff8116156124e85763ffffffff8160081c1680612472575b50611f65613bd6565b611f6d613be6565b60020b9060020b12156124145773ffffffffffffffffffffffffffffffffffffffff7f000000000000000000000000000000000000000000000000000000000000000016906040517f9d63848a000000000000000000000000000000000000000000000000000000008152604081600481865afa908115610acf57849085926123de575b5073ffffffffffffffffffffffffffffffffffffffff9081612011613bf6565b9116918291161491826123b3575b8215612357575b5050156122f95760381c60ff16156122e8575b803b15610d1357816040517f47f1aac2000000000000000000000000000000000000000000000000000000008152306004820152818160248183875af18015610b2d576122d3575b50506040517f86ff5c4b000000000000000000000000000000000000000000000000000000008152306004820152602081602481855afa9081156122c8578391612296575b506007557fcddb7c3bd3716f33d8c8e4e6c4a630b71671c6a8c3abfee8c3b9892e8032d6df8280a160a43590828261223c575b83612113612105613bd6565b61210d613be6565b9061410e565b938091503b15610d13578180916024604051809581937fe40105030000000000000000000000000000000000000000000000000000000083523060048401525af19182612221575b5050907f65b5608d4c316ad3a012b3219ea49a3abcac394b0e3f84bd16cbe4bb2a15cf2a9360a093926121f8575b426008556fffffffffffffffffffffffffffffffff6121a6613bd6565b936121af613be6565b6040519560020b865260020b602086015216604084015260608301526080820152a160017f9b779b17422d0df92223018b32b4d1fa46e071723d6817e2486d003becc55f005580f35b7f7c8034b0915ddb06daf1c98814ae561303379b3db725b973ef0d14ea2c923d5c8680a1612189565b8161222f9195949395613a0f565b6102ef579091843861215b565b50612245613bf6565b61224d613c19565b6044359162ffffff831683036102eb5760e4359173ffffffffffffffffffffffffffffffffffffffff831683036122925761228d93869160c43593613cd2565b6120f9565b8680fd5b90506020813d6020116122c0575b816122b160209383613a0f565b81010312610a1e5751386120c6565b3d91506122a4565b6040513d85823e3d90fd5b816122dd91613a0f565b610d13578138612081565b6122f460a43515613ada565b612039565b60646040517f08c379a000000000000000000000000000000000000000000000000000000000815260206004820152601c60248201527f436c69656e745661756c743a20746f6b656e73206d69736d61746368000000006044820152fd5b90915073ffffffffffffffffffffffffffffffffffffffff80612378613bf6565b9216911614908161238c575b503880612026565b905073ffffffffffffffffffffffffffffffffffffffff6123ab613c19565b161438612384565b91506123bd613c19565b73ffffffffffffffffffffffffffffffffffffffff8084169116149161201f565b73ffffffffffffffffffffffffffffffffffffffff925061240e915060403d604011610ac857610aba8183613a0f565b91611ff1565b60646040517f08c379a000000000000000000000000000000000000000000000000000000000815260206004820152601a60248201527f436c69656e745661756c743a20696e76616c69642072616e67650000000000006044820152fd5b61247e906008546139d3565b421061248a5738611f5c565b60646040517f08c379a000000000000000000000000000000000000000000000000000000000815260206004820152601560248201527f436c69656e745661756c743a20636f6f6c646f776e00000000000000000000006044820152fd5b60646040517f08c379a000000000000000000000000000000000000000000000000000000000815260206004820152602060248201527f436c69656e745661756c743a206175746f6d6174696f6e2064697361626c65646044820152fd5b50346102f557807ffffffffffffffffffffffffffffffffffffffffffffffffffffffffffffffffc3601126102f5576125b673ffffffffffffffffffffffffffffffffffffffff7f0000000000000000000000000000000000000000000000000000000000000000163314613b71565b6125be613c59565b8073ffffffffffffffffffffffffffffffffffffffff7f000000000000000000000000000000000000000000000000000000000000000016803b15610d17578180916024604051809481937fdcfc070b0000000000000000000000000000000000000000000000000000000083523060048401525af18015610b2d5761268b575b50807f223cba103b37553fa55d92837815b881061ed40ebf54193471d8edb521b95df591a160017f9b779b17422d0df92223018b32b4d1fa46e071723d6817e2486d003becc55f005580f35b8161269591613a0f565b6102f557803861263f565b50346102f557807ffffffffffffffffffffffffffffffffffffffffffffffffffffffffffffffffc3601126102f5576020600354604051908152f35b50346102f55760407ffffffffffffffffffffffffffffffffffffffffffffffffffffffffffffffffc3601126102f5577f9d83d7c2aacb17c086a28252fe1bc83a253ef3f53b81ea265e68496567d17b506127356138aa565b61273d6138b9565b9061277f73ffffffffffffffffffffffffffffffffffffffff7f0000000000000000000000000000000000000000000000000000000000000000163314613b71565b6115de6002549264ffffffff008160081b1660ff841515167fffffffffffffffffffffffffffffffffffffffffffffffffffffff00000000008616171760025560405193849360ff63ffffffff8360081c16921685929363ffffffff809296956060946080870198151587521515602087015216604085015216910152565b50346102f5576101607ffffffffffffffffffffffffffffffffffffffffffffffffffffffffffffffffc3601126102f55761287073ffffffffffffffffffffffffffffffffffffffff7f0000000000000000000000000000000000000000000000000000000000000000163314613932565b612878613c59565b612880613997565b9081156137bd575b81156137ad575b6128976139c4565b8283156137a6575b1561374857808361364c575b613557575b6040517fa00622dc000000000000000000000000000000000000000000000000000000008152927f000000000000000000000000000000000000000000000000000000000000000073ffffffffffffffffffffffffffffffffffffffff16602085600481845afa948515610acf57849561351b575b5073ffffffffffffffffffffffffffffffffffffffff85169081156134bd576040517f9d63848a000000000000000000000000000000000000000000000000000000008152604081600481855afa8015610a7e578691879161349c575b5061298b613997565b613437575b6129986139a6565b6133ac575b6129a56139b5565b612f30575b8697506129b9969495966139c4565b612a4f575b5050505050612a21575b6129f35760017f9b779b17422d0df92223018b32b4d1fa46e071723d6817e2486d003becc55f005580f35b42600355427f9c105c5516038a31b52025c35bd815a6323fbe2d5860e917939e758aa6b55d7b8280a2610cae565b42600155427fb72f7afff6ca112afbbcfe6484a1e3b9a7903ea9268b4feb5b8c5575f4560c9a8380a26129c8565b6040517ff7888aec00000000000000000000000000000000000000000000000000000000815230600482015273ffffffffffffffffffffffffffffffffffffffff83166024820152602081604481885afa908115610a7e578691612efb575b506040517ff7888aec00000000000000000000000000000000000000000000000000000000815230600482015273ffffffffffffffffffffffffffffffffffffffff83166024820152602081604481895afa908115610a2b578791612ec6575b5060e43590610104359282158015612ebd575b612eb5575b5082158015612eac575b612ea4575b5080612e1b575b5080612d92575b506004859360208791604051938480927fa6f19c840000000000000000000000000000000000000000000000000000000082525afa808891612d43575b73ffffffffffffffffffffffffffffffffffffffff9350612d3b575b501680612cb8575b5073ffffffffffffffffffffffffffffffffffffffff8316908115159283612c97575b5082612c76575b5050612bdc575b80806129be565b6040517fb6703fcd00000000000000000000000000000000000000000000000000000000815273ffffffffffffffffffffffffffffffffffffffff9190911660048201523060248201529160209183916044918391905af18015610acf57612c47575b808491612bd5565b612c689060203d602011612c6f575b612c608183613a0f565b810190613b3f565b5038612c3f565b503d612c56565b73ffffffffffffffffffffffffffffffffffffffff16141590503880612bce565b73ffffffffffffffffffffffffffffffffffffffff16821415925038612bc7565b6020600491604051928380927f4ca6ef280000000000000000000000000000000000000000000000000000000082525afa869181612cff575b5015612ba457925038612ba4565b9091506020813d602011612d33575b81612d1b60209383613a0f565b8101031261229257612d2c90613a7f565b9038612cf1565b3d9150612d0e565b905038612b9c565b90506020833d602011612d8a575b81612d5e60209383613a0f565b810103126116d657612d8473ffffffffffffffffffffffffffffffffffffffff93613a7f565b90612b80565b3d9150612d51565b843b156102eb576040517fc4e2c1e600000000000000000000000000000000000000000000000000000000815273ffffffffffffffffffffffffffffffffffffffff831660048201526024810191909152306044820152858160648183895af1908115610a7e578691612e06575b50612b43565b81612e1091613a0f565b6102ef578438612e00565b853b15612292576040517fc4e2c1e600000000000000000000000000000000000000000000000000000000815273ffffffffffffffffffffffffffffffffffffffff8516600482015260248101919091523060448201528681606481838a5af1908115610a2b578791612e8f575b50612b3c565b81612e9991613a0f565b6102eb578538612e89565b915038612b35565b50808311612b30565b915038612b26565b50808311612b21565b9650506020863d602011612ef3575b81612ee260209383613a0f565b81010312610a1e5788955138612b0e565b3d9150612ed5565b9550506020853d602011612f28575b81612f1760209383613a0f565b81010312610a1e5787945138612aae565b3d9150612f0a565b612f4060ff885460381c16613ada565b60045460ff8116156133285760081c73ffffffffffffffffffffffffffffffffffffffff169788151580613307575b156132a95773ffffffffffffffffffffffffffffffffffffffff600554169073ffffffffffffffffffffffffffffffffffffffff84168214801561328a575b15613206576040517ff7888aec00000000000000000000000000000000000000000000000000000000815230600482015273ffffffffffffffffffffffffffffffffffffffff8b1660248201529960208b6044818a5afa9a8b156131fb578a9b6131c7575b506064359a8b1580156131be575b6131b6575b508a613035575b5050506129aa565b863b156131b2576040517fc4e2c1e600000000000000000000000000000000000000000000000000000000815273ffffffffffffffffffffffffffffffffffffffff82166004820152602481018c90523060448201528a81606481838c5af180156131a757613189575b506130ff8a9b6131079273ffffffffffffffffffffffffffffffffffffffff6130ca9d9b9c9d613b4e565b1661317b5773ffffffffffffffffffffffffffffffffffffffff60065416915b62ffffff60055460a01c168760843593613cd2565b809284613f85565b853b1561229257604051917fb3db428b00000000000000000000000000000000000000000000000000000000835230600484015260248301526044820152858160648183895af1908115610a7e578691613166575b809897969861302d565b8161317091613a0f565b6102ef57843861315c565b613183613b4e565b916130ea565b8a61319d613107939a9b9c6130ff93613a0f565b9a9998915061309f565b6040513d8d823e3d90fd5b8980fd5b9a5038613026565b50808c11613021565b909a506020813d6020116131f3575b816131e360209383613a0f565b810103126131b257519938613013565b3d91506131d6565b6040513d8c823e3d90fd5b60846040517f08c379a000000000000000000000000000000000000000000000000000000000815260206004820152602b60248201527f436c69656e745661756c743a2072657761726420746f6b656e4f7574206e6f7460448201527f20706f6f6c20746f6b656e0000000000000000000000000000000000000000006064820152fd5b5073ffffffffffffffffffffffffffffffffffffffff83168214612fae565b60646040517f08c379a000000000000000000000000000000000000000000000000000000000815260206004820152601b60248201527f436c69656e745661756c743a2072657761726420746f6b656e3d3000000000006044820152fd5b5073ffffffffffffffffffffffffffffffffffffffff600554161515612f6f565b60846040517f08c379a000000000000000000000000000000000000000000000000000000000815260206004820152602160248201527f436c69656e745661756c743a2072657761726420737761702064697361626c6560448201527f64000000000000000000000000000000000000000000000000000000000000006064820152fd5b6040517f172688440000000000000000000000000000000000000000000000000000000081523060048201526040816024818b885af1801561342c576133f3575b5061299d565b6040813d604011613424575b8161340c60409383613a0f565b810103126116d65761341d90613a7f565b50386133ed565b3d91506133ff565b6040513d8a823e3d90fd5b6040517fb89b1f470000000000000000000000000000000000000000000000000000000081523060048201526040816024818b885af1801561342c5761347e575b50612990565b6134969060403d604011611856576118488183613a0f565b50613478565b90506134b7915060403d604011610ac857610aba8183613a0f565b38612982565b60646040517f08c379a000000000000000000000000000000000000000000000000000000000815260206004820152601560248201527f436c69656e745661756c743a206275666665723d3000000000000000000000006044820152fd5b9094506020813d60201161354f575b8161353760209383613a0f565b810103126104385761354890613a7f565b9338612925565b3d915061352a565b60025460ff8116156135ee5760081c63ffffffff1680613578575b506128b0565b613584906003546139d3565b42106135905738613572565b60646040517f08c379a000000000000000000000000000000000000000000000000000000000815260206004820152601e60248201527f436c69656e745661756c743a20636f6d706f756e6420636f6f6c646f776e00006044820152fd5b60646040517f08c379a000000000000000000000000000000000000000000000000000000000815260206004820152601e60248201527f436c69656e745661756c743a20636f6d706f756e642064697361626c656400006044820152fd5b50815460ff8160401c16156136ea5763ffffffff829160481c1680613672575b506128ab565b61367f91506001546139d3565b421061368c57803861366c565b60646040517f08c379a000000000000000000000000000000000000000000000000000000000815260206004820152601d60248201527f436c69656e745661756c743a206861727665737420636f6f6c646f776e0000006044820152fd5b60646040517f08c379a000000000000000000000000000000000000000000000000000000000815260206004820152601d60248201527f436c69656e745661756c743a20686172766573742064697361626c65640000006044820152fd5b60646040517f08c379a000000000000000000000000000000000000000000000000000000000815260206004820152601260248201527f436c69656e745661756c743a206e6f2d6f7000000000000000000000000000006044820152fd5b508061289f565b90506137b76139b5565b9061288f565b90506137c76139a6565b90612888565b50346102f557807ffffffffffffffffffffffffffffffffffffffffffffffffffffffffffffffffc3601126102f557602060405173ffffffffffffffffffffffffffffffffffffffff7f0000000000000000000000000000000000000000000000000000000000000000168152f35b905034610d1357817ffffffffffffffffffffffffffffffffffffffffffffffffffffffffffffffffc360112610d135760209073ffffffffffffffffffffffffffffffffffffffff7f0000000000000000000000000000000000000000000000000000000000000000168152f35b600435908115158203610a1e57565b6024359063ffffffff82168203610a1e57565b6024359073ffffffffffffffffffffffffffffffffffffffff82168203610a1e57565b6004359073ffffffffffffffffffffffffffffffffffffffff82168203610a1e57565b600435908160020b8203610a1e57565b602435908160020b8203610a1e57565b1561393957565b60646040517f08c379a000000000000000000000000000000000000000000000000000000000815260206004820152601960248201527f436c69656e745661756c743a206e6f74206578656375746f72000000000000006044820152fd5b6004358015158103610a1e5790565b6024358015158103610a1e5790565b6044358015158103610a1e5790565b60c4358015158103610a1e5790565b919082018092116139e057565b7f4e487b7100000000000000000000000000000000000000000000000000000000600052601160045260246000fd5b90601f7fffffffffffffffffffffffffffffffffffffffffffffffffffffffffffffffe0910116810190811067ffffffffffffffff821117613a5057604052565b7f4e487b7100000000000000000000000000000000000000000000000000000000600052604160045260246000fd5b519073ffffffffffffffffffffffffffffffffffffffff82168203610a1e57565b9190826040910312610a1e57613ac16020613aba84613a7f565b9301613a7f565b90565b9190826040910312610a1e576020825192015190565b15613ae157565b60646040517f08c379a000000000000000000000000000000000000000000000000000000000815260206004820152601a60248201527f436c69656e745661756c743a20737761702064697361626c65640000000000006044820152fd5b90816020910312610a1e575190565b60a43573ffffffffffffffffffffffffffffffffffffffff81168103610a1e5790565b15613b7857565b60646040517f08c379a000000000000000000000000000000000000000000000000000000000815260206004820152601660248201527f436c69656e745661756c743a206e6f74206f776e6572000000000000000000006044820152fd5b6004358060020b8103610a1e5790565b6024358060020b8103610a1e5790565b60643573ffffffffffffffffffffffffffffffffffffffff81168103610a1e5790565b60843573ffffffffffffffffffffffffffffffffffffffff81168103610a1e5790565b51906fffffffffffffffffffffffffffffffff82168203610a1e57565b60027f9b779b17422d0df92223018b32b4d1fa46e071723d6817e2486d003becc55f005414613ca85760027f9b779b17422d0df92223018b32b4d1fa46e071723d6817e2486d003becc55f0055565b7f3ee5aeb50000000000000000000000000000000000000000000000000000000060005260046000fd5b9594919290937f00000000000000000000000000000000000000000000000000000000000000009673ffffffffffffffffffffffffffffffffffffffff8816938415613f27578315613ec957613d29848a84613f85565b6103844201928342116139e0576040519261010084019484861067ffffffffffffffff871117613a505773ffffffffffffffffffffffffffffffffffffffff809562ffffff828a957f414bf389000000000000000000000000000000000000000000000000000000009a604052169b8c83528380602085019f169e8f81528360408601931683528160608601953087526080810198895260a08101998a5260c081019a8b528160e082019c168c526040519d8e52511660048d0152511660248b015251166044890152511660648701525160848601525160a48501525160c4840152511660e4820152602081610104816000875af1908115613ebd57600091613e6b575b507f6782190c91d4a7e8ad2a867deed6ec0a970cab8ff137ae2bd4abd92b3810f4d39181613e5e6040939987614554565b82519182526020820152a4565b906020823d602011613eb5575b81613e8560209383613a0f565b810103126102f55750517f6782190c91d4a7e8ad2a867deed6ec0a970cab8ff137ae2bd4abd92b3810f4d3613e2d565b3d9150613e78565b6040513d6000823e3d90fd5b60646040517f08c379a000000000000000000000000000000000000000000000000000000000815260206004820152601760248201527f436c69656e745661756c743a20616d6f756e74496e3d300000000000000000006044820152fd5b60646040517f08c379a000000000000000000000000000000000000000000000000000000000815260206004820152601560248201527f436c69656e745661756c743a20726f757465723d3000000000000000000000006044820152fd5b8215614109576040517fdd62ed3e00000000000000000000000000000000000000000000000000000000815230600482015273ffffffffffffffffffffffffffffffffffffffff8381166024830152919091169290602081604481875afa908115613ebd576000916140d7575b5010613ffc575050565b6140068183614554565b6140317fffffffffffffffffffffffffffffffffffffffffffffffffffffffffffffffff82846145d1565b1561403a575050565b614044818361464c565b156140a9577fffffffffffffffffffffffffffffffffffffffffffffffffffffffffffffffff61407491836146d7565b1561407c5750565b7f5274afe70000000000000000000000000000000000000000000000000000000060005260045260246000fd5b507f5274afe70000000000000000000000000000000000000000000000000000000060005260045260246000fd5b90506020813d602011614101575b816140f260209383613a0f565b81010312610a1e575138613ff2565b3d91506140e5565b505050565b909173ffffffffffffffffffffffffffffffffffffffff7f00000000000000000000000000000000000000000000000000000000000000001691604051907f9d63848a000000000000000000000000000000000000000000000000000000008252604082600481875afa908115613ebd5760009260009261445f575b50604051927f70a0823100000000000000000000000000000000000000000000000000000000845230600485015260208460248173ffffffffffffffffffffffffffffffffffffffff85165afa938415613ebd5760009461442b575b506040517f70a0823100000000000000000000000000000000000000000000000000000000815230600482015260208160248173ffffffffffffffffffffffffffffffffffffffff88165afa908115613ebd576000916143f9575b5084158015906143f0575b1561439257866040946142656000978361426a96613f85565b613f85565b60648251809481937f109162ef00000000000000000000000000000000000000000000000000000000835230600484015260020b9889602484015260020b978860448401525af1908115613ebd57600090819261431a575b506080906fffffffffffffffffffffffffffffffff837fe1b61fd8135460b22abc435eec8e97ab772042997e8696d312015dd44aedd91e949683988460075560405194855260208501526040840152166060820152a1565b91506040823d60401161438a575b8161433560409383613a0f565b810103126102f557506080816fffffffffffffffffffffffffffffffff61438160207fe1b61fd8135460b22abc435eec8e97ab772042997e8696d312015dd44aedd91e95519301613c3c565b935050906142c2565b3d9150614328565b60646040517f08c379a000000000000000000000000000000000000000000000000000000000815260206004820152601560248201527f436c69656e745661756c743a206e6f2066756e647300000000000000000000006044820152fd5b5080151561424c565b906020823d602011614423575b8161441360209383613a0f565b810103126102f557505138614241565b3d9150614406565b90936020823d602011614457575b8161444660209383613a0f565b810103126102f557505192386141e6565b3d9150614439565b90925061447b915060403d604011610ac857610aba8183613a0f565b90913861418a565b9160209060009073ffffffffffffffffffffffffffffffffffffffff604051947fa9059cbb0000000000000000000000000000000000000000000000000000000084521660045260245260448180865af190600160005114821615614532575b604052156144ee5750565b73ffffffffffffffffffffffffffffffffffffffff907f5274afe7000000000000000000000000000000000000000000000000000000006000521660045260246000fd5b90600181151661454a57823b15153d151616906144e3565b503d6000823e3d90fd5b90614561600082846145d1565b1561456a575050565b614574818361464c565b1561458d57600061458591836146d7565b156144ee5750565b73ffffffffffffffffffffffffffffffffffffffff827f5274afe7000000000000000000000000000000000000000000000000000000006000521660045260246000fd5b92919260009373ffffffffffffffffffffffffffffffffffffffff604051937f095ea7b30000000000000000000000000000000000000000000000000000000087521660045260245260208460448180855af1936001815114851615614639575b5050604052565b939193503b15153d151616913880614632565b919073ffffffffffffffffffffffffffffffffffffffff604051917f095ea7b3000000000000000000000000000000000000000000000000000000006000521660045260006024526020600060448180875af1926001600051148416156146b4575b50604052565b600184929415166146cd573b15153d15161691386146ae565b833d6000823e3d90fd5b929173ffffffffffffffffffffffffffffffffffffffff604051927f095ea7b300000000000000000000000000000000000000000000000000000000600052166004526024526020600060448180875af1926001600051148416156146b4575060405256fea26469706673582212204454d7401dc198903e1601f42a494a445d29d907ff0ba4d351353bdefbdd3af064736f6c634300081e0033a2646970667358221220efd5b54d6735a10c0ce64df06c5d6d52b44ba7ebd1048c035efb22691a49516c64736f6c634300081e0033","linkReferences":{}},"methodIdentifiers":{"allVaults(uint256)":"9094a91e","allVaultsLength()":"4cd18577","createClientVault(uint256,address)":"369988d6","defaultAllowSwap()":"ce01fe71","defaultCooldownSec()":"d61973ce","defaultMaxSlippageBps()":"b4b80795","executor()":"c34c08e5","feeCollector()":"c415b95c","getVaultsByOwner(address)":"ac818711","getVaultsByOwnerAndStrategy(address,uint256)":"d69ea24f","owner()":"8da5cb5b","renounceOwnership()":"715018a6","setDefaults(uint32,uint16,bool)":"72735c29","setExecutor(address)":"1c3c0ea8","setFeeCollector(address)":"a42dce80","strategyRegistry()":"d080bf27","transferOwnership(address)":"f2fde38b","vaultsByOwner(address,uint256)":"1a0121db","vaultsByOwnerStrategy(address,uint256,uint256)":"f94d85fd"},"id":73}