{"abi":[{"type":"constructor","inputs":[{"name":"initialOwner","type":"address","internalType":"address"},{"name":"_strategyRegistry","type":"address","internalType":"address"},{"name":"_executor","type":"address","internalType":"address"},{"name":"_feeCollector","type":"address","internalType":"address"},{"name":"_defaultCooldownSec","type":"uint32","internalType":"uint32"},{"name":"_defaultMaxSlippageBps","type":"uint16","internalType":"uint16"},{"name":"_defaultAllowSwap","type":"bool","internalType":"bool"}],"stateMutability":"nonpayable"},{"type":"function","name":"allVaults","inputs":[{"name":"","type":"uint256","internalType":"uint256"}],"outputs":[{"name":"vault","type":"address","internalType":"address"},{"name":"owner","type":"address","internalType":"address"},{"name":"strategyId","type":"uint256","internalType":"uint256"}],"stateMutability":"view"},{"type":"function","name":"allVaultsLength","inputs":[],"outputs":[{"name":"length","type":"uint256","internalType":"uint256"}],"stateMutability":"view"},{"type":"function","name":"createClientVault","inputs":[{"name":"strategyId","type":"uint256","internalType":"uint256"},{"name":"ownerOverride","type":"address","internalType":"address"}],"outputs":[{"name":"vaultAddr","type":"address","internalType":"address"}],"stateMutability":"nonpayable"},{"type":"function","name":"defaultAllowSwap","inputs":[],"outputs":[{"name":"","type":"bool","internalType":"bool"}],"stateMutability":"view"},{"type":"function","name":"defaultCooldownSec","inputs":[],"outputs":[{"name":"","type":"uint32","internalType":"uint32"}],"stateMutability":"view"},{"type":"function","name":"defaultMaxSlippageBps","inputs":[],"outputs":[{"name":"","type":"uint16","internalType":"uint16"}],"stateMutability":"view"},{"type":"function","name":"executor","inputs":[],"outputs":[{"name":"","type":"address","internalType":"address"}],"stateMutability":"view"},{"type":"function","name":"feeCollector","inputs":[],"outputs":[{"name":"","type":"address","internalType":"address"}],"stateMutability":"view"},{"type":"function","name":"getVaultsByOwner","inputs":[{"name":"owner","type":"address","internalType":"address"}],"outputs":[{"name":"vaults","type":"address[]","internalType":"address[]"}],"stateMutability":"view"},{"type":"function","name":"getVaultsByOwnerAndStrategy","inputs":[{"name":"owner","type":"address","internalType":"address"},{"name":"strategyId","type":"uint256","internalType":"uint256"}],"outputs":[{"name":"vaults","type":"address[]","internalType":"address[]"}],"stateMutability":"view"},{"type":"function","name":"owner","inputs":[],"outputs":[{"name":"","type":"address","internalType":"address"}],"stateMutability":"view"},{"type":"function","name":"renounceOwnership","inputs":[],"outputs":[],"stateMutability":"nonpayable"},{"type":"function","name":"setDefaults","inputs":[{"name":"_cooldownSec","type":"uint32","internalType":"uint32"},{"name":"_maxSlippageBps","type":"uint16","internalType":"uint16"},{"name":"_allowSwap","type":"bool","internalType":"bool"}],"outputs":[],"stateMutability":"nonpayable"},{"type":"function","name":"setExecutor","inputs":[{"name":"newExecutor","type":"address","internalType":"address"}],"outputs":[],"stateMutability":"nonpayable"},{"type":"function","name":"setFeeCollector","inputs":[{"name":"newCollector","type":"address","internalType":"address"}],"outputs":[],"stateMutability":"nonpayable"},{"type":"function","name":"strategyRegistry","inputs":[],"outputs":[{"name":"","type":"address","internalType":"contract StrategyRegistry"}],"stateMutability":"view"},{"type":"function","name":"transferOwnership","inputs":[{"name":"newOwner","type":"address","internalType":"address"}],"outputs":[],"stateMutability":"nonpayable"},{"type":"function","name":"vaultsByOwner","inputs":[{"name":"","type":"address","internalType":"address"},{"name":"","type":"uint256","internalType":"uint256"}],"outputs":[{"name":"","type":"address","internalType":"address"}],"stateMutability":"view"},{"type":"function","name":"vaultsByOwnerStrategy","inputs":[{"name":"","type":"address","internalType":"address"},{"name":"","type":"uint256","internalType":"uint256"},{"name":"","type":"uint256","internalType":"uint256"}],"outputs":[{"name":"","type":"address","internalType":"address"}],"stateMutability":"view"},{"type":"event","name":"ClientVaultDeployed","inputs":[{"name":"vault","type":"address","indexed":true,"internalType":"address"},{"name":"owner","type":"address","indexed":true,"internalType":"address"},{"name":"strategyId","type":"uint256","indexed":true,"internalType":"uint256"},{"name":"vaultIndex","type":"uint256","indexed":false,"internalType":"uint256"}],"anonymous":false},{"type":"event","name":"DefaultsUpdated","inputs":[{"name":"cooldownSec","type":"uint32","indexed":false,"internalType":"uint32"},{"name":"maxSlippageBps","type":"uint16","indexed":false,"internalType":"uint16"},{"name":"allowSwap","type":"bool","indexed":false,"internalType":"bool"}],"anonymous":false},{"type":"event","name":"ExecutorUpdated","inputs":[{"name":"oldExecutor","type":"address","indexed":true,"internalType":"address"},{"name":"newExecutor","type":"address","indexed":true,"internalType":"address"}],"anonymous":false},{"type":"event","name":"FeeCollectorUpdated","inputs":[{"name":"oldCollector","type":"address","indexed":true,"internalType":"address"},{"name":"newCollector","type":"address","indexed":true,"internalType":"address"}],"anonymous":false},{"type":"event","name":"OwnershipTransferred","inputs":[{"name":"previousOwner","type":"address","indexed":true,"internalType":"address"},{"name":"newOwner","type":"address","indexed":true,"internalType":"address"}],"anonymous":false},{"type":"error","name":"OwnableInvalidOwner","inputs":[{"name":"owner","type":"address","internalType":"address"}]},{"type":"error","name":"OwnableUnauthorizedAccount","inputs":[{"name":"account","type":"address","internalType":"address"}]},{"type":"error","name":"ReentrancyGuardReentrantCall","inputs":[]}],"bytecode":{"object":"0x60a03461026457601f61499c38819003918201601f19168301916001600160401b038311848410176102695780849260e094604052833981010312610264576100478161027f565b906100546020820161027f565b6100606040830161027f565b9061006d6060840161027f565b9060808401519263ffffffff841684036102645760a08501519461ffff861686036102645760c0015195861515809703610264576001600160a01b031691821561024e57600080546001600160a01b031981168517825560405194916001600160a01b03909116907f8be0079c531659141344cd1fd0a4f28419497f9722a3daafe3b4186f6b6457e09080a360017f9b779b17422d0df92223018b32b4d1fa46e071723d6817e2486d003becc55f00556001600160a01b031691821561020c57506001600160a01b03169081156101c757608052600180546001600160a01b0319169190911790556002805460c09490941b61ffff60c01b1660a09390931b63ffffffff60a01b166001600160d81b03199094166001600160a01b039290921691909117929092171760d09290921b60ff60d01b16919091179055604051614708908161029482396080518181816102c401526106da0152f35b60405162461bcd60e51b815260206004820152601860248201527f5661756c74466163746f72793a206578656375746f723d3000000000000000006044820152606490fd5b62461bcd60e51b815260206004820152601860248201527f5661756c74466163746f72793a2072656769737472793d3000000000000000006044820152606490fd5b631e4fbdf760e01b600052600060045260246000fd5b600080fd5b634e487b7160e01b600052604160045260246000fd5b51906001600160a01b03821682036102645756fe6080604052600436101561001257600080fd5b60003560e01c80631a0121db14610ba85780631c3c0ea814610aef578063369988d61461062c5780634cd185771461060e578063715018a6146105b557806372735c29146104fa5780638da5cb5b146104d15780639094a91e1461047a578063a42dce8014610410578063ac81871114610390578063b4b807951461036b578063c34c08e514610342578063c415b95c14610319578063ce01fe71146102f3578063d080bf27146102ae578063d61973ce14610287578063d69ea24f146101e9578063f2fde38b146101605763f94d85fd146100ed57600080fd5b3461015b57606036600319011261015b57610106610bf2565b6044359060018060a01b0316600052600560205260406000206024356000526020526040600020805482101561015b5760209161014291610c08565b905460405160039290921b1c6001600160a01b03168152f35b600080fd5b3461015b57602036600319011261015b57610179610bf2565b610181610d98565b6001600160a01b031680156101d357600080546001600160a01b03198116831782556001600160a01b0316907f8be0079c531659141344cd1fd0a4f28419497f9722a3daafe3b4186f6b6457e09080a3005b631e4fbdf760e01b600052600060045260246000fd5b3461015b57604036600319011261015b576001600160a01b0361020a610bf2565b1660005260056020526040600020602435600052602052604060002060405190816020825491828152019160005260206000209060005b818110610268576102648561025881870382610cb1565b60405191829182610c6e565b0390f35b82546001600160a01b0316845260209093019260019283019201610241565b3461015b57600036600319011261015b57602063ffffffff60025460a01c16604051908152f35b3461015b57600036600319011261015b576040517f00000000000000000000000000000000000000000000000000000000000000006001600160a01b03168152602090f35b3461015b57600036600319011261015b57602060ff60025460d01c166040519015158152f35b3461015b57600036600319011261015b576002546040516001600160a01b039091168152602090f35b3461015b57600036600319011261015b576001546040516001600160a01b039091168152602090f35b3461015b57600036600319011261015b57602061ffff60025460c01c16604051908152f35b3461015b57602036600319011261015b576001600160a01b036103b1610bf2565b166000526004602052604060002060405190816020825491828152019160005260206000209060005b8181106103f1576102648561025881870382610cb1565b82546001600160a01b03168452602090930192600192830192016103da565b3461015b57602036600319011261015b57610429610bf2565b610431610d98565b600280546001600160a01b039283166001600160a01b0319821681179092559091167f5d16ad41baeb009cd23eb8f6c7cde5c2e0cd5acf4a33926ab488875c37c37f38600080a3005b3461015b57602036600319011261015b5760043560035481101561015b576104a3606091610c36565b5080546001820154600290920154604080516001600160a01b03938416815293909216602084015290820152f35b3461015b57600036600319011261015b576000546040516001600160a01b039091168152602090f35b3461015b57606036600319011261015b5760043563ffffffff811680820361015b576024359061ffff821680830361015b576044359081151580920361015b577f8f8169b885ebbe2a1bab0afadbccca0f1be64145b5d9796581da27960626fed494606094610567610d98565b60025460ff60d01b8560d01b169263ffffffff60a01b9060a01b169066ffffffffffffff60a01b1916179061ffff60c01b9060c01b16171760025560405192835260208301526040820152a1005b3461015b57600036600319011261015b576105ce610d98565b600080546001600160a01b0319811682556001600160a01b03167f8be0079c531659141344cd1fd0a4f28419497f9722a3daafe3b4186f6b6457e08280a3005b3461015b57600036600319011261015b576020600354604051908152f35b3461015b57604036600319011261015b576004356024356001600160a01b03811680820361015b5760027f9b779b17422d0df92223018b32b4d1fa46e071723d6817e2486d003becc55f005414610ade5760027f9b779b17422d0df92223018b32b4d1fa46e071723d6817e2486d003becc55f005515610ad7575b6001600160a01b0316908115610a9a57604051634648f90360e01b815260048101839052602481018290526000816044817f00000000000000000000000000000000000000000000000000000000000000006001600160a01b03165afa9081156109215760009161097c575b5060c08101511561092d576001548151602090920151600254604051936001600160a01b039081169381169261393a80870193909290911667ffffffffffffffff84118785101761090b5761012095879560ff94610dc288398a865260208601526040850152606084015260018060a01b03811660808401528660a084015263ffffffff8160a01c1660c084015261ffff8160c01c1660e084015260d01c1615156101008201520301906000f080156109215760018060a01b031690600354926040516060810181811067ffffffffffffffff82111761090b57604052838152602081018281526040820190848252600160401b87101561090b576001870160035561081e87610c36565b9790976108f557925187546001600160a01b03199081166001600160a01b0392831617895591516001890180549093169116179055516002909501949094556000818152600460209081526040909120909484917fb866f89590840e6c6366b97783b9ef78494c3bf84c3b9e623ee922d63d2f463a9187916108a1908590610d57565b846000526005825260406000208660005282526108c2846040600020610d57565b604051908152a460017f9b779b17422d0df92223018b32b4d1fa46e071723d6817e2486d003becc55f0055604051908152f35b634e487b7160e01b600052600060045260246000fd5b634e487b7160e01b600052604160045260246000fd5b6040513d6000823e3d90fd5b60405162461bcd60e51b815260206004820152602160248201527f5661756c74466163746f72793a207374726174656779206e6f742061637469766044820152606560f81b6064820152608490fd5b903d8082843e61098c8184610cb1565b820191602081840312610a925780519067ffffffffffffffff8211610a96570160e081840312610a92576040519260e0840184811067ffffffffffffffff821117610a7e576040526109dd82610cd3565b84526109eb60208301610cd3565b60208501526109fc60408301610cd3565b6040850152610a0d60608301610cd3565b6060850152608082015167ffffffffffffffff8111610a7a5781610a32918401610ce7565b608085015260a082015167ffffffffffffffff8111610a7a578291610a5a9160c09401610ce7565b60a08501520151908115158203610a77575060c082015283610713565b80fd5b8380fd5b634e487b7160e01b84526041600452602484fd5b5080fd5b8280fd5b60405162461bcd60e51b815260206004820152601560248201527405661756c74466163746f72793a206f776e65723d3605c1b6044820152606490fd5b50336106a7565b633ee5aeb560e01b60005260046000fd5b3461015b57602036600319011261015b57610b08610bf2565b610b10610d98565b6001600160a01b03168015610b6357600180546001600160a01b0319811683179091556001600160a01b03167f0ef3c7eb9dbcf33ddf032f4cce366a07eda85eed03e3172e4a90c4cc16d57886600080a3005b60405162461bcd60e51b815260206004820152601860248201527f5661756c74466163746f72793a206578656375746f723d3000000000000000006044820152606490fd5b3461015b57604036600319011261015b57610bc1610bf2565b6001600160a01b031660009081526004602052604090208054602435919082101561015b5760209161014291610c08565b600435906001600160a01b038216820361015b57565b8054821015610c205760005260206000200190600090565b634e487b7160e01b600052603260045260246000fd5b600354811015610c20576003600081815291027fc2575a0e9e593c00f959f8c92f12db2869c3395a3b0502d05e2516446f71f85b0191565b602060408183019282815284518094520192019060005b818110610c925750505090565b82516001600160a01b0316845260209384019390920191600101610c85565b90601f8019910116810190811067ffffffffffffffff82111761090b57604052565b51906001600160a01b038216820361015b57565b81601f8201121561015b5780519067ffffffffffffffff821161090b5760405192610d1c601f8401601f191660200185610cb1565b8284526020838301011161015b5760005b828110610d4257505060206000918301015290565b80602080928401015182828701015201610d2d565b8054600160401b81101561090b57610d7491600182018155610c08565b81546001600160a01b0393841660039290921b91821b9390911b1916919091179055565b6000546001600160a01b03163303610dac57565b63118cdaa760e01b6000523360045260246000fdfe610140346103d257601f61393a38819003918201601f19168301916001600160401b038311848410176103d757808492610120946040528339810103126103d257610049816103ed565b90610056602082016103ed565b90610063604082016103ed565b91610070606083016103ed565b9061007d608084016103ed565b60a084015160c08501519163ffffffff831683036103d25760e08601519561ffff871687036103d2576101000151928315158094036103d25760017f9b779b17422d0df92223018b32b4d1fa46e071723d6817e2486d003becc55f00556001600160a01b03891696871561038d576001600160a01b038616988915610348576001600160a01b0316998a15610303576001600160a01b0388169586156102be577f59fbf569e13224f023993109b7bc20408873be1498dfe4494b6061367e924c969860609866ffff00000000009360805260a0528c60c05260e0528461010052856101205264ffffffff0067ff000000000000006000549260381b169460081b169060018060401b031916179160281b16171760005560405192835260018060a01b031660208301526040820152a46040516135389081610402823960805181818161022e0152818161033101528181610529015281816108c201528181610a9d01528181610af401528181610cda01528181610e82015281816110a9015281816111f50152818161138f0152818161147a0152818161157101528181611b490152611c91015260a0518181816104da015281816116460152611d3d015260c0518181816105720152818161090301528181610a0201528181610b3301528181610d12015281816110fc015281816114b3015281816115aa015281816116c501528181611b8201528181611dbb01528181612a17015261307c015260e0518181816129d40152612d2a01526101005181610495015261012051816113220152f35b60405162461bcd60e51b815260206004820152601860248201527f436c69656e745661756c743a20646578526f757465723d3000000000000000006044820152606490fd5b60405162461bcd60e51b815260206004820152601660248201527f436c69656e745661756c743a20616461707465723d30000000000000000000006044820152606490fd5b60405162461bcd60e51b815260206004820152601760248201527f436c69656e745661756c743a206578656375746f723d300000000000000000006044820152606490fd5b60405162461bcd60e51b815260206004820152601460248201527f436c69656e745661756c743a206f776e65723d300000000000000000000000006044820152606490fd5b600080fd5b634e487b7160e01b600052604160045260246000fd5b51906001600160a01b03821682036103d25756fe608080604052600436101561001357600080fd5b600090813560e01c90816303eadcfc14612a03575080630758d924146129be5780630d0cd75214611d24578063119d084a14611c475780632d13977b14611c295780632def662014611b3257806333fdf8c91461162d578063372500ab1461155a5780633a4b66f11461146357806344b1527b1461143e57806346445e6914611345578063492f4e181461130a5780634d2e259c146112bf57806366e6e60d1461126157806379886b9d1461123c578063799b2b541461043d57806379e66622146111b25780637b0f7cc9146110925780637ba34f2814610e1c5780637ba45d5914610cc3578063824518de14610acc5780638da5cb5b14610a875780639d63848a146109db5780639ebc1a8e146109b8578063a04cedd514610896578063bc0931b914610509578063c34c08e5146104c4578063c415b95c1461047f578063c4aa73951461045b578063ceefe5d11461043d578063d1a663bb1461041f578063d966a594146103fd578063d9c531d5146103d6578063e7cb9f2d146103b0578063ec4c667a14610392578063f1070bd3146102dc578063f6f47619146102b65763fe86702b146101c357600080fd5b346102b35760603660031901126102b35760043563ffffffff81168082036102b1576024359061ffff82168083036102ad57604435908115158092036102a9577f289c3c8fc0205d25d66b324359427612e37eecb1d57a186e522c8d5078c7bdd99460609461025c337f00000000000000000000000000000000000000000000000000000000000000006001600160a01b031614612c47565b66ffff0000000000885464ffffffff0067ff000000000000008760381b169460081b169067ffffffffffffff001916179160281b161717865560405192835260208301526040820152a180f35b8580fd5b8480fd5b825b80fd5b50346102b357806003193601126102b35763ffffffff6020915460481c16604051908152f35b50346102b35760c03660031901126102b3576102f6612a7e565b6102fe612a68565b9060443562ffffff8116810361038e5760a435936001600160a01b03851685036102b35760206103748686868661035f337f00000000000000000000000000000000000000000000000000000000000000006001600160a01b031614612c47565b610367612cec565b6084359260643592612d28565b600160008051602061350c83398151915255604051908152f35b8380fd5b50346102b357806003193601126102b3576020600154604051908152f35b50346102b357806003193601126102b35763ffffffff6020915460081c16604051908152f35b50346102b357806003193601126102b357602063ffffffff60025460081c16604051908152f35b50346102b357806003193601126102b35760ff60209154166040519015158152f35b50346102b357806003193601126102b3576020600854604051908152f35b50346102b357806003193601126102b3576020600754604051908152f35b50346102b357806003193601126102b35761ffff6020915460281c16604051908152f35b50346102b357806003193601126102b3576040517f00000000000000000000000000000000000000000000000000000000000000006001600160a01b03168152602090f35b50346102b357806003193601126102b3576040517f00000000000000000000000000000000000000000000000000000000000000006001600160a01b03168152602090f35b50346102b35760203660031901126102b357610523612a7e565b610557337f00000000000000000000000000000000000000000000000000000000000000006001600160a01b031614612c47565b61055f612cec565b6001600160a01b03811690811561085d577f00000000000000000000000000000000000000000000000000000000000000006001600160a01b031690813b1561038e576040516302c085c960e61b81523060048201528490818160248183885af180156108525761083d575b50506040516386ff5c4b60e01b8152306004820152602081602481865afa9081156108325785916107ff575b5060075560408051634eb1c24560e11b815292839060049082905afa9182156107f457849085936107c0575b506040516370a0823160e01b8152306004820152926001600160a01b03919091169190602084602481865afa9384156107b5578694610781575b506040516370a0823160e01b8152306004820152926001600160a01b03919091169190602084602481865afa938415610776578794610717575b50918382869485604097957f0389747e9da8f2c7b6c44d1297d97afc766ea18c607b154fabdafe72b21dd6a099610706575b505050816106f5575b50505082519182526020820152a2600160008051602061350c8339815191525580f35b6106fe92613323565b3881816106d2565b61070f92613323565b3885826106c9565b935093916020843d60201161076e575b8161073460209383612b5f565b8101031261076957925191939192917f0389747e9da8f2c7b6c44d1297d97afc766ea18c607b154fabdafe72b21dd6a0610697565b600080fd5b3d9150610727565b6040513d89823e3d90fd5b9093506020813d6020116107ad575b8161079d60209383612b5f565b810103126107695751923861065d565b3d9150610790565b6040513d88823e3d90fd5b90506107e591925060403d6040116107ed575b6107dd8183612b5f565b810190612bab565b919038610623565b503d6107d3565b6040513d86823e3d90fd5b90506020813d60201161082a575b8161081a60209383612b5f565b81010312610769575160046105f7565b3d915061080d565b6040513d87823e3d90fd5b8161084791612b5f565b61038e5783386105cb565b6040513d84823e3d90fd5b60405162461bcd60e51b81526020600482015260116024820152700436c69656e745661756c743a20746f3d3607c1b6044820152606490fd5b50346102b35760403660031901126102b3576108fd6108b3612a94565b6108bb612aa4565b906108f0337f00000000000000000000000000000000000000000000000000000000000000006001600160a01b031614612c47565b6108f8612cec565b61306a565b508190507f00000000000000000000000000000000000000000000000000000000000000006001600160a01b0316803b156109b55781809160246040518095819363e401050360e01b83523060048401525af1918261099c575b5050610973575b600160008051602061350c8339815191525580f35b7f7c8034b0915ddb06daf1c98814ae561303379b3db725b973ef0d14ea2c923d5c8180a161095e565b816109a691612b5f565b6109b1578138610957565b5080fd5b50fd5b50346102b357806003193601126102b357602060ff600254166040519015158152f35b50346102b357806003193601126102b35760408051634eb1c24560e11b81529190826004817f00000000000000000000000000000000000000000000000000000000000000006001600160a01b03165afa918215610a7a578192610a58575b50604080516001600160a01b03928316815292909116602083015290f35b9050610a73915060403d6040116107ed576107dd8183612b5f565b9038610a3a565b50604051903d90823e3d90fd5b50346102b357806003193601126102b3576040517f00000000000000000000000000000000000000000000000000000000000000006001600160a01b03168152602090f35b50346102b35760803660031901126102b357610ae6612a94565b610aee612aa4565b610b22337f00000000000000000000000000000000000000000000000000000000000000006001600160a01b031614612c47565b610b2a612cec565b60018060a01b037f00000000000000000000000000000000000000000000000000000000000000001660405192636783ac1760e01b845230600485015260020b9182602485015260020b908160448501526044356064850152606435608485015260208460a48188855af1938415610832578594610c82575b506020602491604051928380926386ff5c4b60e01b82523060048301525afa908115610832578591610c2a575b507ff11c7bb58b96ebaf21e2b7c98f5156d8cc615078346535b1d12842baceae698193606093926001600160801b03926007556040519384526020840152166040820152a1600160008051602061350c8339815191525580f35b90506020929192813d602011610c7a575b81610c4860209383612b5f565b8101031261076957519091907ff11c7bb58b96ebaf21e2b7c98f5156d8cc615078346535b1d12842baceae6981610bd0565b3d9150610c3b565b9093506020813d602011610cbb575b81610c9e60209383612b5f565b810103126102ad576020610cb3602492612cd8565b949150610ba3565b3d9150610c91565b50346102b357806003193601126102b357610d08337f00000000000000000000000000000000000000000000000000000000000000006001600160a01b031614612c47565b610d10612cec565b7f00000000000000000000000000000000000000000000000000000000000000006001600160a01b0316803b156109b1576040516302c085c960e61b81523060048201528290818160248183875af1801561085257610e07575b50506020602491604051928380926386ff5c4b60e01b82523060048301525afa908115610852578291610dd5575b506007557fcddb7c3bd3716f33d8c8e4e6c4a630b71671c6a8c3abfee8c3b9892e8032d6df8180a1600160008051602061350c8339815191525580f35b90506020813d602011610dff575b81610df060209383612b5f565b81010312610769575138610d98565b3d9150610de3565b81610e1191612b5f565b6109b1578138610d6a565b50346102b35760a03660031901126102b357610e36612a46565b90610e3f612a68565b6044356001600160a01b038116939084810361038e576064359062ffffff82168083036102a957608435966001600160a01b0388169182890361108e57610eb0337f00000000000000000000000000000000000000000000000000000000000000006001600160a01b031614612c47565b6001600160a01b0387169081151580611085575b1561104957828214611004576040519060a0820182811067ffffffffffffffff821117610ff057604090815288151580845260208401949094528083018590526060830191909152608091909101849052600480546001600160a81b03191660ff90931692909217600889901b610100600160a81b0316179091556005805462ffffff60a01b199093166001600160b81b03199093169290921760a086901b62ffffff60a01b1617909155600680546001600160a01b0319169092179091555194957f45d6530781e89b42056f6e2039254a9e227ddbeaeebf594d82f7d8b27afc08c795948594610fea94929391908690151581526001600160a01b039182166020820152918116604083015262ffffff90921660608201529116608082015260a00190565b0390a180f35b634e487b7160e01b8b52604160045260248bfd5b60405162461bcd60e51b815260206004820152601d60248201527f436c69656e745661756c743a20746f6b656e496e3d746f6b656e4f75740000006044820152606490fd5b60405162461bcd60e51b81526020600482015260146024820152730436c69656e745661756c743a20746f6b656e3d360641b6044820152606490fd5b50821515610ec4565b8780fd5b50346102b357806003193601126102b3576110d7337f00000000000000000000000000000000000000000000000000000000000000006001600160a01b031614612c47565b6110df612cec565b6040805163762100e760e01b8152306004820152919082602481847f00000000000000000000000000000000000000000000000000000000000000006001600160a01b03165af18015610a7a576040928291611183575b507f099830bf72bfd4281b6dd74da06794aabc4a2fc97ed1e35c125293c6a2dccd00838051848152836020820152a1600160008051602061350c8339815191525582519182526020820152f35b90506111a59150823d84116111ab575b61119d8183612b5f565b810190612bcf565b38611136565b503d611193565b50346102b35760203660031901126102b3577f597db723170e2062ff01c7a921f699b0274807a884be8bdce5f2fcf3d645844b60206111ef612a46565b611223337f00000000000000000000000000000000000000000000000000000000000000006001600160a01b031614612c47565b151560ff1984541660ff8216178455604051908152a180f35b50346102b357806003193601126102b35760ff6020915460381c166040519015158152f35b50346102b357806003193601126102b3576004546005546006546040805160ff8516151581526001600160a01b0360089590951c851660208201528484169181019190915260a092831c62ffffff1660608201529216608083015290f35b50346102b357806003193601126102b3576080905460ff604051918181161515835263ffffffff8160081c16602084015261ffff8160281c16604084015260381c1615156060820152f35b50346102b357806003193601126102b35760206040517f00000000000000000000000000000000000000000000000000000000000000008152f35b50346102b35760403660031901126102b3577fdb4349850272f6a7988875162ae9ec0afca77fc3792552b5f0732c06ab8ad761611380612a46565b611388612a55565b906113bd337f00000000000000000000000000000000000000000000000000000000000000006001600160a01b031614612c47565b610fea8454926cffffffff0000000000000000008160481b1668ff000000000000000084151560401b166cffffffffff00000000000000001986161717865560405193849360ff63ffffffff8360481c169260401c1685929363ffffffff809296956060946080870198151587521515602087015216604085015216910152565b50346102b357806003193601126102b35760ff6020915460401c166040519015158152f35b50346102b357806003193601126102b3576114a8337f00000000000000000000000000000000000000000000000000000000000000006001600160a01b031614612c47565b6114b0612cec565b807f00000000000000000000000000000000000000000000000000000000000000006001600160a01b0316803b156109b55781809160246040518094819363e401050360e01b83523060048401525af1801561085257611545575b50807f7c8034b0915ddb06daf1c98814ae561303379b3db725b973ef0d14ea2c923d5c91a1600160008051602061350c8339815191525580f35b8161154f91612b5f565b6102b357803861150b565b50346102b357806003193601126102b35761159f337f00000000000000000000000000000000000000000000000000000000000000006001600160a01b031614612c47565b6115a7612cec565b807f00000000000000000000000000000000000000000000000000000000000000006001600160a01b0316803b156109b557818091602460405180948193633bd73ee360e21b83523060048401525af1801561085257611618575b50600160008051602061350c8339815191525580f35b8161162291612b5f565b6102b3578038611602565b50346102b3576101003660031901126102b357611674337f00000000000000000000000000000000000000000000000000000000000000006001600160a01b031614612ab4565b61167c612cec565b805460ff811615611aee5763ffffffff8160081c1680611a99575b506116a0612c8c565b6116a8612c9c565b60020b9060020b1215611a545760408051634eb1c24560e11b81527f00000000000000000000000000000000000000000000000000000000000000006001600160a01b0316929181600481865afa9081156107f45784908592611a32575b5061170f612cac565b6001600160a01b03918216911681149182611a14575b82156119d2575b50501561198d5760381c60ff161561197c575b803b156109b1576040516323f8d56160e11b81523060048201528290818160248183875af1801561085257611967575b50506040516386ff5c4b60e01b8152306004820152602081602481855afa90811561195c57839161192a575b506007557fcddb7c3bd3716f33d8c8e4e6c4a630b71671c6a8c3abfee8c3b9892e8032d6df8280a160a4359082826118dd575b836117e86117da612c8c565b6117e2612c9c565b9061306a565b938091503b156109b15781809160246040518095819363e401050360e01b83523060048401525af191826118c2575b5050907f65b5608d4c316ad3a012b3219ea49a3abcac394b0e3f84bd16cbe4bb2a15cf2a9360a09392611899575b426008556001600160801b03611859612c8c565b93611862612c9c565b6040519560020b865260020b602086015216604084015260608301526080820152a1600160008051602061350c8339815191525580f35b7f7c8034b0915ddb06daf1c98814ae561303379b3db725b973ef0d14ea2c923d5c8680a1611845565b816118d09195949395612b5f565b6102ad5790918438611817565b506118e6612cac565b6118ee612cc2565b6044359162ffffff831683036102a95760e435916001600160a01b03831683036119265761192193869160c43593612d28565b6117ce565b8680fd5b90506020813d602011611954575b8161194560209383612b5f565b8101031261076957513861179b565b3d9150611938565b6040513d85823e3d90fd5b8161197191612b5f565b6109b157813861176f565b61198860a43515612be5565b61173f565b60405162461bcd60e51b815260206004820152601c60248201527f436c69656e745661756c743a20746f6b656e73206d69736d61746368000000006044820152606490fd5b9091506119dd612cac565b6001600160a01b0390811691161490816119fa575b50388061172c565b90506001600160a01b03611a0c612cc2565b1614386119f2565b9150611a1e612cc2565b6001600160a01b0383811691161491611725565b9050611a4d915060403d6040116107ed576107dd8183612b5f565b9038611706565b60405162461bcd60e51b815260206004820152601a60248201527f436c69656e745661756c743a20696e76616c69642072616e67650000000000006044820152606490fd5b611aa590600854612b3c565b4210611ab15738611697565b60405162461bcd60e51b815260206004820152601560248201527421b634b2b73a2b30bab63a1d1031b7b7b63237bbb760591b6044820152606490fd5b606460405162461bcd60e51b815260206004820152602060248201527f436c69656e745661756c743a206175746f6d6174696f6e2064697361626c65646044820152fd5b50346102b357806003193601126102b357611b77337f00000000000000000000000000000000000000000000000000000000000000006001600160a01b031614612c47565b611b7f612cec565b807f00000000000000000000000000000000000000000000000000000000000000006001600160a01b0316803b156109b55781809160246040518094819363dcfc070b60e01b83523060048401525af1801561085257611c14575b50807f223cba103b37553fa55d92837815b881061ed40ebf54193471d8edb521b95df591a1600160008051602061350c8339815191525580f35b81611c1e91612b5f565b6102b3578038611bda565b50346102b357806003193601126102b3576020600354604051908152f35b50346102b35760403660031901126102b3577f9d83d7c2aacb17c086a28252fe1bc83a253ef3f53b81ea265e68496567d17b50611c82612a46565b611c8a612a55565b90611cbf337f00000000000000000000000000000000000000000000000000000000000000006001600160a01b031614612c47565b610fea6002549264ffffffff008160081b1660ff8415151664ffffffffff198616171760025560405193849360ff63ffffffff8360081c16921685929363ffffffff809296956060946080870198151587521515602087015216604085015216910152565b50346102b3576101603660031901126102b357611d6b337f00000000000000000000000000000000000000000000000000000000000000006001600160a01b031614612ab4565b611d73612cec565b611d7b612b00565b9081156129ae575b811561299e575b611d92612b2d565b828315612997575b1561295d578083612893575b6127d0575b60405163280188b760e21b8152927f00000000000000000000000000000000000000000000000000000000000000006001600160a01b0316602085600481845afa9485156107f4578495612794575b506001600160a01b0385169081156127575760408051634eb1c24560e11b81529081600481855afa80156107b55786918791612736575b50611e3a612b00565b6126ea575b611e47612b0f565b612678575b611e54612b1e565b612337575b869750611e6896949596612b2d565b611eec575b5050505050611ebe575b611e9057600160008051602061350c8339815191525580f35b42600355427f9c105c5516038a31b52025c35bd815a6323fbe2d5860e917939e758aa6b55d7b8280a261095e565b42600155427fb72f7afff6ca112afbbcfe6484a1e3b9a7903ea9268b4feb5b8c5575f4560c9a8380a2611e77565b604051633de222bb60e21b81523060048201526001600160a01b0383166024820152602081604481885afa9081156107b5578691612302575b50604051633de222bb60e21b81523060048201526001600160a01b0383166024820152602081604481895afa9081156107765787916122cd575b5060e435906101043592821580156122c4575b6122bc575b50821580156122b3575b6122ab575b5080612248575b50806121e5575b508492600460208792604051928380926329bc672160e21b82525afa8791816121a9575b506121a1575b506001600160a01b031680612137575b506001600160a01b038316158061212b575b612115575b6001600160a01b0383811692168214908115612102575b501590816120f8575b50612012575b8080611e6d565b604051633de222bb60e21b81523060048201526001600160a01b038216602482015290602082604481865afa9182156107f45784926120c1575b5081612059575b5061200b565b823b1561038e5760405163627160f360e11b81526001600160a01b0391909116600482015260248101919091523060448201529082908290606490829084905af18015610852576120ac575b8080612053565b816120b691612b5f565b6102b15782386120a5565b935090506020833d6020116120f0575b816120de60209383612b5f565b8101031261076957859251903861204c565b3d91506120d1565b9050151538612005565b6001600160a01b03168214905038611ffc565b60045460081c6001600160a01b03169250611fe5565b5060ff60045416611fe0565b602060049160405192838092630994dde560e31b82525afa869181612165575b5015611fce57925038611fce565b9091506020813d602011612199575b8161218160209383612b5f565b810103126119265761219290612b97565b9038612157565b3d9150612174565b905038611fbe565b9091506020813d6020116121dd575b816121c560209383612b5f565b8101031261108e576121d690612b97565b9038611fb8565b3d91506121b8565b843b156102a95760405163627160f360e11b81526001600160a01b03831660048201526024810191909152306044820152858160648183895af19081156107b5578691612233575b50611f94565b8161223d91612b5f565b6102ad57843861222d565b853b156119265760405163627160f360e11b81526001600160a01b038516600482015260248101919091523060448201528681606481838a5af1908115610776578791612296575b50611f8d565b816122a091612b5f565b6102a9578538612290565b915038611f86565b50808311611f81565b915038611f77565b50808311611f72565b9650506020863d6020116122fa575b816122e960209383612b5f565b810103126107695788955138611f5f565b3d91506122dc565b9550506020853d60201161232f575b8161231e60209383612b5f565b810103126107695787945138611f25565b3d9150612311565b61234760ff885460381c16612be5565b60045460ff8116156126295760081c6001600160a01b03169788151580612615575b156125d0576005546001600160a01b0390811691908416821480156125be575b1561256557604051633de222bb60e21b81523060048201526001600160a01b038b1660248201529960208b6044818a5afa9a8b1561255a578a9b612526575b506064359a8b15801561251d575b612515575b508a6123ea575b505050611e59565b863b156125115760405163627160f360e11b81526001600160a01b0382166004820152602481018c90523060448201528a81606481838c5af18015612506576124e8575b509899979896978a9761247f91612477916001600160a01b0361244f612c31565b166124da576006546001600160a01b0316915b62ffffff60055460a01c168760843593612d28565b809284612f74565b853b15611926576040519163b3db428b60e01b835230600484015260248301526044820152858160648183895af19081156107b55786916124c5575b80989796986123e2565b816124cf91612b5f565b6102ad5784386124bb565b6124e2612c31565b91612462565b8a6124fc61247f939a9b9c61247793612b5f565b9a9998915061242e565b6040513d8d823e3d90fd5b8980fd5b9a50386123db565b50808c116123d6565b909a506020813d602011612552575b8161254260209383612b5f565b81010312612511575199386123c8565b3d9150612535565b6040513d8c823e3d90fd5b60405162461bcd60e51b815260206004820152602b60248201527f436c69656e745661756c743a2072657761726420746f6b656e4f7574206e6f7460448201526a103837b7b6103a37b5b2b760a91b6064820152608490fd5b506001600160a01b0383168214612389565b60405162461bcd60e51b815260206004820152601b60248201527f436c69656e745661756c743a2072657761726420746f6b656e3d3000000000006044820152606490fd5b506005546001600160a01b03161515612369565b60405162461bcd60e51b815260206004820152602160248201527f436c69656e745661756c743a2072657761726420737761702064697361626c656044820152601960fa1b6064820152608490fd5b604080516305c9a21160e21b815230600482015290816024818b885af180156126df576126a6575b50611e4c565b6040813d6040116126d7575b816126bf60409383612b5f565b8101031261108e576126d090612b97565b50386126a0565b3d91506126b2565b6040513d8a823e3d90fd5b6040805163b89b1f4760e01b815230600482015290816024818b885af180156126df57612718575b50611e3f565b6127309060403d6040116111ab5761119d8183612b5f565b50612712565b9050612751915060403d6040116107ed576107dd8183612b5f565b38611e31565b60405162461bcd60e51b81526020600482015260156024820152740436c69656e745661756c743a206275666665723d3605c1b6044820152606490fd5b9094506020813d6020116127c8575b816127b060209383612b5f565b8101031261038e576127c190612b97565b9338611dfa565b3d91506127a3565b60025460ff81161561284e5760081c63ffffffff16806127f1575b50611dab565b6127fd90600354612b3c565b421061280957386127eb565b60405162461bcd60e51b815260206004820152601e60248201527f436c69656e745661756c743a20636f6d706f756e6420636f6f6c646f776e00006044820152606490fd5b60405162461bcd60e51b815260206004820152601e60248201527f436c69656e745661756c743a20636f6d706f756e642064697361626c656400006044820152606490fd5b50815460ff8160401c16156129185763ffffffff829160481c16806128b9575b50611da6565b6128c69150600154612b3c565b42106128d35780386128b3565b60405162461bcd60e51b815260206004820152601d60248201527f436c69656e745661756c743a206861727665737420636f6f6c646f776e0000006044820152606490fd5b60405162461bcd60e51b815260206004820152601d60248201527f436c69656e745661756c743a20686172766573742064697361626c65640000006044820152606490fd5b60405162461bcd60e51b81526020600482015260126024820152710436c69656e745661756c743a206e6f2d6f760741b6044820152606490fd5b5080611d9a565b90506129a8612b1e565b90611d8a565b90506129b8612b0f565b90611d83565b50346102b357806003193601126102b3576040517f00000000000000000000000000000000000000000000000000000000000000006001600160a01b03168152602090f35b9050346109b157816003193601126109b1577f00000000000000000000000000000000000000000000000000000000000000006001600160a01b03168152602090f35b60043590811515820361076957565b6024359063ffffffff8216820361076957565b602435906001600160a01b038216820361076957565b600435906001600160a01b038216820361076957565b600435908160020b820361076957565b602435908160020b820361076957565b15612abb57565b60405162461bcd60e51b815260206004820152601960248201527f436c69656e745661756c743a206e6f74206578656375746f72000000000000006044820152606490fd5b60043580151581036107695790565b60243580151581036107695790565b60443580151581036107695790565b60c43580151581036107695790565b91908201809211612b4957565b634e487b7160e01b600052601160045260246000fd5b90601f8019910116810190811067ffffffffffffffff821117612b8157604052565b634e487b7160e01b600052604160045260246000fd5b51906001600160a01b038216820361076957565b919082604091031261076957612bcc6020612bc584612b97565b9301612b97565b90565b9190826040910312610769576020825192015190565b15612bec57565b60405162461bcd60e51b815260206004820152601a60248201527f436c69656e745661756c743a20737761702064697361626c65640000000000006044820152606490fd5b60a4356001600160a01b03811681036107695790565b15612c4e57565b60405162461bcd60e51b815260206004820152601660248201527521b634b2b73a2b30bab63a1d103737ba1037bbb732b960511b6044820152606490fd5b6004358060020b81036107695790565b6024358060020b81036107695790565b6064356001600160a01b03811681036107695790565b6084356001600160a01b03811681036107695790565b51906001600160801b038216820361076957565b600260008051602061350c8339815191525414612d1757600260008051602061350c83398151915255565b633ee5aeb560e01b60005260046000fd5b7f00000000000000000000000000000000000000000000000000000000000000009695929491936001600160a01b0388169390928415612f37578315612ef257612d73848a85612f74565b610384420195864211612b495760405193610100850185811067ffffffffffffffff821117612b815760409081526001600160a01b03918216808752928216602080880182815262ffffff9c8d168985019081523060608b0190815260808b019d8e5260a08b018c815260c08c01998a5299871660e08c01908152955163414bf38960e01b81529a51871660048c01529151861660248b015251909c1660448901529a518316606488015298516084870152935160a4860152915160c485015291511660e4830152939481610104816000875af1908115612ee657600091612e94575b507f6782190c91d4a7e8ad2a867deed6ec0a970cab8ff137ae2bd4abd92b3810f4d39181612e8760409399876133b0565b82519182526020820152a4565b906020823d602011612ede575b81612eae60209383612b5f565b810103126102b35750517f6782190c91d4a7e8ad2a867deed6ec0a970cab8ff137ae2bd4abd92b3810f4d3612e56565b3d9150612ea1565b6040513d6000823e3d90fd5b60405162461bcd60e51b815260206004820152601760248201527f436c69656e745661756c743a20616d6f756e74496e3d300000000000000000006044820152606490fd5b60405162461bcd60e51b81526020600482015260156024820152740436c69656e745661756c743a20726f757465723d3605c1b6044820152606490fd5b821561306557604051636eb1769f60e11b81523060048201526001600160a01b038381166024830152919091169290602081604481875afa908115612ee657600091613033575b5010612fc5575050565b612fcf81836133b0565b612fdc600019828461340b565b15612fe5575050565b612fef8183613465565b1561301e576130029060001990836134cd565b1561300a5750565b635274afe760e01b60005260045260246000fd5b50635274afe760e01b60005260045260246000fd5b90506020813d60201161305d575b8161304e60209383612b5f565b81010312610769575138612fbb565b3d9150613041565b505050565b60408051634eb1c24560e11b815292937f00000000000000000000000000000000000000000000000000000000000000006001600160a01b0316939092909182600481875afa908115612ee6576000926000926132ff575b506040516370a0823160e01b8152306004820152926020846024816001600160a01b0385165afa938415612ee6576000946132cb575b506040516370a0823160e01b81523060048201526020816024816001600160a01b0388165afa908115612ee657600091613299575b508415801590613290575b1561325357866040946131516000978361315696612f74565b612f74565b606482518094819363109162ef60e01b835230600484015260020b9889602484015260020b978860448401525af1908115612ee65760009081926131e4575b506080906001600160801b03837fe1b61fd8135460b22abc435eec8e97ab772042997e8696d312015dd44aedd91e949683988460075560405194855260208501526040840152166060820152a1565b91506040823d60401161324b575b816131ff60409383612b5f565b810103126102b357506080816001600160801b0361324260207fe1b61fd8135460b22abc435eec8e97ab772042997e8696d312015dd44aedd91e95519301612cd8565b93505090613195565b3d91506131f2565b60405162461bcd60e51b8152602060048201526015602482015274436c69656e745661756c743a206e6f2066756e647360581b6044820152606490fd5b50801515613138565b906020823d6020116132c3575b816132b360209383612b5f565b810103126102b35750513861312d565b3d91506132a6565b90936020823d6020116132f7575b816132e660209383612b5f565b810103126102b357505192386130f8565b3d91506132d9565b90925061331b915060403d6040116107ed576107dd8183612b5f565b9091386130c2565b60405163a9059cbb60e01b60009081526001600160a01b03909316600452602493909352919060209060448180865af19060016000511482161561338e575b6040521561336d5750565b635274afe760e01b60009081526001600160a01b0391909116600452602490fd5b9060018115166133a657823b15153d15161690613362565b503d6000823e3d90fd5b906133bd6000828461340b565b156133c6575050565b6133d08183613465565b156133e95760006133e191836134cd565b1561336d5750565b50635274afe760e01b60009081526001600160a01b0391909116600452602490fd5b60405163095ea7b360e01b60009081526001600160a01b039093166004526024939093529092919060208460448180855af1936001815114851615613452575b5050604052565b939193503b15153d15161691388061344b565b60405163095ea7b360e01b60009081526001600160a01b03909316600452602483905290929160209060448180875af1926001600051148416156134aa575b50604052565b600184929415166134c3573b15153d15161691386134a4565b833d6000823e3d90fd5b92916040519163095ea7b360e01b60005260018060a01b03166004526024526020600060448180875af1926001600051148416156134aa575060405256fe9b779b17422d0df92223018b32b4d1fa46e071723d6817e2486d003becc55f00a164736f6c634300081e000aa164736f6c634300081e000a","linkReferences":{}},"methodIdentifiers":{"allVaults(uint256)":"9094a91e","allVaultsLength()":"4cd18577","createClientVault(uint256,address)":"369988d6","defaultAllowSwap()":"ce01fe71","defaultCooldownSec()":"d61973ce","defaultMaxSlippageBps()":"b4b80795","executor()":"c34c08e5","feeCollector()":"c415b95c","getVaultsByOwner(address)":"ac818711","getVaultsByOwnerAndStrategy(address,uint256)":"d69ea24f","owner()":"8da5cb5b","renounceOwnership()":"715018a6","setDefaults(uint32,uint16,bool)":"72735c29","setExecutor(address)":"1c3c0ea8","setFeeCollector(address)":"a42dce80","strategyRegistry()":"d080bf27","transferOwnership(address)":"f2fde38b","vaultsByOwner(address,uint256)":"1a0121db","vaultsByOwnerStrategy(address,uint256,uint256)":"f94d85fd"},"id":73}