{"abi":[{"type":"function","name":"exactInputSingle","inputs":[{"name":"params","type":"tuple","internalType":"struct ISwapRouterV3Pancake.ExactInputSingleParams","components":[{"name":"tokenIn","type":"address","internalType":"address"},{"name":"tokenOut","type":"address","internalType":"address"},{"name":"fee","type":"uint24","internalType":"uint24"},{"name":"recipient","type":"address","internalType":"address"},{"name":"deadline","type":"uint256","internalType":"uint256"},{"name":"amountIn","type":"uint256","internalType":"uint256"},{"name":"amountOutMinimum","type":"uint256","internalType":"uint256"},{"name":"sqrtPriceLimitX96","type":"uint160","internalType":"uint160"}]}],"outputs":[{"name":"amountOut","type":"uint256","internalType":"uint256"}],"stateMutability":"payable"},{"type":"function","name":"lastAmountIn","inputs":[],"outputs":[{"name":"","type":"uint256","internalType":"uint256"}],"stateMutability":"view"},{"type":"function","name":"lastCaller","inputs":[],"outputs":[{"name":"","type":"address","internalType":"address"}],"stateMutability":"view"},{"type":"function","name":"lastTokenIn","inputs":[],"outputs":[{"name":"","type":"address","internalType":"address"}],"stateMutability":"view"},{"type":"function","name":"lastTokenOut","inputs":[],"outputs":[{"name":"","type":"address","internalType":"address"}],"stateMutability":"view"},{"type":"function","name":"wasCalled","inputs":[],"outputs":[{"name":"","type":"bool","internalType":"bool"}],"stateMutability":"view"}],"bytecode":{"object":"0x60808060405234601557610333908161001b8239f35b600080fdfe608080604052600436101561001357600080fd5b60003560e01c9081632113522a146102ab57508063414bf38914610187578063b040eb8514610135578063c6803622146100f4578063d22aadf7146100b85763d97aae4b1461006157600080fd5b346100b35760007ffffffffffffffffffffffffffffffffffffffffffffffffffffffffffffffffc3601126100b357602073ffffffffffffffffffffffffffffffffffffffff60015416604051908152f35b600080fd5b346100b35760007ffffffffffffffffffffffffffffffffffffffffffffffffffffffffffffffffc3601126100b3576020600354604051908152f35b346100b35760007ffffffffffffffffffffffffffffffffffffffffffffffffffffffffffffffffc3601126100b357602060ff600054166040519015158152f35b346100b35760007ffffffffffffffffffffffffffffffffffffffffffffffffffffffffffffffffc3601126100b357602073ffffffffffffffffffffffffffffffffffffffff60025416604051908152f35b6101007ffffffffffffffffffffffffffffffffffffffffffffffffffffffffffffffffc3601126100b3576000600181547fffffffffffffffffffffff00000000000000000000000000000000000000000074ffffffffffffffffffffffffffffffffffffffff003360081b1691161717815560043573ffffffffffffffffffffffffffffffffffffffff8116908181036102a757507fffffffffffffffffffffffff0000000000000000000000000000000000000000600154161760015560243573ffffffffffffffffffffffffffffffffffffffff8116918282036102a45750507fffffffffffffffffffffffff00000000000000000000000000000000000000006002541617600255602060a43580600355604051908152f35b80fd5b8280fd5b346100b35760007ffffffffffffffffffffffffffffffffffffffffffffffffffffffffffffffffc3601126100b35760209073ffffffffffffffffffffffffffffffffffffffff60005460081c168152f3fea264697066735822122031849d39414a41c8d0bac375ad1352b6f140e9cc04c6eac189c5ea4ba59d94eb64736f6c634300081e0033","linkReferences":{}},"methodIdentifiers":{"exactInputSingle((address,address,uint24,address,uint256,uint256,uint256,uint160))":"414bf389","lastAmountIn()":"d22aadf7","lastCaller()":"2113522a","lastTokenIn()":"d97aae4b","lastTokenOut()":"b040eb85","wasCalled()":"c6803622"},"id":107}