{"abi":[{"type":"constructor","inputs":[{"name":"_owner","type":"address","internalType":"address"}],"stateMutability":"nonpayable"},{"type":"function","name":"adapter","inputs":[],"outputs":[{"name":"","type":"address","internalType":"contract IConcentratedLiquidityAdapter"}],"stateMutability":"view"},{"type":"function","name":"claimRewards","inputs":[],"outputs":[],"stateMutability":"nonpayable"},{"type":"function","name":"collectToVault","inputs":[],"outputs":[{"name":"a0","type":"uint256","internalType":"uint256"},{"name":"a1","type":"uint256","internalType":"uint256"}],"stateMutability":"nonpayable"},{"type":"function","name":"exitPositionAndWithdrawAll","inputs":[{"name":"to","type":"address","internalType":"address"}],"outputs":[],"stateMutability":"nonpayable"},{"type":"function","name":"exitPositionToVault","inputs":[],"outputs":[],"stateMutability":"nonpayable"},{"type":"function","name":"openInitialPosition","inputs":[{"name":"lower","type":"int24","internalType":"int24"},{"name":"upper","type":"int24","internalType":"int24"}],"outputs":[],"stateMutability":"nonpayable"},{"type":"function","name":"owner","inputs":[],"outputs":[{"name":"","type":"address","internalType":"address"}],"stateMutability":"view"},{"type":"function","name":"poolSet","inputs":[],"outputs":[{"name":"","type":"bool","internalType":"bool"}],"stateMutability":"view"},{"type":"function","name":"positionTokenId","inputs":[],"outputs":[{"name":"","type":"uint256","internalType":"uint256"}],"stateMutability":"view"},{"type":"function","name":"positionTokenIdView","inputs":[],"outputs":[{"name":"","type":"uint256","internalType":"uint256"}],"stateMutability":"view"},{"type":"function","name":"rebalanceWithCaps","inputs":[{"name":"lower","type":"int24","internalType":"int24"},{"name":"upper","type":"int24","internalType":"int24"},{"name":"cap0","type":"uint256","internalType":"uint256"},{"name":"cap1","type":"uint256","internalType":"uint256"}],"outputs":[],"stateMutability":"nonpayable"},{"type":"function","name":"renounceOwnership","inputs":[],"outputs":[],"stateMutability":"nonpayable"},{"type":"function","name":"setPoolOnce","inputs":[{"name":"_adapter","type":"address","internalType":"address"}],"outputs":[],"stateMutability":"nonpayable"},{"type":"function","name":"slot0","inputs":[],"outputs":[{"name":"","type":"uint160","internalType":"uint160"},{"name":"","type":"int24","internalType":"int24"}],"stateMutability":"view"},{"type":"function","name":"stake","inputs":[],"outputs":[],"stateMutability":"nonpayable"},{"type":"function","name":"swapExactIn","inputs":[{"name":"router","type":"address","internalType":"address"},{"name":"tokenIn","type":"address","internalType":"address"},{"name":"tokenOut","type":"address","internalType":"address"},{"name":"fee","type":"uint24","internalType":"uint24"},{"name":"amountIn","type":"uint256","internalType":"uint256"},{"name":"amountOutMinimum","type":"uint256","internalType":"uint256"},{"name":"sqrtPriceLimitX96","type":"uint160","internalType":"uint160"}],"outputs":[{"name":"amountOut","type":"uint256","internalType":"uint256"}],"stateMutability":"nonpayable"},{"type":"function","name":"swapExactInAero","inputs":[{"name":"router","type":"address","internalType":"address"},{"name":"tokenIn","type":"address","internalType":"address"},{"name":"tokenOut","type":"address","internalType":"address"},{"name":"tickSpacing","type":"int24","internalType":"int24"},{"name":"amountIn","type":"uint256","internalType":"uint256"},{"name":"amountOutMinimum","type":"uint256","internalType":"uint256"},{"name":"sqrtPriceLimitX96","type":"uint160","internalType":"uint160"}],"outputs":[{"name":"amountOut","type":"uint256","internalType":"uint256"}],"stateMutability":"nonpayable"},{"type":"function","name":"swapExactInPancake","inputs":[{"name":"router","type":"address","internalType":"address"},{"name":"tokenIn","type":"address","internalType":"address"},{"name":"tokenOut","type":"address","internalType":"address"},{"name":"fee","type":"uint24","internalType":"uint24"},{"name":"amountIn","type":"uint256","internalType":"uint256"},{"name":"amountOutMinimum","type":"uint256","internalType":"uint256"},{"name":"sqrtPriceLimitX96","type":"uint160","internalType":"uint160"}],"outputs":[{"name":"amountOut","type":"uint256","internalType":"uint256"}],"stateMutability":"nonpayable"},{"type":"function","name":"tickSpacing","inputs":[],"outputs":[{"name":"","type":"int24","internalType":"int24"}],"stateMutability":"view"},{"type":"function","name":"transferOwnership","inputs":[{"name":"newOwner","type":"address","internalType":"address"}],"outputs":[],"stateMutability":"nonpayable"},{"type":"function","name":"unstake","inputs":[],"outputs":[],"stateMutability":"nonpayable"},{"type":"function","name":"unstakeExitSwapAndOpenPancake","inputs":[{"name":"router","type":"address","internalType":"address"},{"name":"tokenIn","type":"address","internalType":"address"},{"name":"tokenOut","type":"address","internalType":"address"},{"name":"fee","type":"uint24","internalType":"uint24"},{"name":"amountIn","type":"uint256","internalType":"uint256"},{"name":"amountOutMinimum","type":"uint256","internalType":"uint256"},{"name":"sqrtPriceLimitX96","type":"uint160","internalType":"uint160"},{"name":"newLower","type":"int24","internalType":"int24"},{"name":"newUpper","type":"int24","internalType":"int24"}],"outputs":[{"name":"amountOut","type":"uint256","internalType":"uint256"},{"name":"newTokenId","type":"uint256","internalType":"uint256"},{"name":"newLiq","type":"uint128","internalType":"uint128"}],"stateMutability":"nonpayable"},{"type":"event","name":"Collected","inputs":[{"name":"amount0","type":"uint256","indexed":false,"internalType":"uint256"},{"name":"amount1","type":"uint256","indexed":false,"internalType":"uint256"}],"anonymous":false},{"type":"event","name":"Exited","inputs":[],"anonymous":false},{"type":"event","name":"OwnershipTransferred","inputs":[{"name":"previousOwner","type":"address","indexed":true,"internalType":"address"},{"name":"newOwner","type":"address","indexed":true,"internalType":"address"}],"anonymous":false},{"type":"event","name":"PoolAdapterSet","inputs":[{"name":"adapter","type":"address","indexed":false,"internalType":"address"}],"anonymous":false},{"type":"event","name":"PositionOpened","inputs":[{"name":"tokenId","type":"uint256","indexed":false,"internalType":"uint256"},{"name":"lower","type":"int24","indexed":false,"internalType":"int24"},{"name":"upper","type":"int24","indexed":false,"internalType":"int24"},{"name":"liq","type":"uint128","indexed":false,"internalType":"uint128"}],"anonymous":false},{"type":"event","name":"Rebalanced","inputs":[{"name":"lower","type":"int24","indexed":false,"internalType":"int24"},{"name":"upper","type":"int24","indexed":false,"internalType":"int24"},{"name":"newLiq","type":"uint128","indexed":false,"internalType":"uint128"}],"anonymous":false},{"type":"event","name":"Staked","inputs":[],"anonymous":false},{"type":"event","name":"Swapped","inputs":[{"name":"router","type":"address","indexed":true,"internalType":"address"},{"name":"tokenIn","type":"address","indexed":true,"internalType":"address"},{"name":"tokenOut","type":"address","indexed":true,"internalType":"address"},{"name":"amountIn","type":"uint256","indexed":false,"internalType":"uint256"},{"name":"amountOut","type":"uint256","indexed":false,"internalType":"uint256"}],"anonymous":false},{"type":"event","name":"Unstaked","inputs":[],"anonymous":false},{"type":"error","name":"OwnableInvalidOwner","inputs":[{"name":"owner","type":"address","internalType":"address"}]},{"type":"error","name":"OwnableUnauthorizedAccount","inputs":[{"name":"account","type":"address","internalType":"address"}]},{"type":"error","name":"ReentrancyGuardReentrantCall","inputs":[]},{"type":"error","name":"SafeERC20FailedOperation","inputs":[{"name":"token","type":"address","internalType":"address"}]}],"bytecode":{"object":"0x6080346100e557601f612ff638819003918201601f19168301916001600160401b038311848410176100ea578084926020946040528339810103126100e557516001600160a01b038116908190036100e55780156100cf57600080546001600160a01b031981168317825560405192916001600160a01b03909116907f8be0079c531659141344cd1fd0a4f28419497f9722a3daafe3b4186f6b6457e09080a360017f9b779b17422d0df92223018b32b4d1fa46e071723d6817e2486d003becc55f0055612ef590816101018239f35b631e4fbdf760e01b600052600060045260246000fd5b600080fd5b634e487b7160e01b600052604160045260246000fdfe608080604052600436101561001357600080fd5b600090813560e01c90816303eadcfc146122305750806318e08127146121ec57806322de96351461200e5780632def662014611f11578063372500ab14611e325780633850c7bd14611d155780633a4b66f114611c125780633b31f0c514611a1c578063715018a614611980578063799b2b54146102e15780637b0f7cc9146118445780637ba45d59146116aa5780637db6484e1461145f578063824518de1461100f5780638da5cb5b14610fbe578063a04cedd514610f3c578063a3fb9d7f146108ee578063abc5d5fa14610759578063bc0931b91461031d578063ceefe5d1146102e1578063d0c93a7c146102035763f2fde38b1461011357600080fd5b346102005760207ffffffffffffffffffffffffffffffffffffffffffffffffffffffffffffffffc3601126102005773ffffffffffffffffffffffffffffffffffffffff61015f612280565b610167612620565b1680156101d45773ffffffffffffffffffffffffffffffffffffffff8254827fffffffffffffffffffffffff00000000000000000000000000000000000000008216178455167f8be0079c531659141344cd1fd0a4f28419497f9722a3daafe3b4186f6b6457e08380a380f35b6024827f1e4fbdf700000000000000000000000000000000000000000000000000000000815280600452fd5b80fd5b503461020057807ffffffffffffffffffffffffffffffffffffffffffffffffffffffffffffffffc36011261020057600490602073ffffffffffffffffffffffffffffffffffffffff60015416604051938480927fd0c93a7c0000000000000000000000000000000000000000000000000000000082525afa9081156102d5578091610298575b6020826040519060020b8152f35b90506020823d6020116102cd575b816102b36020938361250a565b8101031261020057506102c760209161254b565b3861028a565b3d91506102a6565b604051903d90823e3d90fd5b503461020057807ffffffffffffffffffffffffffffffffffffffffffffffffffffffffffffffffc360112610200576020600254604051908152f35b50346102005760207ffffffffffffffffffffffffffffffffffffffffffffffffffffffffffffffffc36011261020057610355612280565b61035d612620565b61036561266f565b73ffffffffffffffffffffffffffffffffffffffff8116156106fb578173ffffffffffffffffffffffffffffffffffffffff60015416803b156106ec578180916024604051809481937fb02172400000000000000000000000000000000000000000000000000000000083523060048401525af180156106f0576106d7575b505073ffffffffffffffffffffffffffffffffffffffff600154166040517f86ff5c4b000000000000000000000000000000000000000000000000000000008152306004820152602081602481855afa9081156105e65784916106a4575b506004916040916002558151928380927f9d63848a0000000000000000000000000000000000000000000000000000000082525afa9081156106995783908492610653575b5073ffffffffffffffffffffffffffffffffffffffff1690604051917f70a08231000000000000000000000000000000000000000000000000000000008352306004840152602083602481845afa8015610648578590610602575b73ffffffffffffffffffffffffffffffffffffffff935084816105f1575b5050501690604051907f70a08231000000000000000000000000000000000000000000000000000000008252306004830152602082602481865afa9182156105e65784926105ad575b508161059c575b837fe0093feeddaaa09772f23abc851961d9dc4083a1a7c4bf6078cbc03fb20c067b8180a160017f9b779b17422d0df92223018b32b4d1fa46e071723d6817e2486d003becc55f005580f35b6105a592612cc7565b388080610550565b9091506020813d6020116105de575b816105c96020938361250a565b810103126105d957519038610549565b600080fd5b3d91506105bc565b6040513d86823e3d90fd5b6105fa92612cc7565b388084610500565b506020833d602011610640575b8161061c6020938361250a565b810103126105d95773ffffffffffffffffffffffffffffffffffffffff92516104e2565b3d915061060f565b6040513d87823e3d90fd5b73ffffffffffffffffffffffffffffffffffffffff925061068c915060403d604011610692575b610684818361250a565b8101906125df565b91610487565b503d61067a565b6040513d85823e3d90fd5b90506020813d6020116106cf575b816106bf6020938361250a565b810103126105d957516004610442565b3d91506106b2565b816106e19161250a565b6106ec5781386103e4565b5080fd5b6040513d84823e3d90fd5b60646040517f08c379a000000000000000000000000000000000000000000000000000000000815260206004820152600760248201527f7a65726f20746f000000000000000000000000000000000000000000000000006044820152fd5b50346102005760207ffffffffffffffffffffffffffffffffffffffffffffffffffffffffffffffffc36011261020057610791612280565b610799612620565b6001549060ff8260a01c166108905773ffffffffffffffffffffffffffffffffffffffff169081156108325781740100000000000000000000000000000000000000007fa245ff79631c8edb4626902c8512bba59d65c8dbc1175e28f1d0e55d7baa7960937fffffffffffffffffffffff000000000000000000000000000000000000000000602094161717600155604051908152a180f35b60646040517f08c379a000000000000000000000000000000000000000000000000000000000815260206004820152600460248201527f7a65726f000000000000000000000000000000000000000000000000000000006044820152fd5b60646040517f08c379a000000000000000000000000000000000000000000000000000000000815260206004820152600b60248201527f616c7265616479207365740000000000000000000000000000000000000000006044820152fd5b5034610200576101207ffffffffffffffffffffffffffffffffffffffffffffffffffffffffffffffffc36011261020057610927612280565b906109306122a3565b916109396122c6565b926064359062ffffff8216809203610f3857608435926109576122e9565b9260e435928360020b8403610f345761010435948560020b8603610f305761097d612620565b61098561266f565b87966001549161099a60ff8460a01c16612559565b73ffffffffffffffffffffffffffffffffffffffff808716936109be8515156123f4565b16803b15610eee578a8080926024604051809581937fdcfc070b0000000000000000000000000000000000000000000000000000000083523060048401525af19182610f1b575b5050610ef2575b73ffffffffffffffffffffffffffffffffffffffff60015416803b15610eee578a80916024604051809481937fb02172400000000000000000000000000000000000000000000000000000000083523060048401525af18015610eca57908b91610ed5575b50506024602073ffffffffffffffffffffffffffffffffffffffff60015416604051928380927f86ff5c4b0000000000000000000000000000000000000000000000000000000082523060048301525afa908115610eca578b91610e98575b50600255604051937fe0093feeddaaa09772f23abc851961d9dc4083a1a7c4bf6078cbc03fb20c067b8b80a182610c0c575b50505050505050610b159293945061294e565b908373ffffffffffffffffffffffffffffffffffffffff60015416803b156106ec5781906024604051809481937fe40105030000000000000000000000000000000000000000000000000000000083523060048401525af19081610bf3575b50906060946fffffffffffffffffffffffffffffffff9392610bc9575b5060017f9b779b17422d0df92223018b32b4d1fa46e071723d6817e2486d003becc55f00556040519384526020840152166040820152f35b807f7c8034b0915ddb06daf1c98814ae561303379b3db725b973ef0d14ea2c923d5c91a138610b91565b610bfe86809261250a565b610c085738610b74565b8480fd5b909192939495985073ffffffffffffffffffffffffffffffffffffffff81169485151580610e79575b15610e1d57508289610c46926126e8565b6103844201804211610df0579973ffffffffffffffffffffffffffffffffffffffff602092610d4f9a9b9c8260405194610c7f866124be565b89865216988986860152604085015230606085015260808401528460a084015260a43560c08401521660e0820152604051809981927f414bf3890000000000000000000000000000000000000000000000000000000083526004830191909160e073ffffffffffffffffffffffffffffffffffffffff8161010084019582815116855282602082015116602086015262ffffff60408201511660408601528260608201511660608601526080810151608086015260a081015160a086015260c081015160c0860152015116910152565b03818c865af1968715610de5578997610db0575b5060407f6782190c91d4a7e8ad2a867deed6ec0a970cab8ff137ae2bd4abd92b3810f4d39188610d97610b159a9b8761288d565b82519182526020820152a4849392388080808080610b02565b96506020873d602011610ddd575b81610dcb6020938361250a565b810103126105d9579551956040610d63565b3d9150610dbe565b6040513d8b823e3d90fd5b60248a7f4e487b710000000000000000000000000000000000000000000000000000000081526011600452fd5b807f08c379a0000000000000000000000000000000000000000000000000000000006064925260206004820152600760248201527f746f6b656e3d30000000000000000000000000000000000000000000000000006044820152fd5b5073ffffffffffffffffffffffffffffffffffffffff8c161515610c35565b90506020813d602011610ec2575b81610eb36020938361250a565b810103126105d9575138610ad0565b3d9150610ea6565b6040513d8d823e3d90fd5b81610edf9161250a565b610eea578938610a71565b8980fd5b8a80fd5b7f223cba103b37553fa55d92837815b881061ed40ebf54193471d8edb521b95df58a80a1610a0c565b81610f259161250a565b610eee578a38610a05565b8780fd5b8680fd5b8380fd5b50346102005760407ffffffffffffffffffffffffffffffffffffffffffffffffffffffffffffffffc36011261020057610f95610f776123d4565b610f7f6123e4565b90610f88612620565b610f9061266f565b61294e565b505060017f9b779b17422d0df92223018b32b4d1fa46e071723d6817e2486d003becc55f005580f35b503461020057807ffffffffffffffffffffffffffffffffffffffffffffffffffffffffffffffffc3601126102005773ffffffffffffffffffffffffffffffffffffffff6020915416604051908152f35b50346102005760807ffffffffffffffffffffffffffffffffffffffffffffffffffffffffffffffffc360112610200576110476123d4565b61104f6123e4565b60443560643561105d612620565b61106561266f565b73ffffffffffffffffffffffffffffffffffffffff60015461108c60ff8260a01c16612559565b16906040517f9d63848a000000000000000000000000000000000000000000000000000000008152604081600481865afa80156114545787918891611433575b506040517f70a0823100000000000000000000000000000000000000000000000000000000815230600482015260208160248173ffffffffffffffffffffffffffffffffffffffff87165afa908115610de5578991611401575b50604051907f70a0823100000000000000000000000000000000000000000000000000000000825230600483015260208260248173ffffffffffffffffffffffffffffffffffffffff87165afa9182156113f6578a926113ba575b50916111a686926020976111ab96958a156000146113a457915b8861138e57956126e8565b6126e8565b60a473ffffffffffffffffffffffffffffffffffffffff60015416958760405197889485937f6783ac1700000000000000000000000000000000000000000000000000000000855230600486015260020b9889602486015260020b97886044860152606485015260848401525af19283156105e6578493611352575b506024602073ffffffffffffffffffffffffffffffffffffffff60015416604051928380927f86ff5c4b0000000000000000000000000000000000000000000000000000000082523060048301525afa9081156106485785916112fa575b507fc2df45ace19779c8cee33727e1cf9829c78beb3141250e153674e7825f631dad93606093926fffffffffffffffffffffffffffffffff926002556040519384526020840152166040820152a160017f9b779b17422d0df92223018b32b4d1fa46e071723d6817e2486d003becc55f005580f35b90506020929192813d60201161134a575b816113186020938361250a565b810103126105d957519091907fc2df45ace19779c8cee33727e1cf9829c78beb3141250e153674e7825f631dad611285565b3d915061130b565b9092506020813d602011611386575b8161136e6020938361250a565b81010312610f385761137f90612603565b9138611227565b3d9150611361565b8089101561139f5750875b956126e8565b611399565b808b10156113b55750895b9161119b565b6113af565b95915092916020863d6020116113ee575b816113d86020938361250a565b810103126105d9579451909491926111a6611181565b3d91506113cb565b6040513d8c823e3d90fd5b90506020813d60201161142b575b8161141c6020938361250a565b810103126105d9575138611126565b3d915061140f565b905061144e915060403d60401161069257610684818361250a565b386110cc565b6040513d89823e3d90fd5b50346102005761146e3661230c565b61147d97969795919395612620565b61148561266f565b73ffffffffffffffffffffffffffffffffffffffff8816936114a88515156123f4565b6114b3841515612459565b6114be848a856126e8565b610384420180421161167d576020926115cb949273ffffffffffffffffffffffffffffffffffffffff9262ffffff8480604051976114fb896124be565b169b8c8852169b8c8888015216604086015230606086015260808501528660a085015260c08401521660e0820152604051809381927f414bf3890000000000000000000000000000000000000000000000000000000083526004830191909160e073ffffffffffffffffffffffffffffffffffffffff8161010084019582815116855282602082015116602086015262ffffff60408201511660408601528260608201511660608601526080810151608086015260a081015160a086015260c081015160c0860152015116910152565b038189875af19586156102d55795611646575b5060407f6782190c91d4a7e8ad2a867deed6ec0a970cab8ff137ae2bd4abd92b3810f4d39161160f6020988661288d565b81519081528688820152a460017f9b779b17422d0df92223018b32b4d1fa46e071723d6817e2486d003becc55f0055604051908152f35b9594506020863d602011611675575b816116626020938361250a565b810103126105d9579451939460406115de565b3d9150611655565b6024897f4e487b710000000000000000000000000000000000000000000000000000000081526011600452fd5b503461020057807ffffffffffffffffffffffffffffffffffffffffffffffffffffffffffffffffc360112610200576116e1612620565b6116e961266f565b8073ffffffffffffffffffffffffffffffffffffffff60015416803b15611841578180916024604051809481937fb02172400000000000000000000000000000000000000000000000000000000083523060048401525af180156106f05761182c575b50506024602073ffffffffffffffffffffffffffffffffffffffff60015416604051928380927f86ff5c4b0000000000000000000000000000000000000000000000000000000082523060048301525afa9081156106f05782916117fa575b506002557fe0093feeddaaa09772f23abc851961d9dc4083a1a7c4bf6078cbc03fb20c067b8180a160017f9b779b17422d0df92223018b32b4d1fa46e071723d6817e2486d003becc55f005580f35b90506020813d602011611824575b816118156020938361250a565b810103126105d95751386117ab565b3d9150611808565b816118369161250a565b61020057803861174c565b50fd5b503461020057807ffffffffffffffffffffffffffffffffffffffffffffffffffffffffffffffffc3601126102005761187b612620565b61188361266f565b80604073ffffffffffffffffffffffffffffffffffffffff6001541660248251809481937f762100e70000000000000000000000000000000000000000000000000000000083523060048401525af180156106f05782918391611943575b604083837f099830bf72bfd4281b6dd74da06794aabc4a2fc97ed1e35c125293c6a2dccd00838051848152836020820152a160017f9b779b17422d0df92223018b32b4d1fa46e071723d6817e2486d003becc55f005582519182526020820152f35b9150506040813d604011611978575b8161195f6040938361250a565b810103126106ec576040915060208151910151386118e1565b3d9150611952565b503461020057807ffffffffffffffffffffffffffffffffffffffffffffffffffffffffffffffffc360112610200576119b7612620565b8073ffffffffffffffffffffffffffffffffffffffff81547fffffffffffffffffffffffff000000000000000000000000000000000000000081168355167f8be0079c531659141344cd1fd0a4f28419497f9722a3daafe3b4186f6b6457e08280a380f35b50346102005760e07ffffffffffffffffffffffffffffffffffffffffffffffffffffffffffffffffc36011261020057611a54612280565b90611a5d6122a3565b611a656122c6565b90606435908160020b809203610f3857608435611a806122e9565b91611a89612620565b611a9161266f565b73ffffffffffffffffffffffffffffffffffffffff871692611ab48415156123f4565b611abf831515612459565b611aca8389846126e8565b610384420195864211611be5579073ffffffffffffffffffffffffffffffffffffffff918260405194611afc866124be565b169687855283602086019216988983526040860191825284606087013081526080880192835260a08801938985528260c08a019660a43588528160e08c0199168952816040519b7fa026383e000000000000000000000000000000000000000000000000000000008d52511660048c0152511660248a01525160020b6044890152511660648701525160848601525160a48501525160c4840152511660e48201526020816101048189875af19586156102d55795611646575060407f6782190c91d4a7e8ad2a867deed6ec0a970cab8ff137ae2bd4abd92b3810f4d39161160f6020988661288d565b6024887f4e487b710000000000000000000000000000000000000000000000000000000081526011600452fd5b503461020057807ffffffffffffffffffffffffffffffffffffffffffffffffffffffffffffffffc36011261020057611c49612620565b611c5161266f565b8073ffffffffffffffffffffffffffffffffffffffff60015416803b15611841578180916024604051809481937fe40105030000000000000000000000000000000000000000000000000000000083523060048401525af180156106f057611d00575b50807f7c8034b0915ddb06daf1c98814ae561303379b3db725b973ef0d14ea2c923d5c91a160017f9b779b17422d0df92223018b32b4d1fa46e071723d6817e2486d003becc55f005580f35b81611d0a9161250a565b610200578038611cb4565b503461020057807ffffffffffffffffffffffffffffffffffffffffffffffffffffffffffffffffc36011261020057600490604073ffffffffffffffffffffffffffffffffffffffff600154168151938480927f3850c7bd0000000000000000000000000000000000000000000000000000000082525afa8015611e2557818091611dc4575b6040838373ffffffffffffffffffffffffffffffffffffffff83519216825260020b6020820152f35b9150506040823d604011611e1d575b81611de06040938361250a565b810103126102005781519073ffffffffffffffffffffffffffffffffffffffff821682036102005750611e1760206040930161254b565b38611d9b565b3d9150611dd3565b50604051903d90823e3d90fd5b503461020057807ffffffffffffffffffffffffffffffffffffffffffffffffffffffffffffffffc36011261020057611e69612620565b611e7161266f565b8073ffffffffffffffffffffffffffffffffffffffff60015416803b15611841578180916024604051809481937fef5cfb8c0000000000000000000000000000000000000000000000000000000083523060048401525af180156106f057611efc575b5060017f9b779b17422d0df92223018b32b4d1fa46e071723d6817e2486d003becc55f005580f35b81611f069161250a565b610200578038611ed4565b503461020057807ffffffffffffffffffffffffffffffffffffffffffffffffffffffffffffffffc36011261020057611f48612620565b611f5061266f565b8073ffffffffffffffffffffffffffffffffffffffff60015416803b15611841578180916024604051809581937fdcfc070b0000000000000000000000000000000000000000000000000000000083523060048401525af18015611e2557611ffe575b7f223cba103b37553fa55d92837815b881061ed40ebf54193471d8edb521b95df58180a160017f9b779b17422d0df92223018b32b4d1fa46e071723d6817e2486d003becc55f005580f35b6120079161250a565b3881611fb3565b50346102005761201d3661230c565b61202d9796929795919395612620565b61203561266f565b73ffffffffffffffffffffffffffffffffffffffff8316936120588515156123f4565b612063891515612459565b61206e8985856126e8565b6040519260e0840184811067ffffffffffffffff8211176121bf5773ffffffffffffffffffffffffffffffffffffffff80809594938d93604052169889875262ffffff826020890192169b8c83528160408a01911681528360608a019330855260808b0196875260a08b019788528160c08c0199168952816040519b7f04e45aaf000000000000000000000000000000000000000000000000000000008d52511660048c0152511660248a015251166044880152511660648601525160848501525160a4840152511660c482015260208160e48189875af19586156102d5578096612186575b5050604060209661160f7f6782190c91d4a7e8ad2a867deed6ec0a970cab8ff137ae2bd4abd92b3810f4d3938661288d565b909195506020823d6020116121b7575b816121a36020938361250a565b810103126102005750519360406020612154565b3d9150612196565b60248a7f4e487b710000000000000000000000000000000000000000000000000000000081526041600452fd5b503461020057807ffffffffffffffffffffffffffffffffffffffffffffffffffffffffffffffffc36011261020057602060ff60015460a01c166040519015158152f35b9050346106ec57817ffffffffffffffffffffffffffffffffffffffffffffffffffffffffffffffffc3601126106ec5760209073ffffffffffffffffffffffffffffffffffffffff600154168152f35b6004359073ffffffffffffffffffffffffffffffffffffffff821682036105d957565b6024359073ffffffffffffffffffffffffffffffffffffffff821682036105d957565b6044359073ffffffffffffffffffffffffffffffffffffffff821682036105d957565b60c4359073ffffffffffffffffffffffffffffffffffffffff821682036105d957565b7ffffffffffffffffffffffffffffffffffffffffffffffffffffffffffffffffc60e09101126105d95760043573ffffffffffffffffffffffffffffffffffffffff811681036105d9579060243573ffffffffffffffffffffffffffffffffffffffff811681036105d9579060443573ffffffffffffffffffffffffffffffffffffffff811681036105d9579060643562ffffff811681036105d957906084359060a4359060c43573ffffffffffffffffffffffffffffffffffffffff811681036105d95790565b600435908160020b82036105d957565b602435908160020b82036105d957565b156123fb57565b60646040517f08c379a000000000000000000000000000000000000000000000000000000000815260206004820152600860248201527f726f757465723d300000000000000000000000000000000000000000000000006044820152fd5b1561246057565b60646040517f08c379a000000000000000000000000000000000000000000000000000000000815260206004820152600a60248201527f616d6f756e74496e3d30000000000000000000000000000000000000000000006044820152fd5b610100810190811067ffffffffffffffff8211176124db57604052565b7f4e487b7100000000000000000000000000000000000000000000000000000000600052604160045260246000fd5b90601f7fffffffffffffffffffffffffffffffffffffffffffffffffffffffffffffffe0910116810190811067ffffffffffffffff8211176124db57604052565b51908160020b82036105d957565b1561256057565b60646040517f08c379a000000000000000000000000000000000000000000000000000000000815260206004820152600760248201527f6e6f20706f6f6c000000000000000000000000000000000000000000000000006044820152fd5b519073ffffffffffffffffffffffffffffffffffffffff821682036105d957565b91908260409103126105d95761260060206125f9846125be565b93016125be565b90565b51906fffffffffffffffffffffffffffffffff821682036105d957565b73ffffffffffffffffffffffffffffffffffffffff60005416330361264157565b7f118cdaa7000000000000000000000000000000000000000000000000000000006000523360045260246000fd5b60027f9b779b17422d0df92223018b32b4d1fa46e071723d6817e2486d003becc55f0054146126be5760027f9b779b17422d0df92223018b32b4d1fa46e071723d6817e2486d003becc55f0055565b7f3ee5aeb50000000000000000000000000000000000000000000000000000000060005260046000fd5b82156128885773ffffffffffffffffffffffffffffffffffffffff16916040517fdd62ed3e00000000000000000000000000000000000000000000000000000000815230600482015273ffffffffffffffffffffffffffffffffffffffff83166024820152602081604481875afa90811561287c5760009161284a575b501061276f575050565b612779818361288d565b6127a47fffffffffffffffffffffffffffffffffffffffffffffffffffffffffffffffff8284612d54565b156127ad575050565b6127b78183612dcf565b1561281c577fffffffffffffffffffffffffffffffffffffffffffffffffffffffffffffffff6127e79183612e5a565b156127ef5750565b7f5274afe70000000000000000000000000000000000000000000000000000000060005260045260246000fd5b507f5274afe70000000000000000000000000000000000000000000000000000000060005260045260246000fd5b90506020813d602011612874575b816128656020938361250a565b810103126105d9575138612765565b3d9150612858565b6040513d6000823e3d90fd5b505050565b9061289a60008284612d54565b156128a3575050565b6128ad8183612dcf565b1561290a5760006128be9183612e5a565b156128c65750565b73ffffffffffffffffffffffffffffffffffffffff907f5274afe7000000000000000000000000000000000000000000000000000000006000521660045260246000fd5b73ffffffffffffffffffffffffffffffffffffffff827f5274afe7000000000000000000000000000000000000000000000000000000006000521660045260246000fd5b909173ffffffffffffffffffffffffffffffffffffffff60015461297760ff8260a01c16612559565b166040517f9d63848a000000000000000000000000000000000000000000000000000000008152604081600481855afa91821561287c57600091600093612ca4575b50604051927f70a0823100000000000000000000000000000000000000000000000000000000845230600485015260208460248173ffffffffffffffffffffffffffffffffffffffff87165afa93841561287c57600094612c70575b50604051927f70a0823100000000000000000000000000000000000000000000000000000000845230600485015260208460248173ffffffffffffffffffffffffffffffffffffffff86165afa93841561287c57600094612c3c575b508415801590612c33575b15612bd557612a8f94836111a6926126e8565b6000604073ffffffffffffffffffffffffffffffffffffffff600154169360648251809481937f109162ef00000000000000000000000000000000000000000000000000000000835230600484015260020b9889602484015260020b978860448401525af190811561287c576000908192612b5d575b506080906fffffffffffffffffffffffffffffffff837fe1b61fd8135460b22abc435eec8e97ab772042997e8696d312015dd44aedd91e949683988460025560405194855260208501526040840152166060820152a1565b91506040823d604011612bcd575b81612b786040938361250a565b8101031261020057506080816fffffffffffffffffffffffffffffffff612bc460207fe1b61fd8135460b22abc435eec8e97ab772042997e8696d312015dd44aedd91e95519301612603565b93505090612b05565b3d9150612b6b565b60646040517f08c379a000000000000000000000000000000000000000000000000000000000815260206004820152600860248201527f6e6f2066756e64730000000000000000000000000000000000000000000000006044820152fd5b50831515612a7c565b90936020823d602011612c68575b81612c576020938361250a565b810103126102005750519238612a71565b3d9150612c4a565b90936020823d602011612c9c575b81612c8b6020938361250a565b810103126102005750519238612a15565b3d9150612c7e565b909250612cc0915060403d60401161069257610684818361250a565b91386129b9565b9160209060009073ffffffffffffffffffffffffffffffffffffffff604051947fa9059cbb0000000000000000000000000000000000000000000000000000000084521660045260245260448180865af190600160005114821615612d32575b604052156128c65750565b906001811516612d4a57823b15153d15161690612d27565b503d6000823e3d90fd5b92919260009373ffffffffffffffffffffffffffffffffffffffff604051937f095ea7b30000000000000000000000000000000000000000000000000000000087521660045260245260208460448180855af1936001815114851615612dbc575b5050604052565b939193503b15153d151616913880612db5565b919073ffffffffffffffffffffffffffffffffffffffff604051917f095ea7b3000000000000000000000000000000000000000000000000000000006000521660045260006024526020600060448180875af192600160005114841615612e37575b50604052565b60018492941516612e50573b15153d1516169138612e31565b833d6000823e3d90fd5b929173ffffffffffffffffffffffffffffffffffffffff604051927f095ea7b300000000000000000000000000000000000000000000000000000000600052166004526024526020600060448180875af192600160005114841615612e37575060405256fea2646970667358221220ba8ee329a6fb0d1bebeb328631396720bafad73a9aa5b94162ac55b68347c70f64736f6c634300081e0033","linkReferences":{}},"methodIdentifiers":{"adapter()":"03eadcfc","claimRewards()":"372500ab","collectToVault()":"7b0f7cc9","exitPositionAndWithdrawAll(address)":"bc0931b9","exitPositionToVault()":"7ba45d59","openInitialPosition(int24,int24)":"a04cedd5","owner()":"8da5cb5b","poolSet()":"18e08127","positionTokenId()":"ceefe5d1","positionTokenIdView()":"799b2b54","rebalanceWithCaps(int24,int24,uint256,uint256)":"824518de","renounceOwnership()":"715018a6","setPoolOnce(address)":"abc5d5fa","slot0()":"3850c7bd","stake()":"3a4b66f1","swapExactIn(address,address,address,uint24,uint256,uint256,uint160)":"22de9635","swapExactInAero(address,address,address,int24,uint256,uint256,uint160)":"3b31f0c5","swapExactInPancake(address,address,address,uint24,uint256,uint256,uint160)":"7db6484e","tickSpacing()":"d0c93a7c","transferOwnership(address)":"f2fde38b","unstake()":"2def6620","unstakeExitSwapAndOpenPancake(address,address,address,uint24,uint256,uint256,uint160,int24,int24)":"a3fb9d7f"},"id":63}