{"abi":[{"type":"constructor","inputs":[{"name":"_nfpm","type":"address","internalType":"address"},{"name":"_pool","type":"address","internalType":"address"}],"stateMutability":"nonpayable"},{"type":"function","name":"claimRewards","inputs":[{"name":"","type":"address","internalType":"address"}],"outputs":[],"stateMutability":"nonpayable"},{"type":"function","name":"collectToVault","inputs":[{"name":"vault","type":"address","internalType":"address"}],"outputs":[{"name":"amount0","type":"uint256","internalType":"uint256"},{"name":"amount1","type":"uint256","internalType":"uint256"}],"stateMutability":"nonpayable"},{"type":"function","name":"currentRange","inputs":[{"name":"vault","type":"address","internalType":"address"}],"outputs":[{"name":"lower","type":"int24","internalType":"int24"},{"name":"upper","type":"int24","internalType":"int24"},{"name":"liquidity","type":"uint128","internalType":"uint128"}],"stateMutability":"view"},{"type":"function","name":"currentTokenId","inputs":[{"name":"vault","type":"address","internalType":"address"}],"outputs":[{"name":"","type":"uint256","internalType":"uint256"}],"stateMutability":"view"},{"type":"function","name":"exitPositionToVault","inputs":[{"name":"vault","type":"address","internalType":"address"}],"outputs":[],"stateMutability":"nonpayable"},{"type":"function","name":"gauge","inputs":[],"outputs":[{"name":"","type":"address","internalType":"address"}],"stateMutability":"view"},{"type":"function","name":"lastRebalance","inputs":[{"name":"","type":"address","internalType":"address"}],"outputs":[{"name":"","type":"uint256","internalType":"uint256"}],"stateMutability":"view"},{"type":"function","name":"maxTwapDeviationTicks","inputs":[],"outputs":[{"name":"","type":"int24","internalType":"int24"}],"stateMutability":"view"},{"type":"function","name":"maxWidth","inputs":[],"outputs":[{"name":"","type":"int24","internalType":"int24"}],"stateMutability":"view"},{"type":"function","name":"minCooldown","inputs":[],"outputs":[{"name":"","type":"uint256","internalType":"uint256"}],"stateMutability":"view"},{"type":"function","name":"minWidth","inputs":[],"outputs":[{"name":"","type":"int24","internalType":"int24"}],"stateMutability":"view"},{"type":"function","name":"nfpm","inputs":[],"outputs":[{"name":"","type":"address","internalType":"address"}],"stateMutability":"view"},{"type":"function","name":"openInitialPosition","inputs":[{"name":"vault","type":"address","internalType":"address"},{"name":"lower","type":"int24","internalType":"int24"},{"name":"upper","type":"int24","internalType":"int24"}],"outputs":[{"name":"tokenId","type":"uint256","internalType":"uint256"},{"name":"liquidity","type":"uint128","internalType":"uint128"}],"stateMutability":"nonpayable"},{"type":"function","name":"pool","inputs":[],"outputs":[{"name":"","type":"address","internalType":"address"}],"stateMutability":"view"},{"type":"function","name":"rebalanceWithCaps","inputs":[{"name":"vault","type":"address","internalType":"address"},{"name":"lower","type":"int24","internalType":"int24"},{"name":"upper","type":"int24","internalType":"int24"},{"name":"cap0","type":"uint256","internalType":"uint256"},{"name":"cap1","type":"uint256","internalType":"uint256"}],"outputs":[{"name":"newLiquidity","type":"uint128","internalType":"uint128"}],"stateMutability":"nonpayable"},{"type":"function","name":"slot0","inputs":[],"outputs":[{"name":"sqrtPriceX96","type":"uint160","internalType":"uint160"},{"name":"tick","type":"int24","internalType":"int24"}],"stateMutability":"view"},{"type":"function","name":"stakePosition","inputs":[{"name":"","type":"address","internalType":"address"}],"outputs":[],"stateMutability":"nonpayable"},{"type":"function","name":"tickSpacing","inputs":[],"outputs":[{"name":"","type":"int24","internalType":"int24"}],"stateMutability":"view"},{"type":"function","name":"tokens","inputs":[],"outputs":[{"name":"token0","type":"address","internalType":"address"},{"name":"token1","type":"address","internalType":"address"}],"stateMutability":"view"},{"type":"function","name":"twapOk","inputs":[],"outputs":[{"name":"","type":"bool","internalType":"bool"}],"stateMutability":"view"},{"type":"function","name":"twapWindow","inputs":[],"outputs":[{"name":"","type":"uint32","internalType":"uint32"}],"stateMutability":"view"},{"type":"function","name":"unstakePosition","inputs":[{"name":"","type":"address","internalType":"address"}],"outputs":[],"stateMutability":"nonpayable"},{"type":"error","name":"InRangeRequiresBothTokens","inputs":[]},{"type":"error","name":"SafeERC20FailedOperation","inputs":[{"name":"token","type":"address","internalType":"address"}]}],"bytecode":{"object":"0x60e080604052346101eb576040816139b8803803809161001f828561027b565b8339810103126101eb5761003e6020610037836102b4565b92016102b4565b603c600055600180546001600160681b031916693c0000320dbba000001e179055906001600160a01b03811680151580610269575b1561023e5760206004916040519283809263c45a015560e01b82525afa9081156101f857600091610204575b5060405163c45a015560e01b8152906020826004816001600160a01b0388165afa9182156101f8576000926101b7575b506001600160a01b039081169116036101805760a052608052600060c0526040516136ef90816102c9823960805181818161022b0152818161085d01528181610c700152818161176d0152818161199501528181611b9e015281816124bf015281816127a30152612c0b015260a0518181816105f401528181610729015281816108dc01528181610bdc01528181610c07015281816118a701528181611b2d0152613016015260c051816103830152f35b60405162461bcd60e51b815260206004820152600f60248201526e696e76616c696420666163746f727960881b6044820152606490fd5b9091506020813d6020116101f0575b816101d36020938361027b565b810103126101eb576101e4906102b4565b90386100cf565b600080fd5b3d91506101c6565b6040513d6000823e3d90fd5b90506020813d602011610236575b8161021f6020938361027b565b810103126101eb57610230906102b4565b3861009f565b3d9150610212565b606460405162461bcd60e51b81526020600482015260046024820152637a65726f60e01b6044820152fd5b506001600160a01b0383161515610073565b601f909101601f19168101906001600160401b0382119082101761029e57604052565b634e487b7160e01b600052604160045260246000fd5b51906001600160a01b03821682036101eb5756fe608080604052600436101561001357600080fd5b600090813560e01c908163035229cf146120b957508063109162ef146119b957806316f0115b1461194a578063270d3136146117f85780633850c7bd146116fa5780636006ecc8146116b8578063616ea557146116765780636783ac171461074d5780637303e913146106de578063762100e7146104af5780638107e1331461046a57806386ff5c4b146104075780639d63848a146103a7578063a6f19c8414610338578063b0217240146102f5578063c4f97bfb146102b2578063d0c93a7c146101b8578063d6e8b9f31461017d578063dcfc070b14610178578063e401050314610178578063ef5cfb8c146101785763fdd0fd2d1461011357600080fd5b346101755760207ffffffffffffffffffffffffffffffffffffffffffffffffffffffffffffffffc36011261017557604060209173ffffffffffffffffffffffffffffffffffffffff6101646120fa565b168152600283522054604051908152f35b80fd5b61213d565b503461017557807ffffffffffffffffffffffffffffffffffffffffffffffffffffffffffffffffc3601126101755760209054604051908152f35b503461017557807ffffffffffffffffffffffffffffffffffffffffffffffffffffffffffffffffc36011261017557604051907fd0c93a7c00000000000000000000000000000000000000000000000000000000825260208260048173ffffffffffffffffffffffffffffffffffffffff7f0000000000000000000000000000000000000000000000000000000000000000165afa9081156102a6578091610269575b6020826040519060020b8152f35b90506020823d60201161029e575b81610284602093836121fa565b810103126101755750610298602091612353565b3861025b565b3d9150610277565b604051903d90823e3d90fd5b503461017557807ffffffffffffffffffffffffffffffffffffffffffffffffffffffffffffffffc3601126101755760206102eb612be3565b6040519015158152f35b50346101755760207ffffffffffffffffffffffffffffffffffffffffffffffffffffffffffffffffc360112610175576103356103306120fa565b612fcf565b80f35b503461017557807ffffffffffffffffffffffffffffffffffffffffffffffffffffffffffffffffc36011261017557602060405173ffffffffffffffffffffffffffffffffffffffff7f0000000000000000000000000000000000000000000000000000000000000000168152f35b503461017557807ffffffffffffffffffffffffffffffffffffffffffffffffffffffffffffffffc360112610175576103de6124a8565b6040805173ffffffffffffffffffffffffffffffffffffffff9384168152919092166020820152f35b50346101755760207ffffffffffffffffffffffffffffffffffffffffffffffffffffffffffffffffc36011261017557604060209173ffffffffffffffffffffffffffffffffffffffff6104596120fa565b168152600383522054604051908152f35b503461017557807ffffffffffffffffffffffffffffffffffffffffffffffffffffffffffffffffc36011261017557602063ffffffff60015460481c16604051908152f35b50346101755760207ffffffffffffffffffffffffffffffffffffffffffffffffffffffffffffffffc360112610175576105da906104eb6120fa565b73ffffffffffffffffffffffffffffffffffffffff81168252600360205260408083205461051a8115156122cd565b815190610526826121c2565b81523060208201526fffffffffffffffffffffffffffffffff828201526fffffffffffffffffffffffffffffffff60608201528151809581927ffc6f78650000000000000000000000000000000000000000000000000000000083526004830191909160606fffffffffffffffffffffffffffffffff8160808401958051855273ffffffffffffffffffffffffffffffffffffffff6020820151166020860152826040820151166040860152015116910152565b03818573ffffffffffffffffffffffffffffffffffffffff7f0000000000000000000000000000000000000000000000000000000000000000165af19081156106d35760409383926106a1575b50816106316124a8565b929085828161067a575b50505081610653575b50505082519182526020820152f35b73ffffffffffffffffffffffffffffffffffffffff6106729316612b60565b388181610644565b73ffffffffffffffffffffffffffffffffffffffff6106999316612b60565b38858261063b565b9092506106c49150833d85116106cc575b6106bc81836121fa565b810190612485565b909138610627565b503d6106b2565b6040513d84823e3d90fd5b503461017557807ffffffffffffffffffffffffffffffffffffffffffffffffffffffffffffffffc36011261017557602060405173ffffffffffffffffffffffffffffffffffffffff7f0000000000000000000000000000000000000000000000000000000000000000168152f35b50346101755760a07ffffffffffffffffffffffffffffffffffffffffffffffffffffffffffffffffc360112610175576107856120fa565b9061078e61211d565b9161079761212d565b9273ffffffffffffffffffffffffffffffffffffffff8216835260036020526107c5604084205415156122cd565b73ffffffffffffffffffffffffffffffffffffffff8216835260026020526107f3604084205484549061224b565b421061161857610801612be3565b156115ba57610810848261261c565b61081a848261275f565b6040517f3850c7bd00000000000000000000000000000000000000000000000000000000815260e08160048173ffffffffffffffffffffffffffffffffffffffff7f0000000000000000000000000000000000000000000000000000000000000000165afa908115611015578491611584575b5060020b908060020b8212159182611576575b5073ffffffffffffffffffffffffffffffffffffffff83168452600360205260408420549073ffffffffffffffffffffffffffffffffffffffff7f000000000000000000000000000000000000000000000000000000000000000016916109c26040805161090d816121c2565b8381523060208201526fffffffffffffffffffffffffffffffff828201526fffffffffffffffffffffffffffffffff60608201528151809381927ffc6f78650000000000000000000000000000000000000000000000000000000083526004830191909160606fffffffffffffffffffffffffffffffff8160808401958051855273ffffffffffffffffffffffffffffffffffffffff6020820151166020860152826040820151166040860152015116910152565b03818a885af180156114c757611558575b506040517f99fbab8800000000000000000000000000000000000000000000000000000000815281600482015261018081602481875afa9081156114c757906fffffffffffffffffffffffffffffffff91889161151d575b5016806113d0575b50823b156113cc57604051907f42966c680000000000000000000000000000000000000000000000000000000082526004820152858160248183875af180156113c1576113ad575b5073ffffffffffffffffffffffffffffffffffffffff841685526003602052846040812055610aa86124a8565b939096604051907f70a0823100000000000000000000000000000000000000000000000000000000825230600483015260208260248173ffffffffffffffffffffffffffffffffffffffff8d165afa9182156113a257889261136e575b50604051927f70a0823100000000000000000000000000000000000000000000000000000000845230600485015260208460248173ffffffffffffffffffffffffffffffffffffffff8b165afa9384156110ce57899461133a575b50606435611331577fffffffffffffffffffffffffffffffffffffffffffffffffffffffffffffffff935b60843561132857877fffffffffffffffffffffffffffffffffffffffffffffffffffffffffffffffff5b858d8c8599838111611213575b50505050828111611117575b5050506110d9575b610c01827f00000000000000000000000000000000000000000000000000000000000000008b612982565b610c2c837f000000000000000000000000000000000000000000000000000000000000000088612982565b604051937fddca3f4300000000000000000000000000000000000000000000000000000000855260208560048173ffffffffffffffffffffffffffffffffffffffff7f0000000000000000000000000000000000000000000000000000000000000000165afa9485156110ce57899561108e575b50610384420194854211611061579389989796938b936080979362ffffff610e2f9873ffffffffffffffffffffffffffffffffffffffff60405198610ce48a612176565b16885273ffffffffffffffffffffffffffffffffffffffff8c16602089015216604087015260020b606086015260020b8785015260a084015260c08301528760e083015287610100830152306101208301526101408201526040519788809481937f88316456000000000000000000000000000000000000000000000000000000008352600483019190916101408061016083019473ffffffffffffffffffffffffffffffffffffffff815116845273ffffffffffffffffffffffffffffffffffffffff602082015116602085015262ffffff6040820151166040850152606081015160020b6060850152608081015160020b608085015260a081015160a085015260c081015160c085015260e081015160e085015261010081015161010085015273ffffffffffffffffffffffffffffffffffffffff610120820151166101208501520151910152565b03925af19384156110565783908495611020575b5073ffffffffffffffffffffffffffffffffffffffff83168452600360205260408420556040517f70a0823100000000000000000000000000000000000000000000000000000000815230600482015260208160248173ffffffffffffffffffffffffffffffffffffffff8a165afa908115611015578491610fe3575b50604051907f70a0823100000000000000000000000000000000000000000000000000000000825230600483015260208260248173ffffffffffffffffffffffffffffffffffffffff87165afa918215610fd8578592610f98575b5090602096828573ffffffffffffffffffffffffffffffffffffffff969594610f85575b91505081610f72575b505050168152600283526040429120556fffffffffffffffffffffffffffffffff60405191168152f35b84610f7d9316612b60565b388082610f48565b86610f909316612b60565b388084610f3f565b939291506020843d602011610fd0575b81610fb5602093836121fa565b81010312610fcb57925191929091906020610f1b565b600080fd5b3d9150610fa8565b6040513d87823e3d90fd5b90506020813d60201161100d575b81610ffe602093836121fa565b81010312610fcb575138610ec0565b3d9150610ff1565b6040513d86823e3d90fd5b905061104591945060803d60801161104f575b61103d81836121fa565b8101906122a4565b5050939038610e43565b503d611033565b6040513d85823e3d90fd5b60248a7f4e487b710000000000000000000000000000000000000000000000000000000081526011600452fd5b9094506020813d6020116110c6575b816110aa602093836121fa565b810103126110c2576110bb9061223b565b9338610ca0565b8880fd5b3d915061109d565b6040513d8b823e3d90fd5b8115801561110f575b15610bd6576004887f946b85b1000000000000000000000000000000000000000000000000000000008152fd5b5082156110e2565b826111219161249b565b602073ffffffffffffffffffffffffffffffffffffffff60248d8260405196879485937f70a08231000000000000000000000000000000000000000000000000000000008552166004840152165afa918215611208578c926111d4575b50818111156111cc5750905b81611197575b8890610bce565b6111c49295506111bf82308c73ffffffffffffffffffffffffffffffffffffffff8d166128a5565b61224b565b923880611190565b90509061118a565b9091506020813d602011611200575b816111f0602093836121fa565b81010312610fcb5751903861117e565b3d91506111e3565b6040513d8e823e3d90fd5b83949550602461123c602093949573ffffffffffffffffffffffffffffffffffffffff9361249b565b938260405196879485937f70a08231000000000000000000000000000000000000000000000000000000008552166004840152165afa91821561131b57918f92918f8e96959381936112df575b5050818111156112d75750915b8d836112a4575b9091610bc2565b6112cd9499506111bf91849173ffffffffffffffffffffffffffffffffffffffff3092166128a5565b9438808e8d61129d565b905091611296565b9650509250506020843d602011611313575b816112fe602093836121fa565b81010312610fcb578d8f928d95519138611289565b3d91506112f1565b8e604051903d90823e3d90fd5b87608435610bb5565b60643593610b8b565b9093506020813d602011611366575b81611356602093836121fa565b81010312610fcb57519238610b60565b3d9150611349565b9091506020813d60201161139a575b8161138a602093836121fa565b81010312610fcb57519038610b05565b3d915061137d565b6040513d8a823e3d90fd5b856113ba919692966121fa565b9338610a7b565b6040513d88823e3d90fd5b8580fd5b61038442018042116114f057611476916040918251916113ef836121de565b858352602083019081528383018b9052606083018b81526080840192835284517f0c49ccbe0000000000000000000000000000000000000000000000000000000081528451600482015291516fffffffffffffffffffffffffffffffff166024830152604090930151604482015291516064830152516084820152918290819060a4820190565b03818a885af180156114c7576114d2575b506114986040805161090d816121c2565b03818a885af180156114c75715610a33576114c19060403d6040116106cc576106bc81836121fa565b50610a33565b6040513d89823e3d90fd5b6114ea9060403d6040116106cc576106bc81836121fa565b50611487565b6024887f4e487b710000000000000000000000000000000000000000000000000000000081526011600452fd5b61153f91506101803d8111611551575b61153781836121fa565b810190612361565b50505050965050505050505038610a2b565b503d61152d565b6115709060403d6040116106cc576106bc81836121fa565b506109d3565b600286900b139150386108a0565b6115a6915060e03d60e0116115b3575b61159e81836121fa565b81019061241b565b505050505090503861088d565b503d611594565b60646040517f08c379a000000000000000000000000000000000000000000000000000000000815260206004820152600460248201527f74776170000000000000000000000000000000000000000000000000000000006044820152fd5b60646040517f08c379a000000000000000000000000000000000000000000000000000000000815260206004820152600860248201527f636f6f6c646f776e0000000000000000000000000000000000000000000000006044820152fd5b503461017557807ffffffffffffffffffffffffffffffffffffffffffffffffffffffffffffffffc36011261017557602060015460301c60020b604051908152f35b503461017557807ffffffffffffffffffffffffffffffffffffffffffffffffffffffffffffffffc36011261017557602060015460181c60020b604051908152f35b503461017557807ffffffffffffffffffffffffffffffffffffffffffffffffffffffffffffffffc36011261017557604051907f3850c7bd00000000000000000000000000000000000000000000000000000000825260e08260048173ffffffffffffffffffffffffffffffffffffffff7f0000000000000000000000000000000000000000000000000000000000000000165afa80156117eb5760409282916117c5575b5073ffffffffffffffffffffffffffffffffffffffff83519216825260020b6020820152f35b90506117e0915060e03d60e0116115b35761159e81836121fa565b50505050503861179f565b50604051903d90823e3d90fd5b50346101755760207ffffffffffffffffffffffffffffffffffffffffffffffffffffffffffffffffc3601126101755773ffffffffffffffffffffffffffffffffffffffff6118456120fa565b1681526003602052604081205461185d8115156122cd565b604051907f99fbab8800000000000000000000000000000000000000000000000000000000825260048201526101808160248173ffffffffffffffffffffffffffffffffffffffff7f0000000000000000000000000000000000000000000000000000000000000000165afa80156106d35791606092818091611908575b6fffffffffffffffffffffffffffffffff9293506040519360020b845260020b6020840152166040820152f35b5050506119346fffffffffffffffffffffffffffffffff916101803d81116115515761153781836121fa565b50505050955096955092505050928392506118db565b503461017557807ffffffffffffffffffffffffffffffffffffffffffffffffffffffffffffffffc36011261017557602060405173ffffffffffffffffffffffffffffffffffffffff7f0000000000000000000000000000000000000000000000000000000000000000168152f35b50346101755760607ffffffffffffffffffffffffffffffffffffffffffffffffffffffffffffffffc360112610175576119f16120fa565b906119fa61211d565b91611a0361212d565b73ffffffffffffffffffffffffffffffffffffffff8216908184526003602052604084205461205b57611a36818661261c565b611a40818661275f565b611a486124a8565b95909173ffffffffffffffffffffffffffffffffffffffff831691604051977f70a082310000000000000000000000000000000000000000000000000000000089528560048a0152602089602481875afa9889156113a2578899612027575b5073ffffffffffffffffffffffffffffffffffffffff811694604051917f70a082310000000000000000000000000000000000000000000000000000000083528760048401526020836024818a5afa928315611f5f578a93611ff3575b508a1580158091611fea575b15611f8c578b92611b5a928592611f7b575b82611f6a575b611b557f00000000000000000000000000000000000000000000000000000000000000009e8f8094612982565b612982565b604051937fddca3f4300000000000000000000000000000000000000000000000000000000855260208560048173ffffffffffffffffffffffffffffffffffffffff7f0000000000000000000000000000000000000000000000000000000000000000165afa948515611f5f578a95611f1f575b50610384420193844211611ef2579260809592611d45959273ffffffffffffffffffffffffffffffffffffffff9c9d9562ffffff60405196611c0f88612176565b8b88528c602089015216604087015260020b606086015260020b8785015260a084015260c08301528a60e08301528a6101008301523061012083015261014082015289604051998a809581947f88316456000000000000000000000000000000000000000000000000000000008352600483019190916101408061016083019473ffffffffffffffffffffffffffffffffffffffff815116845273ffffffffffffffffffffffffffffffffffffffff602082015116602085015262ffffff6040820151166040850152606081015160020b6060850152608081015160020b608085015260a081015160a085015260c081015160c085015260e081015160e085015261010081015161010085015273ffffffffffffffffffffffffffffffffffffffff610120820151166101208501520151910152565b0393165af19384156113c15786958795611ec9575b508387526003602052856040882055604051917f70a08231000000000000000000000000000000000000000000000000000000008352306004840152602083602481845afa9283156113a2578893611e91575b50604051927f70a08231000000000000000000000000000000000000000000000000000000008452306004850152602084602481885afa9384156110ce578994611e5c575b50916fffffffffffffffffffffffffffffffff96959391838260409b9795611e4b575b50505081611e3a575b5050508152600260205284429120558351928352166020820152f35b611e4392612b60565b388080611e1e565b611e5492612b60565b388082611e15565b9093506020813d602011611e89575b81611e78602093836121fa565b810103126110c25751926040611df2565b3d9150611e6b565b9092506020813d602011611ec1575b81611ead602093836121fa565b81010312611ebd57519138611dad565b8780fd5b3d9150611ea0565b909450611ee691955060803d60801161104f5761103d81836121fa565b50509490949338611d5a565b60248b7f4e487b710000000000000000000000000000000000000000000000000000000081526011600452fd5b9094506020813d602011611f57575b81611f3b602093836121fa565b81010312611f5357611f4c9061223b565b9338611bce565b8980fd5b3d9150611f2e565b6040513d8c823e3d90fd5b611f7683308e8d6128a5565b611b28565b611f8785308e8c6128a5565b611b22565b60646040517f08c379a000000000000000000000000000000000000000000000000000000000815260206004820152600860248201527f6e6f2066756e64730000000000000000000000000000000000000000000000006044820152fd5b50831515611b10565b9092506020813d60201161201f575b8161200f602093836121fa565b81010312611f5357519138611b04565b3d9150612002565b9098506020813d602011612053575b81612043602093836121fa565b81010312611ebd57519738611aa7565b3d9150612036565b60646040517f08c379a000000000000000000000000000000000000000000000000000000000815260206004820152600e60248201527f616c7265616479206f70656e65640000000000000000000000000000000000006044820152fd5b9050346120f657817ffffffffffffffffffffffffffffffffffffffffffffffffffffffffffffffffc3601126120f65760209060015460020b8152f35b5080fd5b6004359073ffffffffffffffffffffffffffffffffffffffff82168203610fcb57565b602435908160020b8203610fcb57565b604435908160020b8203610fcb57565b34610fcb5760207ffffffffffffffffffffffffffffffffffffffffffffffffffffffffffffffffc360112610fcb576121746120fa565b005b610160810190811067ffffffffffffffff82111761219357604052565b7f4e487b7100000000000000000000000000000000000000000000000000000000600052604160045260246000fd5b6080810190811067ffffffffffffffff82111761219357604052565b60a0810190811067ffffffffffffffff82111761219357604052565b90601f7fffffffffffffffffffffffffffffffffffffffffffffffffffffffffffffffe0910116810190811067ffffffffffffffff82111761219357604052565b519062ffffff82168203610fcb57565b9190820180921161225857565b7f4e487b7100000000000000000000000000000000000000000000000000000000600052601160045260246000fd5b51906fffffffffffffffffffffffffffffffff82168203610fcb57565b9190826080910312610fcb578151916122bf60208201612287565b916060604083015192015190565b156122d457565b60646040517f08c379a000000000000000000000000000000000000000000000000000000000815260206004820152600b60248201527f6e6f20706f736974696f6e0000000000000000000000000000000000000000006044820152fd5b519073ffffffffffffffffffffffffffffffffffffffff82168203610fcb57565b51908160020b8203610fcb57565b919082610180910312610fcb5781516bffffffffffffffffffffffff81168103610fcb579161239260208201612332565b9161239f60408301612332565b916123ac60608201612332565b916123b96080830161223b565b916123c660a08201612353565b916123d360c08301612353565b916123e060e08201612287565b9161010082015191610120810151916124096101606124026101408501612287565b9301612287565b90565b519061ffff82168203610fcb57565b908160e0910312610fcb5761242f81612332565b9161243c60208301612353565b916124496040820161240c565b916124566060830161240c565b916124636080820161240c565b9160a082015160ff81168103610fcb5760c0909201518015158103610fcb5790565b9190826040910312610fcb576020825192015190565b9190820391821161225857565b73ffffffffffffffffffffffffffffffffffffffff7f000000000000000000000000000000000000000000000000000000000000000016906040517f0dfe1681000000000000000000000000000000000000000000000000000000008152602081600481865afa908115612597576000916125a3575b50602060049193604051928380927fd21220a70000000000000000000000000000000000000000000000000000000082525afa90811561259757600091612563575090565b90506020813d60201161258f575b8161257e602093836121fa565b81010312610fcb5761240990612332565b3d9150612571565b6040513d6000823e3d90fd5b90506020813d6020116125da575b816125be602093836121fa565b81010312610fcb5760206125d3600492612332565b915061251e565b3d91506125b1565b9060020b9060020b0390627fffff82137fffffffffffffffffffffffffffffffffffffffffffffffffffffffffff80000083121761225857565b8060020b8260020b13156126c057612633916125e2565b6001549060020b8160020b81121591826126af575b50501561265157565b60646040517f08c379a000000000000000000000000000000000000000000000000000000000815260206004820152600c60248201527f776964746820626f756e647300000000000000000000000000000000000000006044820152fd5b60181c60020b121590503880612648565b60646040517f08c379a000000000000000000000000000000000000000000000000000000000815260206004820152600560248201527f77696474680000000000000000000000000000000000000000000000000000006044820152fd5b9060020b9081156127305760020b0790565b7f4e487b7100000000000000000000000000000000000000000000000000000000600052601260045260246000fd5b604051907fd0c93a7c00000000000000000000000000000000000000000000000000000000825260208260048173ffffffffffffffffffffffffffffffffffffffff7f0000000000000000000000000000000000000000000000000000000000000000165afa91821561259757600092612866575b50816127df9161271e565b60020b159182612851575b5050156127f357565b60646040517f08c379a000000000000000000000000000000000000000000000000000000000815260206004820152600760248201527f73706163696e67000000000000000000000000000000000000000000000000006044820152fd5b61285b925061271e565b60020b1538806127ea565b9091506020813d60201161289d575b81612882602093836121fa565b81010312610fcb576128966127df91612353565b91906127d4565b3d9150612875565b92916020919273ffffffffffffffffffffffffffffffffffffffff60009281604051967f23b872dd000000000000000000000000000000000000000000000000000000008652166004521660245260445260648180865af190600160005114821615612960575b60405260006060521561291c5750565b73ffffffffffffffffffffffffffffffffffffffff907f5274afe7000000000000000000000000000000000000000000000000000000006000521660045260246000fd5b90600181151661297857823b15153d1516169061290c565b503d6000823e3d90fd5b8215612b5b576040517fdd62ed3e00000000000000000000000000000000000000000000000000000000815230600482015273ffffffffffffffffffffffffffffffffffffffff8381166024830152919091169290602081604481875afa90811561259757600091612b29575b50106129f9575050565b612a056000828461354e565b15612adc575b612a367fffffffffffffffffffffffffffffffffffffffffffffffffffffffffffffffff828461354e565b15612a3f575050565b612a4981836135c9565b15612aae577fffffffffffffffffffffffffffffffffffffffffffffffffffffffffffffffff612a799183613654565b15612a815750565b7f5274afe70000000000000000000000000000000000000000000000000000000060005260045260246000fd5b507f5274afe70000000000000000000000000000000000000000000000000000000060005260045260246000fd5b612ae681836135c9565b15612aae57612af760008284613654565b612a0b57507f5274afe70000000000000000000000000000000000000000000000000000000060005260045260246000fd5b90506020813d602011612b53575b81612b44602093836121fa565b81010312610fcb5751386129ef565b3d9150612b37565b505050565b9160209060009073ffffffffffffffffffffffffffffffffffffffff604051947fa9059cbb0000000000000000000000000000000000000000000000000000000084521660045260245260448180865af190600160005114821615612bcb575b6040521561291c5750565b90600181151661297857823b15153d15161690612bc0565b6040517f3850c7bd0000000000000000000000000000000000000000000000000000000081527f000000000000000000000000000000000000000000000000000000000000000073ffffffffffffffffffffffffffffffffffffffff1660e082600481845afa91821561259757600092612fa7575b506001549163ffffffff8360481c16918215612f495760405190612c7d6060836121fa565b600282526020820191604036843784612c9582613502565b526000612ca18261353e565b526040519283917f883bdbfd0000000000000000000000000000000000000000000000000000000083526024830190602060048501525180915260448301919060005b818110612f2a5750505091818060009403915afa90811561259757600091612e10575b50612d1e612d148261353e565b5160060b91613502565b5160060b900391667fffffffffffff83137fffffffffffffffffffffffffffffffffffffffffffffffffff800000000000008412176122585760060b9160060b918015612730577fffffffffffffffffffffffffffffffffffffffffffffffffffffffffffffffff81147fffffffffffffffffffffffffffffffffffffffffffffffffff8000000000000084141661225857612dbe920560020b906125e2565b908160020b60008112612ddc575b5060301c60020b9060020b131590565b9091507fffffffffffffffffffffffffffffffffffffffffffffffffffffffffff8000008114612258576000039038612dcc565b903d8082843e612e2081846121fa565b82019060408383031261017557825167ffffffffffffffff81116120f65783019282601f850112156120f6578351612e57816134ea565b94612e6560405196876121fa565b81865260208087019260051b82010190858211612f2657602001915b818310612f0c5750505060208101519067ffffffffffffffff8211612f08570182601f820112156120f657805191602080612ebb856134ea565b612ec860405191826121fa565b858152019360051b8301019384116101755750602001905b828210612ef05750505038612d07565b60208091612efd84612332565b815201910190612ee0565b8280fd5b82518060060b81036113cc57815260209283019201612e81565b8480fd5b825163ffffffff16845286945060209384019390920191600101612ce4565b60646040517f08c379a000000000000000000000000000000000000000000000000000000000815260206004820152601060248201527f545741505f57494e444f575f5a45524f000000000000000000000000000000006044820152fd5b612fc191925060e03d60e0116115b35761159e81836121fa565b505050505090509038612c58565b9060009073ffffffffffffffffffffffffffffffffffffffff831692838352600360205260408320549384156134e35773ffffffffffffffffffffffffffffffffffffffff7f000000000000000000000000000000000000000000000000000000000000000016946130476040805161090d816121c2565b0381898b5af180156113c1576134c5575b506040517f99fbab88000000000000000000000000000000000000000000000000000000008152816004820152610180816024818a5afa9081156113c157906fffffffffffffffffffffffffffffffff91879161349a575b50169586613296575b859650809594953b15612f26576024859260405198899384927f42966c6800000000000000000000000000000000000000000000000000000000845260048401525af19485156110565773ffffffffffffffffffffffffffffffffffffffff9495613282575b50825260036020528160408120556131356124a8565b9316604051937f70a08231000000000000000000000000000000000000000000000000000000008552306004860152602085602481855afa94851561101557849561323a575b5073ffffffffffffffffffffffffffffffffffffffff16936040517f70a08231000000000000000000000000000000000000000000000000000000008152306004820152602081602481895afa9485156102a65794613206575b5082816131f5575b505050816131ea57505050565b6131f392612b60565b565b6131fe92612b60565b3880826131dd565b9093506020813d602011613232575b81613222602093836121fa565b81010312610fcb575192386131d5565b3d9150613215565b9094506020813d60201161327a575b81613256602093836121fa565b81010312610fcb57519373ffffffffffffffffffffffffffffffffffffffff61317b565b3d9150613249565b8361328f919492946121fa565b913861311f565b610384420180421161346d5760408798613340928299989951916132b9836121de565b868352602083019081528383018a9052606083018a81526080840192835284517f0c49ccbe0000000000000000000000000000000000000000000000000000000081528451600482015291516fffffffffffffffffffffffffffffffff166024830152604090930151604482015291516064830152516084820152918290819060a4820190565b038189865af180156113c15761344f575b5061341760408051613362816121c2565b8481523060208201526fffffffffffffffffffffffffffffffff828201526fffffffffffffffffffffffffffffffff60608201528151809381927ffc6f78650000000000000000000000000000000000000000000000000000000083526004830191909160606fffffffffffffffffffffffffffffffff8160808401958051855273ffffffffffffffffffffffffffffffffffffffff6020820151166020860152826040820151166040860152015116910152565b038189865af180156113c157613431575b509493946130b9565b6134499060403d6040116106cc576106bc81836121fa565b50613428565b6134679060403d6040116106cc576106bc81836121fa565b50613351565b6024877f4e487b710000000000000000000000000000000000000000000000000000000081526011600452fd5b6134b391506101803d81116115515761153781836121fa565b505050509650505050505050386130b0565b6134dd9060403d6040116106cc576106bc81836121fa565b50613058565b5050915050565b67ffffffffffffffff81116121935760051b60200190565b80511561350f5760200190565b7f4e487b7100000000000000000000000000000000000000000000000000000000600052603260045260246000fd5b80516001101561350f5760400190565b92919260009373ffffffffffffffffffffffffffffffffffffffff604051937f095ea7b30000000000000000000000000000000000000000000000000000000087521660045260245260208460448180855af19360018151148516156135b6575b5050604052565b939193503b15153d1516169138806135af565b919073ffffffffffffffffffffffffffffffffffffffff604051917f095ea7b3000000000000000000000000000000000000000000000000000000006000521660045260006024526020600060448180875af192600160005114841615613631575b50604052565b6001849294151661364a573b15153d151616913861362b565b833d6000823e3d90fd5b929173ffffffffffffffffffffffffffffffffffffffff604051927f095ea7b300000000000000000000000000000000000000000000000000000000600052166004526024526020600060448180875af192600160005114841615613631575060405256fea2646970667358221220c72b9c80987b057b5500c9c66bdcbbd6ca483b408fed3360ba01885f4e63c82464736f6c634300081e0033","linkReferences":{}},"methodIdentifiers":{"claimRewards(address)":"ef5cfb8c","collectToVault(address)":"762100e7","currentRange(address)":"270d3136","currentTokenId(address)":"86ff5c4b","exitPositionToVault(address)":"b0217240","gauge()":"a6f19c84","lastRebalance(address)":"fdd0fd2d","maxTwapDeviationTicks()":"616ea557","maxWidth()":"6006ecc8","minCooldown()":"d6e8b9f3","minWidth()":"035229cf","nfpm()":"7303e913","openInitialPosition(address,int24,int24)":"109162ef","pool()":"16f0115b","rebalanceWithCaps(address,int24,int24,uint256,uint256)":"6783ac17","slot0()":"3850c7bd","stakePosition(address)":"e4010503","tickSpacing()":"d0c93a7c","tokens()":"9d63848a","twapOk()":"c4f97bfb","twapWindow()":"8107e133","unstakePosition(address)":"dcfc070b"},"id":57}