{"abi":[{"type":"constructor","inputs":[{"name":"_nfpm","type":"address","internalType":"address"}],"stateMutability":"nonpayable"},{"type":"function","name":"collectFees","inputs":[],"outputs":[{"name":"fees0","type":"uint256","internalType":"uint256"},{"name":"fees1","type":"uint256","internalType":"uint256"}],"stateMutability":"nonpayable"},{"type":"function","name":"currentRange","inputs":[],"outputs":[{"name":"lower","type":"int24","internalType":"int24"},{"name":"upper","type":"int24","internalType":"int24"},{"name":"liquidity","type":"uint128","internalType":"uint128"}],"stateMutability":"view"},{"type":"function","name":"exitAndWithdrawAll","inputs":[],"outputs":[],"stateMutability":"nonpayable"},{"type":"function","name":"exitPositionToVault","inputs":[],"outputs":[],"stateMutability":"nonpayable"},{"type":"function","name":"lastRebalance","inputs":[],"outputs":[{"name":"","type":"uint256","internalType":"uint256"}],"stateMutability":"view"},{"type":"function","name":"maxTwapDeviationTicks","inputs":[],"outputs":[{"name":"","type":"int24","internalType":"int24"}],"stateMutability":"view"},{"type":"function","name":"maxWidth","inputs":[],"outputs":[{"name":"","type":"int24","internalType":"int24"}],"stateMutability":"view"},{"type":"function","name":"minCooldown","inputs":[],"outputs":[{"name":"","type":"uint256","internalType":"uint256"}],"stateMutability":"view"},{"type":"function","name":"minWidth","inputs":[],"outputs":[{"name":"","type":"int24","internalType":"int24"}],"stateMutability":"view"},{"type":"function","name":"nfpm","inputs":[],"outputs":[{"name":"","type":"address","internalType":"address"}],"stateMutability":"view"},{"type":"function","name":"openInitialPosition","inputs":[{"name":"lower","type":"int24","internalType":"int24"},{"name":"upper","type":"int24","internalType":"int24"}],"outputs":[],"stateMutability":"nonpayable"},{"type":"function","name":"owner","inputs":[],"outputs":[{"name":"","type":"address","internalType":"address"}],"stateMutability":"view"},{"type":"function","name":"pendingTokensOwed","inputs":[],"outputs":[{"name":"owed0","type":"uint128","internalType":"uint128"},{"name":"owed1","type":"uint128","internalType":"uint128"}],"stateMutability":"view"},{"type":"function","name":"pool","inputs":[],"outputs":[{"name":"","type":"address","internalType":"address"}],"stateMutability":"view"},{"type":"function","name":"positionTokenId","inputs":[],"outputs":[{"name":"","type":"uint256","internalType":"uint256"}],"stateMutability":"view"},{"type":"function","name":"rebalance","inputs":[{"name":"lower","type":"int24","internalType":"int24"},{"name":"upper","type":"int24","internalType":"int24"}],"outputs":[],"stateMutability":"nonpayable"},{"type":"function","name":"rebalanceWithCaps","inputs":[{"name":"lower","type":"int24","internalType":"int24"},{"name":"upper","type":"int24","internalType":"int24"},{"name":"maxUse0","type":"uint256","internalType":"uint256"},{"name":"maxUse1","type":"uint256","internalType":"uint256"}],"outputs":[],"stateMutability":"nonpayable"},{"type":"function","name":"setPoolByFactory","inputs":[{"name":"tokenA","type":"address","internalType":"address"},{"name":"tokenB","type":"address","internalType":"address"},{"name":"fee","type":"uint24","internalType":"uint24"}],"outputs":[],"stateMutability":"nonpayable"},{"type":"function","name":"setPoolOnce","inputs":[{"name":"pool_","type":"address","internalType":"address"}],"outputs":[],"stateMutability":"nonpayable"},{"type":"function","name":"tokens","inputs":[],"outputs":[{"name":"token0","type":"address","internalType":"address"},{"name":"token1","type":"address","internalType":"address"},{"name":"fee","type":"uint24","internalType":"uint24"}],"stateMutability":"view"},{"type":"function","name":"twapOk","inputs":[],"outputs":[{"name":"","type":"bool","internalType":"bool"}],"stateMutability":"view"},{"type":"function","name":"twapWindow","inputs":[],"outputs":[{"name":"","type":"uint32","internalType":"uint32"}],"stateMutability":"view"},{"type":"function","name":"withdrawAll","inputs":[],"outputs":[],"stateMutability":"nonpayable"},{"type":"event","name":"Collected","inputs":[{"name":"fees0","type":"uint256","indexed":false,"internalType":"uint256"},{"name":"fees1","type":"uint256","indexed":false,"internalType":"uint256"}],"anonymous":false},{"type":"event","name":"Exited","inputs":[{"name":"tokenId","type":"uint256","indexed":false,"internalType":"uint256"},{"name":"sent0","type":"uint256","indexed":false,"internalType":"uint256"},{"name":"sent1","type":"uint256","indexed":false,"internalType":"uint256"}],"anonymous":false},{"type":"event","name":"Opened","inputs":[{"name":"tokenId","type":"uint256","indexed":true,"internalType":"uint256"},{"name":"lower","type":"int24","indexed":false,"internalType":"int24"},{"name":"upper","type":"int24","indexed":false,"internalType":"int24"}],"anonymous":false},{"type":"event","name":"PoolSet","inputs":[{"name":"pool","type":"address","indexed":true,"internalType":"address"}],"anonymous":false},{"type":"event","name":"Rebalanced","inputs":[{"name":"tokenId","type":"uint256","indexed":true,"internalType":"uint256"},{"name":"lower","type":"int24","indexed":false,"internalType":"int24"},{"name":"upper","type":"int24","indexed":false,"internalType":"int24"},{"name":"fees0","type":"uint256","indexed":false,"internalType":"uint256"},{"name":"fees1","type":"uint256","indexed":false,"internalType":"uint256"}],"anonymous":false},{"type":"event","name":"Withdrawn","inputs":[{"name":"amount0","type":"uint256","indexed":false,"internalType":"uint256"},{"name":"amount1","type":"uint256","indexed":false,"internalType":"uint256"}],"anonymous":false},{"type":"error","name":"CooldownNotPassed","inputs":[]},{"type":"error","name":"InvalidFactory","inputs":[]},{"type":"error","name":"InvalidTickSpacing","inputs":[]},{"type":"error","name":"InvalidWidth","inputs":[]},{"type":"error","name":"NotOwner","inputs":[]},{"type":"error","name":"PoolAlreadySet","inputs":[]},{"type":"error","name":"PoolNotSet","inputs":[]},{"type":"error","name":"PositionAlreadyOpened","inputs":[]},{"type":"error","name":"PositionNotInitialized","inputs":[]},{"type":"error","name":"ReentrancyGuardReentrantCall","inputs":[]},{"type":"error","name":"SafeERC20FailedOperation","inputs":[{"name":"token","type":"address","internalType":"address"}]},{"type":"error","name":"TwapDeviationTooHigh","inputs":[]},{"type":"error","name":"ZeroAddress","inputs":[]}],"bytecode":{"object":"0x60a03461011a57601f613c9138819003918201601f19168301916001600160401b0383118484101761011f5780849260209460405283398101031261011a57516001600160a01b03811680820361011a5760017f9b779b17422d0df92223018b32b4d1fa46e071723d6817e2486d003becc55f0055156101095760008054336001600160a01b0319909116179055608052610708600355600480546001600160681b031916693c000032030d4000003c179055604051613b5b9081610136823960805181818161019f01528181610558015281816107130152818161087c01528181610c180152818161114e01528181611a9801528181611ddc01528181611fcd0152612e310152f35b63d92e233d60e01b60005260046000fd5b600080fd5b634e487b7160e01b600052604160045260246000fdfe608080604052600436101561001357600080fd5b600090813560e01c908163035229cf146124e457508063106b9ca1146124a857806316f0115b14612456578063393ed07514611e845780636006ecc814611e42578063616ea55714611e005780637303e91314611d915780637ba45d5914611ced5780637f8f878f146119895780638107e13314611944578063824518de1461108d578063853828b6146110305780638da5cb5b14610fdf5780639d63848a14610f67578063a04cedd514610aa4578063abc5d5fa146107a7578063bcb3880714610690578063c4f97bfb1461064d578063c8796572146103fc578063ceefe5d1146103c0578063d5a3055f146102c4578063d6e8b9f3146102885763dea92c6e1461011e57600080fd5b3461028557807ffffffffffffffffffffffffffffffffffffffffffffffffffffffffffffffffc36011261028557600254801561025d57604051907f99fbab8800000000000000000000000000000000000000000000000000000000825260048201526101808160248173ffffffffffffffffffffffffffffffffffffffff7f0000000000000000000000000000000000000000000000000000000000000000165afa80156102525791606092818091610200575b6fffffffffffffffffffffffffffffffff9293506040519360020b845260020b6020840152166040820152f35b5050506102356fffffffffffffffffffffffffffffffff916101803d811161024b575b61022d81836125ec565b81019061269f565b50505050955096955092505050928392506101d3565b503d610223565b6040513d84823e3d90fd5b6004827fe45b643c000000000000000000000000000000000000000000000000000000008152fd5b80fd5b503461028557807ffffffffffffffffffffffffffffffffffffffffffffffffffffffffffffffffc360112610285576020600354604051908152f35b503461028557807ffffffffffffffffffffffffffffffffffffffffffffffffffffffffffffffffc3601126102855773ffffffffffffffffffffffffffffffffffffffff81541633036103985773ffffffffffffffffffffffffffffffffffffffff6001541615610370576103376127af565b61033f612e06565b5050610349613209565b60017f9b779b17422d0df92223018b32b4d1fa46e071723d6817e2486d003becc55f005580f35b807f3c6758630000000000000000000000000000000000000000000000000000000060049252fd5b807f30cd74710000000000000000000000000000000000000000000000000000000060049252fd5b503461028557807ffffffffffffffffffffffffffffffffffffffffffffffffffffffffffffffffc360112610285576020600254604051908152f35b503461028557807ffffffffffffffffffffffffffffffffffffffffffffffffffffffffffffffffc3601126102855773ffffffffffffffffffffffffffffffffffffffff81541633036103985773ffffffffffffffffffffffffffffffffffffffff60015416156103705761046f6127af565b600254908115610625576040805161053e9361048a82612568565b81523060208201526fffffffffffffffffffffffffffffffff828201526fffffffffffffffffffffffffffffffff60608201528151809481927ffc6f78650000000000000000000000000000000000000000000000000000000083526004830191909160606fffffffffffffffffffffffffffffffff8160808401958051855273ffffffffffffffffffffffffffffffffffffffff6020820151166020860152826040820151166040860152015116910152565b03818473ffffffffffffffffffffffffffffffffffffffff7f0000000000000000000000000000000000000000000000000000000000000000165af180156106185760409282916105e9575b507f099830bf72bfd4281b6dd74da06794aabc4a2fc97ed1e35c125293c6a2dccd00838051848152836020820152a160017f9b779b17422d0df92223018b32b4d1fa46e071723d6817e2486d003becc55f005582519182526020820152f35b905061060b9150823d8411610611575b61060381836125ec565b81019061262d565b3861058a565b503d6105f9565b50604051903d90823e3d90fd5b807fe45b643c0000000000000000000000000000000000000000000000000000000060049252fd5b503461028557807ffffffffffffffffffffffffffffffffffffffffffffffffffffffffffffffffc36011261028557602061068661342e565b6040519015158152f35b503461028557807ffffffffffffffffffffffffffffffffffffffffffffffffffffffffffffffffc3601126102855760025490811561062557604051917f99fbab8800000000000000000000000000000000000000000000000000000000835260048301526101808260248173ffffffffffffffffffffffffffffffffffffffff7f0000000000000000000000000000000000000000000000000000000000000000165afa8015610618576040928291610767575b506fffffffffffffffffffffffffffffffff9081845193168352166020820152f35b6fffffffffffffffffffffffffffffffff925061079391506101803d811161024b5761022d81836125ec565b9b9a50985050505050505050509190610745565b50346102855760207ffffffffffffffffffffffffffffffffffffffffffffffffffffffffffffffffc360112610285576107df612545565b73ffffffffffffffffffffffffffffffffffffffff8254163303610a7c576001549073ffffffffffffffffffffffffffffffffffffffff8216610a545773ffffffffffffffffffffffffffffffffffffffff16908115610a2c576040517fc45a015500000000000000000000000000000000000000000000000000000000815260208160048173ffffffffffffffffffffffffffffffffffffffff7f0000000000000000000000000000000000000000000000000000000000000000165afa908115610a215784916109e3575b50604051907fc45a0155000000000000000000000000000000000000000000000000000000008252602082600481875afa9182156109d8578592610981575b5073ffffffffffffffffffffffffffffffffffffffff809116911603610959577fffffffffffffffffffffffff00000000000000000000000000000000000000001681176001557f025f89b99c8ce32af8da7624f4575b920a86ebf07870d85a9fb545fee349ddce8280a280f35b6004837f7a44db95000000000000000000000000000000000000000000000000000000008152fd5b9091506020813d6020116109d0575b8161099d602093836125ec565b810103126109cc5773ffffffffffffffffffffffffffffffffffffffff6109c48192612643565b9291506108eb565b8480fd5b3d9150610990565b6040513d87823e3d90fd5b90506020813d602011610a19575b816109fe602093836125ec565b81010312610a1557610a0f90612643565b386108ac565b8380fd5b3d91506109f1565b6040513d86823e3d90fd5b6004837fd92e233d000000000000000000000000000000000000000000000000000000008152fd5b6004837f5f801a3e000000000000000000000000000000000000000000000000000000008152fd5b6004827f30cd7471000000000000000000000000000000000000000000000000000000008152fd5b50346102855760407ffffffffffffffffffffffffffffffffffffffffffffffffffffffffffffffffc36011261028557610adc612525565b610ae4612535565b9173ffffffffffffffffffffffffffffffffffffffff81541633036103985773ffffffffffffffffffffffffffffffffffffffff600154161561037057610b296127af565b600254610f3f57610b3a83836128a3565b610b448383612952565b610b4c612a8f565b73ffffffffffffffffffffffffffffffffffffffff8396931691604051957f70a08231000000000000000000000000000000000000000000000000000000008752306004880152602087602481875afa968715610f34578697610f00575b5073ffffffffffffffffffffffffffffffffffffffff821692604051987f70a08231000000000000000000000000000000000000000000000000000000008a523060048b015260208a602481885afa938415610ef557899a899a989995610eb4575b50610c45918591610c407f00000000000000000000000000000000000000000000000000000000000000009d8e8094612c18565b612c18565b610384420193844211610e8757926080959262ffffff610dbd969373ffffffffffffffffffffffffffffffffffffffff9b9c9660405196610c85886125cf565b8752602087015216604085015260020b9788606085015260020b96878785015260a084015260c08301528860e08301528861010083015230610120830152610140820152876040519788809581947f88316456000000000000000000000000000000000000000000000000000000008352600483019190916101408061016083019473ffffffffffffffffffffffffffffffffffffffff815116845273ffffffffffffffffffffffffffffffffffffffff602082015116602085015262ffffff6040820151166040850152606081015160020b6060850152608081015160020b608085015260a081015160a085015260c081015160c085015260e081015160e085015261010081015161010085015273ffffffffffffffffffffffffffffffffffffffff610120820151166101208501520151910152565b0393165af1928315610a21578493610e2c575b507f47450e73d75b6f501c904042af508ac12f0f1f7da786109f7664b05bf47e9d38916040918460025582519182526020820152a260017f9b779b17422d0df92223018b32b4d1fa46e071723d6817e2486d003becc55f005580f35b604091935091610e747f47450e73d75b6f501c904042af508ac12f0f1f7da786109f7664b05bf47e9d389360803d608011610e80575b610e6c81836125ec565b810190612786565b50505093915091610dd0565b503d610e62565b6024897f4e487b710000000000000000000000000000000000000000000000000000000081526011600452fd5b91945096506020813d602011610eed575b81610ed2602093836125ec565b81010312610ee8578996610c4591519491610c0c565b600080fd5b3d9150610ec5565b6040513d8a823e3d90fd5b9096506020813d602011610f2c575b81610f1c602093836125ec565b81010312610ee857519538610baa565b3d9150610f0f565b6040513d88823e3d90fd5b807f53cbc49e0000000000000000000000000000000000000000000000000000000060049252fd5b503461028557807ffffffffffffffffffffffffffffffffffffffffffffffffffffffffffffffffc36011261028557610fdb610fa1612a8f565b6040805173ffffffffffffffffffffffffffffffffffffffff948516815293909216602084015262ffffff16908201529081906060820190565b0390f35b503461028557807ffffffffffffffffffffffffffffffffffffffffffffffffffffffffffffffffc3601126102855773ffffffffffffffffffffffffffffffffffffffff6020915416604051908152f35b503461028557807ffffffffffffffffffffffffffffffffffffffffffffffffffffffffffffffffc3601126102855773ffffffffffffffffffffffffffffffffffffffff8154163303610398576110856127af565b610349613209565b50346102855760807ffffffffffffffffffffffffffffffffffffffffffffffffffffffffffffffffc360112610285576110c5612525565b6110cd612535565b6044359160643573ffffffffffffffffffffffffffffffffffffffff855416330361191c5773ffffffffffffffffffffffffffffffffffffffff60015416156118f4576111186127af565b6002549081156118cc57906112479161112f612828565b61113985856128a3565b6111438585612952565b61114b612a56565b867f0000000000000000000000000000000000000000000000000000000000000000604073ffffffffffffffffffffffffffffffffffffffff82169481519061119382612568565b81523060208201526fffffffffffffffffffffffffffffffff828201526fffffffffffffffffffffffffffffffff60608201528151809781927ffc6f78650000000000000000000000000000000000000000000000000000000083526004830191909160606fffffffffffffffffffffffffffffffff8160808401958051855273ffffffffffffffffffffffffffffffffffffffff6020820151166020860152826040820151166040860152015116910152565b038185885af197881561025257829583996118a5575b50859880966002546040517f99fbab88000000000000000000000000000000000000000000000000000000008152816004820152610180816024818c5afa801561189a576fffffffffffffffffffffffffffffffff91889161186f575b50168061171e575b50505050600254853b15610a1557604051907f42966c6800000000000000000000000000000000000000000000000000000000825260048201528381602481838a5af1908115610a21578491611705575b5060025561131f612a8f565b90929173ffffffffffffffffffffffffffffffffffffffff811696604051947f70a082310000000000000000000000000000000000000000000000000000000086523060048701526020866024818c5afa958615610ef55788966116ce575b5073ffffffffffffffffffffffffffffffffffffffff811697604051927f70a082310000000000000000000000000000000000000000000000000000000084523060048501526020846024818d5afa9687156102525789948398611687575b5090829161140d979899610c40945080821060001461167d57509889925b50808210156116735750988995612c18565b61038442019384421161164657926080959262ffffff61157096938e9c9b9a99966040519661143b886125cf565b875260208701521660408501528860020b60608501528960020b8785015260a084015260c08301528860e083015288610100830152306101208301526101408201526040519788809481937f88316456000000000000000000000000000000000000000000000000000000008352600483019190916101408061016083019473ffffffffffffffffffffffffffffffffffffffff815116845273ffffffffffffffffffffffffffffffffffffffff602082015116602085015262ffffff6040820151166040850152606081015160020b6060850152608081015160020b608085015260a081015160a085015260c081015160c085015260e081015160e085015261010081015161010085015273ffffffffffffffffffffffffffffffffffffffff610120820151166101208501520151910152565b03925af1938415610f345786946115fc575b506002848155426005556040805193820b845293900b6020830152918101939093526060830152907fcfb2eda3998333200346b970563885b00c612e68348e3b7048b473a24e44d3c89080608081015b0390a260017f9b779b17422d0df92223018b32b4d1fa46e071723d6817e2486d003becc55f005580f35b7fcfb2eda3998333200346b970563885b00c612e68348e3b7048b473a24e44d3c894509061163b6115d29260803d608011610e8057610e6c81836125ec565b505050945090611582565b60248c7f4e487b710000000000000000000000000000000000000000000000000000000081526011600452fd5b9050988995612c18565b90509889926113fb565b925093509495506020813d6020116116c6575b816116a7602093836125ec565b81010312610ee8578f61140d958994610c4093519897509091926113dd565b3d915061169a565b975094506020873d6020116116fd575b816116eb602093836125ec565b81010312610ee8578d9651943861137e565b3d91506116de565b8161170f916125ec565b61171a578238611313565b8280fd5b929b50929750929350610384420190814211611646576117d1928c95949260409283519261174b846125b3565b835260208301908152838301889052606083018881526080840192835284517f0c49ccbe0000000000000000000000000000000000000000000000000000000081528451600482015291516fffffffffffffffffffffffffffffffff166024830152604090930151604482015291516064830152516084820152928390819060a4820190565b0381878a5af1918215610a21576117f992611851575b50604060025481519061048a82612568565b0381878a5af18015610a2157611823928590869261182d575b5061181d919261274a565b9961274a565b94388080806112c2565b61181d925061184b915060403d6040116106115761060381836125ec565b91611812565b6118699060403d6040116106115761060381836125ec565b506117e7565b61188891506101803d811161024b5761022d81836125ec565b505050509650505050505050386112ba565b6040513d89823e3d90fd5b9098506118c291955060403d6040116106115761060381836125ec565b949094973861125d565b6004867fe45b643c000000000000000000000000000000000000000000000000000000008152fd5b6004857f3c675863000000000000000000000000000000000000000000000000000000008152fd5b6004857f30cd7471000000000000000000000000000000000000000000000000000000008152fd5b503461028557807ffffffffffffffffffffffffffffffffffffffffffffffffffffffffffffffffc36011261028557602063ffffffff60045460481c16604051908152f35b50346102855760607ffffffffffffffffffffffffffffffffffffffffffffffffffffffffffffffffc360112610285576119c1612545565b60243573ffffffffffffffffffffffffffffffffffffffff811691828203610a15576044359162ffffff831683036109cc5773ffffffffffffffffffffffffffffffffffffffff855416330361191c576001549373ffffffffffffffffffffffffffffffffffffffff8516611cc55773ffffffffffffffffffffffffffffffffffffffff831615908115611cbc575b50611c94576040517fc45a015500000000000000000000000000000000000000000000000000000000815260208160048173ffffffffffffffffffffffffffffffffffffffff7f0000000000000000000000000000000000000000000000000000000000000000165afa8015610f34578690611c43575b73ffffffffffffffffffffffffffffffffffffffff915016918215611c1b576040517f1698ee8200000000000000000000000000000000000000000000000000000000815273ffffffffffffffffffffffffffffffffffffffff91821660048201529116602482015262ffffff929092166044830152602090829060649082905afa8015611c10578390611bc3575b73ffffffffffffffffffffffffffffffffffffffff915016908115610959577fffffffffffffffffffffffff00000000000000000000000000000000000000001681176001557f025f89b99c8ce32af8da7624f4575b920a86ebf07870d85a9fb545fee349ddce8280a280f35b506020813d602011611c08575b81611bdd602093836125ec565b8101031261171a57611c0373ffffffffffffffffffffffffffffffffffffffff91612643565b611b56565b3d9150611bd0565b6040513d85823e3d90fd5b6004867f7a44db95000000000000000000000000000000000000000000000000000000008152fd5b506020813d602011611c8c575b81611c5d602093836125ec565b81010312611c8857611c8373ffffffffffffffffffffffffffffffffffffffff91612643565b611ac7565b8580fd5b3d9150611c50565b6004857fd92e233d000000000000000000000000000000000000000000000000000000008152fd5b90501538611a50565b6004867f5f801a3e000000000000000000000000000000000000000000000000000000008152fd5b503461028557807ffffffffffffffffffffffffffffffffffffffffffffffffffffffffffffffffc3601126102855773ffffffffffffffffffffffffffffffffffffffff81541633036103985773ffffffffffffffffffffffffffffffffffffffff600154161561037057611d606127af565b611d68612e06565b505060017f9b779b17422d0df92223018b32b4d1fa46e071723d6817e2486d003becc55f005580f35b503461028557807ffffffffffffffffffffffffffffffffffffffffffffffffffffffffffffffffc36011261028557602060405173ffffffffffffffffffffffffffffffffffffffff7f0000000000000000000000000000000000000000000000000000000000000000168152f35b503461028557807ffffffffffffffffffffffffffffffffffffffffffffffffffffffffffffffffc36011261028557602060045460301c60020b604051908152f35b503461028557807ffffffffffffffffffffffffffffffffffffffffffffffffffffffffffffffffc36011261028557602060045460181c60020b604051908152f35b50346102855760407ffffffffffffffffffffffffffffffffffffffffffffffffffffffffffffffffc36011261028557611ebc612525565b611ec4612535565b73ffffffffffffffffffffffffffffffffffffffff835416330361242e5773ffffffffffffffffffffffffffffffffffffffff600154161561240657611f086127af565b6002549182156123de57611f1a612828565b611f2482826128a3565b611f2e8282612952565b611f36612a56565b60405192611f4384612568565b835230602084019081526fffffffffffffffffffffffffffffffff60408086018281526060870183815282517ffc6f786500000000000000000000000000000000000000000000000000000000815297516004890152935173ffffffffffffffffffffffffffffffffffffffff9081166024890152905183166044880152925190911660648601527f000000000000000000000000000000000000000000000000000000000000000094918516908260848189855af1948515610f3457869287966123b7575b50829580936002546040517f99fbab8800000000000000000000000000000000000000000000000000000000815281600482015261018081602481895afa80156123ac576fffffffffffffffffffffffffffffffff918c91612381575b501680612226575b50505050600254823b1561222257604051907f42966c680000000000000000000000000000000000000000000000000000000082526004820152878160248183875af18015610ef55761220e575b50866120c6612a8f565b73ffffffffffffffffffffffffffffffffffffffff8394931694604051927f70a082310000000000000000000000000000000000000000000000000000000084523060048501526020846024818a5afa9384156109d85785946121d7575b5073ffffffffffffffffffffffffffffffffffffffff8116956040517f70a082310000000000000000000000000000000000000000000000000000000081523060048201526020816024818b5afa9687156121cb5796612191575b50918591610c40868361140d96612c18565b90919295506020813d6020116121c3575b816121af602093836125ec565b81010312610ee8575194919061140d61217f565b3d91506121a2565b604051903d90823e3d90fd5b945092506020843d602011612206575b816121f4602093836125ec565b81010312610ee8578b93519238612124565b3d91506121e7565b8761221b919892986125ec565b95386120bc565b8780fd5b9193955091975061038442019081421161235457916040916122d5949383519261224f846125b3565b8352602083019081528383018c9052606083018c81526080840192835284517f0c49ccbe0000000000000000000000000000000000000000000000000000000081528451600482015291516fffffffffffffffffffffffffffffffff166024830152604090930151604482015291516064830152516084820152928390819060a4820190565b03818b875af1918215610ef5576122fc926118515750604060025481519061048a82612568565b03818b875af18015610ef5576123269289908a92612330575b50612320919261274a565b9661274a565b913880808061206e565b612320925061234e915060403d6040116106115761060381836125ec565b91612315565b60248a7f4e487b710000000000000000000000000000000000000000000000000000000081526011600452fd5b61239a91506101803d811161024b5761022d81836125ec565b50505050965050505050505038612066565b6040513d8d823e3d90fd5b9095506123d491925060403d6040116106115761060381836125ec565b9190919438612009565b6004847fe45b643c000000000000000000000000000000000000000000000000000000008152fd5b6004837f3c675863000000000000000000000000000000000000000000000000000000008152fd5b6004837f30cd7471000000000000000000000000000000000000000000000000000000008152fd5b503461028557807ffffffffffffffffffffffffffffffffffffffffffffffffffffffffffffffffc36011261028557602073ffffffffffffffffffffffffffffffffffffffff60015416604051908152f35b503461028557807ffffffffffffffffffffffffffffffffffffffffffffffffffffffffffffffffc360112610285576020600554604051908152f35b90503461252157817ffffffffffffffffffffffffffffffffffffffffffffffffffffffffffffffffc3601126125215760209060045460020b8152f35b5080fd5b600435908160020b8203610ee857565b602435908160020b8203610ee857565b6004359073ffffffffffffffffffffffffffffffffffffffff82168203610ee857565b6080810190811067ffffffffffffffff82111761258457604052565b7f4e487b7100000000000000000000000000000000000000000000000000000000600052604160045260246000fd5b60a0810190811067ffffffffffffffff82111761258457604052565b610160810190811067ffffffffffffffff82111761258457604052565b90601f7fffffffffffffffffffffffffffffffffffffffffffffffffffffffffffffffe0910116810190811067ffffffffffffffff82111761258457604052565b9190826040910312610ee8576020825192015190565b519073ffffffffffffffffffffffffffffffffffffffff82168203610ee857565b519062ffffff82168203610ee857565b51908160020b8203610ee857565b51906fffffffffffffffffffffffffffffffff82168203610ee857565b919082610180910312610ee85781516bffffffffffffffffffffffff81168103610ee857916126d060208201612643565b916126dd60408301612643565b916126ea60608201612643565b916126f760808301612664565b9161270460a08201612674565b9161271160c08301612674565b9161271e60e08201612682565b9161010082015191610120810151916127476101606127406101408501612682565b9301612682565b90565b9190820180921161275757565b7f4e487b7100000000000000000000000000000000000000000000000000000000600052601160045260246000fd5b9190826080910312610ee8578151916127a160208201612682565b916060604083015192015190565b60027f9b779b17422d0df92223018b32b4d1fa46e071723d6817e2486d003becc55f0054146127fe5760027f9b779b17422d0df92223018b32b4d1fa46e071723d6817e2486d003becc55f0055565b7f3ee5aeb50000000000000000000000000000000000000000000000000000000060005260046000fd5b6128376005546003549061274a565b421061283f57565b7f9e4949940000000000000000000000000000000000000000000000000000000060005260046000fd5b9060020b9060020b0390627fffff82137fffffffffffffffffffffffffffffffffffffffffffffffffffffffffff80000083121761275757565b8060020b8260020b13156128d7576128ba91612869565b6004549060020b8160020b8112918215612901575b50506128d757565b7fa23c95450000000000000000000000000000000000000000000000000000000060005260046000fd5b60181c60020b12905038806128cf565b9060020b9081156129235760020b0790565b7f4e487b7100000000000000000000000000000000000000000000000000000000600052601260045260246000fd5b600490602073ffffffffffffffffffffffffffffffffffffffff60015416604051938480927fd0c93a7c0000000000000000000000000000000000000000000000000000000082525afa918215612a4a57600092612a0b575b50816129b691612911565b60020b15918215926129f5575b50506129cb57565b7f270815a00000000000000000000000000000000000000000000000000000000060005260046000fd5b6129ff9250612911565b60020b151538806129c3565b9091506020813d602011612a42575b81612a27602093836125ec565b81010312610ee857612a3b6129b691612674565b91906129ab565b3d9150612a1a565b6040513d6000823e3d90fd5b612a5e61342e565b15612a6557565b7fcf5a84640000000000000000000000000000000000000000000000000000000060005260046000fd5b73ffffffffffffffffffffffffffffffffffffffff600154166040517f0dfe1681000000000000000000000000000000000000000000000000000000008152602081600481855afa908115612a4a57600091612bde575b50916040517fd21220a7000000000000000000000000000000000000000000000000000000008152602081600481865afa908115612a4a57600091612b9f575b50602060049193604051928380927fddca3f430000000000000000000000000000000000000000000000000000000082525afa908115612a4a57600091612b6b575090565b90506020813d602011612b97575b81612b86602093836125ec565b81010312610ee85761274790612664565b3d9150612b79565b90506020813d602011612bd6575b81612bba602093836125ec565b81010312610ee8576020612bcf600492612643565b9150612b26565b3d9150612bad565b90506020813d602011612c10575b81612bf9602093836125ec565b81010312610ee857612c0a90612643565b38612ae6565b3d9150612bec565b8215612e015773ffffffffffffffffffffffffffffffffffffffff16916040517fdd62ed3e00000000000000000000000000000000000000000000000000000000815230600482015273ffffffffffffffffffffffffffffffffffffffff83166024820152602081604481875afa908115612a4a57600091612dcf575b5010612c9f575050565b612cab600082846139ba565b15612d82575b612cdc7fffffffffffffffffffffffffffffffffffffffffffffffffffffffffffffffff82846139ba565b15612ce5575050565b612cef8183613a35565b15612d54577fffffffffffffffffffffffffffffffffffffffffffffffffffffffffffffffff612d1f9183613ac0565b15612d275750565b7f5274afe70000000000000000000000000000000000000000000000000000000060005260045260246000fd5b507f5274afe70000000000000000000000000000000000000000000000000000000060005260045260246000fd5b612d8c8183613a35565b15612d5457612d9d60008284613ac0565b612cb157507f5274afe70000000000000000000000000000000000000000000000000000000060005260045260246000fd5b90506020813d602011612df9575b81612dea602093836125ec565b81010312610ee8575138612c95565b3d9150612ddd565b505050565b6002549060009180156131e15791612f1292604073ffffffffffffffffffffffffffffffffffffffff7f00000000000000000000000000000000000000000000000000000000000000001691815190612e5e82612568565b81523060208201526fffffffffffffffffffffffffffffffff828201526fffffffffffffffffffffffffffffffff60608201528151809681927ffc6f78650000000000000000000000000000000000000000000000000000000083526004830191909160606fffffffffffffffffffffffffffffffff8160808401958051855273ffffffffffffffffffffffffffffffffffffffff6020820151166020860152826040820151166040860152015116910152565b038185855af19182156121cb57809481936131ba575b50849280956002546040517f99fbab8800000000000000000000000000000000000000000000000000000000815281600482015261018081602481895afa9081156109d857906fffffffffffffffffffffffffffffffff91869161318f575b501680613034575b5050505060025491803b15612521578180916024604051809481937f42966c680000000000000000000000000000000000000000000000000000000083528860048401525af1801561025257917fc760005d346d29e44ba975205c7389f46afff80f8dba5fb3a53445a183730095939181606094613024575b5050600255604051908152836020820152856040820152a19190565b61302d916125ec565b3881613008565b9193975091945061038442019081421161316257916040916130e3949383519261305d846125b3565b8352602083019081528383018a9052606083018a81526080840192835284517f0c49ccbe0000000000000000000000000000000000000000000000000000000081528451600482015291516fffffffffffffffffffffffffffffffff166024830152604090930151604482015291516064830152516084820152928390819060a4820190565b038189875af1918215610f345761310a926118515750604060025481519061048a82612568565b038189875af18015610f3457613134928790889261313e575b5061312e919261274a565b9361274a565b9338808080612f8f565b61312e925061315c915060403d6040116106115761060381836125ec565b91613123565b6024887f4e487b710000000000000000000000000000000000000000000000000000000081526011600452fd5b6131a891506101803d811161024b5761022d81836125ec565b50505050965050505050505038612f87565b9092506131d791945060403d6040116106115761060381836125ec565b9390939138612f28565b6004837fe45b643c000000000000000000000000000000000000000000000000000000008152fd5b73ffffffffffffffffffffffffffffffffffffffff60015416156133f55761322f612a8f565b509060009173ffffffffffffffffffffffffffffffffffffffff839216604051907f70a08231000000000000000000000000000000000000000000000000000000008252306004830152602082602481845afa9182156109d85785926133c1575b5081613394575b505073ffffffffffffffffffffffffffffffffffffffff16604051907f70a08231000000000000000000000000000000000000000000000000000000008252306004830152602082602481845afa918215612a4a5760009261335f575b5091816040937f0c875c8d391179c5cf7ad8303d268efd50b8beb78b671f85cd54bfb91eb8ef409593613331575b505082519182526020820152a1565b819250906133589173ffffffffffffffffffffffffffffffffffffffff6000541690613885565b3880613322565b90916020823d60201161338c575b8161337a602093836125ec565b810103126102855750519060406132f4565b3d915061336d565b816133b99173ffffffffffffffffffffffffffffffffffffffff809597541690613885565b929038613297565b9091506020813d6020116133ed575b816133dd602093836125ec565b810103126109cc57519038613290565b3d91506133d0565b7f3c6758630000000000000000000000000000000000000000000000000000000060005260046000fd5b519061ffff82168203610ee857565b73ffffffffffffffffffffffffffffffffffffffff60015416604051907f3850c7bd00000000000000000000000000000000000000000000000000000000825260e082600481845afa918215612a4a576000926137fa575b506004549163ffffffff8360481c1691821561379c57604051906134ab6060836125ec565b6002825260208201916040368437846134c38261396e565b5260006134cf826139aa565b526040519283917f883bdbfd0000000000000000000000000000000000000000000000000000000083526024830190602060048501525180915260448301919060005b81811061377d5750505091818060009403915afa908115612a4a5760009161366b575b5061354c613542826139aa565b5160060b9161396e565b5160060b900391667fffffffffffff83137fffffffffffffffffffffffffffffffffffffffffffffffffff800000000000008412176127575760060b9160060b918015612923577fffffffffffffffffffffffffffffffffffffffffffffffffffffffffffffffff81147fffffffffffffffffffffffffffffffffffffffffffffffffff80000000000000841416612757576135ec920560020b90612869565b600281900b600080821261360d575050905b60301c60020b9060020b131590565b9091507fffffffffffffffffffffffffffffffffffffffffffffffffffffffffff800000821461363e5703906135fe565b807f4e487b7100000000000000000000000000000000000000000000000000000000602492526011600452fd5b903d8082843e61367b81846125ec565b82019060408383031261028557825167ffffffffffffffff81116125215783019282601f850112156125215783516136b281613956565b946136c060405196876125ec565b81865260208087019260051b820101908582116109cc57602001915b8183106137635750505060208101519067ffffffffffffffff821161171a570182601f820112156125215780519160208061371685613956565b61372360405191826125ec565b858152019360051b8301019384116102855750602001905b82821061374b5750505038613535565b6020809161375884612643565b81520191019061373b565b82518060060b8103611c88578152602092830192016136dc565b825163ffffffff16845286945060209384019390920191600101613512565b60646040517f08c379a000000000000000000000000000000000000000000000000000000000815260206004820152601060248201527f545741505f57494e444f575f5a45524f000000000000000000000000000000006044820152fd5b909160e0823d60e01161387d575b8161381560e093836125ec565b810103126102855761382682612643565b5061383360208301612674565b916138406040820161341f565b5061384d6060820161341f565b5061385a6080820161341f565b5060a081015160ff8116036125215760c001518015150361028557509038613486565b3d9150613808565b9160209060009073ffffffffffffffffffffffffffffffffffffffff604051947fa9059cbb0000000000000000000000000000000000000000000000000000000084521660045260245260448180865af190600160005114821615613934575b604052156138f05750565b73ffffffffffffffffffffffffffffffffffffffff907f5274afe7000000000000000000000000000000000000000000000000000000006000521660045260246000fd5b90600181151661394c57823b15153d151616906138e5565b503d6000823e3d90fd5b67ffffffffffffffff81116125845760051b60200190565b80511561397b5760200190565b7f4e487b7100000000000000000000000000000000000000000000000000000000600052603260045260246000fd5b80516001101561397b5760400190565b92919260009373ffffffffffffffffffffffffffffffffffffffff604051937f095ea7b30000000000000000000000000000000000000000000000000000000087521660045260245260208460448180855af1936001815114851615613a22575b5050604052565b939193503b15153d151616913880613a1b565b919073ffffffffffffffffffffffffffffffffffffffff604051917f095ea7b3000000000000000000000000000000000000000000000000000000006000521660045260006024526020600060448180875af192600160005114841615613a9d575b50604052565b60018492941516613ab6573b15153d1516169138613a97565b833d6000823e3d90fd5b929173ffffffffffffffffffffffffffffffffffffffff604051927f095ea7b300000000000000000000000000000000000000000000000000000000600052166004526024526020600060448180875af192600160005114841615613a9d575060405256fea2646970667358221220d4c185a9ceea6649f6b9efca8b2e9b4f6df2e8deb1ef2dfe943b2a423422293964736f6c634300081e0033","linkReferences":{}},"methodIdentifiers":{"collectFees()":"c8796572","currentRange()":"dea92c6e","exitAndWithdrawAll()":"d5a3055f","exitPositionToVault()":"7ba45d59","lastRebalance()":"106b9ca1","maxTwapDeviationTicks()":"616ea557","maxWidth()":"6006ecc8","minCooldown()":"d6e8b9f3","minWidth()":"035229cf","nfpm()":"7303e913","openInitialPosition(int24,int24)":"a04cedd5","owner()":"8da5cb5b","pendingTokensOwed()":"bcb38807","pool()":"16f0115b","positionTokenId()":"ceefe5d1","rebalance(int24,int24)":"393ed075","rebalanceWithCaps(int24,int24,uint256,uint256)":"824518de","setPoolByFactory(address,address,uint24)":"7f8f878f","setPoolOnce(address)":"abc5d5fa","tokens()":"9d63848a","twapOk()":"c4f97bfb","twapWindow()":"8107e133","withdrawAll()":"853828b6"},"id":82}