{"abi":[{"type":"constructor","inputs":[{"name":"factory_","type":"address","internalType":"address"},{"name":"token0_","type":"address","internalType":"address"},{"name":"token1_","type":"address","internalType":"address"},{"name":"fee_","type":"uint24","internalType":"uint24"},{"name":"tickSpacing_","type":"int24","internalType":"int24"},{"name":"tick_","type":"int24","internalType":"int24"}],"stateMutability":"nonpayable"},{"type":"function","name":"factory","inputs":[],"outputs":[{"name":"","type":"address","internalType":"address"}],"stateMutability":"view"},{"type":"function","name":"fee","inputs":[],"outputs":[{"name":"","type":"uint24","internalType":"uint24"}],"stateMutability":"view"},{"type":"function","name":"observe","inputs":[{"name":"secondsAgos","type":"uint32[]","internalType":"uint32[]"}],"outputs":[{"name":"tickCumulatives","type":"int56[]","internalType":"int56[]"},{"name":"secondsPerLiquidityCumulativeX128","type":"uint160[]","internalType":"uint160[]"}],"stateMutability":"view"},{"type":"function","name":"slot0","inputs":[],"outputs":[{"name":"sqrtPriceX96","type":"uint160","internalType":"uint160"},{"name":"tick","type":"int24","internalType":"int24"},{"name":"observationIndex","type":"uint16","internalType":"uint16"},{"name":"observationCardinality","type":"uint16","internalType":"uint16"},{"name":"observationCardinalityNext","type":"uint16","internalType":"uint16"},{"name":"feeProtocol","type":"uint8","internalType":"uint8"},{"name":"unlocked","type":"bool","internalType":"bool"}],"stateMutability":"view"},{"type":"function","name":"tickSpacing","inputs":[],"outputs":[{"name":"","type":"int24","internalType":"int24"}],"stateMutability":"view"},{"type":"function","name":"ticks","inputs":[{"name":"","type":"int24","internalType":"int24"}],"outputs":[{"name":"liquidityGross","type":"uint128","internalType":"uint128"},{"name":"liquidityNet","type":"int128","internalType":"int128"},{"name":"feeGrowthOutside0X128","type":"uint256","internalType":"uint256"},{"name":"feeGrowthOutside1X128","type":"uint256","internalType":"uint256"},{"name":"tickCumulativeOutside","type":"int56","internalType":"int56"},{"name":"secondsPerLiquidityOutsideX128","type":"uint160","internalType":"uint160"},{"name":"secondsOutside","type":"uint32","internalType":"uint32"},{"name":"initialized","type":"bool","internalType":"bool"}],"stateMutability":"pure"},{"type":"function","name":"token0","inputs":[],"outputs":[{"name":"","type":"address","internalType":"address"}],"stateMutability":"view"},{"type":"function","name":"token1","inputs":[],"outputs":[{"name":"","type":"address","internalType":"address"}],"stateMutability":"view"}],"bytecode":{"object":"0x60803461011757601f61070638819003918201601f19168301916001600160401b0383118484101761011c5780849260c0946040528339810103126101175761004781610132565b9061005460208201610132565b61006060408301610132565b60608301519162ffffff831683036101175761008a60a061008360808701610146565b9501610146565b600080546001600160a01b039788166001600160a01b0319918216179091556001805493881693909116929092179091556002805460d09290921b62ffffff60d01b16929095166001600160e81b03199091161762ffffff60a01b60a09390931b929092169190911760b89290921b62ffffff60b81b16919091171790556040516105b190816101558239f35b600080fd5b634e487b7160e01b600052604160045260246000fd5b51906001600160a01b038216820361011757565b51908160020b82036101175756fe608080604052600436101561001357600080fd5b60003560e01c9081630dfe16811461045e575080633850c7bd146103e6578063883bdbfd1461021e578063c45a0155146101cc578063d0c93a7c1461018a578063d21220a714610138578063ddca3f43146100f45763f30dba931461007757600080fd5b346100ef5760207ffffffffffffffffffffffffffffffffffffffffffffffffffffffffffffffffc3601126100ef576004358060020b036100ef576101006040516000815260006020820152600060408201526000606082015260006080820152600060a0820152600060c0820152600060e0820152f35b600080fd5b346100ef5760007ffffffffffffffffffffffffffffffffffffffffffffffffffffffffffffffffc3601126100ef57602062ffffff60025460a01c16604051908152f35b346100ef5760007ffffffffffffffffffffffffffffffffffffffffffffffffffffffffffffffffc3601126100ef57602073ffffffffffffffffffffffffffffffffffffffff60025416604051908152f35b346100ef5760007ffffffffffffffffffffffffffffffffffffffffffffffffffffffffffffffffc3601126100ef57602060025460b81c60020b604051908152f35b346100ef5760007ffffffffffffffffffffffffffffffffffffffffffffffffffffffffffffffffc3601126100ef57602073ffffffffffffffffffffffffffffffffffffffff60005416604051908152f35b346100ef5760207ffffffffffffffffffffffffffffffffffffffffffffffffffffffffffffffffc3601126100ef5760043567ffffffffffffffff81116100ef57366023820112156100ef5780600401359067ffffffffffffffff82116100ef57602436918360051b0101116100ef5761029f61029a82610520565b6104ad565b8181526102ab82610520565b917fffffffffffffffffffffffffffffffffffffffffffffffffffffffffffffffe06020830193013684376102e261029a82610520565b928184526102ef82610520565b917fffffffffffffffffffffffffffffffffffffffffffffffffffffffffffffffe060208601930136843760005b8181106103ba5750506040519384936040850190604086525180915260608501929060005b81811061039e5750505060209084830382860152519182815201919060005b81811061036f575050500390f35b825173ffffffffffffffffffffffffffffffffffffffff16845285945060209384019390920191600101610361565b825160060b855287965060209485019490920191600101610342565b8060006103cd6001938899969798610538565b5260006103da8286610538565b5201949392919461031d565b346100ef5760007ffffffffffffffffffffffffffffffffffffffffffffffffffffffffffffffffc3601126100ef5760e060025460d01c60020b604051906c0100000000000000000000000082526020820152600060408201526000606082015260006080820152600060a0820152600160c0820152f35b346100ef5760007ffffffffffffffffffffffffffffffffffffffffffffffffffffffffffffffffc3601126100ef5760209073ffffffffffffffffffffffffffffffffffffffff600154168152f35b907fffffffffffffffffffffffffffffffffffffffffffffffffffffffffffffffe0601f604051930116820182811067ffffffffffffffff8211176104f157604052565b7f4e487b7100000000000000000000000000000000000000000000000000000000600052604160045260246000fd5b67ffffffffffffffff81116104f15760051b60200190565b805182101561054c5760209160051b010190565b7f4e487b7100000000000000000000000000000000000000000000000000000000600052603260045260246000fdfea264697066735822122043712215996f153cab90f7d877485300af2c4b7bec96542a69717fbac1c507e564736f6c634300081e0033","linkReferences":{}},"methodIdentifiers":{"factory()":"c45a0155","fee()":"ddca3f43","observe(uint32[])":"883bdbfd","slot0()":"3850c7bd","tickSpacing()":"d0c93a7c","ticks(int24)":"f30dba93","token0()":"0dfe1681","token1()":"d21220a7"},"id":106}